:020000040800F2
:10000000300A00209D010008FD2A0008572800083A
:100010009D2A0008A10700087132000800000000B6
:10002000000000000000000000000000952C000807
:100030002B0A0008000000001F2B0008252D0008D7
:10004000B7010008B7010008B7010008B7010008B0
:10005000B7010008B7010008B7010008B7010008A0
:10006000B7010008B7010008B7010008B701000890
:100070006D090008B7010008B7010008B7010008C2
:10008000B7010008B7010008B70100084D080008D3
:1000900019080008B7010008B7010008B7010008F7
:1000A000B7010008B7010008B7010008B701000850
:1000B000B7010008B7010008B7010008B701000840
:1000C000B7010008B7010008B7010008B701000830
:1000D000B701000899310008B7010008A5310008F0
:1000E000B7010008B7010008B7010008B701000810
:1000F000B7010008B7010008B7010008B701000800
:10010000B7010008B7010008B7010008B7010008EF
:10011000B7010008B7010008D92D0008B701000891
:10012000B7010008B7010008B7010008B7010008CF
:10013000B7010008B7010008B7010008B7010008BF
:10014000A9080008B7010008B7010008B7010008B6
:10015000B7010008B7010008B7010008B70100089F
:10016000B7010008B7010008B7010008B70100088F
:10017000B7010008B7010008B7010008000000003F
:10018000B7010008B7010008DFF80CD000F01CFA36
:1001900000480047FD330008300A00200648804729
:1001A00006480047FEE7FEE7FEE7FEE7FEE7FEE75C
:1001B000FEE7FEE7FEE7FEE7BD2D00088901000827
:1001C0002DE9F05F0546002092469B46884606468C
:1001D000814640241BE0284641464746224600F01F
:1001E0004FF953465A46C01A914110D3114618464A
:1001F000224600F036F92D1A67EB01084F462246D9
:100200000120002100F02DF917EB00094E41201EBE
:10021000A4F10104DFDC484631462A464346BDE8E6
:10022000F09FD2B201E000F8012B491EFBD27047CB
:100230000022F6E710B513460A4604461946FFF7B2
:10024000F0FF204610BD2DE9FE4F81EA030404F0C3
:10025000004421F0004100944FF0000B23F00043D4
:1002600050EA01045ED052EA03045BD0C3F30A549F
:10027000C1F30A552C44A4F2F3340194A0FB0254B8
:10028000C1F3130141F48011C3F3130343F480134A
:1002900001FB024400FB034E840A970A44EA81549E
:1002A00047EA8357A4FB076802958D0A05FB07857B
:1002B0004FEA932C04FB0C542705029D4FEA065885
:1002C00047EA1637B5EB08056EEB070C870E920E62
:1002D00047EA811742EA8312A7FB0201B6EB0B0142
:1002E00064EB00042B0D43EA0C335E1844EB1C5006
:1002F000DA465146E7FB0201C5F313044FEA0B331C
:1003000043EA14534FEA0432019C43EA0603A4F182
:100310000C040294009CCDE900B400F007F903B08E
:10032000BDE8F08F00200146F9E72DE9F04D81EAA4
:10033000030404F0004B21F0004514464FF0000A7E
:1003400023F0004150EA050220D054EA01021DD0FA
:10035000C5F30A570246C5F31303C1F31300C1F3F3
:100360000A5640F4801543F48013A7EB0608101BCF
:10037000D64608F2FD3873EB050002D308F10108F8
:1003800001E092185B41B8F1000F03DA002001464A
:10039000BDE8F08D00204FF48011064684460EE043
:1003A000171B73EB050705D3121B63EB050306430D
:1003B0004CEA010C49084FEA300092185B4150EAC0
:1003C0000107EDD152EA030012D082EA040083EA69
:1003D0000501084305D0101BAB4106D201220023C2
:1003E00006E000224FF0004302E06FF001025310DC
:1003F0001AEB06004CEB085110EB0A0041EB0B0125
:10040000BDE8F04D00F083B80EB5C10F80EAE07092
:100410000844CA07002140F233438DE80E000A4623
:100420000B4600F083F803B000BD01F0004330B488
:1004300021F0004150EA010206D00A0DA2F56072D7
:10044000C1F31301002A02DC30BC00207047440FC6
:1004500044EAC104C100E01830BC00EBC25000F017
:100460001FB8202A04DB203A00FA02F1002070476E
:100470009140C2F1200320FA03F3194390407047E2
:10048000202A04DB203A21FA02F00021704721FAE9
:1004900002F3D040C2F12002914008431946704750
:1004A0000029A8BF7047401C490008BF20F0010088
:1004B000704710B4B0FA80FC00FA0CF050EA010466
:1004C00004BF10BC704749B1CCF1200421FA04F4F8
:1004D00011FA0CF118BF012121430843A3EB0C01D1
:1004E000CB1D4FEA00614FEA102042BF002010BC34
:1004F000704700EBC35010440029A4BF10BC7047E4
:10050000401C490008BF20F0010010BC704710B526
:10051000141E73F1000408DA401C41F10001921826
:100520005B411A4301D120F0010010BD2DE9F04DCF
:1005300092469B4611B1B1FA81F202E0B0FA80F224
:1005400020329046FFF78DFF04460F4640EA0A002E
:1005500041EA0B0153465A46084313D0114653EA69
:10056000010019D0C8F140025046FFF789FF054647
:100570000E46504659464246FFF773FF084305D0E2
:10058000012004E020463946BDE8F08D00200543F7
:1005900046EAE0762C4337430A986305E40AA0EB69
:1005A00008000022FD0A44EA47540A3002D5002020
:1005B0000146E9E7010510196941DDE9084500191F
:1005C0006941BDE8F04DA2E7064C074D06E0E06842
:1005D00040F0010394E8070098471034AC42F6D38A
:1005E000FFF7D6FD143500083435000810B5026F4A
:1005F000C16D891A0A46C16400D5524203EE102A21
:10060000B8EEC33AB4EEE13AF1EE10FA02D8426D18
:100610000A444265D0ED151AB8EEE13AB4EEC23A9A
:10062000F1EE10FA02DDFDEEC21A0AE0B8EEE13A90
:10063000F1EE421AB4EEE13AF1EE10FA03D2FDEE19
:10064000E11AC0ED151A01EE901AF8EEE11A21EE4A
:10065000800ABDEEC00A10EE102A026690ED150A5F
:10066000B8EEC00A20EE200ABDEEC00A10EE104A15
:100670004466036DCB1A00EE103A0029B8EEC00AAA
:1006800020EE010ABDEEC00A10EE103A8366016545
:1006900000DA4942022901DC00211DE01119194448
:1006A00000EE101AB8EEC00AB4EEE20AF1EE10FA4B
:1006B00002DDBDEEE20A0CE000EE101AF8EEC00A10
:1006C000B1EE620AF4EEC00AF1EE10FA04D2BDEE09
:1006D000C00A80ED1B0A10BDC16610BDF1EE401AC4
:1006E000DFED282A31EEE02A70EEC00A26482849BC
:1006F000F0EE421A01EE222AB0EE600A41EE620AE2
:10070000B0EE403A41EE621A01EE223A80ED002A44
:100710009FED1E0AC0ED040A80ED083AC0ED0C1AE8
:1007200022EE001A60EE800A23EE002A61EE801AA3
:10073000B3EE030A80ED011A21EE001AC0ED050A9E
:1007400080ED092AC0ED0D1ABDEEC11A60EE800AD7
:1007500011EE100AFDEEE00A404288620D480E4993
:10076000C0ED0A0A62EE000A21EE800AFDEEE00A00
:10077000BDEEC00A10EE900A40428862074880ED44
:100780000A0A7047713D1E42D40500204276F43FAC
:1007900064010020E401002064020020E402002043
:1007A000FEE7000010B5A0F50070013810D0012858
:1007B00014D002281AD0032820D1114802F06FF972
:1007C00010490F4800F0B6F8BDE8104002F064BAD6
:1007D0000D4802F064F90D490B48F3E70A488030F0
:1007E00002F05DF908480A498030EBE70448803898
:1007F00002F055F9024807498038E3E710BD0000D0
:10080000E402002078000020640100203000002075
:100810004800002060000020014800F036BB0000C6
:100820006404002000B587B00822009000200290E8
:10083000CDE903028DF814000A4606AB694602486A
:1008400000F056F907B000BD64040020014800F034
:100850001CBB00006404002010B5A0F50070013836
:100860000ED0012815D10B4802F019F90A4A0B499C
:10087000084800BF02F043F9BDE8104002F038BA62
:100880000448803802F00BF90248054A05498038CF
:10089000F0E710BDE4030020C0000020D8000020D5
:1008A00090000020A8000020014800F0EEBA0000EF
:1008B0008C04002000B587B0082200900020029030
:1008C000CDE903028DF8140003460A466946024842
:1008D00000F00EF907B000BD8C04002010B58AB0FE
:1008E00001210020CDE90510039004900E24029010
:1008F000CDE9081400900190079169460B4800F07B
:1009000079F90A4800F03FFD0221084800F0DEF8BE
:1009100069460748059400F06DF9054800F033FD7D
:100920000221034800F0D2F80AB010BD6404002090
:100930008C04002091EC060A02F09BBC0A48B0F936
:10094000041000EE101AB0F90210B0F90000B8EE71
:10095000C01A00EE101AF8EEC00A00EE100AB8EE47
:10096000C00AFFF7BBBE000004010020014800F0F0
:1009700055BD00007405002001680A4BCAB2103A48
:10098000A3FB02321209084B9B5CC365032A04D9FE
:100990006FF30901091D816502E06FF309018165AB
:1009A000806D7047ABAAAAAAF23400080146002065
:1009B0008A6A8B69002B0FD0B3F5005F1DD08AB314
:1009C000012A30D0022A2ED0032A04D1C96A11F09C
:1009D000807F00D0012070471AB1012A07D0022A77
:1009E000F9D1C96A11F0807FF5D001207047C96A3A
:1009F000B1F1C07FFAD1012070475AB1012A0BD062
:100A0000022A07D0032AF7D1C96AB1F1C07FF3D116
:100A10000120704701207047C96A11F0807FFAD029
:100A200001207047FFE701207047704772B6FEE76C
:100A30002DE9F041204C40F294654FF4B6764FF426
:100A40008067B4F904002B463246394602F098FC20
:100A5000BDEEC00A19492B4610EE100A3246088036
:100A6000B4F90600394602F08BFCBDEEC00A144909
:100A7000F0EE080A10EE100A9FED121A0880B4F981
:100A800000001149A0F5806000EE100AB8EEC00A1F
:100A900060EE200A80EE810AF6EE000A20EE200ABF
:100AA000F0EE0C0A20EE600ABDEEC00A10EE100A4D
:100AB0000880BDE8F081000002000020060100204F
:100AC00004010020000025440801002090F82020A7
:100AD000012A07D0022A05D0416A41F480214162EF
:100AE000012070470068426911434161002070474E
:100AF00070B490F82040D0F800C0DCF808C0012C99
:100B000008D0022C06D0416A41F48021416270BCB9
:100B1000012070470CF080640CF000652C4302D17A
:100B20001CF0805F5FD0CCF3016CBCF1020F06D9E2
:100B3000416A41F40001416270BC01207047012408
:100B400004FA0CF41C608B684FF4C0749BB1CD6840
:100B500004EB0C162B434D6843EAC5030568AB5103
:100B60004FF4C273066803EB0C130D69F550097D51
:100B7000012909D00DE00D88CB6804EB0C1643EA7F
:100B800045530568AB51EBE70168CD5845F48075D6
:100B9000CD501179D379557941EA036193791B04DA
:100BA00043EA052319434FF4C675036805EB0C159A
:100BB00059511178D37841EA0361937852781B0434
:100BC00043EA022211434FF4C473026803EB0C138F
:100BD000D150016804EB0C100A5842F001020A508F
:100BE00070BC00207047416A41F40011416270BC42
:100BF0000120704790F82020012A07D0022A05D052
:100C0000416A41F480214162012070474248D0F896
:100C1000002242F00102C0F80022D0F8002222F4A3
:100C20007C52C0F80022D0F800224B6A42EA03222C
:100C3000C0F800220A7D012302F01F0203FA02F22B
:100C4000D0F81C329343C0F81C32CB69D3B9D0F82A
:100C50000C329343C0F80C32B1F80CC04B686CF303
:100C60001F43D1F814C000EBCC0CCCF84032B1F8E3
:100C700008C00B686CF31F43D1F814C000EBCC0C18
:100C8000CCF84432CB69012B1AD1D0F80C32134383
:100C9000C0F80C32B1F800C04B686CF31F43D1F8B8
:100CA00014C000EBCC0CCCF84032B1F808C0CB68D3
:100CB0006CF31F43D1F814C000EBCC0CCCF84432D9
:100CC0008B697BB1D0F804321343C0F804320B694E
:100CD00073B1D0F814321343C0F81432096A0129F1
:100CE0000CD010E0D0F804329343C0F80432EEE7A1
:100CF000D0F814329343C0F81432EFE7D0F81C1246
:100D00001143C0F81C12D0F8001221F00101C0F804
:100D1000001200207047000000640040704710B4CB
:100D200090F820C0BCF1010F09D0BCF1020F06D031
:100D3000416A41F48021416210BC0120704739B101
:100D4000D0F800C0DCF810C01CF0030F7DD006E026
:100D5000D0F800C0DCF80CC01CF0030F7BD04FF4BF
:100D6000D87C04680CEB011C54F80C4004F004041B
:100D70009460002C7DD0046854F80C40E408546062
:100D8000046854F80CC00CF0020CC2F80CC04FF40C
:100D9000DA7C04680CEB011C54F80C4004F00F04DE
:100DA0001461046854F80C40C4F307249461046887
:100DB00054F80CC04FEA1C4CC2F814C04FF4DC725B
:100DC000D0F800C002EB01125CF802C083F800C04A
:100DD000D0F800C05CF802C04FEA1C2C83F801C0B8
:100DE000D0F800C05CF802C04FEA1C4C83F802C087
:100DF000D0F800C05CF80220120EDA704FF4DE72F8
:100E0000D0F800C002EB01125CF802C083F804C005
:100E1000D0F800C05CF802C04FEA1C2C83F805C073
:100E2000D0F800C05CF802C04FEA1C4C83F806C042
:100E3000D0F800C05CF80220120EDA71F9B1006837
:100E4000016941F02001016102E00BE003E010E0E4
:100E500010BC00207047416A41F40011416210BC8F
:100E600001207047416A41F40011416210BC012029
:100E70007047046854F80C40640D146080E7006803
:100E8000C16841F02001C160DEE72DE9F05F054651
:100E9000002428684669D0F804908768D0F80CA030
:100EA000D0F810B0D0F8188016F0010F54D017F019
:100EB000010F17D00121816017F0020F03D02846DF
:100EC00000F094FA0EE017F0040F02D04FF4006423
:100ED00008E017F0080F02D04FF4805402E02846D3
:100EE00000F083FA17F4807F19D029684FF48070DE
:100EF000886017F4007F03D0284600F079FA0EE0EE
:100F000017F4806F02D044F4005408E017F4006F27
:100F100002D044F4804402E0284600F068FA17F456
:100F2000803F19D029684FF48030886017F4003F63
:100F300003D0284600F05EFA0EE017F4802F02D0AE
:100F400044F4004408E017F4002F02D044F4803445
:100F500002E0284600F04DFA16F0080F07D01AF00C
:100F6000100F04D044F4007429681020C86016F0F3
:100F7000040F4FF0080707D01AF0080F04D02868B4
:100F8000C760284600F0D6F916F0020F07D028688F
:100F9000C06810F0030F02D0284600F0CDF916F01B
:100FA000400F07D01BF0100F04D044F48064296870
:100FB0001020086116F0200F07D01BF0080F04D096
:100FC00028680761284600F0DBF916F0100F07D0FB
:100FD0002868006910F0030F02D0284600F0D1F90C
:100FE00016F4003F08D019F0100F05D02968102022
:100FF0004860284600F0C6F916F4803F07D019F083
:10100000080F04D028684760284600F0F4F916F469
:10101000004F4AD019F0040F44D016F4807F04D05A
:1010200018F0010F01D044F0010416F4007F04D041
:1010300018F0020F01D044F0020416F4806F04D0BF
:1010400018F0040F01D044F0040416F4006F29D006
:1010500018F0700F26D008F07000402815D006DC7C
:10106000102809D020280AD0302816D10AE05028AC
:101070000ED0602811D10EE044F008040DE044F0D9
:1010800010040AE044F0200407E044F0400404E0C7
:1010900044F0800401E044F480742868816921F000
:1010A00070018161296804204860002C05D0686ABD
:1010B000204368622846FFF731FEBDE8F09F70B517
:1010C0000446002C03D094F8200010B104E0012065
:1010D00070BD204600F0A8F82068016821F00201E8
:1010E000016000F057FC0546206840684FF0050697
:1010F00010F0020F11D000F04DFC401B0A2807D958
:10110000606A40F40030606284F82060012070BDA5
:101110002068406810F0020FEDD12068016841F0AE
:101120000101016000F036FC05462068406810F0BF
:10113000010F11D100F02EFC401B0A2807D9606A6C
:1011400040F40030606284F82060012070BD2068A7
:10115000406810F0010FEDD0207E01283FD02068BC
:10116000016821F080010160607E01283DD0206887
:10117000016821F040010160A07E01283BD0206879
:10118000016821F020010160E07E012839D020684B
:10119000016841F010010160207F012837D02068EC
:1011A000016821F008010160607F012835D02068C6
:1011B000016821F004010160E168A06862690843E8
:1011C0002169114308436168491E08432168C861C9
:1011D00000206062012084F82000002070BD20689B
:1011E000016841F080010160BEE72068016841F0BC
:1011F00040010160C0E72068016841F02001016002
:10120000C2E72068016821F010010160C4E720688E
:10121000016841F008010160C6E72068016841F0FB
:1012200004010160C8E70000F0B587B0044614214E
:101230006846FEF7FDFF3A4B3A48DFF8E0E01968F0
:10124000D4F800C0374A03250226092710300024AD
:10125000491CF4452AD11960012907D1016841F0E0
:1012600000710160006800F000700590106840F0A7
:10127000080010601068CDE9005600F00800CDE9C4
:10128000047069462848CDE9024500F047FA00227B
:101290000121132000F0EEFB132000F0DDFB002203
:1012A0000121142000F0E6FB142032E0DFF87CE09E
:1012B000F44530D1D0F800C04CF0806CC0F800C0CC
:1012C000D0F800C001290CF0806CCDF814C0196072
:1012D00007D1016841F000710160006800F0007002
:1012E0000590106840F002001060106802AB00F03A
:1012F000020005906020CDE9000683E8B000694651
:101300000B4800F00BFA00220121402000F0B2FB54
:10131000402000F0A1FB07B0F0BD000000640040D9
:101320002400002030380240000C024000680040D9
:10133000000402407047000010B5044688B0012048
:1013400001F08AFA0B4B6A4600212046FFF7E7FCC2
:101350000948844205D107490098FFF723FA08B0ED
:1013600010BD06488442FAD102490098FFF774FA8A
:10137000F5E7000028000020640400208C04002011
:1013800070477047704770B5044694F820000128F4
:1013900005D0606A40F400206062012070BD022028
:1013A00084F820002068016821F00101016000F04C
:1013B000F1FA05462068406810F0010F12D000F0E5
:1013C000E9FA401B0A2808D9606A40F400306062DC
:1013D000052084F82000012070BD2068406810F0CE
:1013E000010FECD10020606270BD704770477047FC
:1013F000704770477047704790F83510022903D046
:101400008021416501207047052180F83510006872
:10141000016821F001010160002070472DE9F843C7
:1014200004464FF00008CDF8008076484FF416517E
:101430000068B0FBF1F7A56D2E6894F85C000821F8
:1014400001FA00F0304211D02068026812F0040F57
:101450000CD0026822F00402026094F85C0001FAE9
:1014600000F0A860606D40F00100606594F85C00D9
:101470004FF0010909FA00F0304209D021684969AA
:1014800011F0800F04D0A860606D40F0020060652C
:1014900094F85C1004208840304209D02168096823
:1014A00011F0020F04D0A860606D40F00400606588
:1014B00094F85C1010208840304224D021680968DC
:1014C00011F0080F1FD0A8602068016811F4802F68
:1014D0000DD0006810F4002F04D0A16C99B1204603
:1014E000884710E0216C71B1204688470BE0016805
:1014F00011F4807F03D1016821F008010160216CA3
:1015000009B12046884794F85C102020884030427A
:1015100051D02168096811F0100F4CD0A86094F8E0
:10152000350005280DD02068016811F4802F32D0D5
:10153000006810F4002F29D0E16B59B3204688478A
:1015400039E02068016821F01601016020684169D6
:1015500021F080014161206C08B9A06C20B12068A5
:10156000016821F00801016094F85C003F2101FA54
:1015700000F0A86084F8348084F83590216D00294B
:101580003ED001B02046BDE8F0430847616C09B188
:10159000204688470FE0016811F4807F07D1016879
:1015A00021F01001016084F8348084F83590E16BFB
:1015B00009B120468847606D002821D0606D10F089
:1015C000010F15D0052084F835002068016821F04E
:1015D000010101600098401C0090B84204D82068C6
:1015E000006810F0010FF5D184F8348084F835904C
:1015F000E16C002904D001B02046BDE8F043084763
:10160000BDE8F883180100202DE9F041044600F000
:10161000C1F90546DCB1002684F83460022084F864
:1016200035002068016821F0010101602068006830
:1016300010F0010F13D000F0ADF9401B052809D9B7
:1016400020206065032084F83500BDE8F08101208A
:10165000BDE8F0812068006810F0010FEBD121682F
:101660000868234A1040A3686268D4F810C01A437F
:10167000E36843EA0C031A4363691A43A3691A43F4
:10168000E3691A43236A1A431043626A042A03D1A6
:10169000236BE26A1A43104308602068406920F017
:1016A0000701606A40EA0105012704280ED1A06AFB
:1016B0000543E06A50B12046FFF778F930B1402089
:1016C000606584F835700120BDE8F08120684561CF
:1016D0002046FFF751F994F85C103F2202FA01F11D
:1016E0008160666584F835700020BDE8F0810000F7
:1016F0003F8010F070B5044600F04CF90546B4F197
:10170000FF3F02D004480078044400F043F9401B36
:10171000A042FAD370BD00000C0100202DE9F84F63
:10172000002203248E4E8F4F0F25012303FA02F867
:101730000B6803EA080343457DD1D1F804C0BCF12E
:10174000010F08D0BCF1020F05D0BCF1110F02D07F
:10175000BCF1120F1DD1D0F808904FEA420C04FAE8
:101760000CFA29EA0A09D1F80CA00AFA0CFC4CEA96
:10177000090CC0F808C0D0F804C02CEA080C91F895
:101780000480C8F3001808FA02F848EA0C0CC0F804
:1017900004C0D0F80C904FEA420C04FA0CF829EA85
:1017A0000809D1F808A00AFA0CFA4AEA0909C0F8AF
:1017B0000C90D1F80490B9F1020F02D0B9F1120FD8
:1017C00015D14FEAD20900EB8909D9F820B04FEAC8
:1017D000427A4FEADA6A05FA0AFE2BEA0E0BD1F8D2
:1017E00010E00EFA0AFA4AEA0B0AC9F820A0D0F86B
:1017F000009029EA080891F8049009F0030909FA11
:101800000CFC4CEA080CC0F800C0D1F804C01CF075
:10181000805F10D0D6F800C04CF4804CC6F800C0F1
:10182000D6F800C00CF4804CCDF800C022F0030CB8
:101830000CF1804900E075E009F59839D9F808C83D
:101840004FEA82784FEA187805FA08FA2CEA0A0A71
:10185000A0F1804CBCF5003C6AD0A0F1804CBCF5F6
:10186000013C68D0A0F1804CBCF5023C66D0A0F1F0
:10187000804CBCF5033C64D0A0F1804CBCF5043C2A
:1018800062D0A0F1804CBCF5053C60D0A0F1804C4A
:10189000BCF5063C5ED0A0F1804CBCF5073C5CD0AA
:1018A0004FF0080C0CFA08FC4CEA0A0CC9F808C8FE
:1018B000DFF8B480D8F800C02CEA030CD1F804900B
:1018C00019F4803F01D04CEA030CC8F800C0DFF8DF
:1018D0009C80D8F800C02CEA030CD1F8049019F4CD
:1018E000003F01D04CEA030CC8F800C0D7F800C094
:1018F0002CEA030CD1F8048018F4801F01D04CEAC4
:10190000030CC7F800C0DFF86880D8F800C02CEAE4
:10191000030CD1F8049019F4001F01D04CEA030C19
:10192000C8F800C0521C102AFFF4FFAEBDE8F88FC3
:101930004FF0000CB6E74FF0010CB3E74FF0020C8C
:10194000B0E74FF0030CADE74FF0040CAAE74FF0FF
:10195000050CA7E74FF0060CA4E74FF0070CA1E732
:1019600044380240083C0140003C0140043C014036
:101970000C3C0140426931EA020201D081617047AA
:10198000090481617047002A01D081617047090410
:101990008161704701488068704700000C01002099
:1019A0000248816802781144816070470C01002070
:1019B00010B50B48016841F400710160016841F401
:1019C00080610160016841F480710160032000F0D2
:1019D00085F8002000F006F800F026F8002010BD81
:1019E000003C024070B504460D4D4FF47A712878E2
:1019F000B1FBF0F00B490968B1FBF0F000F0D8FB47
:101A000008B1012070BD102C07D200222146501EC3
:101A100000F030F86C60002070BD012070BD000047
:101A20000C010020180100200A4808B5016841F4A3
:101A300080410160006800F4804000900548001F6C
:101A4000016841F080510160006800F08050009012
:101A500008BD00004438024000280ADB00F01F01E6
:101A6000012202FA01F14009800000F1E020C0F8F3
:101A70000011704710B4184B1B68C3F30223C3F165
:101A8000070CBCF1040F01D94FF0040C1C1D072CEE
:101A900001D2002300E0DB1E012404FA0CFCACF1AF
:101AA000010C0CEA0101994004FA03F35B1E1A4091
:101AB0001143002806DB00F1E020090180F8001442
:101AC00010BC704700F00F0000F1E020090180F821
:101AD000141D10BC704700000CED00E000F0070082
:101AE000064A11684FF6FF03194041EA002040F012
:101AF000FD7040F080601060704700000CED00E069
:101B00002DE9F04704460D46002C13D0DFF8549120
:101B1000D9F80000EFB200F00F00A8420DD289F80A
:101B20000070D9F8000000F00F00A84205D0012095
:101B3000BDE8F0870120BDE8F08720684A4E10F02C
:101B4000020F14D010F0040F03D0306840F4E050BE
:101B50003060207810F0080F03D0306840F4604007
:101B600030603068A16820F0F000084330602078D1
:101B700010F0010F3ED060683C49012808D00228CF
:101B80000DD003280BD0096811F0020F28D00AE00D
:101B9000096811F4003F06D10120BDE8F08709680B
:101BA00011F0007F19D0316821F003010843306043
:101BB000FFF7F0FE80463068616800F00C00B0EB83
:101BC000810F17D041F2883AFFF7E4FEA0EB08003E
:101BD000504508D90320BDE8F0870120BDE8F08713
:101BE0000120BDE8F0873068616800F00C00B0EBC0
:101BF000810FE9D1D9F8000000F00F00A8420AD9FE
:101C000089F80070D9F8000000F00F00A84202D057
:101C10000120BDE8F087207810F0040F05D030686F
:101C2000E16820F4E05008433060207810F0080F9D
:101C300006D03068216920F4604040EAC10030607D
:101C400000F042F831680A4AC1F30311515CC84000
:101C50000849086008480068FFF7C4FE0020BDE896
:101C6000F0870000003C0240083802400038024083
:101C7000FA34000818010020100100200148006813
:101C8000704700001801002000B5FFF7F7FF044976
:101C90000968044AC1F38221515CC84000BD0000BC
:101CA000083802400A35000800B5FFF7E7FF04498D
:101CB0000968044AC1F34231515CC84000BD0000CC
:101CC000083802400A35000810B51748006810F0BF
:101CD0000C01164816D0164B042912D0082911D130
:101CE000144C216801F03F02216811F4800F0AD0E2
:101CF0002068C0F38810A0FB03010023FEF760FA00
:101D000009E0184610BD21680023C1F38811A1FB2A
:101D10000001FEF755FA2168C1F30141491C490051
:101D2000B0FBF1F010BD0000083802400024F400C0
:101D3000001BB700043802402DE9F84F0446002C80
:101D400012D02078FB4E10F0010FA6F1040563D0ED
:101D5000301D016801F00C0104290CD0006800F06E
:101D60000C00082803D010E00120BDE8F88F30688F
:101D700010F4800F09D0286810F4003F4CD0606840
:101D8000002849D10120BDE8F88F6068B0F5803F98
:101D900014D0B0F5A02F16D0286820F48030286029
:101DA000286820F480202860606810B3FFF7F2FDF7
:101DB0000746286810F4003F0ED02DE0286840F454
:101DC00080302860F0E7286840F480202860286888
:101DD00040F480302860E7E7FFF7DCFDC01B642893
:101DE00002D90320BDE8F88F286810F4003FF3D033
:101DF00012E0FFF7CFFD0746286810F4003F0BD034
:101E0000FFF7C8FDC01B642802D90320BDE8F88F86
:101E1000286810F4003FF3D12078C74F10F0020F6C
:101E20004FF0000957D0C548016811F00C0F14D0CD
:101E3000006800F00C00082803D1306810F4800F0F
:101E40000BD0E06880B301203860FFF7A3FD804627
:101E5000286810F0020F12D01EE0286810F0020F60
:101E600005D0E068012802D00120BDE8F88F28687D
:101E7000216920F0F80040EAC10028602BE0FFF75C
:101E800089FDA0EB0800022802D90320BDE8F88FE5
:101E9000286810F0020FF2D02868216920F0F800BD
:101EA00040EAC100286016E0FFE7C7F80090FFF79E
:101EB00071FD8046286810F0020F0CD0FFF76AFD14
:101EC000A0EB0800022802D90320BDE8F88F28689B
:101ED00010F0020FF2D1207810F0080F35D098489A
:101EE000DFF860A26169C1B101210160FFF752FD15
:101EF0008046DAF8000010F0020F26D1FFF74AFD05
:101F0000A0EB0800022802D90320BDE8F88FDAF818
:101F1000000010F0020FF1D017E0C0F80090FFF7BA
:101F200039FD8046DAF8000010F0020F0DD0FFF7FF
:101F300031FDA0EB0800022802D90320BDE8F88F8C
:101F4000DAF8000010F0020FF1D1207810F0040F41
:101F500071D04FF000087C48006810F0805F0AD113
:101F60007948016841F080510160006800F08050BC
:101F700000904FF00108DFF8D4B1DBF8000010F456
:101F8000807F1BD1DBF8000040F48070CBF80000AC
:101F9000FFF700FD8246DBF8000010F4807F0DD1D2
:101FA000FFF7F8FCA0EB0A00022802D90320BDE8E5
:101FB000F88FDBF8000010F4807FF1D0A068DFF824
:101FC00090B1012818D005281DD0DBF8000020F0C2
:101FD0000100CBF80000DBF8000020F00400CBF893
:101FE0000000A06840B3FFF7D5FC8246DBF8000094
:101FF00010F0020F14D03EE0DBF8000040F00100CA
:10200000CBF80000EDE7DBF8000040F00400CBF86F
:102010000000DBF8000040F00100CBF80000E0E732
:10202000FFF7B8FCA0EB0A0141F28830814204D9E5
:102030000320BDE8F88F26E005E0DBF8000010F093
:10204000020FEDD017E0FFF7A5FC8246DBF8000099
:1020500010F0020F0FD0FFF79DFCA0EB0A0141F238
:102060008830814202D90320BDE8F88FDBF80000F8
:1020700010F0020FEFD1B8F1010F04D1324801681E
:1020800021F080510160A069F0B32C49096801F08A
:102090000C01082968D0022810D0C7F86090FFF71B
:1020A00079FC0446286810F0007F7ED0FFF772FCB0
:1020B000001B022853D90320BDE8F88FC7F86090B1
:1020C000FFF768FC8046286810F0007F0CD0FFF70F
:1020D00061FCA0EB0800022802D90320BDE8F88FBC
:1020E000286810F0007FF2D1216AE069A26A0843F3
:1020F000616A4FF0FF33890103EB520241EA02416A
:10210000084394F82C1000E04FE040EA0160306092
:1021100001203866FFF73EFC0446286810F0007F77
:1021200043D1FFF737FC001B022813D90320BDE879
:10213000F88F00000438024000004742083802408F
:10214000800E474274380240403802400070004020
:1021500070380240286810F0007FE2D025E028683F
:1021600010F0007FA2D120E001281CD03068E26985
:1021700000F48001914214D1226A00F03F019142A3
:102180000FD147F6C071626A0140914209D1A26A3B
:1021900000F44031914204D1E16A00F0706088425D
:1021A00003D00120C3E70120C1E70020BFE7000002
:1021B000401EB0F1807F01D3012070474FF0E02135
:1021C0004861044AF02010700020886107200861EF
:1021D0000020704723ED00E07047704730B490F85E
:1021E0003C20012A44D0012480F83C40022280F89F
:1021F0003D200268D2F804C093682CF0700C0D6882
:1022000045EA0C0CC2F804C00268A2F1804CBCF58F
:10221000803C20D0B2F1804F1DD0A2F1804CBCF5A3
:10222000806C18D0A2F1804CBCF5006C13D0A2F1E8
:10223000804CBCF5406C0ED0A2F1804CBCF5823CC9
:1022400009D0A2F1804CBCF5A03C04D0A2F1804C96
:10225000BCF5C05C04D123F0800349681943916048
:1022600080F83D40002180F83C1030BC00207047D1
:1022700030BC0220704710B50446002C03D094F8FF
:102280003D0010B107E0012010BD002084F83C00A3
:10229000204600F00DF8022084F83D00211D206842
:1022A00000F0A0FD012084F83D00002010BD0000DA
:1022B00008B500680B49884212D10B48016841F00B
:1022C000100101600068002200F010000090012160
:1022D0003620FFF7CFFBBDE808403620FFF7BCBB38
:1022E00008BD000000100040403802400168CA6884
:1022F00042F00102CA600068816801F00701062906
:1023000003D0016841F0010101600020704770476F
:1023100070B50446206801694FF0000511F0020F06
:1023200017D0C16811F0020F13D0E91E016101201E
:1023300020772068806910F0030F03D02046FFF754
:10234000E6FF05E0204600F09DF8204600F09BF8EF
:1023500025772068016911F0040F18D0C16811F0C9
:10236000040F14D06FF0040101610220207720686F
:10237000806910F4407F03D02046FFF7C8FF05E0D6
:10238000204600F07FF8204600F07DF82577206891
:10239000016911F0080F18D0C16811F0080F14D0AE
:1023A0006FF008010161042020772068C06910F0F7
:1023B000030F03D02046FFF7AAFF05E0204600F0F8
:1023C00061F8204600F05FF825772068016911F078
:1023D000100F18D0C16811F0100F14D06FF0100159
:1023E0000161082020772068C06910F4407F03D085
:1023F0002046FFF78CFF05E0204600F043F820461A
:1024000000F041F825772068016911F0010F09D02B
:10241000C16811F0010F05D06FF001010161204684
:1024200000F032F82068016911F0800F09D0C1680E
:1024300011F0800F05D06FF0800101612046FFF799
:10244000CBFE2068016911F0400F09D0C16811F07E
:10245000400F05D06FF040010161204600F068F8A0
:102460002068016911F0200F0BD0C16811F0200F16
:1024700007D06FF0200101612046BDE87040FFF7F2
:10248000ACBE70BD7047704770B5254D254C264ECB
:102490002868411C03D102212161091F3161401CC0
:1024A0004FF42F7190FBF1F2286001FB120028B964
:1024B000FEF7BEFAFEF742FA00F0DEFB1B48807A18
:1024C000012802D0022806D00BE0E06D1438E06548
:1024D000F06D143004E0E06D1430E065F06D1438F8
:1024E000F065E16D0020002900DDE065F16D002957
:1024F00000DAF0652868B0F5FA7F09D100F0B4F988
:10250000E06D6860206FA860E06CE860E06E2861B4
:102510002868B0F57A7F01DB0120286070BD0000DB
:10252000F000002064030020E403002002000020EB
:102530007047704710B5044622681068D168526928
:1025400000F00F03002B0AD110F0200F07D011F07C
:10255000200F04D02046BDE8104000F0CCBC002B7A
:1025600071D002F0010301F4907C53EA0C0C6AD0A4
:1025700010F0010F08D011F4807F05D0D4F83CC0D2
:102580004CF0010CC4F83CC010F0040F08D012F05D
:10259000010F05D0D4F83CC04CF0020CC4F83CC08C
:1025A00010F0020F06D012F0010F03D0E26B42F0E0
:1025B0000402E26310F0080F07D001F020021A4372
:1025C00003D0E26B42F00802E263E26B002A2ED0F5
:1025D00010F0200F05D011F0200F02D0204600F09F
:1025E0008AFC20684069C0F38010E16B11F0080F8D
:1025F00000D108B3204600F063FC2068416911F067
:10260000400F15D0416921F040014161606B58B124
:1026100018490165606BFEF7EFFE002807D0606B7C
:10262000016DBDE8104008472046FFF782FF10BD4E
:102630002046FFF77EFF10BD2046FFF77AFF0020FF
:10264000E06310BDFFE710F0800F07D011F0800F9E
:1026500004D02046BDE8104000F06ABD10F0400FE5
:10266000EFD011F0400FECD02046BDE8104000F054
:1026700035BC0000B12E000870B50446002C04D013
:1026800094F83900002510B106E0012070BD84F8EF
:102690003850204600F022F8242084F839002068C1
:1026A000C16821F40051C160204600F073FC20682D
:1026B000016921F4904101612068416921F02A01FA
:1026C00041612068C16841F40051C160E563202088
:1026D00084F8390084F83A00002070BDF0B587B066
:1026E000054614216846FDF7A3FD414B29680024E7
:1026F0004048022603270722994236D13D49254604
:1027000014310B6843F010030B60096801F01001ED
:102710000591016841F002010160016801F00201C8
:102720000591016841F0010101600068029500F027
:10273000010005908020CDE90006CDE90372144622
:1027400069462D48FEF7EAFF3002CDE90006029502
:10275000CDE9037469462948FEF7E0FF00221146DF
:102760002520FFF787F925203EE0254B99423DD1F2
:10277000204910310B6843F480230B60096801F491
:1027800080210591016841F0040101600068029414
:1027900000F0040005904FF44060CDE90006CDE95B
:1027A000037269461748FEF7B9FF184E16483060A5
:1027B0004FF00060C6E901044014C6E903408010F0
:1027C0007461C6E906400002C6E908043046FEF717
:1027D0001BFF08B1FEF72AF96E63002201212720B2
:1027E000B563FFF747F92720FFF736F907B0F0BDCB
:1027F0000010014030380240000402400000024056
:102800000048004000080240286002407405002093
:10281000704790F83930202B01D002207047A9B1C1
:10282000A2B190F83830012B12D001628284C284A8
:102830000021C163212280F8392080F83810006817
:10284000C16841F08001C1600020704701207047DD
:10285000022070477047FEE702464FF4806101484E
:10286000FFF791B8001C02404FF400610148FFF7E8
:1028700081B80000001C024002464FF4805101481C
:10288000FFF781B8001C0240044AD01E017843784B
:1028900041EA031111708078507070471B000020CE
:1028A0000F4810B50D4901600321416000214FF42C
:1028B00080228160C0E903124FF4E0024261017698
:1028C00041768176C17601774177FEF7F8FB0028E3
:1028D00003D0BDE81040FEF7A9B810BD0064004069
:1028E000640400200F4810B50D49016003214160C8
:1028F00000214FF480228160C0E903124FF4E0020E
:102900004261017641768176C17601774177FEF7A3
:10291000D6FB002803D0BDE81040FEF787B810BDF5
:10292000006800408C040020094808B5016841F4A3
:10293000001101600068002200F4001000901146B0
:102940000C20FFF797F8BDE808400C20FFF784B88B
:102950003038024070B586B014216846FDF768FC37
:102960001E480025016841F002010160016801F084
:1029700002010591016841F001010160016801F067
:1029800001010591016841F008010160016801F051
:1029900008010591016841F004010160016801F03E
:1029A00004010591016841F08001016000680C4E4E
:1029B00000F080004FF4E05405900022214630469C
:1029C000FEF7E1FF0120CDE900400320CDE90250F0
:1029D00069463046FEF7A2FE06B070BD30380240B0
:1029E000001C02401CB500240E4800940C490194C0
:1029F00001605321C0E9011440F2E7318461C160F4
:102A0000FFF739FC08B1FEF711F800946946054854
:102A10000194FFF7E3FB002801D0FEF707F81CBD87
:102A200000100040B40400200C4810B50A490160B1
:102A30004FF416514160002181600C22C160C0E951
:102A400004128161C161FFF717FE002803D0BDE8C1
:102A50001040FDF7EBBF10BD00100140F404002052
:102A60000C4810B50A4901600B49416000218160A2
:102A70000C22C160C0E904128161C161FFF7FCFD55
:102A8000002803D0BDE81040FDF7D0BF10BD000006
:102A90000048004034050020A0860100FEE730B564
:102AA000836DC3604A780C7802EB042212B282650F
:102AB000CC788D7804EB052424B2C4624C790D796E
:102AC00004EB052424B2446144683CB94C7809788D
:102AD00004EB012109B2016001214160D31A0169AF
:102AE000B3F5805F01DD491E03E013F5805F01DA75
:102AF000491C016102EB4131016730BDFEE730B591
:102B0000144691EC060A0546FDF770FDE86EA862D2
:102B1000284694EC060ABDE8304000F0AABB704796
:102B2000002801DC404200B27047000070B5194C2B
:102B3000B4F90000FFF7F4FF40F29465A84217DCF7
:102B4000B4F90200FFF7ECFFA84211DCB4F904006D
:102B5000FFF7E6FFA8420BDCB4F90600FFF7E0FF41
:102B6000A84205DCA07A18B1E07A08B1002070BD57
:102B7000002020806080A080E08020810221A1725E
:102B8000E172A081E0812082A074E074A082012023
:102B900070BD00000200002030B5144B1C68656950
:102BA00045F0400565611B68DC6844F01004DC609A
:102BB0000F4B1C68256825F0010525601C682568F9
:102BC000ED07F7D11D680B4CAC601C68E06018681D
:102BD0000161186842601868016841F48021016051
:102BE0001868016841F00101016030BD3405002022
:102BF000740500200448004038B51B480168CA68C5
:102C000022F40052CA60194A11680B6823F00103CC
:102C10000B601368242159600068016841680091C5
:102C2000134C13684FF40011A34202D9104B4C3BD4
:102C300004E0104CA34203D90D4B503B196008E04F
:102C40000C4D0C4C603DB83CAB4201D9E16000E05A
:102C5000A160C16841F40051C1601068016841F091
:102C60000101016038BD000034050020740500201A
:102C700058640240B860024010B5FFF705FEBDE899
:102C80001040082201490248FFF7C3BD1B00002085
:102C9000F4040020704700001CB51448C26B826128
:102CA000803000F18003C16B8161D86B03F1800437
:102CB0009861E36BA361140A8DF800408DF8012040
:102CC0000A0A8DF802208DF80310010A8DF804100D
:102CD0008DF80500180A8DF806008DF80730694652
:102CE0004FF40070FDF79EFD1CBD00006401002044
:102CF0001CB50B4901F18002C86B8861D16B9161F1
:102D0000020A8DF800208DF80100080A8DF80200F3
:102D10008DF8031069464FF40070FDF7CBFD1CBD24
:102D200064030020FEF73CBE30B593B03021684606
:102D3000FDF77EFA14210CA8FDF77AFA1D4800254C
:102D4000016841F080510160006800F080501190EE
:102D50001948016841F4804101600068022400F4D0
:102D60008040119001200090000401908001CDE985
:102D7000064006200890A820CDE9090404200B9005
:102D80006846FEF7D9FF08B172B6FEE70CA90F201E
:102D900081E831004FF4A0500F904FF48050109014
:102DA00005210CA8FEF7ACFE002801D072B6FEE7A4
:102DB00013B030BD40380240007000400448016844
:102DC00041F47001016003494FF0006008607047F2
:102DD00088ED00E008ED00E00148FFF799BA000037
:102DE000B4040020F0B402682C4B2D4C2D4D2E4E17
:102DF000DFF8B8C098420AD0B0F1804F07D0A042A7
:102E000005D0A84203D0B04201D0604503D122F0E2
:102E100070024F683A43984228D0B0F1804F25D0D5
:102E2000A04223D0A84221D0B0421FD060451DD07F
:102E3000A0F18044B4F5A03418D0A0F18044B4F5DA
:102E4000A23413D0A0F18044B4F5A4340ED0A0F184
:102E50008044B4F5C05409D0A0F18044B4F5E054E6
:102E600004D0A0F18044B4F5005403D122F44072A0
:102E7000CC6822434C6922F08002224302608A68B7
:102E8000C2620A688262984201D0604501D1096934
:102E9000016301214161F0BC704700000000014066
:102EA0000004004000080040000C00400004014005
:102EB00010B5806B0021C185C184FFF73AFB10BDBE
:102EC0000168CA6822F49072CA6001684A6922F0F7
:102ED00001024A61202180F83A10704710B501685C
:102EE000CA6822F04002CA60202180F83910FFF73A
:102EF000B1FC002010BD10B590F83A10222901D085
:102F0000022010BD8168B1F5805F11D0016919B34D
:102F10000168496801F07F02816A4B1C83620A7074
:102F2000C18D491E0904090CC1851CD0002010BDAB
:102F3000816A02693AB102685268D2B20A80816A33
:102F4000491C8162ECE702685268C2F308020A80F9
:102F5000816A891C8162E3E701684A68816A4B1CC7
:102F600083620A70DCE70168CA6822F02002CA6046
:102F70000168CA6822F48072CA6001684A6922F056
:102F800001024A61202180F83A10FFF741FC00203D
:102F900010BD00002DE9F041044620680169E26897
:102FA00021F44051114301612169A068E26908439D
:102FB0006169114301432068C26822F4037222F45C
:102FC00014421143C16020684169A26921F4407133
:102FD00011434161E0695349534A1927534D322641
:102FE0004FF00008B0F5004F27D02068904201D084
:102FF000884274D1FEF758FE01466068830F820054
:10300000A1FB0701FDF7DCF80146A5FB0020400904
:103010006FF01802424301EB820106EB0111A5FBA0
:103020000121490901F0F00202EB001001F00F014B
:10303000084421688860BDE8F0812068904201D092
:10304000884225D1FEF730FE014660680218A1FBD8
:10305000070148EB0803FDF7B3F80346A5FB001092
:10306000410918460A016FF01803594300EB81002B
:1030700006EBC000A5FB0010400900F0F80102EBD0
:10308000410100F00700084421688860BDE8F08134
:10309000FEF7FAFD014660680218A1FB070148EB44
:1030A0000803FDF78DF80346A5FB001041091846FB
:1030B0000A016FF01803594300EB810006EBC000D2
:1030C000A5FB0010400900F0F80102EB410100F0FF
:1030D0000700084421688860BDE8F081FFE7FEF73B
:1030E000D3FD01466068830F8200A1FB0701FDF755
:1030F00067F80146A5FB002040096FF01802424323
:1031000001EB820106EB0111A5FB0121490901F048
:10311000F00202EB001001F00F0108442168886002
:10312000BDE8F08100140140001001401F85EB5103
:1031300090F83910212901D0022070478168B1F53B
:10314000805F0CD0016A4A1C0262026809785160F3
:10315000C18C491E0904090CC18410D019E0016A10
:1031600002680988C1F308015160016919B1016A57
:10317000491C0162ECE7016A891C0162E8E7016809
:10318000CA6822F08002CA600068C16841F040014C
:10319000C1600020704700000148FFF7CBB9000074
:1031A000F404002038B50120FFF756FB2A480068D8
:1031B0000168890603D501684068009038BD274939
:1031C0000968C906FAD501684068254A0090106868
:1031D00001684FF024030C032249046824F0010421
:1031E000046016D414686068C0F1240080B20880BE
:1031F000636011680B6843F400230B6011680A6870
:1032000042F001020A601228D8D116491648891CDA
:1032100016E010684468C4F12404A4B20C80436032
:103220001248816A21F4002181621068016841F02E
:1032300001010160122CC1D10A490B48891C2430BC
:1032400000F00CF9FFF772FC0128B7D1BDE8384057
:103250002420FFF7D1BC00003405002000480040C6
:1032600074050020000000201C01002000600240C6
:10327000FEE710B5D0E90A12891A0A46C16100D5E5
:10328000524203EE102AB8EEC33AB4EEE13AF1EE40
:1032900010FA02D8426A0A444262D0ED091AB8EE26
:1032A000E13AB4EEC23AF1EE10FA02DDFDEEC21AD6
:1032B0000AE0B8EEE13AF1EE421AB4EEE13AF1EE8C
:1032C00010FA03D2FDEEE11AC0ED091A01EE901AD0
:1032D000F8EEE11A21EE800ABDEEC00A10EE102AC7
:1032E000026390ED090AB8EEC00A20EE200ABDEE96
:1032F000C00A10EE104A4463036ACB1A00EE103A7B
:103300000029B8EEC00A20EE010ABDEEC00A10EE98
:10331000103A8363016200DA4942022901DC00218C
:103320001DE01119194400EE101AB8EEC00AB4EEEF
:10333000E20AF1EE10FA02DDBDEEE20A0CE000EE68
:10334000101AF8EEC00AB1EE620AF4EEC00AF1EE0D
:1033500010FA04D2BDEEC00A80ED0F0A10BDC163A1
:1033600010BD02E008C8121F08C1002AFAD1704738
:103370007047002001E001C1121F002AFBD17047F5
:1033800070B59FED190A8D1C2DED068B441AA842CD
:103390009FED16AB9FED179B07DB581A801EFDF7BC
:1033A00033F841EC180BA01E09E08B1E984218DC84
:1033B000881A801EFDF728F841EC180BA01CFDF7B9
:1033C00023F853EC1A2BFCF73EFF53EC182BFCF7B9
:1033D000ACFF53EC192BFCF736FFFDF726F800EE97
:1033E000100ABDEC068B70BD00000000000000005C
:1033F000000008400000000000805140FEF7D8FAAD
:10340000FFF792FCFFF7A6FAFFF78EFAFFF748FAEC
:10341000FFF7E8FAFFF766FAFFF722FBFFF704FB76
:10342000FDF75CFA00F012F80748FEF75FFF012095
:10343000FFF722FA6420FEF75DF90020FFF71CFA7F
:103440006420FEF757F9F2E7B40400200249242271
:10345000A1F12400FFF7A0BB40010020002847D0C5
:10346000002945D00278437842EA0322C2F30A02D7
:103470000A8042788378D20842EA4312C2F30A02F1
:103480004A808278C378920942EA8302037942EA49
:103490008322C2F30A028A8002794379520842EAFF
:1034A000C312C2F30A02CA804279C2F301128A72BD
:1034B00042799209CA728279C37942EA03228A81E7
:1034C000027A437A42EA0322CA81827AC37A42EAC2
:1034D00003220A82027B8A74427BCA74827BC37B8A
:1034E00042EA03228A82027C407C42EA0020088170
:1034F00070470006101600061016000000000000BD
:103500000000010203040607080900000000010290
:103510000304000034350008000000201C010000F6
:1035200062330008503600081C0100201409000016
:1035300072330008000000040004000400040200CC
:103540000200000000000000000000000000000079
:10355000000000000000000000000000000000006B
:1035600000000000000000419A99993F0000003FD0
:1035700000401C4600401C4600401C460000004124
:103580009A99993F0000003F00401C4600401C46AD
:1035900000401C46000000419A99993F0000003FFE
:1035A00000401C4600401C4600401C4600000041F4
:1035B0009A99993F0000003F00401C4600401C467D
:1035C00000401C460000003F0000003F00000000DB
:1035D00000401C4600401C4600401C460000803F46
:1035E000000000000000C84200401C460000C84225
:1035F00000007A440000003F0000003F000000008F
:1036000000401C4600401C4600401C460000803F15
:10361000000000000000C84200401C460000C842F4
:1036200000007A44FFFFFFFF0000000000000000E0
:10363000000000000000000000000000000000008A
:103640000100000010000000000000000024F40051
:040000050800018965
:00000001FF
