:020000040800F2
:10000000E00900209D01000805240008AD2100083A
:10001000A5230008A10700088D29000800000000A2
:100020000000000000000000000000008125000822
:10003000F509000800000000272400081126000828
:10004000B7010008B7010008B7010008B7010008B0
:10005000B7010008B7010008B7010008B7010008A0
:10006000B7010008B7010008B7010008B701000890
:100070006D090008B7010008B7010008B7010008C2
:10008000B7010008B7010008B70100084D080008D3
:1000900019080008B7010008B7010008B7010008F7
:1000A000B7010008B7010008B7010008B701000850
:1000B000B7010008B7010008B7010008B701000840
:1000C000B7010008B7010008B7010008B701000830
:1000D000B7010008B7010008B7010008C1280008EF
:1000E000B7010008B7010008B7010008B701000810
:1000F000B7010008B7010008B7010008B701000800
:10010000B7010008B7010008B7010008B7010008EF
:10011000B7010008B7010008C5260008B7010008AC
:10012000B7010008B7010008B7010008B7010008CF
:10013000B7010008B7010008B7010008B7010008BF
:10014000A9080008B7010008B7010008B7010008B6
:10015000B7010008B7010008B7010008B70100089F
:10016000B7010008B7010008B7010008B70100088F
:10017000B7010008B7010008B7010008000000003F
:10018000B7010008B7010008DFF80CD000F01CFA36
:1001900000480047392B0008E00900200648804746
:1001A00006480047FEE7FEE7FEE7FEE7FEE7FEE75C
:1001B000FEE7FEE7FEE7FEE7A92600088901000842
:1001C0002DE9F05F0546002092469B46884606468C
:1001D000814640241BE0284641464746224600F01F
:1001E0004FF953465A46C01A914110D3114618464A
:1001F000224600F036F92D1A67EB01084F462246D9
:100200000120002100F02DF917EB00094E41201EBE
:10021000A4F10104DFDC484631462A464346BDE8E6
:10022000F09FD2B201E000F8012B491EFBD27047CB
:100230000022F6E710B513460A4604461946FFF7B2
:10024000F0FF204610BD2DE9FE4F81EA030404F0C3
:10025000004421F0004100944FF0000B23F00043D4
:1002600050EA01045ED052EA03045BD0C3F30A549F
:10027000C1F30A552C44A4F2F3340194A0FB0254B8
:10028000C1F3130141F48011C3F3130343F480134A
:1002900001FB024400FB034E840A970A44EA81549E
:1002A00047EA8357A4FB076802958D0A05FB07857B
:1002B0004FEA932C04FB0C542705029D4FEA065885
:1002C00047EA1637B5EB08056EEB070C870E920E62
:1002D00047EA811742EA8312A7FB0201B6EB0B0142
:1002E00064EB00042B0D43EA0C335E1844EB1C5006
:1002F000DA465146E7FB0201C5F313044FEA0B331C
:1003000043EA14534FEA0432019C43EA0603A4F182
:100310000C040294009CCDE900B400F007F903B08E
:10032000BDE8F08F00200146F9E72DE9F04D81EAA4
:10033000030404F0004B21F0004514464FF0000A7E
:1003400023F0004150EA050220D054EA01021DD0FA
:10035000C5F30A570246C5F31303C1F31300C1F3F3
:100360000A5640F4801543F48013A7EB0608101BCF
:10037000D64608F2FD3873EB050002D308F10108F8
:1003800001E092185B41B8F1000F03DA002001464A
:10039000BDE8F08D00204FF48011064684460EE043
:1003A000171B73EB050705D3121B63EB050306430D
:1003B0004CEA010C49084FEA300092185B4150EAC0
:1003C0000107EDD152EA030012D082EA040083EA69
:1003D0000501084305D0101BAB4106D201220023C2
:1003E00006E000224FF0004302E06FF001025310DC
:1003F0001AEB06004CEB085110EB0A0041EB0B0125
:10040000BDE8F04D00F083B80EB5C10F80EAE07092
:100410000844CA07002140F233438DE80E000A4623
:100420000B4600F083F803B000BD01F0004330B488
:1004300021F0004150EA010206D00A0DA2F56072D7
:10044000C1F31301002A02DC30BC00207047440FC6
:1004500044EAC104C100E01830BC00EBC25000F017
:100460001FB8202A04DB203A00FA02F1002070476E
:100470009140C2F1200320FA03F3194390407047E2
:10048000202A04DB203A21FA02F00021704721FAE9
:1004900002F3D040C2F12002914008431946704750
:1004A0000029A8BF7047401C490008BF20F0010088
:1004B000704710B4B0FA80FC00FA0CF050EA010466
:1004C00004BF10BC704749B1CCF1200421FA04F4F8
:1004D00011FA0CF118BF012121430843A3EB0C01D1
:1004E000CB1D4FEA00614FEA102042BF002010BC34
:1004F000704700EBC35010440029A4BF10BC7047E4
:10050000401C490008BF20F0010010BC704710B526
:10051000141E73F1000408DA401C41F10001921826
:100520005B411A4301D120F0010010BD2DE9F04DCF
:1005300092469B4611B1B1FA81F202E0B0FA80F224
:1005400020329046FFF78DFF04460F4640EA0A002E
:1005500041EA0B0153465A46084313D0114653EA69
:10056000010019D0C8F140025046FFF789FF054647
:100570000E46504659464246FFF773FF084305D0E2
:10058000012004E020463946BDE8F08D00200543F7
:1005900046EAE0762C4337430A986305E40AA0EB69
:1005A00008000022FD0A44EA47540A3002D5002020
:1005B0000146E9E7010510196941DDE9084500191F
:1005C0006941BDE8F04DA2E7064C074D06E0E06842
:1005D00040F0010394E8070098471034AC42F6D38A
:1005E000FFF7D6FD4C2C00086C2C000810B5026FEC
:1005F000C16D891A0A46C16400D5524203EE102A21
:10060000B8EEC33AB4EEE13AF1EE10FA02D8426D18
:100610000A444265D0ED151AB8EEE13AB4EEC23A9A
:10062000F1EE10FA02DDFDEEC21A0AE0B8EEE13A90
:10063000F1EE421AB4EEE13AF1EE10FA03D2FDEE19
:10064000E11AC0ED151A01EE901AF8EEE11A21EE4A
:10065000800ABDEEC00A10EE102A026690ED150A5F
:10066000B8EEC00A20EE200ABDEEC00A10EE104A15
:100670004466036DCB1A00EE103A0029B8EEC00AAA
:1006800020EE010ABDEEC00A10EE103A8366016545
:1006900000DA4942022901DC00211DE01119194448
:1006A00000EE101AB8EEC00AB4EEE20AF1EE10FA4B
:1006B00002DDBDEEE20A0CE000EE101AF8EEC00A10
:1006C000B1EE620AF4EEC00AF1EE10FA04D2BDEE09
:1006D000C00A80ED1B0A10BDC16610BDF1EE401AC4
:1006E000DFED282A31EEE02A70EEC00A26482849BC
:1006F000F0EE421A01EE222AB0EE600A41EE620AE2
:10070000B0EE403A41EE621A01EE223A80ED002A44
:100710009FED1E0AC0ED040A80ED083AC0ED0C1AE8
:1007200022EE001A60EE800A23EE002A61EE801AA3
:10073000B3EE030A80ED011A21EE001AC0ED050A9E
:1007400080ED092AC0ED0D1ABDEEC11A60EE800AD7
:1007500011EE100AFDEEE00A404288620D480E4993
:10076000C0ED0A0A62EE000A21EE800AFDEEE00A00
:10077000BDEEC00A10EE900A40428862074880ED44
:100780000A0A7047713D1E42880500204276F43FF8
:1007900058010020D801002058020020D802002073
:1007A000FEE7000010B5A0F50070013810D0012858
:1007B00014D002281AD0032820D1114801F0F3FDEB
:1007C00010490F4800F0B6F8BDE8104001F0DABE5D
:1007D0000D4801F0E8FD0D490B48F3E70A48803069
:1007E00001F0E1FD08480A498030EBE70448803811
:1007F00001F0D9FD024807498038E3E710BD000049
:10080000D80200207C000020580100203400002085
:100810004C00002064000020014800F0AEBA000047
:100820005804002000B587B00822009000200290F4
:10083000CDE903028DF814000A4606AB694602486A
:1008400000F03CF907B000BD58040020014800F05A
:1008500094BA00005804002010B5A0F500700138CB
:100860000ED0012815D10B4801F09DFD0A4A0B4915
:10087000084800BF01F0C7FDBDE8104001F0AEBE62
:100880000448803801F08FFD0248054A0549803848
:10089000F0E710BDD8030020C4000020DC000020D9
:1008A00094000020AC000020014800F066BA00006F
:1008B0008004002000B587B008220090002002903C
:1008C000CDE903028DF8140003460A466946024842
:1008D00000F0F4F807B000BD8004002010B58AB025
:1008E00001210020CDE90510039004900E24029010
:1008F000CDE9081400900190079169460B4800F07B
:1009000041F90A4800F074FC0221084800F0C4F8DC
:1009100069460748059400F035F9054800F068FC81
:100920000221034800F0B8F80AB010BD58040020B6
:100930008004002091EC060A02F029B80A48B0F9B8
:10094000041000EE101AB0F90210B0F90000B8EE71
:10095000C01A00EE101AF8EEC00A00EE100AB8EE47
:10096000C00AFFF7BBBE000008010020014800F0EC
:1009700073BC00002805002001681823CAB2103A91
:10098000B2FBF3F2054B6FF30901032A9B5CC365CD
:1009900000D9091D81650846704700002A2C00080F
:1009A00010B5014600208B698A6A4FF0C07453B1BC
:1009B000B3F5005F15D072B1012A0CD0022A0AD01B
:1009C000032A09D104E01AB1012A06D0022A03D170
:1009D000C96AC90100D5012010BDC96AA142FAD077
:1009E00010BD002AF7D0012AF2D0022AF3D0032A40
:1009F000F3D010BD704772B6FEE700002DE9F0415C
:100A0000204C40F294654FF4B6764FF48067B4F909
:100A100004002B463246394602F050F8BDEEC00ABB
:100A200019492B4610EE100A32460880B4F9060028
:100A3000394602F043F8BDEEC00A1449F0EE080A48
:100A400010EE100A9FED121A0880B4F90000114947
:100A5000A0F5806000EE100AB8EEC00A60EE200A31
:100A600080EE810AF6EE000A20EE200AF0EE0C0A73
:100A700020EE600ABDEEC00A10EE100A0880BDE844
:100A8000F0810000020000200A010020080100207F
:100A9000000025440C01002090F82020012A07D0F6
:100AA000022A05D0416A41F4802141620120704749
:100AB000006842690A43426100207047F0B590F82F
:100AC00020500468A468012D05D0022D03D0416A8E
:100AD00041F4802153E014F0406F01D1E5004BD583
:100AE000C4F30164022C03D9416A41F4000146E0D9
:100AF0000125A5401D608D684FF4C0739DB1CE687F
:100B000035434E6845EAC605066803EB0417F55100
:100B10004FF4C275076805EB04150E697E51097D17
:100B2000012905D009E00E88CD6845EA4655EBE776
:100B300001684E5946F480764E511179D2F805502D
:100B40004FF4C67641EA0525016806EB04168D517F
:100B50001178D2F801204FF4C47541EA02210268ED
:100B600005EB04155151006803EB0411425842F0A3
:100B7000010242500020F0BD416A41F4001141627F
:100B80000120F0BD10B590F82020012A07D0022ADC
:100B900005D0416A41F480214162012010BD3B48EB
:100BA000D0F8002242F00102C0F80022D0F8002262
:100BB00022F47C52C0F80022D0F800224B6A42EAAC
:100BC0000322C0F800220A7D02F01F0301229A408E
:100BD000D0F81C329343C0F81C32CB69B3B9D0F8BB
:100BE0000C329343C0F80C328C894B6864F31F437A
:100BF0004C6900EBC404C4F840320C890B6864F300
:100C00001F434C6900EBC404C4F84432CB69012B88
:100C100016D1D0F80C321343C0F80C320C884B6854
:100C200064F31F434C6900EBC404C4F840320C89E0
:100C3000CB6864F31F434C6900EBC404C4F844322E
:100C40008B69002BD0F804320ED01343C0F8043265
:100C50000B69002BD0F8143208D01343C0F81432BB
:100C6000096A012904D008E09343EFE79343F5E7CD
:100C7000D0F81C121143C0F81C12D0F8001221F059
:100C80000101C0F80012002010BD00000064004007
:100C9000704730B590F82040012C05D0022C03D0CD
:100CA000416A41F480215DE00468002955D024693F
:100CB000A40754D04FF4D874056804EB01142D59DF
:100CC00015F00405956005682D594ED0ED08556066
:100CD00005682C5904F00204D4604FF4DA740568F6
:100CE00004EB01142D5905F00F05156105682D5908
:100CF000C5F30725956105682C59240C54614FF400
:100D0000DC72046802EB0112A4581C700468A45839
:100D1000240A5C700468A458240C9C700468A258CF
:100D2000120EDA704FF4DE72046802EB0112A4585E
:100D30001C710468A458240A5C710468A458240C2B
:100D40009C710468A258120EDA71006881B10169C1
:100D500041F020010161002030BDE468A8E7416A4C
:100D600041F400114162012030BD6D0D1560AFE707
:100D7000C16841F02001C160EDE72DE9F05F054653
:100D8000006800244669D0F804908768D0F80CB059
:100D9000D0F810A0D0F81880F10748D0F90714D087
:100DA00001218160B80703D5284600F04EFA0CE017
:100DB000780702D54FF4006407E0380702D54FF4F6
:100DC000805402E0284600F03FFAF80516D529685D
:100DD0004FF480708860B80503D5284600F037FAD4
:100DE0000CE0780502D544F4005407E0380502D53C
:100DF00044F4804402E0284600F028FAF80316D5AF
:100E000029684FF480308860B80303D5284600F085
:100E100020FA0CE0780302D544F4004407E03803DC
:100E200002D544F4803402E0284600F011FA30077D
:100E300007D55FEACB6004D52968102044F400741C
:100E4000C86070074FF0080707D55FEA0B7004D53C
:100E50002868C760284600F0A1F9B00706D52868C1
:100E6000C068800702D0284600F09AF9700607D5BE
:100E70005FEACA6004D52968102044F480640861E0
:100E8000B00607D55FEA0A7004D5286807612846CE
:100E900000F0AAF9F00606D528680069800702D09C
:100EA000284600F0A2F9B00308D55FEAC96005D56D
:100EB000296810204860284600F098F9F00307D50B
:100EC0005FEA097004D528684760284600F0C2F937
:100ED000300446D55FEA497040D5F00504D55FEA95
:100EE000C87001D044F00104B00504D55FEA8870F1
:100EF00001D544F00204700504D55FEA487001D5BD
:100F000044F00404300529D518F0700F26D008F0FD
:100F10007000402815D006DC102809D020280AD0FF
:100F2000302816D10AE050280ED0602811D10EE0EA
:100F300044F008040DE044F010040AE044F02004FA
:100F400007E044F0400404E044F0800401E044F48D
:100F500080742868816921F070018161296804200A
:100F60004860002C05D0686A204368622846FFF775
:100F70008FFEBDE8F09F70B5040003D094F8200008
:100F800010B104E0012070BD204600F081F8206817
:100F9000016821F00201016000F092FB0546052680
:100FA00004E000F08DFB401B0A2811D8206840683F
:100FB0008007F6D42068016841F00101016000F06B
:100FC0007FFB05460BE000F07BFB401B0A2806D99F
:100FD000606A40F40030606284F82060D2E72068E4
:100FE0004068C007EFD0207E0128206801683DD00E
:100FF00021F080010160607E01282068016838D0FE
:1010000021F040010160A07E01282068016833D0F2
:1010100021F020010160E07E0128206801682ED0C7
:1010200041F010010160207F01282068016829D06B
:1010300021F008010160607F01282068016824D048
:1010400021F004010160D4E902010843D4E904124B
:10105000114308436168491E08432168C8610020A4
:101060006062012084F82000002070BD41F0800102
:10107000C0E741F04001C5E741F02001CAE721F097
:101080001001CFE741F00801D4E741F00401D9E7AE
:10109000F0B587B0044614216846FFF7C9F83A4B0B
:1010A0003A48DFF8E0E01968D4F800C0374A032571
:1010B0000226092710300024491CF4452AD1196062
:1010C000012907D1016841F000710160006800F05A
:1010D00000700590106840F0080010601068CDE9BD
:1010E000005600F00800CDE9047069462848CDE9B3
:1010F000024500F0FDF900220121132000F04EFB13
:10110000132000F03DFB00220121142000F046FBDB
:10111000142032E0DFF87CE0F44530D1D0F800C094
:101120004CF0806CC0F800C0D0F800C001290CF071
:10113000806CCDF814C0196007D1016841F00071CE
:101140000160006800F000700590106840F0020037
:101150001060106802AB00F0020005906020CDE93D
:10116000000683E8B00069460B4800F0C1F9002290
:101170000121402000F012FB402000F001FB07B0ED
:10118000F0BD00000064004018000020303802402C
:10119000000C02400068004000040240704700005C
:1011A00010B5044688B0012001F002F80B4B6A46E6
:1011B00000212046FFF76DFD0948844205D107490B
:1011C0000098FFF7EFFA08B010BD06488442FAD144
:1011D00002490098FFF740FBF5E700002C000020D3
:1011E00058040020800400207047704770470000BA
:1011F00070B5044690F82000012804D0606A40F4DD
:101200000020606218E0022084F820002068016855
:1012100021F00101016000F053FA05460EE000BF25
:1012200000F04EFA401B0A2808D9606A40F40030EA
:101230006062052084F82000012070BD20684068AD
:10124000C007EDD1606270BD70477047704770474E
:1012500070477047704700002DE9F84304464FF08F
:101260000009CDF8009063484FF41651A56D006851
:10127000B0FBF1F72E6894F85C10082000FA01F139
:1012800031420FD021680A6852070BD50A6822F054
:1012900004020A6094F85C108840A860606D40F019
:1012A0000100606594F85C104FF0010808FA01F045
:1012B000304208D021684969090604D5A860606DEC
:1012C00040F00200606594F85C10042088403042D1
:1012D00008D021680968890704D5A860606D40F0CE
:1012E0000400606594F85C1010208840304218D0EB
:1012F00021680968090714D5A860206801684903B6
:1013000004D50068000308D5A16C07E00168C90591
:1013100003D4016821F008010160216C09B1204665
:10132000884794F85C1020208840304231D02168F2
:101330000968C9062DD5A86094F8350005282068ED
:10134000016806D0490347D5006800031DD4616CCD
:101350001CE021F0160101602068416921F0800144
:101360004161206C08B9A06C20B12068016821F0AF
:101370000801016094F85C103F208840A86084F860
:10138000349084F83580216D1FE0E16B09B120466F
:101390008847606D00282BD0606DC00714D00520F1
:1013A00084F835002068016821F00101016000988F
:1013B000401C0090B84203D820680068C007F6D1EE
:1013C00084F8349084F83580E16C002910D001B0A5
:1013D0002046BDE8F04308470168C905D5D4016837
:1013E00021F01001016084F8349084F83580CCE756
:1013F000BDE8F883280000202DE9F041044600F004
:101400005FF906465CB1002584F83450022084F868
:1014100035002068016821F0010101600DE0012024
:10142000BDE8F08100F04CF9801B052805D920208B
:101430006065032084F83500F2E720680068C00783
:10144000F0D12268116820480140D4E90103184313
:10145000D4E903363343184363691843A369184337
:10146000E3691843236A18430843616A042903D1D6
:10147000D4E90B1319430843106020684069666A79
:1014800020F0070130460E43012704280CD1A06A42
:101490000643E06A40B12046FFF782FA20B14020BF
:1014A000606584F83570BAE7206846612046FFF72A
:1014B00063FA94F85C203F2191408160656584F86F
:1014C00035700020ACE700003F8010F070B5044696
:1014D00000F0F6F80546601C02D004480078044489
:1014E00000F0EEF8401BA042FAD370BD1C000020B3
:1014F0002DE9F84F00224FF0010803254FF00F0EA1
:101500000B6808FA02F42340A3426ED14E68012E04
:1015100005D0022E03D0112E01D0122E12D18668D2
:101520004FEA420C05FA0CF7BE43CF6807FA0CF7F6
:10153000374387604668A6430C79C4F3001494408F
:1015400034434460C668570005FA07FC8C6826EAF5
:101550000C06BC403443C4604C68022C01D0122CF1
:1015600013D1D40800EB8404A346D4F82090540788
:101570004FEAD46A0EFA0AF629EA06090E6906FA53
:101580000AF646EA0906CBF8206006680C7926EAD6
:101590000C0604F00304BC40344304604C68E400CF
:1015A00065D5364C266846F480462660246822F0CD
:1015B000030604F480440094314C3444A446D4F827
:1015C00008489607370F0EFA07F6B4432D4EB0427F
:1015D00001D1002624E02C4EB04201D101261FE0AB
:1015E0002A4EB04202D102261AE040E0284EB04214
:1015F00001D1032614E0274EB04201D104260FE0AA
:10160000254EB04201D105260AE0244EB04201D158
:10161000062605E0224EB04201D1072600E008264A
:10162000BE402643CCF808681E4E34684F689C4381
:10163000FF0300D51C4334601A4C241D26684F68F4
:101640009E43BF0300D51E432660164E08363468FD
:101650004F689C43FF0200D51C433460114E0C368A
:1016600034684F689C43BF0200D51C433460521C51
:10167000102AFFF445AFBDE8F88F0000443802405F
:101680000030014000000240000402400008024017
:10169000000C0240001002400014024000180240FA
:1016A000001C0240003C0140426931EA020200D1C4
:1016B0000904816170470AB1816170470904FBE741
:1016C00001488068704700001C00002002488168C3
:1016D00002781144816070471C0000200B4810B54F
:1016E000016841F400710160016841F480610160AA
:1016F000016841F480710160032000F06FF8002060
:1017000000F006F800F024F8002010BD003C024074
:1017100070B50D4D04464FF47A712878B1FBF0F0A6
:101720000A490968B1FBF0F000F004FB48B9102C3D
:1017300007D200222146501E00F030F800206C60D5
:1017400070BD012070BD00001C000020280000209A
:101750000A4808B5016841F480410160006800F45E
:10176000804000900548001F016841F080510160F1
:10177000006800F08050009008BD0000443802402E
:10178000002809DB00F01F02012191404009800080
:1017900000F1E020C0F8001170470000F0B40E4BDB
:1017A0001B680C46C3F30223C3F10705042D00D9BF
:1017B0000425191D072901D2002300E0DB1E0126A4
:1017C00006FA05F1491E214099409E40761E1640BA
:1017D0003143F0BC01F053B90CED00E0064900F0D4
:1017E000070208684FF6FF03184040EA0220034A48
:1017F00010430860704700000CED00E00000FA059F
:101800002DE9F0470E46050065D0DFF81481D8F8C1
:101810000000F7B200F00F00B04207D288F8007065
:10182000D8F8000000F00F00B04254D128683D4CB9
:10183000810712D5400703D5206840F4E0502060AE
:101840002878000703D5206840F4604020602068B5
:10185000A96820F0F000084320602878C0072DD048
:10186000304968680839012812D0022813D00328AB
:1018700011D00968890700292DDA216821F00301B8
:1018800001432160FFF71CFF814641F2883A0EE0D8
:1018900009688903EFE709688901ECE7FFF710FFA2
:1018A000A0EB0901514502D90320BDE8F08720686B
:1018B000696800F00C00B0EB810FEFD1D8F8001090
:1018C000404601F00F01B14207D90770006800F0EF
:1018D0000F00B04201D00120E7E72878400705D586
:1018E0002068E96820F4E050084320602878000769
:1018F00006D52068296920F4604040EAC1002060D4
:1019000000F038F82168084AC1F30311515CC8405F
:101910000649086006480068FFF7FAFE0020C4E7A1
:10192000003C024008380240322C00082800002009
:10193000200000200448054900680968044AC1F3F2
:101940008221515CC84070472800002008380240BE
:10195000422C00080448054900680968044AC1F39C
:101960004231515CC84070472800002008380240CE
:10197000422C0008154810B5006810F00C021448FD
:1019800013D01449042A0FD0082A0ED10F4C241F5B
:101990002268236802F03F025B0207D52068C0F38B
:1019A0008810A0FB010106E0084610BD2168C1F3C4
:1019B0008811A1FB00010023FEF702FC2168C1F39E
:1019C0000141491C4900B0FBF1F010BD083802404C
:1019D0000024F400001BB7002DE9F84F04006ED07E
:1019E0002078DFF83C93C007A9F104054AD009F13B
:1019F00004000168C1F38101012908D00068C0F327
:101A0000810002280AD1D9F80000400206D52868D2
:101A1000800337D560680028E1D033E06068B0F516
:101A2000803F10D0B0F5A02F286810D020F480306F
:101A30002860286820F4802028606068A8B1FFF73B
:101A40003FFE06460DE0286840F48030F4E740F49D
:101A500080202860F7E700BFFFF732FE801B642874
:101A600073D828688003F7D50CE0FFF729FE0646F7
:101A700005E000BFFFF724FE801B6428F0D828682B
:101A80008003F7D42078DFF89C8280074FF0000AAB
:101A90003ED5A348001D016811F00C0F08D0006866
:101AA000C0F3810002280BD1D9F80000400207D40E
:101AB0002868800716D5E068012800D112E02BE1E4
:101AC000E068B8B10120C8F80000FFF7F9FD06464C
:101AD00005E000BFFFF7F4FD801B0228C0D828688E
:101AE0008007F7D52868216920F0F80040EAC10096
:101AF00028600DE0C8F800A0FFF7E2FD064604E00C
:101B0000FFF7DEFD801B02281FD828688007F7D466
:101B10002078000722D5824E83486169703671B102
:101B200001210160FFF7CCFD074604E0FFF7C8FD87
:101B3000C01B022809D830688007F7D50EE0C0F82E
:101B400000A0FFF7BDFD074605E082E0FFF7B8FD06
:101B5000C01B02287DD830688007F7D42078400762
:101B600068D5DFF8BCB100270BF13C0BDBF80000B7
:101B7000C0000BD4DBF8001041F08051CBF800100E
:101B8000DBF80000012700F080500090674E3068BD
:101B9000C00510D4306840F480703060FFF790FDCD
:101BA000009005E0FFF78CFD0099401A022850D8FC
:101BB0003068C005F6D55A4EA0686C3601280FD0A3
:101BC0000528306810D020F001003060306820F027
:101BD00004003060A068B8B1FFF772FD00900FE01C
:101BE000306840F00100F4E740F004003060F7E7AF
:101BF000FFF766FD0099411A41F28830814266D8AC
:101C000030688007F4D50EE0FFF75AFD009007E03A
:101C1000FFF756FD0099411A41F28830814256D8AB
:101C200030688007F4D42FB1DBF8001021F0805128
:101C3000CBF80010A069C8B33949091D0968C1F380
:101C4000810102294AD00228504607D0C8F8600016
:101C500000E03CE0FFF734FD04463BE04746C8F8AF
:101C60006000FFF72DFD064605E000BFFFF728FDE9
:101C7000801B02282BD828688001F7D4D4E90701FB
:101C80000843A16A2A4A490802EB0141626A41EA13
:101C90008211084394F82C1040EA0161C9F8001041
:101CA00001203866FFF70CFD044606E036E000BF71
:101CB000FFF706FD001B022809D828688001F7D528
:101CC0002CE000BFFFF7FCFC001B022802D9032018
:101CD000BDE8F88F28688001F4D41FE00128F7D010
:101CE000D9F80000E26900F48001914214D1226A1F
:101CF00000F03F0191420FD147F6C071626A014086
:101D0000914209D1A26A00F44031914204D1E16AC2
:101D100000F07060884201D00120D9E70020D7E7A9
:101D20000438024000004742800E474200700040E5
:101D30000000FFFF10B5401EB0F1807F01D30120ED
:101D400010BD4FF0E02460610F21601700F097FE96
:101D50000020A06107202061002010BD704770475F
:101D600070B590F83C20012A32D0012480F83C4024
:101D7000022280F83D2003685A689D6822F07006B0
:101D80000A6832435A60134B02689A4214D0B2F187
:101D9000804F11D0104B9A420ED0104B9A420BD06C
:101DA0000F4B9A4208D00F4B9A4205D00E4B9A42E5
:101DB00002D00E4B9A4204D1496825F080031943A2
:101DC000916080F83D40002180F83C10084670BDCD
:101DD000022070BD000001400004004000080040E7
:101DE000000C004000040140004001400018004089
:101DF00010B5040003D094F83D0010B107E00120B5
:101E000010BD002084F83C00204600F00DF80220B0
:101E100084F83D00211D206800F05AFC012084F860
:101E20003D00002010BD000008B500680B49884245
:101E300012D10B48016841F01001016000680022D6
:101E400000F01000009001213620FFF7A7FCBDE84C
:101E500008403620FFF794BC08BD00000010004089
:101E6000403802400168CA6842F00102CA60006856
:101E7000816801F00701062903D0016841F00101E2
:101E8000016000207047704770B504460068016922
:101E90004FF00005C943890715D4C168C9438907B4
:101EA00011D4E91E01610120207720688069800734
:101EB000204602D0FFF7E7FF04E000F098F8204644
:101EC00000F096F8257720680169C943490717D4BF
:101ED000C168C943490713D46FF0040101610220AE
:101EE00020772068806910F4407F204602D0FFF7F9
:101EF000CAFF04E000F07BF8204600F079F825776F
:101F000020680169C943090716D4C168C943090794
:101F100012D46FF008010161042020772068C069A5
:101F20008007204602D0FFF7AEFF04E000F05FF824
:101F3000204600F05DF8257720680169C943C9068D
:101F400017D4C168C943C90613D46FF010010161E9
:101F5000082020772068C06910F4407F204602D016
:101F6000FFF791FF04E000F042F8204600F040F84F
:101F7000257720680169C943C90708D1C168C943E9
:101F8000C90704D1891E0161204600F033F820689A
:101F90000169C943090609D4C168C943090605D4C2
:101FA0006FF0800101612046FFF7D8FE20680169CB
:101FB000C943490609D4C168C943490605D46FF02D
:101FC00040010161204600F065F820680169C943BD
:101FD00089060BD4C168C943890607D46FF0200174
:101FE00001612046BDE87040FFF7B9BE70BD704783
:101FF0007047000070B5234D234C244E2868411CC7
:1020000003D102212161091F3161401C072190FB8E
:10201000F1F2286001FB120018B9FEF7EFFCFEF7A1
:102020008DFC1B48807A012802D0022806D00BE0E4
:10203000E06D1438E065F06D143004E0E06D1430AC
:10204000E065F06D1438F065E16D0020002900DDD9
:10205000E065F16D002900DAF0652868B0F5FA7FD7
:1020600009D100F0ADF8E06D6860206FA860E06C09
:10207000E860E06E28612868B0F57A7F01DB012016
:10208000286070BDF400002058030020D803002011
:1020900002000020704770B5040004D094F83900A5
:1020A000002510B106E0012070BD84F838502046AC
:1020B00000F022F8242084F839002068C16821F457
:1020C0000051C160204600F067FB2068016921F4DF
:1020D000904101612068416921F02A014161206835
:1020E000C16841F40051C160E563202084F83900E3
:1020F00084F83A00002070BD70B586B00646142101
:102100006846FEF795F824493068884242D1234852
:102110000025016841F480210160006800F48020FE
:1021200005901E481038016841F004010160006804
:10213000694600F0040005904FF4406000900220D2
:10214000CDE9010503200390072004901448FFF710
:10215000CFF9154C134820604FF00060C4E9010529
:102160004014C4E9035080106561C4E906500002C0
:10217000C4E908052046FFF73FF908B1FEF73BFC2C
:102180007463002201212720A663FFF707FB2720A5
:10219000FFF7F6FA06B070BD004800404038024034
:1021A000000802402860024028050020FEE70000E9
:1021B00002464FF480610148FFF77DBA001C0240DF
:1021C0004FF400610148FFF76FBA0000001C0240A5
:1021D00002464FF480510148FFF76DBA001C0240DF
:1021E0000F4810B50D4901600321416000214FF4F3
:1021F00080228160C0E903124FF4E002426101765F
:1022000041768176C17601774177FEF7B4FE0028EA
:1022100003D0BDE81040FEF7EEBB10BD00640040E7
:10222000580400200F4810B50D490160032141609A
:1022300000214FF480228160C0E903124FF4E002D4
:102240004261017641768176C17601774177FEF76A
:1022500092FE002803D0BDE81040FEF7CCBB10BDB5
:102260000068004080040020094808B5016841F476
:10227000001101600068002200F400100090114677
:102280000C20FFF78BFABDE808400C20FFF778BA66
:102290003038024070B586B014216846FDF7C8FF9B
:1022A0001E480025016841F002010160016801F04B
:1022B00002010591016841F001010160016801F02E
:1022C00001010591016841F008010160016801F018
:1022D00008010591016841F004010160016801F005
:1022E00004010591016841F08001016000680C4E15
:1022F00000F080004FF4E054059000222146304663
:10230000FFF7D9F90120CDE900400320CDE90250C3
:1023100069463046FFF7ECF806B070BD3038024031
:10232000001C02401CB500240E4800940C49019486
:1023300001605321C0E9011440F2E7318461C160BA
:10234000FFF756FD08B1FEF756FB009469460548B5
:102350000194FFF705FD002801D0FEF74CFB1CBDE2
:1023600000100040A80400200C4810B50A49016084
:102370000B494160002181600C22C160C0E9041258
:102380008161C161FFF787FE002803D0BDE81040DE
:10239000FEF731BB10BD000000480040E8040020FB
:1023A000A0860100FEE730B5836DC3604A780C78E3
:1023B00002EB042212B28265CC788D7804EB0524FE
:1023C00024B2C4624C790D7904EB052424B2446133
:1023D00044683CB94C78097804EB012109B20160EA
:1023E00001214160D31A0169B3F5805F01DD491E07
:1023F00003E013F5805F01DA491C016102EB413112
:10240000016730BDFEE730B5144691EC060A05467B
:10241000FEF7ECF8E86EA862284694EC060ABDE8E0
:10242000304000F0B4BA7047002801DC404200B2EE
:102430007047000070B5194CB4F90000FFF7F4FFC5
:1024400040F29465A84217DCB4F90200FFF7ECFFF4
:10245000A84211DCB4F90400FFF7E6FFA8420BDC48
:10246000B4F90600FFF7E0FFA84205DCA07A18B136
:10247000E07A08B1002070BD002020806080A0803C
:10248000E08020810221A172E172A081E08120829E
:10249000A074E074A082012070BD00000200002042
:1024A00030B5144B1C68656945F0400565611B68D3
:1024B000DC6844F01004DC600F4B1C68256825F0D4
:1024C000010525601C682568ED07F7D11D680B4CD8
:1024D000AC601C68E06018680161186842601868A8
:1024E000016841F4802101601868016841F0010130
:1024F000016030BDE80400202805002004480040A9
:1025000038B51B480168CA6822F40052CA60194AEB
:1025100011680B6823F001030B60136824215960D4
:102520000068016841680091134C13684FF4001172
:10253000A34202D9104B4C3B04E0104CA34203D9F8
:102540000D4B503B196008E00C4D0C4C603DB83C05
:10255000AB4201D9E16000E0A160C16841F40051E3
:10256000C1601068016841F00101016038BD0000E0
:10257000E80400202805002058640240B8600240AA
:10258000704700001CB51448C26B8261803000F1B6
:102590008003C16B8161D86B03F180049861E36BA8
:1025A000A361140A8DF800408DF801200A0A8DF805
:1025B00002208DF80310010A8DF804108DF8050033
:1025C000180A8DF806008DF8073069464FF4007040
:1025D000FEF728F91CBD0000580100201CB50B496E
:1025E00001F18002C86B8861D16B9161020A8DF89C
:1025F00000208DF80100080A8DF802008DF8031004
:1026000069464FF40070FEF755F91CBD58030020D1
:10261000FFF75CB830B593B030216846FDF708FE8F
:1026200014210CA8FDF704FE1D480025016841F0A7
:1026300080510160006800F08050119019480168D5
:1026400041F4804101600068022400F48040119050
:1026500001200090000401908001CDE90640062091
:102660000890A820CDE9090404200B906846FFF7E4
:10267000B3F908B172B6FEE70CA90F2081E831006A
:102680004FF4A0500F904FF48050109005210CA8EB
:10269000FFF7B6F8002801D072B6FEE713B030BDE0
:1026A00040380240007000400548016841F4700164
:1026B000016003494FF000608039086070470000F6
:1026C00088ED00E00148FFF7DFBB0000A804002010
:1026D000F0B50268254C264D264E274F274B4FF06C
:1026E000804CA04209D0604507D0A84205D0B04236
:1026F00003D0B84201D0984204D122F0700E4A684B
:1027000042EA0E02A0421BD0604519D0A84217D061
:10271000B04215D0B84213D0984211D0184DA842FB
:102720000ED0184DA8420BD0174DA84208D0174D17
:10273000A84205D0164DA84202D0164DA84203D19A
:1027400022F44075CA682A434D6922F080022A4368
:1027500002608A68C2620A688262A04201D098421E
:1027600001D10969016301214161F0BD000001400F
:102770000004004000080040000C0040000401403C
:102780000040014000440140004801400018004062
:10279000001C0040002000402DE9F0410446006884
:1027A0000169E26821F44051114301612169A06887
:1027B000E26908436169114308432168CA6849F224
:1027C0000C639A430243CA6020684169A26921F4FC
:1027D000407111434161E069192764253226B0F543
:1027E000004F354A354920684FF0000806D088422E
:1027F00001D0904236D1FFF7ADF835E0884201D0E4
:10280000904202D1FFF7A6F801E0FFF793F8616864
:102810004A18A0FB070148EB0803FDF7D1FC01466D
:10282000B0FBF5F00201B1FBF5F06FF0180358436F
:1028300001EB800006EBC000B0FBF5F000F0F80003
:1028400002EB4002B1FBF5F0584301EB800006EBD0
:10285000C000B0FBF5F000F007002168104488606C
:10286000BDE8F081FFF766F861688B0F8A00A0FB76
:102870000701FDF7A5FC0146B0FBF5F06FF018026B
:10288000504301EB800006EB0010B0FBF5F000F0C8
:10289000F002B1FBF5F002EB0012B1FBF5F06FF0C6
:1028A0001803584301EB800006EB0010B0FBF5F075
:1028B00000F00F00D1E700000014014000100140BB
:1028C00038B50120FFF774FC2A48006801688906C2
:1028D00003D501684068009038BD27490968C906DA
:1028E000FAD501684068254A0090106801684FF0E9
:1028F00024030C032249046824F00104046016D464
:1029000014686068C0F1240080B2088063601168B8
:102910000B6843F400230B6011680A6842F001025F
:102920000A601228D8D116491648891C16E010688A
:102930004468C4F12404A4B20C8043601248816A44
:1029400021F4002181621068016841F001010160F9
:10295000122CC1D10A490B48891C243000F01AF905
:10296000FFF768FD0128B7D1BDE838402420FFF704
:10297000C7BD0000E80400200048004028050020F2
:10298000000000201001002000600240FEE710B5AA
:10299000D0E90A12891A0A46C16100D5524203EEF3
:1029A000102AB8EEC33AB4EEE13AF1EE10FA02D8CA
:1029B000426A0A444262D0ED091AB8EEE13AB4EE36
:1029C000C23AF1EE10FA02DDFDEEC21A0AE0B8EEEC
:1029D000E13AF1EE421AB4EEE13AF1EE10FA03D226
:1029E000FDEEE11AC0ED091A01EE901AF8EEE11AB7
:1029F00021EE800ABDEEC00A10EE102A026390EDAF
:102A0000090AB8EEC00A20EE200ABDEEC00A10EE98
:102A1000104A4463036ACB1A00EE103A0029B8EE5C
:102A2000C00A20EE010ABDEEC00A10EE103A836320
:102A3000016200DA4942022901DC00211DE011197E
:102A4000194400EE101AB8EEC00AB4EEE20AF1EE34
:102A500010FA02DDBDEEE20A0CE000EE101AF8EE0C
:102A6000C00AB1EE620AF4EEC00AF1EE10FA04D226
:102A7000BDEEC00A80ED0F0A10BDC16310BD09078D
:102A8000090E002804DB00F1E02080F800147047F4
:102A900000F00F0000F1E02080F8141D704702E004
:102AA00008C8121F08C1002AFAD1704770470020D9
:102AB00001E001C1121F002AFBD1704770B59FEDE4
:102AC000190A8D1C2DED068B441AA8429FED16ABFA
:102AD0009FED179B07DB581A801EFDF795FC41EC14
:102AE000180BA01E09E08B1E984218DC881A801E65
:102AF000FDF78AFC41EC180BA01CFDF785FC53EC9C
:102B00001A2BFDF7A0FB53EC182BFDF70EFC53EC32
:102B1000192BFDF798FBFDF788FC00EE100ABDECC1
:102B2000068B70BD0000000000000000000008409F
:102B30000000000000805140FEF7D0FDFFF76AFD65
:102B4000FFF7A8FBFFF790FBFFF74AFBFFF7EAFB55
:102B5000FFF768FBFFF708FCFDF7C0FE00F012F876
:102B60000748FFF77FF90120FFF732FB6420FEF7EB
:102B7000ADFC0020FFF72CFB6420FEF7A7FCF2E77A
:102B8000A804002002492422A1F12400FFF788BCF8
:102B900034010020002847D0002945D0027843782E
:102BA00042EA0322C2F30A020A8042788378D208FA
:102BB00042EA4312C2F30A024A808278C378920939
:102BC00042EA8302037942EA8322C2F30A028A803C
:102BD00002794379520842EAC312C2F30A02CA8058
:102BE0004279C2F301128A7242799209CA728279D9
:102BF000C37942EA03228A81027A437A42EA0322B3
:102C0000CA81827AC37A42EA03220A82027B8A74E8
:102C1000427BCA74827BC37B42EA03228A82027CA3
:102C2000407C42EA0020088170470006101600062A
:102C30001016000000000000000001020304060757
:102C40000809000000000102030400006C2C0008C9
:102C500000000020100100009E2A00087C2D0008C2
:102C600010010020D0080000AE2A00080000000477
:102C70000004000400040200020000000000000044
:102C80000000000000000000010000001000000033
:102C9000000000000024F40000000000000000001C
:102CA000000000419A99993F0000003F00401C46F7
:102CB00000401C4600401C46000000419A99993F84
:102CC0000000003F00401C4600401C4600401C46DF
:102CD000000000419A99993F0000003F00401C46C7
:102CE00000401C4600401C46000000419A99993F54
:102CF0000000003F00401C4600401C4600401C46AF
:102D00000000003F0000003F0000000000401C46A3
:102D100000401C4600401C460000803F00000000B0
:102D20000000C84200401C460000C84200007A442F
:102D30000000003F0000003F0000000000401C4673
:102D400000401C4600401C460000803F0000000080
:102D50000000C84200401C460000C84200007A44FF
:102D6000FFFFFFFF00000000000000000000000067
:0C2D700000000000000000000000000057
:040000050800018965
:00000001FF
