:020000040800F2
:10000000D80700204D020008371B000859190008C6
:10001000351B000843040008151F000800000000FD
:100020000000000000000000000000003B1B000872
:100030005D04000800000000391B00083D1B00089B
:1000400067020008670200086702000867020008EC
:1000500067020008670200086702000867020008DC
:1000600067020008670200086702000867020008CC
:1000700067020008670200086702000867020008BC
:1000800067020008670200086702000867020008AC
:1000900045040008670200086702000867020008BC
:1000A000670200086702000867020008670200088C
:1000B000670200086702000867020008670200087C
:1000C000670200086702000867020008670200086C
:1000D00067020008F11E0008FD1E0008091F000845
:1000E000670200086702000867020008670200084C
:1000F000670200086702000867020008670200083C
:10010000670200086702000867020008670200082B
:100110006702000867020008F11B00086702000878
:10012000670200086702000867020008670200080B
:1001300067020008670200086702000867020008FB
:1001400051040008670200086702000867020008FF
:1001500067020008670200086702000867020008DB
:1001600067020008670200086702000867020008CB
:10017000670200086702000867020008000000002C
:1001800067020008670200086702000867020008AB
:10019000670200086702000867020008670200089B
:1001A00000000000000000006702000800F002F8F4
:1001B00000F03CF80AA090E8000C82448344AAF1C5
:1001C0000107DA4501D100F031F8AFF2090EBAE8C3
:1001D0000F0013F0010F18BFFB1A43F0010318477B
:1001E000A01D0000C01D0000103A24BF78C878C1CF
:1001F000FAD8520724BF30C830C144BF04680C602D
:10020000704700000023002400250026103A28BF74
:1002100078C1FBD8520728BF30C148BF0B60704778
:100220001FB501F09BFE1FBD10B510BD00F0CFF84B
:100230001146FFF7F5FF01F07EFE00F0EDF803B484
:10024000FFF7F2FF03BC00F0F5F800000948804713
:1002500009480047FEE7FEE7FEE7FEE7FEE7FEE7A8
:10026000FEE7FEE7FEE7FEE704480549054A064BC0
:1002700070470000E11B0008AD010008D801002014
:10028000D8070020D8030020D803002053EA020C2E
:1002900000F069802DE9F04B4FF00006002B1FBFE6
:1002A000B3FA83F503FA05F424FA05F65E4012BFAB
:1002B0001643B2FA82F502FA05F4C5F120051EBF15
:1002C00022FA05FC44EA0C04203556EA044C4FEAB5
:1002D000144418BF641C4FF000084FF0000990420E
:1002E00071EB030C39D3002919BFB1FA81F701FA78
:1002F00007F6B0FA80F700FA07F6C7F120071EBF2D
:1003000020FA07FC46EA0C062037B6FBF4FCA7EB04
:100310000507103F07F01F0BCBF120060CFA0BFB73
:100320002CFA06F644BFB3460026202FA4BF5E4633
:100330004FF0000B5BEA060C08BF4FF0010B19EB06
:100340000B09ABFB027C48EB0608C01B06FB02CC8A
:100350000BFB03CC71EB0C01C1E70B460246414697
:100360004846BDE8F08B13B54FF000004FF0000198
:10037000AFF30080BDE81C4070474FF0000200B5AD
:10038000134694469646203922BFA0E80C50A0E8B8
:100390000C50B1F12001BFF4F7AF090728BFA0E866
:1003A0000C5048BF0CC05DF804EB890028BF40F832
:1003B000042B08BF704748BF20F8022B11F0804F74
:1003C00018BF00F8012B704770477047704775469B
:1003D00000F02CF8AE4605006946534620F00700B1
:1003E000854618B020B5FFF73FFFBDE820404FF02D
:1003F00000064FF000074FF000084FF0000B21F00F
:100400000701AC46ACE8C009ACE8C009ACE8C009DB
:10041000ACE8C0098D46704710B50446AFF30080C4
:100420002046BDE81040FFF70ABF000000487047B3
:100430007801002001491820ABBEFEE7260002002B
:100440007047FEE7014800F00DB8000014000020DE
:10045000014800F007B800003C000020704772B669
:10046000FEE770472DE9F05F054600680024466905
:10047000D0F804908768D0F80CB0D0F810A0D0F86D
:100480001880F10748D0F90714D001218160B8071E
:1004900003D5284600F0FAF90CE0780702D54FF4AE
:1004A000006407E0380702D54FF4805402E0284684
:1004B00000F0EBF9F80516D529684FF480708860D4
:1004C000B80503D5284600F0E3F90CE0780502D51D
:1004D00044F4005407E0380502D544F4804402E0B7
:1004E000284600F0D4F9F80316D529684FF4803077
:1004F0008860B80303D5284600F0CCF90CE07803F7
:1005000002D544F4004407E0380302D544F48034B3
:1005100002E0284600F0BDF9300707D55FEACB605E
:1005200004D52968102044F40074C86070074FF0A7
:10053000080707D55FEA0B7004D52868C76028460E
:1005400000F09EF9B00706D52868C068800702D081
:10055000284600F096F9700607D55FEACA6004D510
:100560002968102044F480640861B00607D55FEA6A
:100570000A7004D528680761284600F083F9F00660
:1005800006D528680069800702D0284600F07BF96C
:10059000B00308D55FEAC96005D529681020486016
:1005A000284600F071F9F00307D55FEA097004D519
:1005B00028684760284600F06EF9300446D55FEAA7
:1005C000497040D5F00504D55FEAC87001D044F009
:1005D0000104B00504D55FEA887001D544F0020437
:1005E000700504D55FEA487001D544F00404300575
:1005F00029D518F0700F26D008F07000402815D0CB
:1006000006DC102809D020280AD0302816D10AE0AC
:1006100050280ED0602811D10EE044F008040DE0FF
:1006200044F010040AE044F0200407E044F04004E1
:1006300004E044F0800401E044F480742868816997
:1006400021F070018161296804204860002C05D0E8
:10065000686A204368622846FFF703FFBDE8F09F01
:1006600070B5040003D094F8200010B104E001201C
:1006700070BD204600F082F82068016841F0010159
:10068000016000F07FFA0546052604E000F07AFAE2
:10069000401B0A2811D820684068C007F6D020689F
:1006A000016821F00201016000F06CFA05460BE0E0
:1006B00000F068FA401B0A2806D9606A40F400304E
:1006C000606284F82060D2E7206840688007EFD439
:1006D000207E0128206801683DD021F08001016062
:1006E000607E01282068016838D021F04001016057
:1006F000A07E01282068016833D021F0200101602C
:10070000E07E0128206801682ED041F010010160D0
:10071000207F01282068016829D021F008010160AC
:10072000607F01282068016824D021F00401016065
:10073000D4E902010843D4E9041211430843616873
:10074000491E08432168C86100206062012084F8C6
:100750002000002070BD41F08001C0E741F0400161
:10076000C5E741F02001CAE721F01001CFE741F0D1
:100770000801D4E741F00401D9E700002DE9F04376
:1007800087B0044614216846FFF7F7FD384B394817
:10079000DFF8D8801968D4F800C0364A022503264D
:1007A0000927DFF8D49010300024491CC44524D117
:1007B0001960012907D1016841F0007101600068EA
:1007C00000F000700590106840F0020010601068A2
:1007D00002AB00F0020005904FF44070CDE9000537
:1007E00083E8D0006946484600F0B2F800220521AF
:1007F000142000F035FA142032E0DFF88080C44580
:1008000030D1D0F800C04CF0806CC0F800C0D0F8F7
:1008100000C001290CF0806CCDF814C0196007D11C
:10082000016841F000710160006800F000700590FF
:10083000106840F002001060106802AB00F0020087
:1008400005906020CDE9000583E8D0006946484660
:1008500000F07EF800220521402000F001FA40203F
:1008600000F0F0F907B0BDE8F0830000006400403C
:1008700000000020303802400004024000680040C0
:1008800070477047704770477047704770477047B0
:1008900070477047704770472DE9F0410446876DF7
:1008A00000F070F9064694F835000025022806D0BD
:1008B0008020606584F834500120BDE8F081206814
:1008C000016821F0160101602068416921F0800172
:1008D0004161206C08B9A06C20B12068016821F04A
:1008E000080101602068016821F0010101600CE04D
:1008F00000F048F9801B052807D9202060650320F7
:1009000084F8350084F83450D7E720680068C007C1
:10091000EED194F85C103F208840B860012084F844
:10092000350084F834500020C7E790F835100229CC
:1009300003D08021416501207047052180F83510E2
:100940000068016821F0010101600020704700008B
:100950002DE9F84FDFF8F8A1002201240AF1040B79
:1009600003254FF00F090BF1040E00BF0B6804FACA
:1009700002F63340B34270D10F7907F00307012F1D
:1009800001D0022F16D187684FEA420805FA08FC09
:1009900027EA0C07D1F80CC00CFA08FC4CEA070C4B
:1009A000C0F808C04768B7430E79C6F300169640F2
:1009B0003E4346600E79F643B6070AD0C7684FEA51
:1009C000420C05FA0CF6B7438E6806FA0CF63E4365
:1009D000C6600E7906F00306022E10D1D60800EB91
:1009E0008608D8F8206057074FEAD76C09FA0CF749
:1009F000BE430F6907FA0CF73743C8F82070066842
:100A00004FEA420C05FA0CF7BE430F7907F00307D3
:100A100007FA0CF7374307604E6816F4403F1CD0C6
:100A20004C4E376847F480473760366822F003073A
:100A300006F480460096484E07EB060CDCF8086882
:100A400097073F0F09FA07F826EA0806DFF80C8136
:100A5000404503D14FF0000841E072E0DFF800812B
:100A6000404502D14FF0010839E0DFF8F8804045F9
:100A700002D14FF0020832E0DFF8EC80404502D1AD
:100A80004FF003082BE0DFF8E480404502D14FF03F
:100A9000040824E0DFF8D880404502D14FF0050873
:100AA0001DE0DFF8D080404502D14FF0060816E087
:100AB000DFF8C480404502D14FF007080FE0DFF8AF
:100AC000BC80404502D14FF0080808E0DFF8B08054
:100AD000404502D14FF0090801E04FF00A0808FA3A
:100AE00007F848EA0608CCF80888DAF800605746A4
:100AF000D1F804C09E435FEACC3C00D51E433E6063
:100B0000DBF800605F46D1F804C09E435FEA8C3C8E
:100B100000D51E433E60DEF800607746D1F804C081
:100B20009E435FEACC2C00D51E433E60084F0C3735
:100B30003E68D1F804C09E435FEA8C2C00D51E436A
:100B40003E60521C102AFFF411AFBDE8F88F000080
:100B5000003C0140443802400030014000000240A7
:100B60000004024000080240000C02400010024055
:100B70000014024000180240001C02400020024005
:100B800000240240014880687047000004000020F3
:100B90000248816802781144816070470400002097
:100BA0000B4810B5016841F400710160016841F41F
:100BB00080610160016841F480710160032000F0F0
:100BC0006FF80F2000F006F800F024F8002010BDA8
:100BD000003C024070B50D4D04464FF47A71287800
:100BE000B1FBF0F00A490968B1FBF0F000F044FBFA
:100BF00048B9102C07D200222146501E00F030F8D0
:100C000000206C6070BD012070BD00000400002059
:100C1000100000200A4808B5016841F480410160D5
:100C2000006800F4804000900548001F016841F012
:100C300080510160006800F08050009008BD000005
:100C400044380240002809DB00F01F0201219140D6
:100C50004009800000F1E020C0F80011704700005A
:100C6000F0B40E4B1B680C46C3F30223C3F1070517
:100C7000042D00D90425191D072901D2002300E005
:100C8000DB1E012606FA05F1491E214099409E40CF
:100C9000761E16403143F0BC01F03DB90CED00E08A
:100CA000064900F0070208684FF6FF03184040EAC3
:100CB0000220034A10430860704700000CED00E07A
:100CC0000000FA052DE9F8431748016841F080510A
:100CD00001600068154F00F08050012600903E64CE
:100CE000FFF750FF05464FF47A78114C05E000BF3E
:100CF000FFF748FF401B40450DD86068C003F7D59B
:100D00007E64FFF73FFF0546464607E0FFF73AFFE0
:100D1000401BB04202D90320BDE8F883606880031D
:100D2000F4D50020F8E700004038024000000E42F1
:100D3000007000402DE9F0470E46050065D0DFF851
:100D40001481D8F80000F7B200F00F00B04207D2CB
:100D500088F80070D8F8000000F00F00B04254D1BD
:100D600028683D4C810712D5400703D5206840F420
:100D7000E05020602878000703D5206840F46040E8
:100D800020602068A96820F0F000084320602878DF
:100D9000C0072DD0304968680839012812D00228D0
:100DA00013D0032811D00968890700292DDA21689A
:100DB00021F0030101432160FFF7E4FE814641F287
:100DC000883A0EE009688903EFE709688901ECE7D2
:100DD000FFF7D8FEA0EB0901514502D90320BDE879
:100DE000F0872068696800F00C00B0EB810FEFD14C
:100DF000D8F80010404601F00F01B14207D9077042
:100E0000006800F00F00B04201D00120E7E7287829
:100E1000400705D52068E96820F4E05008432060C9
:100E20002878000706D52068296920F4604040EA48
:100E3000C100206000F038F82168084AC1F30311AE
:100E4000515CC8400649086006480068FFF7C2FECA
:100E50000020C4E7003C024008380240661F00083A
:100E600010000020080000200448054900680968B7
:100E7000044AC1F38221515CC84070471000002031
:100E800008380240761F00080448054900680968D0
:100E9000044AC1F34231515CC84070471000002041
:100EA00008380240761F0008154810B5006810F099
:100EB0000C02144813D01449042A0FD0082A0ED16A
:100EC0000F4C241F2268236802F03F025B0207D503
:100ED0002068C0F38810A0FB010106E0084610BDA1
:100EE0002168C1F38811A1FB00010023FFF7CEF9AF
:100EF0002168C1F30141491C4900B0FBF1F010BD6C
:100F0000083802400024F40040787D012DE9F84FB4
:100F100004006ED02078DFF84C93C007A9F10405D7
:100F20004AD009F104000168C1F38101012908D008
:100F30000068C0F3810002280AD1D9F800004002FD
:100F400006D52868800337D560680028E1D033E0F3
:100F50006068B0F5803F10D0B0F5A02F286810D0A1
:100F600020F480302860286820F4802028606068A1
:100F7000A8B1FFF707FE06460DE0286840F4803070
:100F8000F4E740F480202860F7E700BFFFF7FAFDA0
:100F9000801B642873D828688003F7D50CE0FFF71E
:100FA000F1FD064605E000BFFFF7ECFD801B64285D
:100FB000F0D828688003F7D42078DFF8AC82800767
:100FC0004FF0000A3ED5A748001D016811F00C0F34
:100FD00008D00068C0F3810002280BD1D9F80000C6
:100FE000400207D42868800716D5E068012800D1A0
:100FF00012E033E1E068B8B10120C8F80000FFF763
:10100000C1FD064605E000BFFFF7BCFD801B0228BE
:10101000C0D828688007F7D52868216920F0F80033
:1010200040EAC10028600DE0C8F800A0FFF7AAFD63
:10103000064604E0FFF7A6FD801B02281FD828689B
:101040008007F7D42078000722D5864F874861694A
:10105000703771B101210160FFF794FD064604E08D
:10106000FFF790FD801B022809D838688007F7D564
:101070000EE0C0F800A0FFF785FD064605E082E01F
:10108000FFF780FD801B02287DD838688007F7D4E1
:101090002078400768D5DFF8CCB100270BF13C0B76
:1010A000DBF80000C0000BD4DBF8001041F08051E9
:1010B000CBF80010DBF80000012700F08050009012
:1010C0006B4E3068C00510D4306840F480703060DA
:1010D000FFF758FD009005E0FFF754FD0099401A16
:1010E000022850D83068C005F6D55E4EA0686C3630
:1010F00001280FD00528306810D020F001003060A2
:10110000306820F004003060A068B8B1FFF73AFD05
:1011100000900FE0306840F00100F4E740F0040078
:101120003060F7E7FFF72EFD0099411A41F2883051
:10113000814266D830688007F4D50EE0FFF722FDC3
:10114000009007E0FFF71EFD0099411A41F2883038
:10115000814256D830688007F4D42FB1DBF80010F4
:1011600021F08051CBF80010A069C8B33D49091D9A
:101170000968C1F3810102294AD00228504607D0EC
:10118000C8F8600000E03CE0FFF7FCFC04463BE0F0
:101190004746C8F86000FFF7F5FC064605E000BFCB
:1011A000FFF7F0FC801B02282BD828688001F7D4B9
:1011B000D4E907010843A16A2E4A490802EB01411C
:1011C000626A41EA8211084394F82C1040EA0161F6
:1011D000C9F8001001203866FFF7D4FC044606E089
:1011E0003EE000BFFFF7CEFC001B022809D82868AC
:1011F0008001F7D534E000BFFFF7C4FC001B0228D4
:1012000002D90320BDE8F88F28688001F4D427E0D4
:101210000128F7D0D9F80000E26900F4800191427A
:101220001CD1226A00F03F01914217D147F6C071EC
:10123000626A0140B1EB821F10D1A26A4FF0FF3306
:1012400000F4403103EB5202B1EB024F06D194F8A7
:101250002C1000F07060B0EB016F01D00120D1E7DD
:101260000020CFE70438024000004742800E47428A
:10127000007000400000FFFF10B5401EB0F1807FFD
:1012800001D3012010BD4FF0E02460610F216017F1
:1012900000F041FE0020A06107202061002010BD69
:1012A0007047704770B590F83C20012A32D0012475
:1012B00080F83C40022280F83D2003685A689D680F
:1012C00022F070060A6832435A60134B02689A4251
:1012D00014D0B2F1804F11D0104B9A420ED0104B67
:1012E0009A420BD00F4B9A4208D00F4B9A4205D02E
:1012F0000E4B9A4202D00E4B9A4204D1496825F017
:1013000080031943916080F83D40002180F83C1033
:10131000084670BD022070BD00000140000400407E
:1013200000080040000C0040000401400040014063
:101330000018004010B5040003D094F83D0010B12F
:1013400007E0012010BD002084F83C00204600F09A
:101350001FF8022084F83D00211D206800F04EFC9B
:10136000012084F8460084F83E0084F83F0084F8A9
:10137000400084F8410084F8420084F8430084F877
:10138000440084F8450084F83D00002010BD0000B2
:1013900008B500680B49884212D10B48016841F03A
:1013A000100101600068002200F01000009005218B
:1013B0003620FFF755FCBDE808403620FFF742BC59
:1013C00008BD00000010004040380240704770B572
:1013D0000446006801694FF00005C943890715D428
:1013E000C168C943890711D4E91E01610120207732
:1013F000206880698007204602D0FFF7E7FF04E0FD
:1014000000F098F8204600F096F8257720680169EA
:10141000C943490717D4C168C943490713D46FF0BA
:1014200004010161022020772068806910F4407F68
:10143000204602D0FFF7CAFF04E000F07BF8204608
:1014400000F079F8257720680169C943090716D4A7
:10145000C168C943090712D46FF008010161042073
:1014600020772068C0698007204602D0FFF7AEFFD2
:1014700004E000F05FF8204600F05DF82577206872
:101480000169C943C90617D4C168C943C90613D441
:101490006FF010010161082020772068C06910F406
:1014A000407F204602D0FFF791FF04E000F042F8B1
:1014B000204600F040F8257720680169C943C90734
:1014C00008D1C168C943C90704D1891E01612046FA
:1014D00000F032F820680169C943090609D4C168DF
:1014E000C943090605D46FF0800101612046FFF76A
:1014F000D7FE20680169C943490609D4C168C943B8
:10150000490605D46FF040010161204600F015F84E
:1015100020680169C94389060BD4C168C94389069B
:1015200007D46FF0200101612046BDE87040FFF74D
:10153000B8BE70BD704770477047704770477047BE
:10154000F8B5016804460868CA684B6910F00F0FC7
:101550004FF000055AD003F0010602F490773743AC
:1015600065D0C10705D0D10503D5216C41F001013B
:101570002164410705D5D90703D0216C41F0020150
:101580002164810705D5D90703D0216C41F00401FE
:101590002164010707D502F02001314303D0216CFB
:1015A00041F008012164216C00293BD0800604D55C
:1015B000900602D5204600F0B4FB20684069216CFB
:1015C000C0F3801001F00801014320462BD000F049
:1015D00081FB20684069400621D52068143050E81E
:1015E000001F21F0400140E80012002AF5D1A06B55
:1015F000A8B16C490165A06BFFF797F9002811D0DD
:10160000A06B016D01B0BDE8F040084783060ED520
:1016100093060CD52046BDE8F84000F082BB20467A
:10162000FFF78DFFF8BDFFF78AFF2564F8BD266B35
:101630002023012E79D1C60677D5D60675D5086840
:10164000486800904869400640D5A16B086840682A
:101650000004000CEAD0A28D8242E7D9E085C86977
:10166000B0F5807F2DD020680C3050E8001F21F4A9
:10167000807140E80012002AF5D12068143050E84B
:10168000001F21F0010140E80012002AF5D1206876
:10169000143050E8001F21F0400140E80012002AF9
:1016A000F5D184F83E30256320680C3050E8001FE7
:1016B00021F0100140E80012002AF5D1A06BFFF7DD
:1016C000EBF8A08DE18D401A81B229E0A08DE18D6B
:1016D000401A81B2E08D0028A8D00029A6D0206849
:1016E0000C3050E8002F22F4907240E80026002EC3
:1016F000F5D12068143050E8002F22F0010240E8B4
:101700000026002EF5D184F83E30256320680C3089
:1017100050E8002F22F0100240E80023002BF5D102
:101720002046FFF70BFFF8BDFFE705062BD5150692
:1017300029D594F83D002128F5D1A068B0F5805F47
:1017400001D12069B0B1206A411C21622168007872
:101750004860E08C401E0004000CE084E3D1206867
:10176000C16821F08001C1602068C16841F040017A
:10177000C160D8E7206A0088C0F308004860206A8A
:10178000801C2062E5E74006CDD55006CBD5CA685F
:10179000204622F04002CA6084F83D3000F0DBF8B9
:1017A000C1E70000C51C000870B5040004D094F81F
:1017B0003D00002510B106E0012070BD84F83C50CA
:1017C000204600F023F8242084F83D002068C168FA
:1017D00021F40051C160204600F004FB206801693B
:1017E00021F4904101612068416921F02A014161A1
:1017F0002068C16841F40051C1602564202084F84C
:101800003D0084F83E00002070BD0000F0B587B0B8
:10181000044614216846FEF7B0FD464922680024BC
:1018200045480225032607278A4234D1424914310C
:101830000A6842F010020A60096801F0100105917F
:10184000016841F002010160016801F002010591A7
:10185000016841F001010160006802AA00F0010086
:1018600005908020CDE9000582E8D0006946334824
:10187000FFF76EF82802CDE9000502AA694682E862
:10188000D0002F48FFF764F8002211462520FFF70B
:10189000E7F9252024E028492A4B10319A4223D128
:1018A0000A6842F400320A60096801F400310591C7
:1018B000016841F008010160006802AA00F0080018
:1018C00005906020CDE9000582E8D00069461E48F9
:1018D000FFF73EF8002211462620FFF7C1F9262027
:1018E000FFF7B0F907B0F0BD184B9A42FAD10A6879
:1018F00042F480220A60096801F4802105910168A0
:1019000041F004010160006802AA00F004000590A3
:101910004FF44060CDE9000582E8D00069460C48EC
:10192000FFF716F8002211462720FFF799F9272024
:10193000D6E70000001001403038024000040240A9
:101940000000024000440040000C024000480040FB
:101950000008024070477047FEE700000F4810B5CE
:101960000D4901600521416000214FF44032816042
:10197000C0E90312120142610176012242768276A9
:10198000C17601774177FEF76BFE002803D0BDE8F2
:101990001040FEF764BD10BD00640040140000203C
:1019A0000F4810B50D4901600521416000214FF439
:1019B00040328160C0E903121201426101760122C6
:1019C00042768276C17601774177FEF749FE00289C
:1019D00003D0BDE81040FEF742BD10BD00680040D6
:1019E0003C000020154808B5016841F00201016083
:1019F000016801F002010091016841F001010160FC
:101A0000016801F001010091016841F008010160E5
:101A1000016801F008010091016841F004010160D2
:101A2000016801F004010091016841F0800101604A
:101A3000006800F08000009008BD000030380240CF
:101A40001CB500240E4800940C490194016042F238
:101A50002731C0E9011409218461C160FFF76AFCE4
:101A600008B1FEF7FCFC0094694605480194FFF7B5
:101A700019FC002801D0FEF7F2FC1CBD001000404C
:101A8000640000200C4810B50A4901604FF4E131B0
:101A90004160002181600C22C160C0E904128161B3
:101AA000C161FFF781FE002803D0BDE81040FEF7BA
:101AB000D6BC10BD00100140AC0000200C4810B591
:101AC0000A4901600B494160002181600C22C1601C
:101AD000C0E904128161C161FFF766FE002803D0EE
:101AE000BDE81040FEF7BBBC10BD00000044004044
:101AF000F0000020A08601000C4810B50A490160E2
:101B00000B494160002181600C22C160C0E90412D0
:101B10008161C161FFF748FE002803D0BDE8104095
:101B2000FEF79DBC10BD00000048004034010020BD
:101B3000A0860100FEE7FEE770477047FFF728B870
:101B400030B593B030216846FEF717FC14210CA87D
:101B5000FEF713FC20480025016841F08051016028
:101B6000006800F0805011901C48016841F4404129
:101B700001600068022400F44040119001200090B0
:101B8000000401908001CDE90640192008904FF42F
:101B9000B470CDE9090404200B906846FFF7B6F94C
:101BA00008B172B6FEE7FFF78DF808B172B6FEE72E
:101BB0000CA90F2081E831004FF4A0500F904FF492
:101BC0008050109005210CA8FFF7B4F8002801D030
:101BD00072B6FEE713B030BD4038024000700040DE
:101BE0000248016841F470010160704788ED00E02F
:101BF0000148FFF7ECBB000064000020F0B502686C
:101C0000254C264D264E274F274B4FF0804CA042A7
:101C100009D0604507D0A84205D0B04203D0B842F1
:101C200001D0984204D122F0700E4A6842EA0E02B6
:101C3000A0421BD0604519D0A84217D0B04215D0A1
:101C4000B84213D0984211D0184DA8420ED0184D6A
:101C5000A8420BD0174DA84208D0174DA84205D076
:101C6000164DA84202D0164DA84203D122F4407569
:101C7000CA682A434D6922F080022A4302608A68BA
:101C8000C2620A688262A04201D0984201D1096909
:101C9000016301214161F0BD0000014000040040EA
:101CA00000080040000C00400004014000400140DA
:101CB000004401400048014000180040001C004062
:101CC0000020004010B5806B0021C185C184FFF762
:101CD00036FC10BD01680C3151E8002F22F49072DF
:101CE00041E80023002BF5D10168143151E8002FA1
:101CF00022F0010241E80023002BF5D1016B0129FC
:101D000009D101680C3151E8002F22F0100241E89E
:101D10000023002BF5D1202180F83E100021016323
:101D2000704708B590F83E10222901D0022008BD66
:101D300082684FF480539A4201D1016921B1816ACE
:101D40009A421BD04AB10AE00268816A5268C2F323
:101D500008020A80816A891C08E0026972B102687F
:101D6000526802F07F020A70816A491C8162C18D4B
:101D7000491E0904090CC18503D019E002685268A4
:101D8000F1E70168CA6822F02002CA600168CA68E7
:101D900022F48072CA6001684A6922F001024A6135
:101DA000202180F83E10016B012903D0FFF7D2FDFE
:101DB000002008BD0021016301680C3151E8002FAB
:101DC00022F0100241E80023002BF5D101680A68D7
:101DD000D20602D50A6849680091818DFFF7AEFBF3
:101DE000E6E7000070B5044600680169E26821F486
:101DF0004051114301612169A068E26908436169AA
:101E0000114308432168CA6849F20C639A430243AC
:101E1000CA6020684169A26921F44071114341619F
:101E200031492068884202D03049884202D1FFF708
:101E30002BF801E0FFF718F8E26900231921642567
:101E40003226B2F5004F626828D0A0FB0101930F43
:101E50009200FEF71BFA0146B0FBF5F06FF0180296
:101E6000504301EB800006EB0010B0FBF5F000F0F2
:101E7000F002B1FBF5F002EB0012B1FBF5F06FF0F0
:101E80001803584301EB800006EB0010B0FBF5F09F
:101E900000F00F0021681044886070BDA0FB0101B4
:101EA00092185B41FEF7F2F90146B0FBF5F0020132
:101EB000B1FBF5F06FF01803584301EB800006EB1F
:101EC000C000B0FBF5F000F0F80002EB4002B1FBFF
:101ED000F5F0584301EB800006EBC000B0FBF5F0D5
:101EE00000F00700D6E70000001001400014014098
:101EF0000148FFF725BB0000AC0000200148FFF7B8
:101F00001FBB0000F00000200148FFF719BB0000D4
:101F100034010020FEE70907090E002804DB00F168
:101F2000E02080F80014704700F00F0000F1E0207E
:101F300080F8141D7047FEF733FEFFF701FEFFF730
:101F400051FDFFF70BFDFFF72BFDFFF779FDFFF7C5
:101F500099FDFFF7B3FDFFF7CFFDFEE74FF04070AF
:101F6000E1EE100A704700000000000000000102CE
:101F70000304060708090000000001020304000032
:101F8000A01F00080000002014000000E801000865
:101F9000B41F000814000020C40700000402000859
:101FA0000000000001000000100000000000000020
:041FB0000024F40015
:04000005080001AD41
:00000001FF
