:020000040800F2
:10000000800C00209D010008E93D00084D2E0008ED
:100010000D39000829040008194B000800000000F1
:10002000000000000000000000000000394100084E
:10003000FB07000800000000ED3D000841420008F9
:10004000B7010008B7010008B7010008B7010008B0
:10005000B7010008B7010008B7010008B7010008A0
:10006000B7010008B7010008B7010008B701000890
:1000700039070008B7010008B7010008B7010008F8
:10008000B7010008B7010008B7010008D50400084F
:1000900095040008B7010008B7010008B70100087F
:1000A000B7010008B7010008B701000819430008AC
:1000B000B7010008B7010008B7010008B701000840
:1000C000B7010008B7010008B7010008B701000830
:1000D000B7010008B7010008B7010008A9490008E6
:1000E000B7010008B7010008B7010008B701000810
:1000F000B7010008B7010008B7010008B701000800
:10010000B7010008B7010008B7010008B7010008EF
:10011000B7010008B701000829430008B70100082B
:10012000B7010008B7010008B7010008B7010008CF
:10013000B7010008B7010008B7010008B7010008BF
:10014000A5050008B7010008B7010008B7010008BD
:10015000B7010008B7010008B7010008F14A00081C
:10016000B7010008B7010008B7010008B70100088F
:10017000B7010008B7010008B7010008000000003F
:10018000B7010008B7010008DFF80CD000F07AF8DA
:10019000004800470D4D0008800C002006488047AD
:1001A00006480047FEE7FEE7FEE7FEE7FEE7FEE75C
:1001B000FEE7FEE7FEE7FEE7FD42000889010008D2
:1001C0002DE9F05F0546002092469B46884606468C
:1001D000814640241BE0284641464746224600F01F
:1001E00041F853465A46C01A914110D31146184659
:1001F000224600F028F82D1A67EB01084F462246E8
:100200000120002100F01FF817EB00094E41201ECD
:10021000A4F10104DFDC484631462A464346BDE8E6
:10022000F09FD2B201E000F8012B491EFBD27047CB
:100230000022F6E710B513460A4604461946FFF7B2
:10024000F0FF204610BD202A04DB203A00FA02F11C
:10025000002070479140C2F1200320FA03F31943B4
:1002600090407047202A04DB203A21FA02F0002156
:10027000704721FA02F3D040C2F1200291400843B6
:1002800019467047064C074D06E0E06840F0010350
:1002900094E8070098471034AC42F6D3FFF778FF94
:1002A000644E0008844E000870B58C1810F8015B8D
:1002B00015F0070301D110F8013B2A1106D110F8FF
:1002C000012B03E010F8016B01F8016B5B1EF9D103
:1002D0002B0705D40023521E0DD401F8013BFAE789
:1002E00010F8013BCB1A921C03E013F8015B01F8F4
:1002F000015B521EF9D5A142D8D3002070BDC26D5A
:10030000016F511AC164C16C002901DB0A4600E08B
:100310004A4203EE102AB8EEC33AB4EEE13AF1EEE7
:1003200010FA03D8C26C416D0A44426590ED153A4B
:10033000B8EEC33AB4EEC23AF1EE10FA04DDBDEE07
:10034000C23A80ED153A10E090ED153AB8EEC33A96
:10035000F1EE423AB4EEE33AF1EE10FA05D2B1EE24
:10036000423ABDEEC33A80ED153A90ED133AB8EE3D
:10037000C33A23EE003ABDEEC33A80ED183A90ED51
:10038000153AB8EEC33A23EE203ABDEEC33A80EDFB
:10039000193AD0E91321511A03EE101AB8EEC33AF4
:1003A00023EE013ABDEEC33A80ED1A3AC26C026503
:1003B000C16C002901DB0A4600E04A42022A02DC45
:1003C0000022C2662FE0D0E918210A44816E114450
:1003D00003EE101AB8EEC33AB4EEE23AF1EE10FAB8
:1003E00004DDBDEEE23A80ED1B3A1CE0D0E91821B5
:1003F0000A44816E114403EE101AB8EEC33AF1EECE
:10040000623AB4EEE33AF1EE10FA06D2B1EE623A95
:10041000BDEEC33A80ED1B3A05E0D0E918210A444D
:10042000816E0A44C266704700BFFEE710B5064AF7
:100430000649074802F00CFD064A0749074802F042
:1004400007FD03F07BFE10BDB0000020C8000020B7
:1004500058030020E0000020F8000020D80300200E
:1004600070B504460D46A4F2032010B101280AD14C
:1004700004E02946054803F07DFC04E029460448D1
:1004800003F078FC00BF00BF70BD000058030020DF
:10049000D803002010B5024800F093FB10BD000007
:1004A000CC06002030B587B005460C4601950020EB
:1004B000039004900820059000208DF818006B46EA
:1004C000224601A9024800F0AFF907B030BD000094
:1004D000CC06002010B5024800F073FB10BD0000F0
:1004E000CC06002010B50B4A0B490C4803F018F855
:1004F0000B4A0C490C4803F013F80C4A0C490D4800
:1005000000F0A0F80C4A0D490D4800F0D8F803F0AF
:1005100047FE10BD50000020680000205802002057
:100520008000002098000020D802002070010020E8
:100530008801002058050020A0010020B8010020FB
:10054000D805002070B504460D46A4F2012030B154
:10055000012809D002280CD0032817D10EE0294623
:100560000B4803F007FC11E029460A4803F002FC9F
:100570000CE02946084803F0FDFB07E02946074840
:1005800003F0F8FB01200649087000BF00BF70BDF2
:1005900058020020D802002058050020D80500206D
:1005A0002600002010B5024800F00BFB10BD000033
:1005B000F406002030B587B005460C4601950020B2
:1005C000039004900820059000208DF81800002367
:1005D000224601A9024800F027F907B030BD00000B
:1005E000F406002000B58BB0012006900020079093
:1005F0000120089000200190029003900490059043
:10060000012009900E200A9001A90C4800F08EF9F3
:100610000A4800F086FD0221084800F0F3F80E2099
:10062000069001A9064800F081F9054800F079FD1F
:100630000221034800F0E6F80BB000BDCC06002014
:10064000F406002030B505460B46144693ED053AF6
:10065000F0EE432A93ED043AB0EE432A93ED033AC9
:10066000F0EE431A93ED023AB0EE431A93ED013ADD
:10067000F0EE430A93ED003AB0EE430A2846FFF746
:100680003EFEE96EA96294ED053AF0EE432A94ED40
:10069000043AB0EE432A94ED033AF0EE431A94ED97
:1006A000023AB0EE431A94ED013AF0EE430A94EDAB
:1006B000003AB0EE430A284604F030FA30BD30B5B7
:1006C00005460B46144693ED053AF0EE432A93EDAA
:1006D000043AB0EE432A93ED033AF0EE431A93ED59
:1006E000023AB0EE431A93ED013AF0EE430A93ED6D
:1006F000003AB0EE430A2846FFF701FEE96EA96210
:1007000094ED053AF0EE432A94ED043AB0EE432A14
:1007100094ED033AF0EE431A94ED023AB0EE431A28
:1007200094ED013AF0EE430A94ED003AB0EE430A3C
:10073000284604F0F3F930BD10B5024800F03CFD46
:1007400010BD00001C08002001680A4BCAB2103A14
:10075000A3FB02321209084B9B5CC365032A04D930
:100760006FF30901091D816502E06FF309018165DD
:10077000806D7047ABAAAAAA444E0008014600202B
:100780008A6A8B69002B0FD0B3F5005F1DD08AB346
:10079000012A30D0022A2ED0032A04D1C96A11F0CE
:1007A000807F00D0012070471AB1012A07D0022AA9
:1007B000F9D1C96A11F0807FF5D001207047C96A6C
:1007C000B1F1C07FFAD1012070475AB1012A0BD094
:1007D000022A07D0032AF7D1C96AB1F1C07FF3D149
:1007E0000120704701207047C96A11F0807FFAD05C
:1007F00001207047FFE701207047704772B600BFC5
:10080000FEE7704790F82020012A07D0022A05D081
:10081000416A41F4802141620120704700684269C9
:10082000114341610020704770B490F82040D0F827
:1008300000C0DCF808C0012C08D0022C06D0416AA8
:1008400041F48021416270BC012070470CF080644B
:100850000CF000652C4302D11CF0805F5FD0CCF31C
:10086000016CBCF1020F06D9416A41F400014162FA
:1008700070BC01207047012404FA0CF41C608B68E2
:100880004FF4C0749BB1CD6804EB0C162B434D683C
:1008900043EAC5030568AB514FF4C273066803EB26
:1008A0000C130D69F550097D012909D00DE00D8863
:1008B000CB6804EB0C1643EA45530568AB51EBE7F4
:1008C0000168CD5845F48075CD501179D3795579AB
:1008D00041EA036193791B0443EA052319434FF46A
:1008E000C675036805EB0C1559511178D37841EAA8
:1008F0000361937852781B0443EA022211434FF4B8
:10090000C473026803EB0C13D150016804EB0C10A4
:100910000A5842F001020A5070BC00207047416A38
:1009200041F40011416270BC0120704790F8202012
:10093000012A07D0022A05D0416A41F48021416290
:10094000012070474248D0F8002242F00102C0F86E
:100950000022D0F8002222F47C52C0F80022D0F805
:1009600000224B6A42EA0322C0F800220A7D0123DA
:1009700002F01F0203FA02F2D0F81C329343C0F8CF
:100980001C32CB69D3B9D0F80C329343C0F80C3287
:10099000B1F80CC04B686CF31F43D1F814C000EBE6
:1009A000CC0CCCF84032B1F808C00B686CF31F4394
:1009B000D1F814C000EBCC0CCCF84432CB69012B3D
:1009C0001AD1D0F80C321343C0F80C32B1F800C081
:1009D0004B686CF31F43D1F814C000EBCC0CCCF87F
:1009E0004032B1F808C0CB686CF31F43D1F814C093
:1009F00000EBCC0CCCF844328B697BB1D0F80432DC
:100A00001343C0F804320B6973B1D0F814321343A6
:100A1000C0F81432096A01290CD010E0D0F8043271
:100A20009343C0F80432EEE7D0F814329343C0F891
:100A30001432EFE7D0F81C121143C0F81C12D0F8A2
:100A4000001221F00101C0F80012002070470000E0
:100A500000640040704710B490F820C0BCF1010F52
:100A600009D0BCF1020F06D0416A41F480214162F5
:100A700010BC0120704739B1D0F800C0DCF810C0BC
:100A80001CF0030F7DD006E0D0F800C0DCF80CC0ED
:100A90001CF0030F7BD04FF4D87C04680CEB011CD6
:100AA00054F80C4004F004049460002C7DD00468D9
:100AB00054F80C40E4085460046854F80CC00CF07E
:100AC000020CC2F80CC04FF4DA7C04680CEB011C79
:100AD00054F80C4004F00F041461046854F80C40FE
:100AE000C4F307249461046854F80CC04FEA1C4C0A
:100AF000C2F814C04FF4DC72D0F800C002EB01124F
:100B00005CF802C083F800C0D0F800C05CF802C0F6
:100B10004FEA1C2C83F801C0D0F800C05CF802C07A
:100B20004FEA1C4C83F802C0D0F800C05CF80220E9
:100B3000120EDA704FF4DE72D0F800C002EB011230
:100B40005CF802C083F804C0D0F800C05CF802C0B2
:100B50004FEA1C2C83F805C0D0F800C05CF802C036
:100B60004FEA1C4C83F806C0D0F800C05CF80220A5
:100B7000120EDA71F9B10068016941F020010161DA
:100B800002E00BE003E010E010BC00207047416A77
:100B900041F40011416210BC01207047416A41F4E8
:100BA0000011416210BC01207047046854F80C40E9
:100BB000640D146080E70068C16841F02001C160E5
:100BC000DEE72DE9F05F0546002428684669D0F885
:100BD00004908768D0F80CA0D0F810B0D0F8188036
:100BE00016F0010F54D017F0010F17D001218160CA
:100BF00017F0020F03D0284600F0C6FA0EE017F0F7
:100C0000040F02D04FF4006408E017F0080F02D080
:100C10004FF4805402E0284600F0B5FA17F4807FC4
:100C200019D029684FF48070886017F4007F03D0D2
:100C3000284600F0ABFA0EE017F4806F02D044F4BF
:100C4000005408E017F4006F02D044F4804402E03E
:100C5000284600F09AFA17F4803F19D029684FF41B
:100C60008030886017F4003F03D0284600F090FAE7
:100C70000EE017F4802F02D044F4004408E017F48B
:100C8000002F02D044F4803402E0284600F07FFABE
:100C900016F0080F07D01AF0100F04D044F40074B7
:100CA00029681020C86016F0040F4FF0080707D01D
:100CB0001AF0080F04D02868C760284600F008FA28
:100CC00016F0020F07D02868C06810F0030F02D09A
:100CD000284600F0FFF916F0400F07D01BF0100F68
:100CE00004D044F4806429681020086116F0200FB5
:100CF00007D01BF0080F04D028680761284600F0D1
:100D00000DFA16F0100F07D02868006910F0030FD5
:100D100002D0284600F003FA16F4003F08D019F07C
:100D2000100F05D0296810204860284600F0F8F917
:100D300016F4803F07D019F0080F04D028684760E8
:100D4000284600F026FA16F4004F4AD019F0040F96
:100D500044D016F4807F04D018F0010F01D044F085
:100D6000010416F4007F04D018F0020F01D044F003
:100D7000020416F4806F04D018F0040F01D044F080
:100D8000040416F4006F29D018F0700F26D008F074
:100D90007000402815D006DC102809D020280AD081
:100DA000302816D10AE050280ED0602811D10EE06C
:100DB00044F008040DE044F010040AE044F020047C
:100DC00007E044F0400404E044F0800401E044F40F
:100DD00080742868816921F070018161296804208C
:100DE0004860002C05D0686A204368622846FFF7F7
:100DF00031FEBDE8F09F70B50446002C03D094F896
:100E0000200010B104E0012070BD204600F0A8F8D9
:100E10002068016821F00201016000F06DFC0546C8
:100E2000206840684FF0050610F0020F11D000F066
:100E300063FC401B0A2807D9606A40F400306062F6
:100E400084F82060012070BD2068406810F0020F17
:100E5000EDD12068016841F00101016000F04CFC17
:100E600005462068406810F0010F11D100F044FCE5
:100E7000401B0A2807D9606A40F40030606284F899
:100E80002060012070BD2068406810F0010FEDD097
:100E9000207E01283FD02068016821F08001016098
:100EA000607E01283DD02068016821F0400101608A
:100EB000A07E01283BD02068016821F0200101605C
:100EC000E07E012839D02068016841F010010160FE
:100ED000207F012837D02068016821F008010160D7
:100EE000607F012835D02068016821F0040101608D
:100EF000E168A06862690843216911430843616899
:100F0000491E08432168C86100206062012084F8FE
:100F10002000002070BD2068016841F08001016060
:100F2000BEE72068016841F040010160C0E7206829
:100F3000016841F020010160C2E72068016821F0EA
:100F400010010160C4E72068016841F008010160F8
:100F5000C6E72068016841F004010160C8E70000AD
:100F600010B586B00446142101A8FFF761F9524973
:100F70002068884249D151480068401C4F490860A8
:100F80000846006801280FD100BF002000904C489F
:100F9000006840F000704A4908600846006800F0A8
:100FA0000070009000BF00BF00BF002000904448C8
:100FB0001038006840F008004149103908600846C0
:100FC000006800F00800009000BF00BF03200190FF
:100FD0000220029000200390032004900920059035
:100FE00001A9384800F054FA00220121132000F032
:100FF000FFFB132000F0EEFB00220121142000F083
:10100000F7FB142000F0E6FB54E02F4920688842EB
:1010100050D100BF002000902948006840F0806057
:10102000274908600846006800F08060009000BF13
:1010300000BF22480068401C20490860084600683C
:1010400001280FD100BF002000901D48006840F02B
:1010500000701B4908600846006800F000700090AE
:1010600000BF00BF00BF0020009015481038006886
:1010700040F002001249103908600846006800F08C
:101080000200009000BF00BF60200190022002908B
:1010900000200390032004900920059001A90B482B
:1010A00000F0F6F900220121402000F0A1FB4020D1
:1010B00000F090FB06B010BD00640040400000202E
:1010C00040380240000C024000680040000402402A
:1010D0007047000010B588B00446012002F068F99E
:1010E0000B4B01AA00212046FFF7B5FC09488442BA
:1010F00004D107490198FFF7B3F906E00648844296
:1011000003D103490198FFF71DFA08B010BD000094
:1011100044000020CC060020F406002070477047F1
:10112000704770B5044694F82000012805D0606A25
:1011300040F400206062012070BD022084F820008D
:101140002068016821F00101016000F0D5FA054630
:101150002068406810F0010F12D000F0CDFA401B5B
:101160000A2808D9606A40F400306062052084F8DB
:101170002000012070BD2068406810F0010FECD104
:101180000020606270BD70477047704770477047BD
:101190007047704790F83510022903D080214165CF
:1011A00001207047052180F835100068016821F0A2
:1011B00001010160002070472DE9F84304464FF01B
:1011C0000008CDF8008076484FF416510068B0FB57
:1011D000F1F7A56D2E6894F85C00082101FA00F083
:1011E000304211D02068026812F0040F0CD002685F
:1011F00022F00402026094F85C0001FA00F0A8609A
:10120000606D40F00100606594F85C004FF00109EA
:1012100009FA00F0304209D02168496911F0800FC5
:1012200004D0A860606D40F00200606594F85C1026
:1012300004208840304209D02168096811F0020F6B
:1012400004D0A860606D40F00400606594F85C1004
:1012500010208840304224D02168096811F0080F1E
:101260001FD0A8602068016811F4802F0DD000689D
:1012700010F4002F04D0A16C99B12046884710E0EB
:10128000216C71B1204688470BE0016811F4807F22
:1012900003D1016821F008010160216C09B12046E9
:1012A000884794F85C1020208840304251D0216853
:1012B000096811F0100F4CD0A86094F8350005288B
:1012C0000DD02068016811F4802F32D0006810F42E
:1012D000002F29D0E16B59B32046884739E02068B8
:1012E000016821F0160101602068416921F0800148
:1012F0004161206C08B9A06C20B12068016821F020
:101300000801016094F85C003F2101FA00F0A86038
:1013100084F8348084F83590216D00293ED001B0E6
:101320002046BDE8F0430847616C09B12046884774
:101330000FE0016811F4807F07D1016821F01001EE
:10134000016084F8348084F83590E16B09B120465F
:101350008847606D002821D0606D10F0010F15D016
:10136000052084F835002068016821F00101016042
:101370000098401C0090B84204D82068006810F023
:10138000010FF5D184F8348084F83590E16C0029A0
:1013900004D001B02046BDE8F0430847BDE8F8831B
:1013A0000C0200202DE9F041044600F0A5F90546A5
:1013B000DCB1002684F83460022084F8350020680F
:1013C000016821F0010101602068006810F0010F40
:1013D00013D000F091F9401B052809D92020606541
:1013E000032084F83500BDE8F0810120BDE8F081DC
:1013F0002068006810F0010FEBD121680868234ACB
:101400001040A3686268D4F810C01A43E36843EA46
:101410000C031A4363691A43A3691A43E3691A4325
:10142000236A1A431043626A042A03D1236BE26AD7
:101430001A43104308602068406920F00701606A81
:1014400040EA0105012704280ED1A06A0543E06A9D
:1014500050B12046FFF792F930B14020606584F822
:1014600035700120BDE8F081206845612046FFF716
:101470006BF994F85C103F2202FA01F18160666515
:1014800084F835700020BDE8F08100003F8010F046
:101490002DE9F84F002203248E4E8F4F0F25012394
:1014A00003FA02F80B6803EA080343457DD1D1F83B
:1014B00004C0BCF1010F08D0BCF1020F05D0BCF193
:1014C000110F02D0BCF1120F1DD1D0F808904FEAD5
:1014D000420C04FA0CFA29EA0A09D1F80CA00AFA1B
:1014E0000CFC4CEA090CC0F808C0D0F804C02CEA87
:1014F000080C91F80480C8F3001808FA02F848EACA
:101500000C0CC0F804C0D0F80C904FEA420C04FA5E
:101510000CF829EA0809D1F808A00AFA0CFA4AEAF4
:101520000909C0F80C90D1F80490B9F1020F02D06B
:10153000B9F1120F15D14FEAD20900EB8909D9F898
:1015400020B04FEA427A4FEADA6A05FA0AFE2BEA3D
:101550000E0BD1F810E00EFA0AFA4AEA0B0AC9F8A3
:1015600020A0D0F8009029EA080891F8049009F02A
:10157000030909FA0CFC4CEA080CC0F800C0D1F8C9
:1015800004C01CF0805F10D0D6F800C04CF4804C32
:10159000C6F800C0D6F800C00CF4804CCDF800C0EE
:1015A00022F0030C0CF1804900E075E009F5983950
:1015B000D9F808C84FEA82784FEA187805FA08FA8D
:1015C0002CEA0A0AA0F1804CBCF5003C6AD0A0F1DC
:1015D000804CBCF5013C68D0A0F1804CBCF5023CCD
:1015E00066D0A0F1804CBCF5033C64D0A0F1804CE7
:1015F000BCF5043C62D0A0F1804CBCF5053C60D049
:10160000A0F1804CBCF5063C5ED0A0F1804CBCF54E
:10161000073C5CD04FF0080C0CFA08FC4CEA0A0CB2
:10162000C9F808C8DFF8B480D8F800C02CEA030C69
:10163000D1F8049019F4803F01D04CEA030CC8F8AB
:1016400000C0DFF89C80D8F800C02CEA030CD1F869
:10165000049019F4003F01D04CEA030CC8F800C014
:10166000D7F800C02CEA030CD1F8048018F4801FCE
:1016700001D04CEA030CC7F800C0DFF86880D8F846
:1016800000C02CEA030CD1F8049019F4001F01D01B
:101690004CEA030CC8F800C0521C102AFFF4FFAE3D
:1016A000BDE8F88F4FF0000CB6E74FF0010CB3E740
:1016B0004FF0020CB0E74FF0030CADE74FF0040C15
:1016C000AAE74FF0050CA7E74FF0060CA4E74FF090
:1016D000070CA1E744380240083C0140003C0140AF
:1016E000043C01400C3C0140002A01D0816170475C
:1016F000090481617047000001488068704700005C
:10170000000200200248816802781144816070471D
:101710000002002010B50B48016841F4007101601F
:10172000016841F480610160016841F480710160E9
:10173000032000F091F8002000F006F800F026F8F1
:10174000002010BD003C024070B504460D4D4FF422
:101750007A712878B1FBF0F00B490968B1FBF0F021
:1017600000F0E4FB08B1012070BD102C07D200226C
:101770002146501E00F03CF86C60002070BD012036
:1017800070BD0000000200200C02002008B500BF60
:10179000002000900E48006840F480400C4908602A
:1017A0000846006800F48040009000BF00BF00BF02
:1017B00000200090081F006840F08050091F08605A
:1017C0000846006800F08050009000BF00BF08BDD0
:1017D0004438024000280ADB00F01F01012202FA0F
:1017E00001F14009800000F1E020C0F800117047CD
:1017F00010B4184B1B68C3F30223C3F1070CBCF1F0
:10180000040F01D94FF0040C1C1D072C01D200233A
:1018100000E0DB1E012404FA0CFCACF1010C0CEA24
:101820000101994004FA03F35B1E1A40114300289A
:1018300006DB00F1E020090180F8001410BC7047BD
:1018400000F00F0000F1E020090180F8141D10BC29
:10185000704700000CED00E000F00700064A116838
:101860004FF6FF03194041EA002040F0FD7040F0C0
:1018700080601060704700000CED00E02DE9F0473B
:1018800004460D46002C13D0DFF85491D9F800001F
:10189000EFB200F00F00A8420DD289F80070D9F81D
:1018A000000000F00F00A84205D00120BDE8F0873D
:1018B0000120BDE8F08720684A4E10F0020F14D0D6
:1018C00010F0040F03D0306840F4E050306020780E
:1018D00010F0080F03D0306840F46040306030688A
:1018E000A16820F0F00008433060207810F0010F6C
:1018F0003ED060683C49012808D002280DD003285A
:101900000BD0096811F0020F28D00AE0096811F421
:10191000003F06D10120BDE8F087096811F0007F83
:1019200019D0316821F0030108433060FFF7E4FE6D
:1019300080463068616800F00C00B0EB810F17D072
:1019400041F2883AFFF7D8FEA0EB0800504508D9CD
:101950000320BDE8F0870120BDE8F0870120BDE845
:10196000F0873068616800F00C00B0EB810FE9D1BE
:10197000D9F8000000F00F00A8420AD989F80070D9
:10198000D9F8000000F00F00A84202D00120BDE805
:10199000F087207810F0040F05D03068E16820F45B
:1019A000E05008433060207810F0080F06D030680F
:1019B000216920F4604040EAC100306000F042F844
:1019C00031680A4AC1F30311515CC84008490860F4
:1019D00008480068FFF7B8FE0020BDE8F087000067
:1019E000003C024008380240003802404C4E0008DB
:1019F0000C0200200402002001480068704700002B
:101A00000C02002000B5FFF7F7FF04490968044AFB
:101A1000C1F38221515CC84000BD0000083802407B
:101A20005C4E000800B5FFF7E7FF04490968044A67
:101A3000C1F34231515CC84000BD0000083802408B
:101A40005C4E000810B51748006810F00C011648ED
:101A500016D0164B042912D0082911D1144C216834
:101A600001F03F02216811F4800F0AD02068C0F312
:101A70008810A0FB03010023FEF7A2FB09E0184633
:101A800010BD21680023C1F38811A1FB0001FEF7FE
:101A900097FB2168C1F30141491C4900B0FBF1F0FB
:101AA00010BD0000083802400024F400001BB700FD
:101AB000043802402DE9F84F0446002C12D020785B
:101AC000FB4E10F0010FA6F1040563D0301D016834
:101AD00001F00C0104290CD0006800F00C0008286B
:101AE00003D010E00120BDE8F88F306810F4800FBB
:101AF00009D0286810F4003F4CD06068002849D114
:101B00000120BDE8F88F6068B0F5803F14D0B0F5D3
:101B1000A02F16D0286820F480302860286820F490
:101B200080202860606810B3FFF7E6FD074628684C
:101B300010F4003F0ED02DE0286840F4803028607B
:101B4000F0E7286840F480202860286840F480305E
:101B50002860E7E7FFF7D0FDC01B642802D9032007
:101B6000BDE8F88F286810F4003FF3D012E0FFF7CB
:101B7000C3FD0746286810F4003F0BD0FFF7BCFDFB
:101B8000C01B642802D90320BDE8F88F286810F430
:101B9000003FF3D12078C74F10F0020F4FF000093B
:101BA00057D0C548016811F00C0F14D0006800F040
:101BB0000C00082803D1306810F4800F0BD0E068C7
:101BC00080B301203860FFF797FD8046286810F049
:101BD000020F12D01EE0286810F0020F05D0E06856
:101BE000012802D00120BDE8F88F2868216920F083
:101BF000F80040EAC10028602BE0FFF77DFDA0EB74
:101C00000800022802D90320BDE8F88F286810F0E8
:101C1000020FF2D02868216920F0F80040EAC100E4
:101C2000286016E0FFE7C7F80090FFF765FD8046E3
:101C3000286810F0020F0CD0FFF75EFDA0EB080043
:101C4000022802D90320BDE8F88F286810F0020F9F
:101C5000F2D1207810F0080F35D09848DFF860A254
:101C60006169C1B101210160FFF746FD8046DAF8E4
:101C7000000010F0020F26D1FFF73EFDA0EB080098
:101C8000022802D90320BDE8F88FDAF8000010F02E
:101C9000020FF1D017E0C0F80090FFF72DFD80464D
:101CA000DAF8000010F0020F0DD0FFF725FDA0EBD1
:101CB0000800022802D90320BDE8F88FDAF80000F6
:101CC00010F0020FF1D1207810F0040F71D04FF016
:101CD00000087C48006810F0805F0AD179480168EC
:101CE00041F080510160006800F0805000904FF09A
:101CF0000108DFF8D4B1DBF8000010F4807F1BD1BD
:101D0000DBF8000040F48070CBF80000FFF7F4FC33
:101D10008246DBF8000010F4807F0DD1FFF7ECFC69
:101D2000A0EB0A00022802D90320BDE8F88FDBF8F7
:101D3000000010F4807FF1D0A068DFF890B1012896
:101D400018D005281DD0DBF8000020F00100CBF8EA
:101D50000000DBF8000020F00400CBF80000A068D1
:101D600040B3FFF7C9FC8246DBF8000010F0020F19
:101D700014D03EE0DBF8000040F00100CBF800009A
:101D8000EDE7DBF8000040F00400CBF80000DBF8E2
:101D9000000040F00100CBF80000E0E7FFF7ACFCEA
:101DA000A0EB0A0141F28830814204D90320BDE84A
:101DB000F88F26E005E0DBF8000010F0020FEDD010
:101DC00017E0FFF799FC8246DBF8000010F0020FE5
:101DD0000FD0FFF791FCA0EB0A0141F2883081425D
:101DE00002D90320BDE8F88FDBF8000010F0020FE5
:101DF000EFD1B8F1010F04D13248016821F08051D0
:101E00000160A069F0B32C49096801F00C010829B0
:101E100068D0022810D0C7F86090FFF76DFC044628
:101E2000286810F0007F7ED0FFF766FC001B0228B8
:101E300053D90320BDE8F88FC7F86090FFF75CFC2A
:101E40008046286810F0007F0CD0FFF755FCA0EB0F
:101E50000800022802D90320BDE8F88F286810F096
:101E6000007FF2D1216AE069A26A0843616A4FF0FB
:101E7000FF33890103EB520241EA0241084394F81F
:101E80002C1000E04FE040EA01603060012038662D
:101E9000FFF732FC0446286810F0007F43D1FFF7BB
:101EA0002BFC001B022813D90320BDE8F88F00008B
:101EB000043802400000474208380240800E474282
:101EC00074380240403802400070004070380240D0
:101ED000286810F0007FE2D025E0286810F0007F2D
:101EE000A2D120E001281CD03068E26900F4800112
:101EF000914214D1226A00F03F0191420FD147F67E
:101F0000C071626A0140914209D1A26A00F4403175
:101F1000914204D1E16A00F07060884203D0012050
:101F2000C3E70120C1E70020BFE70000401EB0F179
:101F3000807F01D3012070474FF0E0214861044ABF
:101F4000F020107000208861072008610020704791
:101F500023ED00E07047704790F83C20012A2CD018
:101F6000012280F83C20CA680023D1F808C022F47E
:101F7000407242EA0C02D1F804C022F4806242EAC4
:101F80000C02D1F800C022F4006242EA0C02D1F83F
:101F900010C022F4805242EA0C02D1F814C022F49C
:101FA000005242EA0C02C96922F4804211430268DD
:101FB000516480F83C30002070470220704730B4F4
:101FC00090F83C20012A44D0012480F83C400222B1
:101FD00080F83D200268D2F804C093682CF0700CA1
:101FE0000D6845EA0C0CC2F804C00268A2F1804CEE
:101FF000BCF5803C20D0B2F1804F1DD0A2F1804CC6
:10200000BCF5806C18D0A2F1804CBCF5006C13D0EC
:10201000A2F1804CBCF5406C0ED0A2F1804CBCF516
:10202000823C09D0A2F1804CBCF5A03C04D0A2F1C6
:10203000804CBCF5C05C04D123F08003496819438F
:10204000916080F83D40002180F83C1030BC0020B9
:10205000704730BC0220704710B50446002C03D0F6
:1020600094F83D0010B107E0012010BD002084F875
:102070003C00204600F00CF8022084F83D00211DB1
:10208000206802F059F9012084F83D00002010BDBD
:1020900038B504461D492068884218D100BF002089
:1020A00000901B48006840F001001949086008468C
:1020B000006800F00100009000BF00BF0022114640
:1020C0001B20FFF795FB1B20FFF784FB1DE0114948
:1020D0002068884219D100BF002000900C48001FE2
:1020E000006840F010000A49091F086008460068AF
:1020F00000F01000009000BF00BF00220121362038
:10210000FFF776FB3620FFF765FB38BD0000014086
:1021100044380240001000400168CA6842F00102E1
:10212000CA600068816801F00701062903D00168D0
:1021300041F0010101600020704770B5044694F839
:102140003C00012818D0012584F83C50022084F876
:102150003D002068826822F0770222F47F4282608C
:102160000868502832D00EDC20284DD006DC00282C
:102170004AD010284DD147E0022070BD302843D00E
:10218000402846D136E060282AD0702806D0B0F525
:10219000805F3ED0B0F5005F3BD10BE0CB684A6872
:1021A0008968206802F03DF92068816841F0770174
:1021B00081602EE0CB684A688968206802F031F9B6
:1021C0002068816841F48041816022E0CA684968E2
:1021D000206802F015FA5021206802F02DF918E06D
:1021E000CA684968206802F01EFA6021206802F07F
:1021F00023F90EE0CA684968206802F001FA40211C
:10220000206802F019F904E022680146104602F045
:1022100013F984F83D50002084F83C0070BD7047ED
:1022200070B50446206801694FF0000511F0020FF7
:1022300017D0C16811F0020F13D0E91E016101200F
:1022400020772068806910F0030F03D02046FFF745
:10225000E6FF05E0204600F0CDF8204600F056F9F4
:1022600025772068016911F0040F18D0C16811F0BA
:10227000040F14D06FF00401016102202077206860
:10228000806910F4407F03D02046FFF7C8FF05E0C7
:10229000204600F0AFF8204600F038F92577206896
:1022A000016911F0080F18D0C16811F0080F14D09F
:1022B0006FF008010161042020772068C06910F0E8
:1022C000030F03D02046FFF7AAFF05E0204600F0E9
:1022D00091F8204600F01AF925772068016911F07D
:1022E000100F18D0C16811F0100F14D06FF010014A
:1022F0000161082020772068C06910F4407F03D076
:102300002046FFF78CFF05E0204600F073F82046DA
:1023100000F0FCF825772068016911F0010F09D061
:10232000C16811F0010F05D06FF001010161204675
:1023300000F072F92068016911F0800F09D0C168BE
:1023400011F0800F05D06FF0800101612046FFF78A
:1023500001FE2068016911F0400F09D0C16811F039
:10236000400F05D06FF040010161204600F066FA91
:102370002068016911F0200F0BD0C16811F0200F07
:1023800007D06FF0200101612046BDE87040FFF7E3
:10239000E2BD70BD10B586B00446142101A8FDF75A
:1023A00047FF1149206888421CD100BF00200090DF
:1023B0000E48006840F010000C49086008460068AC
:1023C00000F01000009000BF00BF481501900220EF
:1023D00002900020039004900120059001A9044878
:1023E000FFF756F806B010BD00000140303802403B
:1023F00000100240704770B504460D4694F83C004A
:1024000001280DD0012684F83C60022084F83D00AC
:1024100042B1042A1AD0082A2DD00C2A53D13EE00A
:10242000022070BD2946206802F00EF820688169FC
:1024300041F0080181612068816921F00401816116
:10244000206881692A69114381613CE0294620683E
:1024500002F032F82068816941F4006181612068EE
:10246000816921F480618161206881692A6941EA7A
:102470000221816127E02946206802F059F820688E
:10248000C16941F00801C1612068C16921F00401FE
:10249000C1612068C1692A691143C16113E02946FD
:1024A000206802F081F82068C16941F40061C161CF
:1024B0002068C16921F48061C1612068C1692A690D
:1024C00041EA0221C16184F83D60002084F83C00AB
:1024D00070BD10B50446002C03D094F83D0010B137
:1024E00007E0012010BD002084F83C00204600F0E9
:1024F0000CF8022084F83D00211D206801F01CFF2B
:10250000012084F83D00002010BD704710B504463E
:10251000094884420FD109480078401C07490870D7
:10252000087800EBD0714910A0EB410119B90021E6
:10253000014800F043F810BD1C0700204D000020AA
:1025400010B504460029226806D0042909D00829BC
:102550000CD00C2913D10EE0D06840F00200D060FE
:102560000DE0D06840F00400D06008E0D06840F092
:102570000800D06003E0D06840F01000D060012275
:10258000206801F03FFF2068A0F18041B1F5803163
:1025900004D0A0F18041B1F5823103D1416C41F406
:1025A000004141642068816801F00701062903D0D9
:1025B000016841F001010160002010BD10B5044622
:1025C0000022206801F01EFF216841F211139A10C9
:1025D000A1F18040B0F5803004D0A1F18040B0F589
:1025E000823009D1086A184206D1086A104203D124
:1025F000486C20F4004048642068016A194206D102
:10260000016A114203D1016821F00101016001203A
:1026100084F83D00002010BD10B5044671480068E4
:10262000072190FBF1F201FB120008B902F03CFB1C
:102630006D48007801280FD16C48007860B90120FE
:102640006B4908606B4908606B49086000206B4962
:102650000870401E63490860644800786249087049
:102660006448006800287DD1614800680028FAD1DC
:10267000614800680028F6D15A480068401CD8B963
:102680006FF001005E49086102205E490861C01FC9
:102690005D49086105205D4908619FED5D0A5D485F
:1026A00080ED050A9FED5C0A5C4880ED050A9FED10
:1026B0005A0A5B4880ED050A4A480068401C4949AF
:1026C00008605149086F002801DB014600E04142E3
:1026D00041F22D0291FBF2F1524A11704849086F04
:1026E000002801DB014600E0414240F20E3291FB3E
:1026F000F2F14D4A11704D49096F01F598300028EB
:1027000001DB014600E0414240F2612291FBF2F11F
:10271000474A117033480068072190FBF1F201FB32
:10272000120008B9FEF76DF82E4800680F2190FBE3
:10273000F1F201FB120018B901F076FC01F084FC03
:1027400001F00EF927480068322190FBF1F201FBFD
:10275000120008B901F0AAFC224800680F2190FB82
:10276000F1F200E015E001FB120048B931480068C1
:1027700010B900F08DFA01E000F0A8FB00F004FEB3
:1027800018480068B0F57A7F22DB012015490860FF
:102790001EE01A48007801281AD11648006801285E
:1027A00001D101F069FA12480068012806D19FEDB5
:1027B000220A184880ED050A01F0AAF80E480068C0
:1027C000012801D101F0A2FAFDF730FEFDF78AFEE3
:1027D000FDF72CFE09480078012801D1FDF782FEA3
:1027E00010BD0000D4010020E801002035000020C9
:1027F000F4010020F0010020F80100202600002054
:1028000058030020D803002058020020D8020020DE
:1028100000A00C467001002000401C45680000200C
:10282000980000203200002033000020D80500204E
:1028300034000020180000200000FA447047704760
:1028400010B5044622681068D168526900F00F0381
:10285000002B0AD110F0200F07D011F0200F04D068
:102860002046BDE8104001F013BF002B71D002F0EC
:10287000010301F4907C53EA0C0C6AD010F0010FB4
:1028800008D011F4807F05D0D4F83CC04CF0010C86
:10289000C4F83CC010F0040F08D012F0010F05D0AE
:1028A000D4F83CC04CF0020CC4F83CC010F0020F4D
:1028B00006D012F0010F03D0E26B42F00402E26393
:1028C00010F0080F07D001F020021A4303D0E26B8A
:1028D00042F00802E263E26B002A2ED010F0200FD3
:1028E00005D011F0200F02D0204601F0D1FE206863
:1028F0004069C0F38010E16B11F0080F00D108B3FC
:10290000204601F0AAFE2068416911F0400F15D061
:10291000416921F040014161606B58B1184901657E
:10292000606BFEF737FC002807D0606B016DBDE8D7
:10293000104008472046FFF782FF10BD2046FFF7F2
:102940007EFF10BD2046FFF77AFF0020E06310BD38
:10295000FFE710F0800F07D011F0800F04D0204661
:10296000BDE8104001F0B0BF10F0400FEFD011F003
:10297000400FECD02046BDE8104001F07CBE0000C6
:102980004B46000870B50446002C04D094F839007A
:10299000002510B106E0012070BD84F838502046B3
:1029A00000F022F8242084F839002068C16821F45E
:1029B0000051C160204601F0B9FE2068016921F490
:1029C000904101612068416921F02A01416120683C
:1029D000C16841F40051C160E563202084F83900EA
:1029E00084F83A00002070BD10B586B0044614216A
:1029F00001A8FDF71DFC5049206888425AD100BF4C
:102A0000002000904D48006840F480204B49086049
:102A10000846006800F48020009000BF00BF00BF9F
:102A20000020009045481038006840F004004349F9
:102A3000103908600846006800F00400009000BFEC
:102A400000BF4FF4406001900220029000200390EC
:102A5000032004900720059001A93948FEF718FDCE
:102A60003848394908604FF0006048600021364816
:102A70008160C1604FF48061016100214161816129
:102A80004FF48071C1610902016200214162FEF7C9
:102A900089FC08B1FDF7B2FE00BF2B486063846378
:102AA00000BF002201212720FEF7A2FE2720FEF70B
:102AB00091FE3EE02549206888423AD100BF0020BF
:102AC00000901E48001D006840F020001B49091DB1
:102AD00008600846006800F02000009000BF00BFBA
:102AE00000BF0020009015481038006840F04000FA
:102AF0001249103908600846006800F04000009054
:102B000000BF00BF4FF484400190022002900020DB
:102B10000390032004900820059001A90C48FEF7BB
:102B2000B7FC002211464720FEF762FE4720FEF761
:102B300051FE06B010BD0000004800404038024081
:102B400000080240286002401C08002000140140D8
:102B50000018024090F83A30202B01D00220704734
:102B6000F9B1F2B190F83830012B1CD08162828526
:102B7000C2850021C163222280F83A2080F83810F3
:102B80000168CA6842F48072CA6001684A6942F00A
:102B900001024A610068C16841F02001C160002063
:102BA0007047012070470220704770472DE9F843B5
:102BB00004460D4690461E4694F83900202802D05F
:102BC0000220BDE8F8836DB3B8F1000F2AD094F865
:102BD0003800012829D0012084F838004FF000097E
:102BE000C4F83C90212084F83900FEF785FD0746A3
:102BF000A4F82480A4F8268084F83890E08CA0B350
:102C0000E08C401EE084A068B0F5805F10D03B46A9
:102C1000002280212046009601F089FEF0B10320B9
:102C2000BDE8F8830120BDE8F8830220BDE8F88301
:102C30003B46002280212046009601F078FE10B12C
:102C40000320BDE8F88328882168C0F308004860A5
:102C5000206908B16D1C05E0AD1C03E0216815F882
:102C6000010B4860E08C0028CAD13B46002240217D
:102C70002046009601F05BFE10B10320BDE8F8830A
:102C8000202084F839000020BDE8F8837047000058
:102C90000020644908706448C07A012865D1624800
:102CA000807A032803D100206049087012E05E4852
:102CB000807A012805D103205C49087059490870C1
:102CC00008E05948807A022804D104205749087046
:102CD000544908705448B0F9060040F25E518842E9
:102CE00003DD0320524908700DE04F48B0F906009B
:102CF00040F2A221884203DA04204D49087002E024
:102D000000204B4908704848B0F9040040F25E5179
:102D1000884203DD0320474908700DE04248B0F9BE
:102D2000040040F2A221884203DA042041490870DD
:102D300002E000203F4908703B48B0F9000040F233
:102D40005E51884203DD03203B4908700DE03648A0
:102D5000B0F9000040F2A221884203DA042036498B
:102D6000087002E00020344908702F48C07A032818
:102D700048D12D48807A032803D100202F490870BC
:102D80000EE02948807A012803D103202B490870DE
:102D900006E02548807A022802D1042027490870DD
:102DA0002148B0F9020040F25E51884203DD032061
:102DB000234908700DE01C48B0F9020040F2A2213E
:102DC000884203DA04201E49087002E000201C49F2
:102DD00008701548B0F9000040F25E51884203DDEA
:102DE0000320184908700DE00F48B0F9000040F2C8
:102DF000A221884203DA04201249087002E0002070
:102E0000104908700848C07A022809D10648807A1B
:102E1000012802D10C49087002E000200A4908701C
:102E2000704700003700002000000020270000202D
:102E300038000020390000203A000020280000203F
:102E40002B0000202C0000203600002000BFFEE7F1
:102E500030B505460B46144693ED053AF0EE432A8D
:102E600093ED043AB0EE432A93ED033AF0EE431AA1
:102E700093ED023AB0EE431A93ED013AF0EE430AB5
:102E800093ED003AB0EE430A2846FDF738FAE96EB2
:102E9000A96294ED053AF0EE432A94ED043AB0EEBF
:102EA000432A94ED033AF0EE431A94ED023AB0EE61
:102EB000431A94ED013AF0EE430A94ED003AB0EE75
:102EC000430A284601F02AFE30BD000010B500205C
:102ED000FE490870FE490870FE490870FE490870F6
:102EE000FE490870FE48B0F90C00B0F5FA7F08DA28
:102EF000FB48B0F90C00142803DD0320F9490870E1
:102F000012E0F748B0F90C0010F1140F09DAF44898
:102F1000B0F90C0010F5FA7F03DD0420F1490870C8
:102F200002E00020EF490870ED4AB2F90E100029C6
:102F300001DB0A4600E04A42B2F5FA7F2DDAE84AA0
:102F4000B2F90E00002801DB024600E04242142ADA
:102F500023DDE349B1F90E004FF4FA735A42002120
:102F600001F080FEB5EEC00AF1EE10FA03DD01209B
:102F7000DD49087014E0DA49B1F90E004FF4FA7334
:102F80005A42002101F06EFEB5EEC00AF1EE10FAD1
:102F900006D20220D449087002E00020D24908700D
:102FA000D248007800287DD1CD48007D00F0010096
:102FB00040B1CB48007D00F0020018B90320CC4995
:102FC000087010E0C648007D00F0020040B1C4481F
:102FD000007D00F0010018B90420C549087002E026
:102FE0000020C3490870BE48007D00F0080040B1D1
:102FF000BB48007D00F0040018B90320BD490870EB
:1030000010E0B748007D00F0040040B1B448007DF6
:1030100000F0080018B90420B649087002E000204A
:10302000B4490870AE48007D00F0400090B1AC4853
:10303000007D00F0800068B9A948007D00F0100014
:1030400040B90420A1490870A44908700020A14992
:10305000087016E0A248007D00F0800088B1A0480A
:10306000007D00F0400060B99D48007D00F0100038
:1030700038B903209549087098490870002095498F
:1030800008709748808A00F4006090B19448808A64
:1030900000F4005068B99248007D00F0100040B97B
:1030A000042000E01EE08A49087000208A49087068
:1030B000ACE08B48808A00F400500028F8D08848A3
:1030C000808A00F400600028F2D18548007D00F07D
:1030D00010000028ECD103207D49087000207E49B3
:1030E000087093E07E48007D00F0010040B17C480C
:1030F000007D00F0020018B906207D49087010E03C
:103100007748007D00F0020040B17548007D00F076
:10311000010018B907207649087002E000207449C0
:1031200008706F48007D00F0080040B16C48007DD9
:1031300000F0040018B906206E49087010E06848D5
:10314000007D00F0040040B16548007D00F00800FB
:1031500018B907206749087002E000206549087027
:103160005F48007D00F0400080B15D48007D00F0C8
:10317000800058B95A48007D00F0100030B9062090
:103180005249087000205349087014E05448007DEB
:1031900000F0800078B15248007D00F0400050B946
:1031A0004F48007D00F0100028B9072047490870FB
:1031B0000020484908704A48808A00F4006080B1C5
:1031C0004748808A00F4005058B94548007D00F017
:1031D000100030B906203E49087000203E490870B2
:1031E00014E03F48808A00F4005078B13C48808A5F
:1031F00000F4006050B93A48007D00F0100028B992
:103200000720334908700020334908703448807C17
:1032100010B10120384908703148C07C10B102203B
:10322000354908702E48007D00F0400080B12C48E0
:10323000007D00F0800058B92948007D00F01000A2
:1032400030B100202149087004202249087085E02F
:103250002348007D00F0800080B12148007D00F00F
:10326000400058B91E48007D00F0100030B1002029
:10327000164908700320174908706FE01848808AC3
:1032800000F4004080B11648808A00F4804058B9AC
:103290001348007D00F0100030B900200B49087081
:1032A00005200C49087059E00D48808A00F4006040
:1032B00048B30B48808A00F4005020BB0848007DCA
:1032C00000F01000F8B10020014917E027000020AD
:1032D000280000202B0000202C00002037000020B8
:1032E000000000203A0000202E00002022000020D4
:1032F000380000203900002036000020087003202C
:103300001C4908702AE01C48808A00F4005080B1F3
:103310001948808A00F4006058B91748007D00F011
:10332000100030B1002015490870042011490870C0
:1033300014E01148808A00F4804078B90E48808AF1
:1033400000F4004050B10C48007D00F0100028B19E
:103350000520084908700020084908700648808A3E
:1033600000F4007028B105200549087003200549C4
:10337000087010BD2C000020000000202800002054
:1033800027000020370000200748807A022807D154
:103390000548C07A022803D101200449086002E0F0
:1033A000002002490860704700000020180000203B
:1033B00010B5044622464FF480610248FEF794F9A6
:1033C00010BD0000001C024010204849087008464B
:1033D000007847490978084344490870202048701C
:1033E00008464078434909780843404948703020EE
:1033F0008870084680784049097808433B498870BE
:103400004020C8700846C0783C49097801F00F0197
:1034100008433649C870502008710846007937497A
:10342000097840EA21103149087160204871084646
:1034300040793349097801F00F0108432B4948715D
:1034400070208871084680792D49097840EA21105A
:10345000264988718020C8710846C07929490978B1
:1034600001F00F0108432149C871902008720846F5
:10347000007A2449097840EA21101C490872A020EA
:1034800048720846407A204909780843174948722B
:10349000B02088720846807A1C490978084313498D
:1034A0008872C020C8720846C07A19490978084352
:1034B0000E49C872D02008730846007B1549097868
:1034C00008430A490873E02048730846407B1249C4
:1034D0000978084305494873F02088730846807BC3
:1034E0000E4909780843014988737047BC060020DB
:1034F0002F0000203000002031000020320000208A
:103500003300002034000020370000203800002065
:10351000390000203A000020360000202200002060
:1035200030B505460B46144693ED053AF0EE432AB6
:1035300093ED043AB0EE432A93ED033AF0EE431ACA
:1035400093ED023AB0EE431A93ED013AF0EE430ADE
:1035500093ED003AB0EE430A2846FCF7D0FEE96E40
:10356000A96294ED053AF0EE432A94ED043AB0EEE8
:10357000432A94ED033AF0EE431A94ED023AB0EE8A
:10358000431A94ED013AF0EE430A94ED003AB0EE9E
:10359000430A284601F0C2FA30BD000010B50F48BA
:1035A0000F4908600320486000210D488160C16018
:1035B0004FF4802101614FF4E00141610021017667
:1035C0000121417600218176C17601774177FDF7AF
:1035D00012FC08B1FDF712F910BD000000640040B4
:1035E000CC06002010B50F480F4908600320486042
:1035F00000210D488160C1604FF4802101614FF4CA
:10360000E0014161002101760121417600218176AE
:10361000C17601774177FDF7EEFB08B1FDF7EEF8D3
:1036200010BD000000680040F406002008B500BF8F
:10363000002000900A48006840F400100849086023
:103640000846006800F40010009000BF00BF002290
:1036500011460C20FEF7CCF80C20FEF7BBF808BD95
:103660003038024000B587B0142102A8FCF7E0FD15
:1036700000BF002001903E48006840F002003C4935
:1036800008600846006800F00200019000BF00BF1B
:1036900000BF002001900846006840F0400008602C
:1036A0000846006800F04000019000BF00BF00BF66
:1036B000002001900846006840F0010008600846BC
:1036C000006800F00100019000BF00BF00BF0020B3
:1036D00001900846006840F008000860084600684D
:1036E00000F00800019000BF00BF00BF0020019063
:1036F0000846006840F0040008600846006800F0D2
:103700000400019000BF00BF00BF002001900846E8
:10371000006840F0800008600846006800F0800003
:10372000019000BF00BF00BF002001900846006864
:1037300040F0100008600846006800F0100001909A
:1037400000BF00BF00224FF4E0510A48FDF7CCFF54
:103750004FF4E050029001200390002004900320D9
:10376000059002A90348FDF793FE07B000BD0000D5
:1037700030380240001C024000B595B00020119086
:103780001290139014900F9010901C2108A8FCF731
:103790004FFD20216846FCF74BFD2B482B49086064
:1037A000A720486000212948816044F61F61C1605C
:1037B0000021016141618161FEF74EFC08B1FDF716
:1037C0001DF84FF48050119011A92048FEF7B5FC68
:1037D00008B1FDF713F81D48FEF77BFE08B1FDF7B1
:1037E0000DF800200F9010900FA91848FEF7E7FB86
:1037F00008B1FDF703F860200890002009900A90B6
:103800000B900C900D900E90002208A90F48FEF727
:10381000F2FD08B1FCF7F2FF002000900190029049
:10382000039004904FF400500590002007906946E3
:103830000648FEF791FB08B1FCF7E0FF0348FEF7EE
:10384000A9FD15B000BD0000000001401C070020CC
:103850001CB50020009001900E480F4908605320CD
:10386000486000210C48816040F2E731C1600021CE
:103870008161FEF7F1FB08B1FCF7C0FF002000906A
:10388000019069460448FEF79AFB08B1FCF7B6FFC1
:103890001CBD0000001000405C07002010B50A4865
:1038A0000A4908600A484860002108488160C160F0
:1038B00001610C21416100218161C161FFF762F862
:1038C00008B1FCF79BFF10BD004800409C0700209A
:1038D000A086010010B50B480B4908604FF4E13099
:1038E0004860002108488160C16001610C2141618C
:1038F00000218161C161FFF745F808B1FCF77EFF47
:1039000010BD000000140140DC07002000BFFEE7EE
:103910001148C06D28381049C865CA6D096F501A22
:10392000002801DB014600E0414249F64042914255
:1039300010DD0949C86A002801DB014600E0414268
:10394000C82907DA0448016FC165002002490861EF
:10395000024908607047000058050020F40100206B
:10396000B248007803280AD1B148C06D5030B04940
:10397000C865B048C06D5038AE49C86552E0AB4824
:10398000007804280AD1AA48C06D5038A849C865F3
:10399000A848C06D5030A749C86543E0A3480078E7
:1039A00006280AD1A248C06D2838A149C865A14897
:1039B000C06D28309F49C86534E09C4800780728CE
:1039C0000AD19B48C06D28309949C8659948C06D97
:1039D00028389849C86525E094480078052821D101
:1039E00000219548C16546F2A8119448C1659048E8
:1039F000C06D801C8E49C8658E48C06D801E8D4983
:103A0000C8658B48C06DB0F5FA6F04DC0846C06D20
:103A100010F5FA6F06DA4FF4FA618548C16549423C
:103A20008448C1658248C06D002802DA00218048C0
:103A3000C1658048C06D002802DD00217D48C16558
:103A40007B48C06D7E49884201DD7948C16579486F
:103A5000C06D7B494942884201DA7648C1657948A0
:103A6000007803280CD17848C06D00F5C8707649FD
:103A7000C8657648C06DA0F5C8707449C8652DE06A
:103A80007048007804280CD16F48C06DA0F5C8704C
:103A90006D49C8656D48C06D00F5C8706B49C86553
:103AA0001CE06848007806280AD16748C06DC8380D
:103AB0006549C8656548C06DC8306449C8650DE092
:103AC00060480078072809D15F48C06DC8305E495A
:103AD000C8655E48C06DC8385C49C8655A48C06D45
:103AE000002802DA00215848C1655848C06D0028F6
:103AF00002DD00215548C1655348C06D54498842D4
:103B000001DD5148C1655148C06D51494942884263
:103B100001DA4E48C1654F480078032805D14E4868
:103B2000C06D64304C49C86508E04A4800780428F4
:103B300004D14948C06D64384749C8654748007892
:103B4000032805D14648C06D64304549C86508E082
:103B500042480078042804D14148C06D6438404987
:103B6000C86540480078032805D13448C06D3C3012
:103B70003249C86511E03B480078042805D12F4838
:103B8000C06D3C382D49C86507E0364800780528E7
:103B900003D146F2A8112948C1652848C06DB0F587
:103BA000FA6F03DA4FF4FA612448C1652348C06D07
:103BB0002D49884201DD2148C1652C480078032841
:103BC00005D11D48C06D1E301B49C86510E027484F
:103BD0000078042805D11848C06D1E381649C865FC
:103BE00006E022480078052802D100211248C1656C
:103BF0001148C06D18B901201D49087002E000206D
:103C00001B4908700C48C06DB0F5983F04DD4FF4B7
:103C100098310948C16507E00748C06D10F5983F25
:103C200002DA14490448C1657047000027000020EB
:103C300058030020D8030020D80500205805002094
:103C4000400D03002800002058020020D802002068
:103C5000A02C100029000020580400202A00002079
:103C6000D80400202B000020F89503002C00002031
:103C70003100002000D0FEFF2148C06D28382049C7
:103C8000C8652048C06D28301E49C8651C4AD36DE0
:103C9000126F991A002901DB0A4600E04A4244F6F5
:103CA00020639A422BDD174AD36D126F981A0028B1
:103CB00001DB024600E0424244F620639A421EDDE8
:103CC0000F4AD16A002901DB0A4600E04A42C82AAD
:103CD00015DA0C4AD06A002801DB024600E04242B5
:103CE000C82A0CDA0648016FC1650648016FC16534
:103CF00000200349086103490861034908607047CF
:103D000058030020D8030020F00100201648C06DA1
:103D100028381549C8651548C06D28301349C8654D
:103D2000CA6D096F501A002801DB014600E04142CC
:103D30004EF66022914215DD0C49C86A002801DB6D
:103D4000014600E04142C8290CDA0748016FC1650D
:103D50000648016FC16500200349086103490861F5
:103D6000034908607047000058020020D802002074
:103D7000F80100204A780B7802EB032213B2836526
:103D8000CA788B7802EB032213B2C3624A790B79AB
:103D900002EB032212B24261426842B94A780B78C0
:103DA00002EB032212B202604268521C4260C368F6
:103DB000826DD21AB2F5805F03DD0269521E026184
:103DC00008E0C368826DD21A12F5805F02DA0269D8
:103DD000521C0261836D026903EB42320368D31AFD
:103DE0000367826DC260704700BFFEE770470146FF
:103DF000002901DD08467047484200B2FBE7000099
:103E000010B52649B1F90000FFF7F1FF40F29461C7
:103E1000884200DD27E02149B1F90200FFF7E7FF02
:103E200040F29461884200DD1DE01C49B1F90400B4
:103E3000FFF7DDFF40F29461884200DD13E017498F
:103E4000B1F90600FFF7D3FF40F29461884200DD2C
:103E500009E01248807A00B905E01048C07A00B93C
:103E600001E0002010BD00200C49088048808880B7
:103E7000C88008810220887202210848C17200208F
:103E80000649888100210548C18101828174C1747D
:103E90000020024988820120E4E7000000000020A1
:103EA00010B5234B1B685B6943F04003204C24682A
:103EB00063611F4B1B68DB6843F010031C4C2468D4
:103EC000E3601C4B1B681B6823F00103194C24683A
:103ED000236007E0174B1B681B6823F00103154C98
:103EE00024682360134B1B681B6803F00103002B3D
:103EF000F0D1114B0F4C2468A3600E4B1B68D860A7
:103F00000C4B1B6819610B4B1B685A60094B1B68F3
:103F10001B6843F48023074C24682360054B1B680F
:103F20001B6843F00103034C2468236010BD0000AC
:103F30009C0700201C0800200448004008B52C49BC
:103F40000968C96821F40051294A1268D1602949D9
:103F50000968096821F00101264A126811602421CC
:103F6000244A1268516000BF00210091204909686D
:103F7000096800911E4909684968009100BF00BFA7
:103F80001C4909681C4A914205D94FF400111A4A8C
:103F90004C3A11601BE017490968184A914205D94B
:103FA0004FF40011144A503A116010E011490968A9
:103FB000124A603A914205D94FF400110F4AB83ABB
:103FC000D16004E04FF400110C4AB83A91600849FE
:103FD0000968C96841F40051054A1268D160054971
:103FE0000968096841F00101024A1268116008BDC0
:103FF0009C0700201C08002058640240B860024062
:1040000007490978491C064A117011460978642944
:1040100001DB002111700349014A1278885470476E
:104020003B0000205806002010B5FFF7CDF94FF4F3
:104030007A73102202490348FEF7B8FD10BD000054
:10404000BC060020DC0700201EE013480078401C5E
:104050001149087008460078642801D100200870D2
:104060000E480D490978405C0D49087008460078F3
:104070000011082806D10846007800F00F00094911
:10408000087000E000BF00BF0348007806490978C7
:104090008842DAD1704700003C000020580600201A
:1040A0003D000020350000203B00002010B51D48D9
:1040B0000078012805D11C480078401E1A49087074
:1040C00008E018480078022804D117480078401CFE
:1040D0001549087014480078642803DD64201249EB
:1040E000087006E010480078462802DA46200E499B
:1040F000087000210D48FEF723FA0B48007800EE07
:10410000100AF8EE400A9FED0A0A9FED0A1A01EE26
:10411000200ABCEEC00A10EE100A04490968486380
:1041200010BD00002E0000204C0000201C070020C5
:104130000000FA4311C73141704700001CB5144814
:10414000C06B134988611348C06B124988611248DB
:10415000C06B114988611148C06B104988610C48D7
:10416000008B000A8DF804000948007E8DF80500D8
:104170000848008B000A8DF806000648007E8DF87E
:10418000070069464FF40070FCF78CF91CBD000075
:1041900058030020D803002058020020D802002035
:1041A0001CB52148C06B204988612048C06B1F495D
:1041B00088611F48C06B1E4988611E48C06B1D493D
:1041C00088611D48C06B1C4988611C48C06B1B4935
:1041D00088611948008B000A8DF800001648007E9F
:1041E0008DF801000846008B000A8DF80200084691
:1041F000007E8DF803000E48008B000A8DF8040045
:104200000B48007E8DF805000A48008B000A8DF8E7
:1042100006000848007E8DF8070069464FF40070DC
:10422000FCF7C8F91CBD000058040020D804002089
:1042300058050020D805002058020020D802002090
:1042400010B5FDF75FFA10BD00B593B0302107A897
:10425000FBF7EEFF142102A8FBF7EAFF00BF0020E6
:1042600001902448006840F08050224908600846C8
:10427000006800F08050019000BF00BF00BF002028
:1042800001901D48006840F480401B4908600846C2
:10429000006800F48040019000BF00BF012007903B
:1042A0000004089002200D9041050E9106210F9107
:1042B000A8211091022111910421129107A8FDF764
:1042C000F9FB08B1FCF79AFA0F2002900220039044
:1042D000002004904FF4A05005904FF480500690B9
:1042E000052102A8FDF7CAFA08B1FCF787FA13B056
:1042F00000BD0000403802400070004004480168E2
:1043000041F47001016003494FF00060086070479C
:1043100088ED00E008ED00E010B50248FDF780FFF1
:1043200010BD00001C07002010B50248FDF778FF03
:1043300010BD00005C070020F0B402682C4B2D4C2F
:104340002D4D2E4EDFF8B8C098420AD0B0F1804F04
:1043500007D0A04205D0A84203D0B04201D06045AA
:1043600003D122F070024F683A43984228D0B0F14E
:10437000804F25D0A04223D0A84221D0B0421FD0E8
:1043800060451DD0A0F18044B4F5A03418D0A0F150
:104390008044B4F5A23413D0A0F18044B4F5A43421
:1043A0000ED0A0F18044B4F5C05409D0A0F18044EF
:1043B000B4F5E05404D0A0F18044B4F5005403D126
:1043C00022F44072CC6822434C6922F080022243DE
:1043D00002608A68C2620A688262984201D06045BF
:1043E00001D10969016301214161F0BC70470000FE
:1043F000000001400004004000080040000C0040A4
:104400000004014001F01F0101238B40D0F820C0BF
:104410002CEA03030362036A02FA01F11943016201
:104420007047D0F808C02CF47F4C42EA03221143B5
:1044300041EA0C0181607047826822F070021143EA
:1044400041F007018160704770B4026A22F00102F6
:104450000262036A4268D0F818C02CF0700C2CF08D
:10446000030C0C6844EA0C0C23F002038C68234311
:104470000F4C104DA04201D0A84205D123F00803F3
:10448000CE68334323F00403A04201D0A84207D1F1
:1044900022F4807222F400724C6922438C69224318
:1044A0004260C0F818C049684163036270BC70473D
:1044B000000001400004014070B4026A22F01002C2
:1044C0000262036A4268D0F818C02CF4E04C2CF465
:1044D000407C0C684CEA042C23F020038C6843EAEF
:1044E0000413114C114DA04201D0A84206D123F073
:1044F0008003CE6843EA061323F04003A04201D0B4
:10450000A84209D122F4806222F400624C6942EA96
:1045100084028C6942EA84024260C0F818C049688B
:104520008163036270BC70470000014000040140D9
:1045300070B4026A22F480720262036A4268D0F8A0
:104540001CC02CF0700C2CF0030C0C6844EA0C0C12
:1045500023F400738C6843EA0423114C114DA042EC
:1045600001D0A84206D123F40063CE6843EA0623B3
:1045700023F48063A04201D0A84209D122F48052E2
:1045800022F400524C6942EA04128C6942EA041295
:104590004260C0F81CC04968C163036270BC7047C8
:1045A000000001400004014010B4026A22F480526D
:1045B0000262D0F820C04268C36923F4E04323F4C8
:1045C00040730C6843EA04232CF4005C8C684CEACA
:1045D000043CA0F18044B4F5803404D0A0F18044C0
:1045E000B4F5823404D122F480424C6942EA841248
:1045F0004260C36149680164C0F820C010BC7047C4
:10460000036AD0F820C02CF0010CC0F820C0D0F80C
:1046100018C02CF0F00C4CEA021223F00A031943E4
:10462000826101627047036A23F010030362D0F8CD
:1046300018C0036A2CF4704C4CEA023223F0A00339
:1046400043EA011182610162704710B5806B00215D
:10465000C185C184FEF7F3F810BD0168CA6822F471
:104660009072CA6001684A6922F001024A61202101
:1046700080F83A10704710B50168CA6822F040020D
:10468000CA60202180F83910FEF700FB002010BD21
:1046900010B590F83A10222901D0022010BD81688F
:1046A000B1F5805F11D0016919B30168496801F063
:1046B0007F02816A4B1C83620A70C18D491E090406
:1046C000090CC1851CD0002010BD816A02693AB175
:1046D00002685268D2B20A80816A491C8162ECE7A2
:1046E00002685268C2F308020A80816A891C8162EA
:1046F000E3E701684A68816A4B1C83620A70DCE761
:104700000168CA6822F02002CA600168CA6822F4FF
:104710008072CA6001684A6922F001024A61202160
:1047200080F83A10FEF741FA002010BD2DE9F04163
:10473000044620680169E26821F440511143016197
:104740002169A068E2690843616911430143206857
:10475000C26822F4037222F414421143C16020683B
:104760004169A26921F4407111434161E0695349F3
:10477000534A1927534D32264FF00008B0F5004F29
:1047800027D02068904201D0884274D1FDF74AF9C1
:1047900001466068830F8200A1FB0701FBF710FD53
:1047A0000146A5FB002040096FF01802424301EBCF
:1047B000820106EB0111A5FB0121490901F0F0027C
:1047C00002EB001001F00F01084421688860BDE889
:1047D000F0812068904201D0884225D1FDF722F96E
:1047E000014660680218A1FB070148EB0803FBF7CC
:1047F000E7FC0346A5FB0010410918460A016FF0CB
:104800001803594300EB810006EBC000A5FB001024
:10481000400900F0F80102EB410100F007000844F4
:1048200021688860BDE8F081FDF7ECF8014660681A
:104830000218A1FB070148EB0803FBF7C1FC034684
:10484000A5FB0010410918460A016FF018035943EF
:1048500000EB810006EBC000A5FB0010400900F052
:10486000F80102EB410100F007000844216888606C
:10487000BDE8F081FFE7FDF7C5F801466068830FEA
:104880008200A1FB0701FBF79BFC0146A5FB002072
:1048900040096FF01802424301EB820106EB01115F
:1048A000A5FB0121490901F0F00202EB001001F023
:1048B0000F01084421688860BDE8F08100140140C0
:1048C000001001401F85EB5190F83910212901D0CB
:1048D000022070478168B1F5805F0CD0016A4A1CE4
:1048E0000262026809785160C18C491E0904090CF2
:1048F000C18410D019E0016A02680988C1F3080177
:104900005160016919B1016A491C0162ECE7016A51
:10491000891C0162E8E70168CA6822F08002CA6067
:104920000068C16841F04001C160002070472DE976
:10493000F0410446069D884617461E4620680068DA
:1049400038EA000020D00020B84227D1B5F1FF3F5F
:104950001CD025B1FCF7D0FE801BA84216D92068D8
:10496000C16821F4D071C1602068416921F0010162
:104970004161202084F8390084F83A00002084F84E
:1049800038000320BDE8F0810120DDE720680068E1
:1049900038EA000005D00020B842D7D00020BDE89A
:1049A000F0810120F8E7000008B50120FEF700FDC6
:1049B00048480068006800F0200060B100BF002097
:1049C00000904448006800680090424800684068D1
:1049D000009000BF7DE04048006800F01000002813
:1049E00077D000BF002000903A480068006800902F
:1049F000384800684068009000BF00BF3748006832
:104A0000006800F4002090BB34480068006820F083
:104A10000100324909680860304800684068C0F108
:104A200024002F49088024202C49096848602B481D
:104A30000068006840F40020284909680860274899
:104A40000068006840F001002449096808602448B3
:104A5000008812283DD12349234800F09FF9FFF731
:104A6000CFF9012835D12420FFF768FA31E0FFE7BC
:104A70001A480068006820F00100184909680860B9
:104A8000164800684068C0F12400154908802420B9
:104A90001249096848601548806A20F400201349CB
:104AA00088620E480068006840F001000B49096800
:104AB00008600B48008812280BD10A490A482430A4
:104AC00000F06CF9FFF79CF9012802D12420FFF7D0
:104AD00035FA08BD9C070020004800401C08002053
:104AE000240000200000002010020020006002408E
:104AF00010B5074909684968C8B2FFF781FA044848
:104B0000FDF79EFE012203490148FEF723F810BD80
:104B1000DC0700205806002000BFFEE7D0E90A218C
:104B2000511AC161C169002901DB0A4600E04A420D
:104B300003EE102AB8EEC33AB4EEE13AF1EE10FA01
:104B400003D8C269416A0A44426290ED093AB8EE5C
:104B5000C33AB4EEC23AF1EE10FA04DDBDEEC23A49
:104B600080ED093A10E090ED093AB8EEC33AF1EE63
:104B7000423AB4EEE33AF1EE10FA05D2B1EE423A1F
:104B8000BDEEC33A80ED093A90ED073AB8EEC33A6C
:104B900023EE003ABDEEC33A80ED0C3A90ED093AAF
:104BA000B8EEC33A23EE203ABDEEC33A80ED0D3A9B
:104BB000D0E90721511A03EE101AB8EEC33A23EEDA
:104BC000013ABDEEC33A80ED0E3AC2690262C16994
:104BD000002901DB0A4600E04A42022A02DC0022E8
:104BE000C2632FE0D0E90C210A44816B114403EE2B
:104BF000101AB8EEC33AB4EEE23AF1EE10FA04DD60
:104C0000BDEEE23A80ED0F3A1CE0D0E90C210A44F7
:104C1000816B114403EE101AB8EEC33AF1EE623A1A
:104C2000B4EEE33AF1EE10FA06D2B1EE623ABDEE1E
:104C3000C33A80ED0F3A05E0D0E90C210A44816BBC
:104C40000A44C263704702E008C8121F08C1002A64
:104C5000FAD170477047002001E001C1121F002AFD
:104C6000FBD1704710B59FED0F0AF0EE400A441AD1
:104C700000EE104AB8EEC00AB0EE081A20EE011A93
:104C80005C1A00EE104AB8EEC00AC1EE001AB6EE89
:104C9000000A21EE800AF0EE400AB0EE0C0A20EE87
:104CA000800A10BD000000001348808A00F4804094
:104CB00028B112480088401C1049088017E01048AD
:104CC000008800F4804078B10C4800880D490988BC
:104CD000884209DB0C48007818B901200A4908709D
:104CE00002E00020084908700020044908800248BA
:104CF000808A034908807047000000201E000020C1
:104D00001C0000202000002022000020FCF702FDF3
:104D1000FFF79AFAFEF7A6FCFEF788FCFEF73EFCCA
:104D2000FEF796FDFEF75EFCFEF7B8FDFEF7D2FD3E
:104D3000FEF722FDFBF756FC00F026F800F010F815
:104D40000448FDF7E9F9012203490448FDF702FF91
:104D500000BFFEE75C07002058060020DC070020AB
:104D60004FF480500449C8600449C8600449C860D1
:104D70000449C8607047000058030020D803002091
:104D800058050020D805002010B524220249A1F1C1
:104D90002400FFF785F810BD3402002000B101B9EE
:104DA00070470278437842EA0322C2F30A020A807B
:104DB0004278D210837842EA4312C2F30A024A8050
:104DC00082789211C37842EA8302037942EA83220D
:104DD000C2F30A028A8002795210437942EAC3126E
:104DE000C2F30A02CA804279C2F301128A7242797E
:104DF00012119308CB728279C37942EA032212B26C
:104E00008A81027A437A42EA032213B201F10C0248
:104E1000CB81827AC37A42EA032213B201F10C02F7
:104E20000B82037B8B74437BCB74827BC37B42EA14
:104E300003228A82027C437C42EA032212B20A8164
:104E400000BFADE7000610160006101600000000B7
:104E5000000000000102030406070809000000002A
:104E600001020304844E000800000020100200002C
:104E7000A8020008184F000810020020700A000065
:104E8000564C0008114A04021202021502023106B1
:104E9000572041CDCC4C3D3C401C460424A00C4640
:104EA00093803F6918110B30FA4330BFA0410AD7F5
:104EB000233C181B606A1C11C9301123C8420B30F7
:104EC0007A44301122401AC01C4B20411819143961
:104ED00090111A40A8991829302BFA4414CC3D0A95
:104EE000D7C0600880BB456666E63E9B8C42601A70
:104EF00045D81948FACCF07914F9901B404164F96F
:104F0000600915C02918111AFF010114DA0104699A
:084F10001482101324F40000C8
:040000050800018965
:00000001FF
