:020000040800F2
:10000000981D00208D020008A53E00084D32000812
:100010004D3D0008F1070008294E000800000000CF
:10002000000000000000000000000000B5420008D1
:10003000E50B000800000000A73E0008C5430008CB
:10004000A7020008A7020008A7020008A7020008EC
:10005000A7020008A7020008A7020008A7020008DC
:10006000A7020008A7020008A7020008ED0A00087E
:10007000F90A0008A7020008A7020008A702000862
:10008000A7020008050B0008A7020008A702000845
:10009000F5070008A7020008A7020008A702000849
:1000A000A7020008A7020008A7020008A70200088C
:1000B000A7020008A702000879440008A702000868
:1000C000A7020008A7020008A7020008A70200086C
:1000D000A7020008414D0008054E0008114E000817
:1000E000A7020008A7020008A7020008A70200084C
:1000F000A7020008A7020008A7020008A70200083C
:10010000A7020008A702000885440008A70200080B
:10011000A7020008A702000891440008A7020008EF
:10012000A7020008110B0008A7020008A702000898
:10013000A7020008A7020008A7020008A7020008FB
:10014000A9080008A7020008A7020008A7020008E3
:100150001D0B0008290B0008350B00081D4E000878
:10016000A7020008A7020008A7020008A7020008CB
:10017000A7020008A7020008A7020008000000006C
:10018000A7020008A7020008A702000811480008FB
:10019000A7020008A7020008A7020008A70200089B
:1001A0000000000000000000A702000800F002F8B4
:1001B00000F05CF80AA090E8000C82448344AAF1A5
:1001C0000107DA4501D100F051F8AFF2090EBAE8A3
:1001D0000F0013F0010F18BFFB1A43F0010318477B
:1001E000985F0000B85F00000A444FF0000C10F860
:1001F000013B13F0070408BF10F8014B1D1108BFA5
:1002000010F8015B641E05D010F8016B641E01F844
:10021000016BF9D113F0080F1EBF10F8014BAD1C94
:100220000C1B09D16D1E58BF01F801CBFAD505E0B2
:1002300014F8016B01F8016B6D1EF9D59142D6D30C
:10024000704700000023002400250026103A28BF34
:1002500078C1FBD8520728BF30C148BF0B60704738
:100260001FB505F0EFFD1FBD10B510BD00F04BF937
:100270001146FFF7F5FF05F0E1F800F069F903B466
:10028000FFF7F2FF03BC00F06DF90000094880475A
:1002900009480047FEE7FEE7FEE7FEE7FEE7FEE768
:1002A000FEE7FEE7FEE7FEE704480549054A064B80
:1002B0007047000069440008AD010008981700204D
:1002C000981D0020981900209819002053EA020C6C
:1002D00000F069802DE9F04B4FF00006002B1FBFA6
:1002E000B3FA83F503FA05F424FA05F65E4012BF6B
:1002F0001643B2FA82F502FA05F4C5F120051EBFD5
:1003000022FA05FC44EA0C04203556EA044C4FEA74
:10031000144418BF641C4FF000084FF000099042CD
:1003200071EB030C39D3002919BFB1FA81F701FA37
:1003300007F6B0FA80F700FA07F6C7F120071EBFEC
:1003400020FA07FC46EA0C062037B6FBF4FCA7EBC4
:100350000507103F07F01F0BCBF120060CFA0BFB33
:100360002CFA06F644BFB3460026202FA4BF5E46F3
:100370004FF0000B5BEA060C08BF4FF0010B19EBC6
:100380000B09ABFB027C48EB0608C01B06FB02CC4A
:100390000BFB03CC71EB0C01C1E70B460246414657
:1003A0004846BDE8F08B13B54FF000004FF0000158
:1003B000AFF30080BDE81C407047032A40F2308054
:1003C00010F0030C00F0158011F8013BBCF1020F96
:1003D000624498BF11F801CB00F8013B38BF11F817
:1003E000013BA2F1040298BF00F801CB38BF00F82E
:1003F000013B11F0030300F04F80083AC0F0088081
:1004000051F8043B083A51F804CBA0E80810F5E78E
:10041000121D5CBF51F8043B40F8043BAFF3008071
:10042000D20724BF11F8013B11F801CB48BF11F8E6
:10043000012B24BF00F8013B00F801CB48BF00F8B6
:10044000012B70474FF0000200B5134694469646C4
:10045000203922BFA0E80C50A0E80C50B1F12001D7
:10046000BFF4F7AF090728BFA0E80C5048BF0CC085
:100470005DF804EB890028BF40F8042B08BF7047E3
:1004800048BF20F8022B11F0804F18BF00F8012B55
:10049000704770477047704710B5203AC0F00B8026
:1004A000B1E81850203AA0E81850B1E81850A0E878
:1004B0001850BFF4F5AF5FEA027C24BFB1E81850D2
:1004C000A0E8185044BF18C918C0BDE810405FEA42
:1004D000827C24BF51F8043B40F8043B08BF7047BE
:1004E000D20728BF31F8023B48BF11F8012B28BFC3
:1004F00020F8023B48BF00F8012B704700487047C6
:100500003417002070477546FFF7F8FFAE46050028
:100510006946534620F00700854618B020B5FFF71E
:10052000C3FEBDE820404FF000064FF000074FF03B
:1005300000084FF0000B21F00701AC46ACE8C00901
:10054000ACE8C009ACE8C009ACE8C0098D4670470A
:1005500010B50446AFF300802046BDE81040FFF719
:100560008EBE000001491820ABBEFEE72600020047
:1005700070B51B4C0121204601F0A4FA194E012848
:1005800023D00121204601F09DFA002825D101F059
:10059000A3FA154D286001F09FFA2968401AB0F5BA
:1005A0007A7F1AD30121204601F08CFA012815D058
:1005B0000121204601F086FA00280ED100223046A3
:1005C000BDE87040102101F082BA012210213046AE
:1005D00001F07DFA05490120087070BD0122EEE7A7
:1005E00000140240001C02404C0100207400002056
:1005F00010B5204C204894EC030A203C00F03EF853
:1006000020341D4894EC030A9038203C00F036F862
:100610001948C06F03F06CFE17489038C06F03F0A4
:1006200067FE2078012811D0002821D12C341248EF
:1006300094EC030A2C3C04F037FC0F4890382C341F
:1006400094EC030ABDE8104004F02EBC94ED071AA8
:10065000D4ED050A94ED030A074804F025FC06488A
:1006600094ED071AD4ED060A94ED040A9038E9E7F0
:1006700010BD0000940000207C090020D0F88020EC
:10068000C16E891A00EE901AF8EEE00A20EE800A98
:10069000BDEEC00A10EE103A0367C165026E8A1AF9
:1006A00000EE102AB8EEC00A20EE010ABDEEC00A24
:1006B00010EE102A82670166816A1A448A4202DCBF
:1006C00049428A4201DAC1677047C2677047000039
:1006D00070EE201A70EE600ADFED2B2A2B49B0EE87
:1006E000612A41EE221AB0EE600A41EE620AB0EED3
:1006F000403A01F1100001EE223AC1ED001A01EE7C
:10070000622A9FED230AC0ED000A00F1100200F1F9
:10071000200382ED003A83ED002A21EE801A60EE7C
:10072000800A63EE001A81ED011A22EE002AB3EE70
:10073000030AC0ED010A21EE001A60EE800AC2ED44
:10074000011AA0F51470BDEEC11AFDEEE00A83EDAA
:10075000012A80ED0E1A10EE900A61EE800A22EE58
:10076000000AA1F5D8714042FDEEE00A886301F16C
:100770009000BDEEC00AC0ED0E0A01F5907110EEBA
:10078000100A40428863704700007042C00E00208B
:100790004276F43F10B58AB000200121009001900C
:1007A00002900390CDE905100E2409940891079159
:1007B000049069460C4800F01DFB69460B480594FF
:1007C00000F018FB0446084800F062FE074800F0FD
:1007D0005FFE0221044800F097FA0221034800F06E
:1007E00093FA0AB0204610BD600100208801002065
:1007F000FEE70000014800F0F8BB000060010020A7
:1008000000B589B040F2FF11009100210822029149
:10081000CDE903128DF8141006AA435C5354491C09
:1008200089B20829F9D300236946024800F07EFA0C
:1008300009B000BD6001002000B589B040F2FF1191
:100840000091002108220291CDE903128DF81410C5
:1008500006AA435C5354491C89B20829F9D30023E2
:100860006946024800F062FA09B000BD600100204C
:1008700000B589B04FF40071009100210822029167
:10088000CDE903128DF8141006AA435C5354491C99
:1008900089B20829F9D300236946024800F046FAD4
:1008A00009B000BD60010020014800F09EBB0000BF
:1008B000880100202DE9F0472DED028BFFF708FF9E
:1008C0002E4CA4F19005A4F59076A4F5D877A36BEF
:1008D000AA6BB16BB86B04F0E5FB43F6E8318842D4
:1008E0003FDD05F09AF98946804649EC180BB86B54
:1008F00043F6E831484305F090F953EC182B05F026
:1009000005F805F05BF9B863B06B43F6E83149ECE4
:10091000188B484305F081F953EC182B04F0F6FFCF
:1009200005F04CF9B063A86B43F6E83149EC188B3D
:10093000484305F072F953EC182B04F0E7FF05F07B
:100940003DF9A863A06B43F6E83149EC188B4843A6
:1009500005F063F953EC182B04F0D8FF05F02EF9DD
:10096000A0630748B96B0160B16B4160A96B8160FE
:10097000A16BC160BDEC028BBDE8F087300E00209A
:10098000E4000020244910B500200863C862886292
:1009900048620862C8618861486108614863C8604C
:1009A0008860486008601D49A1F190020861A1F5C6
:1009B00090731061A1F5D874186120618863906309
:1009C0009863A063C863D063D863E0638861906173
:1009D0009861A0614861506158616061C862D062ED
:1009E000D862E06208631063186320634863506351
:1009F0005863606308641064186420644864506439
:100A000058646064886490649864A064C864D06426
:100A1000D864E06410BD0000E4000020300E002027
:100A20002DE9F0412E48304C01782E48012901D0A3
:100A300099B11CE0D4E9061211446161D4E90812AD
:100A400011444942216180894FF45C7110FB01F02F
:100A50004FF4257190FBF1F008E0B0F9001021612E
:100A6000B0F902106161B0F908004042606360694A
:100A700040F294654FF4B6764FF480672B463246C9
:100A8000394600F5806004F08DFABDEEC00A2B46B1
:100A9000324684ED0A0A2069394600F5806004F088
:100AA00081FABDEEC00A6B00720084ED0B0A606B28
:100AB0007900400000F5006004F0A8FABDEEC00A1D
:100AC00084ED0C0AB8EEC01A94ED0B0AF8EEC00AD9
:100AD00094ED0A0ABDE8F041B8EEC00AFFF7EABE9D
:100AE00008000020C4060020E4000020014800F0B7
:100AF0005DBD000084040020014800F057BD0000E7
:100B0000A4050020014800F051BD0000240400208D
:100B1000014800F04BBD000004060020014800F031
:100B200045BD0000E4040020014800F03FBD000086
:100B300064060020014800F039BD00004405002093
:100B400001681823CAB2103AB2FBF3F2054B6FF3F7
:100B50000901032A9B5CC36500D9091D816508460C
:100B6000704700005861000810B5014600208B69ED
:100B70008A6A4FF0C07453B1B3F5005F15D072B1FB
:100B8000012A0CD0022A0AD0032A09D104E01AB1A2
:100B9000012A06D0022A03D1C96AC90100D5012061
:100BA00010BDC96AA142FAD010BD002AF7D0012AAF
:100BB000F2D0022AF3D0032AF3D010BD30B5046876
:100BC000256825F480252560046863608368402BD0
:100BD000036803D099600068C26030BD9A60006805
:100BE000C16030BD704772B6FEE700001E490820A4
:100BF00041F2707348701D49002001F19002886134
:100C0000486108618863C863C86208634863086410
:100C1000486488644B62C86490615061106190635D
:100C2000D063D06210635063106450649064536268
:100C3000D064C865086648668866C86608674867FD
:100C4000886745F6D813C8678B62C1F88000D06505
:100C5000106650669066D066106750679067D067E0
:100C60009362C2F88000704774000020EC080020F6
:100C700070B5234D214A234C05F1900620B101287F
:100C800016D0082822D132E00121104600F01AFFC8
:100C90000128D5F8800005D028306060D6F88000A3
:100CA000283012E0BE306060D6F88000BE300CE024
:100CB0000121104600F006FF0128D5F8800010D071
:100CC00028386060D6F880002838A0606068E86640
:100CD000A0684042F066FFF78BFCBDE8704003F06F
:100CE000EDBA14386060D6F880001438EDE7D5F816
:100CF00080006060D6F88000E7E700000014024042
:100D0000EC0800207400002090F82020012A07D071
:100D1000022A05D0416A41F48021416201207047D6
:100D2000006842690A43426100207047F0B590F8BC
:100D300020500468A468012D05D0022D03D0416A1B
:100D400041F4802153E014F0406F01D1E5004BD510
:100D5000C4F30164022C03D9416A41F4000146E066
:100D60000125A5401D608D684FF4C0739DB1CE680C
:100D700035434E6845EAC605066803EB0417F5518E
:100D80004FF4C275076805EB04150E697E51097DA5
:100D9000012905D009E00E88CD6845EA4655EBE704
:100DA00001684E5946F480764E511179D2F80550BB
:100DB0004FF4C67641EA0525016806EB04168D510D
:100DC0001178D2F801204FF4C47541EA022102687B
:100DD00005EB04155151006803EB0411425842F031
:100DE000010242500020F0BD416A41F4001141620D
:100DF0000120F0BD10B590F82020012A07D0022A6A
:100E000005D0416A41F480214162012010BD3B4878
:100E1000D0F8002242F00102C0F80022D0F80022EF
:100E200022F47C52C0F80022D0F800224B6A42EA39
:100E30000322C0F800220A7D02F01F0301229A401B
:100E4000D0F81C329343C0F81C32CB69B3B9D0F848
:100E50000C329343C0F80C328C894B6864F31F4307
:100E60004C6900EBC404C4F840320C890B6864F38D
:100E70001F434C6900EBC404C4F84432CB69012B16
:100E800016D1D0F80C321343C0F80C320C884B68E2
:100E900064F31F434C6900EBC404C4F840320C896E
:100EA000CB6864F31F434C6900EBC404C4F84432BC
:100EB0008B69002BD0F804320ED01343C0F80432F3
:100EC0000B69002BD0F8143208D01343C0F8143249
:100ED000096A012904D008E09343EFE79343F5E75B
:100EE000D0F81C121143C0F81C12D0F8001221F0E7
:100EF0000101C0F80012002010BD00000064004095
:100F0000704730B590F82040012C05D0022C03D05A
:100F1000416A41F480215DE00468002955D02469CC
:100F2000A40754D04FF4D874056804EB01142D596C
:100F300015F00405956005682D594ED0ED085560F3
:100F400005682C5904F00204D4604FF4DA74056883
:100F500004EB01142D5905F00F05156105682D5995
:100F6000C5F30725956105682C59240C54614FF48D
:100F7000DC72046802EB0112A4581C700468A458C7
:100F8000240A5C700468A458240C9C700468A2585D
:100F9000120EDA704FF4DE72046802EB0112A458EC
:100FA0001C710468A458240A5C710468A458240CB9
:100FB0009C710468A258120EDA71006881B101694F
:100FC00041F020010161002030BDE468A8E7416ADA
:100FD00041F400114162012030BD6D0D1560AFE795
:100FE000C16841F02001C160EDE72DE9F05F0546E1
:100FF000006800244669D0F804908768D0F80CB0E7
:10100000D0F810A0D0F81880F10748D0F90714D014
:1010100001218160B80703D5284600F066FA0CE08C
:10102000780702D54FF4006407E0380702D54FF483
:10103000805402E0284600F057FAF80516D52968D2
:101040004FF480708860B80503D5284600F04FFA49
:101050000CE0780502D544F4005407E0380502D5C9
:1010600044F4804402E0284600F040FAF80316D524
:1010700029684FF480308860B80303D5284600F013
:1010800038FA0CE0780302D544F4004407E0380352
:1010900002D544F4803402E0284600F029FA3007F3
:1010A00007D55FEACB6004D52968102044F40074AA
:1010B000C86070074FF0080707D55FEA0B7004D5CA
:1010C0002868C760284600F099F9B00706D5286857
:1010D000C068800702D0284600F092F9700607D554
:1010E0005FEACA6004D52968102044F4806408616E
:1010F000B00607D55FEA0A7004D52868076128465C
:1011000000F0C2F9F00606D528680069800702D011
:10111000284600F0BAF9B00308D55FEAC96005D5E2
:10112000296810204860284600F0B0F9F00307D580
:101130005FEA097004D528684760284600F0DAF9AC
:10114000300446D55FEA497040D5F00504D55FEA22
:10115000C87001D044F00104B00504D55FEA88707E
:1011600001D544F00204700504D55FEA487001D54A
:1011700044F00404300529D518F0700F26D008F08B
:101180007000402815D006DC102809D020280AD08D
:10119000302816D10AE050280ED0602811D10EE078
:1011A00044F008040DE044F010040AE044F0200488
:1011B00007E044F0400404E044F0800401E044F41B
:1011C00080742868816921F0700181612968042098
:1011D0004860002C05D0686A204368622846FFF703
:1011E0008FFEBDE8F09F70B5040003D094F8200096
:1011F00010B104E0012070BD204600F081F82068A5
:10120000016841F00101016000F066FC0546052619
:1012100004E000F061FC401B0A2811D820684068F7
:10122000C007F6D02068016821F00201016000F0DB
:1012300053FC05460BE000F04FFC401B0A2806D982
:10124000606A40F40030606284F82060D2E7206871
:1012500040688007EFD4207E0128206801683DD0D7
:1012600021F080010160607E01282068016838D08B
:1012700021F040010160A07E01282068016833D080
:1012800021F020010160E07E0128206801682ED055
:1012900041F010010160207F01282068016829D0F9
:1012A00021F008010160607F01282068016824D0D6
:1012B00021F004010160D4E902010843D4E90412D9
:1012C000114308436168491E08432168C861002032
:1012D0006062012084F82000002070BD41F0800190
:1012E000C0E741F04001C5E741F02001CAE721F025
:1012F0001001CFE741F00801D4E741F00401D9E73C
:10130000F0B587B0044614216846FFF79BF8364BCA
:101310003648DFF8D0E01968D4F800C0334A032516
:101320000226092710300024491CF44522D11960F7
:10133000012907D1016841F000710160006800F0E7
:1013400000700590106840F0080010601068CDE94A
:10135000005600F00800CDE9047069462448CDE944
:10136000024500F095FA00221146142000F022FCFC
:10137000142032E0DFF87CE0F44530D1D0F800C032
:101380004CF0806CC0F800C0D0F800C001290CF00F
:10139000806CCDF814C0196007D1016841F000716C
:1013A0000160006800F000700590106840F00200D5
:1013B0001060106802AB00F0020005906020CDE9DB
:1013C000000683E8B00069460B4800F061FA00228D
:1013D0001146402000F0EEFB402000F0DDFB07B09E
:1013E000F0BD0000006400400000002030380240E2
:1013F000000C0240006800400004024070470000FA
:1014000010B50446164B174A0021FFF77AFD16491E
:1014100014488C4222D10068A0F2012007281DD276
:10142000DFE800F004070A0D101316000C490F48FE
:1014300010E00B490E480DE009490E480AE0084942
:101440000D4807E006490D4804E005490C4801E055
:1014500003490C48BDE8104002F0D4BE10BD0000A6
:101460001C010020000F0020600100200C0A002059
:101470009C0A00202C0B0020BC0B0020EC08002054
:101480007C0900205C08002070477047704700000E
:1014900070B5044690F82000012804D0606A40F43A
:1014A0000020606218E0022084F8200020680168B3
:1014B00021F00101016000F00FFB05460EE000BFC6
:1014C00000F00AFB401B0A2808D9606A40F400308B
:1014D0006062052084F82000012070BD206840680B
:1014E000C007EDD1606270BD7047704770477047AC
:1014F0007047704770472DE9F0410446876D00F052
:10150000EBFA064694F835000025022806D0802024
:10151000606584F834500120BDE8F08120680168DE
:1015200021F0160101602068416921F080014161CC
:10153000206C08B9A06C20B12068016821F0080176
:1015400001602068016821F0010101600CE000F0F9
:10155000C3FA801B052807D920206065032084F882
:10156000350084F83450D7E720680068C007EED112
:1015700094F85C103F208840B860012084F8350062
:1015800084F834500020C7E790F83510022903D0C2
:101590008021416501207047052180F835100068E1
:1015A000016821F001010160002070472DE9F84336
:1015B00004464FF00009CDF8009063484FF41651EF
:1015C000A56D0068B0FBF1F72E6894F85C10082058
:1015D00000FA01F131420FD021680A6852070BD599
:1015E0000A6822F004020A6094F85C108840A8603F
:1015F000606D40F00100606594F85C104FF00108E8
:1016000008FA01F0304208D021684969090604D57A
:10161000A860606D40F00200606594F85C100420E2
:101620008840304208D021680968890704D5A8603D
:10163000606D40F00400606594F85C1010208840F4
:10164000304218D021680968090714D5A8602068BD
:101650000168490304D50068000308D5A16C07E0C0
:101660000168C90503D4016821F008010160216CFB
:1016700009B12046884794F85C1020208840304209
:1016800031D021680968C9062DD5A86094F83500C5
:1016900005282068016806D0490347D50068000383
:1016A0001DD4616C1CE021F01601016020684169C5
:1016B00021F080014161206C08B9A06C20B1206844
:1016C000016821F00801016094F85C103F20884017
:1016D000A86084F8358084F83490216D1FE0E16BB8
:1016E00009B120468847606D00282BD0606DC00787
:1016F00014D0052084F835002068016821F001012C
:1017000001600098401C0090B84203D8206800682F
:10171000C007F6D184F8358084F83490E16C002954
:1017200010D001B02046BDE8F04308470168C90564
:10173000D5D4016821F01001016084F8358084F867
:101740003490CCE7BDE8F8835C0100202DE9F0413E
:10175000044600F0C1F906465CB1022084F8350069
:10176000002584F834502068016821F001010160EF
:101770000DE00120BDE8F08100F0AEF9801B0528E6
:1017800005D920206065032084F83500F2E7206841
:101790000068C007F0D12268116820480140D4E9F0
:1017A00001031843D4E903363343184363691843EC
:1017B000A3691843E3691843236A18430843616A1D
:1017C000042903D1D4E90B1319430843106020689E
:1017D0004069666A20F0070130460E43012704285D
:1017E0000CD1A06A0643E06A40B12046FFF7BCF97D
:1017F00020B14020606584F83570BAE72068466102
:101800002046FFF79DF994F85C203F2191408160CC
:10181000656584F835700020ACE700003F8010F06B
:101820002DE9F0410446866D90F83400002501282A
:101830000DD0012084F8340094F835700020012F79
:1018400007D084F8340002252846BDE8F081022044
:10185000FBE7022784F8357060652046FFF7AEF994
:1018600094F85C103F208840B0602068016841F027
:1018700016010160206C20B12068016841F0080168
:1018800001602068016841F001010160DCE70000AF
:101890002DE9F84FDFF8F8A10022012403254FF0CD
:1018A0000F090AF1040BAAF1040E00BF0B6804FA39
:1018B00002F63340B34270D10F7907F00307012FCE
:1018C00001D0022F16D187684FEA420805FA08FCBA
:1018D00027EA0C07D1F80CC00CFA08FC4CEA070CFC
:1018E000C0F808C04768B7430E79C6F300169640A3
:1018F0003E4346600E79F643B6070AD0C7684FEA02
:10190000420C05FA0CF6B7438E6806FA0CF63E4315
:10191000C6600E7906F00306022E10D1D60800EB41
:101920008608D8F8206057074FEAD76C09FA0CF7F9
:10193000BE430F6907FA0CF73743C8F820700668F2
:101940004FEA420C05FA0CF7BE430F7907F0030784
:1019500007FA0CF7374307604E6816F4403F1CD077
:101960004C4E376847F480473760366822F00307EB
:1019700006F480460096484E07EB060CDCF8086833
:1019800097073F0F09FA07F826EA0806DFF80C81E7
:10199000404503D14FF0000841E072E0DFF80081DC
:1019A000404502D14FF0010839E0DFF8F8804045AA
:1019B00002D14FF0020832E0DFF8EC80404502D15E
:1019C0004FF003082BE0DFF8E480404502D14FF0F0
:1019D000040824E0DFF8D880404502D14FF0050824
:1019E0001DE0DFF8D080404502D14FF0060816E038
:1019F000DFF8C480404502D14FF007080FE0DFF860
:101A0000BC80404502D14FF0080808E0DFF8B08004
:101A1000404502D14FF0090801E04FF00A0808FAEA
:101A200007F848EA0608CCF80888DAF80060574654
:101A3000D1F804C09E435FEACC2C00D51E433E6023
:101A4000DBF800605F46D1F804C09E435FEA8C2C4F
:101A500000D51E433E60DEF800607746D1F804C032
:101A60009E435FEA8C3C00D51E433E60084F083F12
:101A70003E68D1F804C09E435FEACC3C00D51E43CB
:101A80003E60521C102AFFF411AFBDE8F88F000031
:101A9000083C014044380240003001400000024050
:101AA0000004024000080240000C02400010024006
:101AB0000014024000180240001C024000200240B6
:101AC000002402400069084000D0012070470AB19C
:101AD000816170470904FBE7014880687047000096
:101AE00050010020024881680278114481607047EB
:101AF000500100200B4810B5016841F400710160ED
:101B0000016841F480610160016841F48071016005
:101B1000032000F06FF80F2000F006F800F024F822
:101B2000002010BD003C024070B50D4D04464FF43E
:101B30007A712878B1FBF0F00A490968B1FBF0F03E
:101B400000F044FB48B9102C07D200222146501E59
:101B500000F030F800206C6070BD012070BD000006
:101B6000500100205C0100200A4808B5016841F4DA
:101B700080410160006800F4804000900548001F2B
:101B8000016841F080510160006800F080500090D1
:101B900008BD000044380240002809DB00F01F02A5
:101BA000012191404009800000F1E020C0F80011BF
:101BB00070470000F0B40E4B1B680C46C3F30223C1
:101BC000C3F10705042D00D90425191D072901D2E9
:101BD000002300E0DB1E012606FA05F1491E214024
:101BE00099409E40761E16403143F0BC03F0A8B9E0
:101BF0000CED00E0064900F0070208684FF6FF030D
:101C0000184040EA0220034A104308607047000071
:101C10000CED00E00000FA052DE9F84317480168D3
:101C200041F0805101600068154F00F0805001269E
:101C300000903E64FFF750FF05464FF47A78114C50
:101C400005E000BFFFF748FF401B40450DD8606826
:101C5000C003F7D57E64FFF73FFF0546464607E021
:101C6000FFF73AFF401BB04202D90320BDE8F883DA
:101C700060688003F4D50020F8E700004038024097
:101C800000000E42007000402DE9F0470E460500AE
:101C900065D0DFF81481D8F80000F7B200F00F002B
:101CA000B04207D288F80070D8F8000000F00F00AA
:101CB000B04254D128683D4C810712D5400703D566
:101CC000206840F4E05020602878000703D52068A1
:101CD00040F4604020602068A96820F0F0000843CC
:101CE00020602878C0072DD030496868083901285D
:101CF00012D0022813D0032811D0096889070029BF
:101D00002DDA216821F0030101432160FFF7E4FE91
:101D1000814641F2883A0EE009688903EFE70968D5
:101D20008901ECE7FFF7D8FEA0EB0901514502D984
:101D30000320BDE8F0872068696800F00C00B0EB74
:101D4000810FEFD1D8F80010404601F00F01B142E9
:101D500007D90770006800F00F00B04201D00120E1
:101D6000E7E72878400705D52068E96820F4E050C7
:101D7000084320602878000706D52068296920F4E8
:101D8000604040EAC100206000F038F82168084A4D
:101D9000C1F30311515CC840064908600648006859
:101DA000FFF7C2FE0020C4E7003C024008380240B2
:101DB000606100085C0100205401002004480549CE
:101DC00000680968044AC1F38221515CC840704729
:101DD0005C01002008380240706100080448054991
:101DE00000680968044AC1F34231515CC840704739
:101DF0005C0100200838024070610008154810B5E9
:101E0000006810F00C02144813D01449042A0FD0B3
:101E1000082A0ED10F4C241F2268236802F03F02CB
:101E20005B0207D52068C0F38810A0FB010106E023
:101E3000084610BD2168C1F38811A1FB00010023F1
:101E4000FEF744FA2168C1F30141491C4900B0FB87
:101E5000F1F010BD083802400024F400001BB70068
:101E60002DE9F84F04006ED02078DFF84C93C007BE
:101E7000A9F104054AD009F104000168C1F3810108
:101E8000012908D00068C0F3810002280AD1D9F8DE
:101E90000000400206D52868800337D56068002816
:101EA000E1D033E06068B0F5803F10D0B0F5A02FEE
:101EB000286810D020F480302860286820F4802022
:101EC00028606068A8B1FFF707FE06460DE02868A5
:101ED00040F48030F4E740F480202860F7E700BF4A
:101EE000FFF7FAFD801B642873D828688003F7D5B4
:101EF0000CE0FFF7F1FD064605E000BFFFF7ECFD43
:101F0000801B6428F0D828688003F7D42078DFF895
:101F1000AC8280074FF0000A3ED5A748001D01683B
:101F200011F00C0F08D00068C0F3810002280BD11B
:101F3000D9F80000400207D42868800716D5E06869
:101F4000012800D112E033E1E068B8B10120C8F8FF
:101F50000000FFF7C1FD064605E000BFFFF7BCFD2E
:101F6000801B0228C0D828688007F7D52868216917
:101F700020F0F80040EAC10028600DE0C8F800A099
:101F8000FFF7AAFD064604E0FFF7A6FD801B022826
:101F90001FD828688007F7D42078000722D5864FFD
:101FA00087486169703771B101210160FFF794FDC5
:101FB000064604E0FFF790FD801B022809D8386828
:101FC0008007F7D50EE0C0F800A0FFF785FD0646B4
:101FD00005E082E0FFF780FD801B02287DD838688D
:101FE0008007F7D42078400768D5DFF8CCB1002708
:101FF0000BF13C0BDBF80000C0000BD4DBF8001049
:1020000041F08051CBF80010DBF80000012700F010
:10201000805000906B4E3068C00510D4306840F49A
:1020200080703060FFF758FD009005E0FFF754FD29
:102030000099401A022850D83068C005F6D55E4E87
:10204000A0686C3601280FD00528306810D020F029
:1020500001003060306820F004003060A068B8B142
:10206000FFF73AFD00900FE0306840F00100F4E720
:1020700040F004003060F7E7FFF72EFD0099411AA9
:1020800041F28830814266D830688007F4D50EE08E
:10209000FFF722FD009007E0FFF71EFD0099411AAF
:1020A00041F28830814256D830688007F4D42FB18D
:1020B000DBF8001021F08051CBF80010A069C8B304
:1020C0003D49091D0968C1F3810102294AD002284E
:1020D000504607D0C8F8600000E03CE0FFF7FCFC89
:1020E00004463BE04746C8F86000FFF7F5FC0646AB
:1020F00005E000BFFFF7F0FC801B02282BD8286802
:102100008001F7D4D4E907010843A16A2E4A49089F
:1021100002EB0141626A41EA8211084394F82C10F3
:1021200040EA0161C9F8001001203866FFF7D4FCCD
:10213000044606E03EE000BFFFF7CEFC001B02288D
:1021400009D828688001F7D534E000BFFFF7C4FC48
:10215000001B022802D90320BDE8F88F28688001FF
:10216000F4D427E00128F7D0D9F80000E26900F4A0
:10217000800191421CD1226A00F03F01914217D1A7
:1021800047F6C071626A0140B1EB821F10D1A26AAA
:102190004FF0FF3300F4403103EB5202B1EB024F3A
:1021A00006D194F82C1000F07060B0EB016F01D0F4
:1021B0000120D1E70020CFE7043802400000474269
:1021C000800E4742007000400000FFFF10B5401E27
:1021D000B0F1807F01D3012010BD4FF0E024606199
:1021E0000F21601702F0ACFE0020A06107202061E3
:1021F000002010BD7047704770B590F83C20012A50
:1022000032D0012480F83C40022280F83D2003684F
:102210005A689D6822F070060A6832435A60134B70
:1022200002689A4214D0B2F1804F11D0104B9A42FA
:102230000ED0104B9A420BD00F4B9A4208D00F4B46
:102240009A4205D00E4B9A4202D00E4B9A4204D1CC
:10225000496825F080031943916080F83D400021D2
:1022600080F83C10084670BD022070BD000001409F
:102270000004004000080040000C00400004014041
:10228000004001400018004010B5040003D094F84D
:102290003D0010B107E0012010BD002084F83C0093
:1022A000204600F01FF8022084F83D00211D206820
:1022B00002F0F4F8012084F8460084F83E0084F827
:1022C0003F0084F8400084F8410084F8420084F81C
:1022D000430084F8440084F8450084F83D00002061
:1022E00010BD000010B586B0044614216846FEF704
:1022F000A9F8216800222D48B1F1804F11D02C4A55
:1023000091422DD1016841F0040101600068002272
:1023100000F00400059011461E20FFF74BFC1E2024
:102320002FE0016841F001010160006800F0010048
:1023300005901E481038016841F0010101600068F5
:10234000694600F00100059002200090CDE90102ED
:102350000120CDE903201748FFF79AFA06B010BD17
:10236000154A914210D1016841F0080101600068EE
:10237000002200F00800059011463220FFF71AFCF9
:102380003220FFF709FCE9E70C4A9142E6D10168E7
:1023900041F0100101600068002200F0100005907B
:1023A00011463620FFF706FC3620EAE740380240A7
:1023B0000008004000000240000C004000100040F7
:1023C00090F83D10012901D001207047022180F8CA
:1023D0003D100168CA6842F00102CA6000681149F4
:1023E000884214D0B0F1804F11D00F4988420ED0EE
:1023F0000E4988420BD00E49884208D00D498842C8
:1024000005D00D49884202D00C49884204D1816828
:1024100001F00701062903D0016841F001010160C4
:102420000020704700000140000400400008004008
:10243000000C004000040140004001400018004032
:1024400070B5044690F83C000025012817D00126FD
:1024500084F83C60022084F83D002068826822F005
:10246000770222F47F4282600868502838D00DDC61
:1024700020284FD005DC90B3102811D14AE002206B
:1024800070BD302846D040280AD13BE060282FD0CC
:1024900070280DD0B0F5805F03D0B0F5005F12D08A
:1024A000012584F83D60002084F83C00284670BD7A
:1024B000CB68D1E90121206802F061F820688168C9
:1024C00041F0770109E0CB68D1E90121206802F0F1
:1024D00056F82068816841F480418160E1E719E0A5
:1024E000CA684968206802F06FF95021206806E048
:1024F000CA684968206802F078F96021206802F013
:1025000048F8CEE7CA684968206802F05DF94021C2
:102510002068F4E7226801461046F0E7704770B57E
:102520000446006801694FF00005C943890715D4C6
:10253000C168C943890711D4E91E016101202077D0
:10254000206880698007204602D0FFF7E7FF04E09B
:1025500000F002F9204600F094F92577206801691F
:10256000C943490717D4C168C943490713D46FF059
:1025700004010161022020772068806910F4407F07
:10258000204602D0FFF7CAFF04E000F0E5F820463D
:1025900000F077F9257720680169C943090716D447
:1025A000C168C943090712D46FF008010161042012
:1025B00020772068C0698007204602D0FFF7AEFF71
:1025C00004E000F0C9F8204600F05BF925772068A8
:1025D0000169C943C90617D4C168C943C90613D4E0
:1025E0006FF010010161082020772068C06910F4A5
:1025F000407F204602D0FFF791FF04E000F0ACF8E6
:10260000204600F03EF9257720680169C943C907D3
:1026100008D1C168C943C90704D1891E0161204698
:1026200000F094F920680169C943090609D4C1681A
:10263000C943090605D46FF0800101612046FFF708
:10264000D9FD20680169C943490609D4C168C94355
:10265000490605D46FF040010161204600F0C0F941
:1026600020680169C94389060BD4C168C94389063A
:1026700007D46FF0200101612046BDE87040FFF7EC
:10268000BABD70BD30B587B0044614216846FDF769
:10269000D9FE22680024294801210225B2F1804F89
:1026A00012D0274B9A4223D1016841F00801016002
:1026B0000068694600F0080005904FF470400090F3
:1026C000CDE901541F4836E0026842F00102026081
:1026D00000680091CDE9015400F00100CDE904103B
:1026E00019480394694600BFFFF7D2F807B030BD20
:1026F000164B9A42FAD1026842F480720260026874
:1027000002F480720592026842F080020260006862
:102710000091CDE9015400F08000CDE904506946F4
:1027200003940B48FFF7B4F84FF4E0500090CDE964
:10273000015408486946CDE90345D5E730380240E1
:1027400000080040000C024000000240000C004065
:1027500000200240001C0240704770B5044690F80B
:102760003C0000260D4601280FD0012084F83C00D3
:102770006AB1042A1DD0082A2FD00C2A3FD0012686
:10278000002084F83C00304670BD022070BD2068F7
:1027900001F008FF2068816941F00801816120682B
:1027A000816921F004018161206881692A691143EE
:1027B00011E0206801F026FF2068816941F4006182
:1027C00081612068816921F480618161206881696B
:1027D0002A6941EA02218161D2E7206801F048FFBD
:1027E0002068C16941F00801C1612068C16921F018
:1027F0000401C1612068C1692A69114311E02068A0
:1028000001F06AFF2068C16941F40061C16120687C
:10281000C16921F48061C1612068C1692A6941EA06
:102820000221C161ACE710B5040003D094F83D006B
:1028300010B107E0012010BD002084F83C002046C4
:1028400000F01EF8022084F83D00211D206801F0F0
:1028500025FE012084F8460084F83E0084F83F00FD
:1028600084F8400084F8410084F8420084F8430072
:1028700084F8440084F8450084F83D00002010BD31
:102880007047704710B50446022249B104290ED0A2
:10289000082913D094F84100012816D0012010BD5A
:1028A00094F83E000128F9D184F83E200FE094F816
:1028B0003F000128F2D184F83F2008E094F840005E
:1028C0000128EBD184F8402001E084F84120012266
:1028D000206801F047FE16492068164A884201D058
:1028E000904203D1436C43F4004343642068884220
:1028F00013D0B0F1804F10D00F4988420DD00F494E
:1029000088420AD00E49884207D0904205D00D492E
:10291000884202D00C49884204D1816801F0070145
:10292000062903D0016841F001010160002010BDBB
:102930000000014000040140000400400008004085
:10294000000C0040004001400018004010B51F4C32
:102950002068401C206001F085FC00F079FC2068B4
:10296000072190FBF1F201FB120008B9FEF758F8BD
:102970002068642190FBF1F201FB120008B902F01B
:102980001EF92068252190FBF1F201FB120068B9C5
:102990000F48008803B20F48008802B20E48008832
:1029A00001B20E48008800B201F02EFB20680A2117
:1029B00090FBF1F201FB120008B902F055FE20680D
:1029C000B0F57A7F01DB0120206010BD04000020FB
:1029D000F0000020EC000020E8000020E4000020CF
:1029E0007047704770470000F8B5016804460868F2
:1029F000CA684B6910F00F0F4FF000055AD003F072
:102A0000010602F49077374365D0C10705D0D105A0
:102A100003D5216C41F001012164410705D5D90797
:102A200003D0216C41F002012164810705D5D9074B
:102A300003D0216C41F004012164010707D502F0A5
:102A40002001314303D0216C41F008012164216C45
:102A500000293BD0800604D5900602D5204601F01F
:102A60006FFF20684069216CC0F3801001F00801FD
:102A7000014320462BD001F024FF20684069400626
:102A800021D52068143050E8001F21F0400140E8B3
:102A90000012002AF5D1A06BA8B16C490165A06BAA
:102AA000FEF772FD002811D0A06B016D01B0BDE8EA
:102AB000F040084783060ED593060CD52046BDE8A6
:102AC000F84001F03DBF2046FFF78CFFF8BDFFF74F
:102AD00089FF2564F8BD266B2023012E79D1C60617
:102AE00077D5D60675D508684868009048694006CD
:102AF00040D5A16B086840680004000CEAD0A28DA4
:102B00008242E7D9E085C869B0F5807F2DD0206882
:102B10000C3050E8001F21F4807140E80012002AB8
:102B2000F5D12068143050E8001F21F0010140E881
:102B30000012002AF5D12068143050E8001F21F05F
:102B4000400140E80012002AF5D184F83E302563A8
:102B500020680C3050E8001F21F0100140E80012FE
:102B6000002AF5D1A06BFEF7C6FCA08DE18D401ABE
:102B700081B229E0A08DE18D401A81B2E08D00285C
:102B8000A8D00029A6D020680C3050E8002F22F4ED
:102B9000907240E80026002EF5D12068143050E8ED
:102BA000002F22F0010240E80026002EF5D184F823
:102BB0003E30256320680C3050E8002F22F01002D0
:102BC00040E80023002BF5D12046FFF70AFFF8BDAF
:102BD000FFE705062BD5150629D594F83D002128D9
:102BE000F5D1A068B0F5805F01D12069B0B1206A4D
:102BF000411C2162216800784860E08C401E00047E
:102C0000000CE084E3D12068C16821F08001C1603C
:102C10002068C16841F04001C160D8E7206A00889F
:102C2000C0F308004860206A801C2062E5E7400687
:102C3000CDD55006CBD5CA68204622F04002CA60E6
:102C400084F83D3000F0C9FAC1E700001D480008D3
:102C500070B5040004D094F83D00002510B106E0E2
:102C6000012070BD84F83C50204600F023F8242059
:102C700084F83D002068C16821F40051C1602046FD
:102C800001F0BEFE2068016921F4904101612068D5
:102C9000416921F02A0141612068C16841F4005175
:102CA000C1602564202084F83D0084F83E000020A7
:102CB00070BD00002DE9F04F87B00446142168462E
:102CC000FDF7C0FBBF48BE4A1038D4F800C0BD4B6A
:102CD00003260221002507154FF0080B4FF040098D
:102CE00094454AD11A6842F000421A601A6802F00C
:102CF00000420592026842F0100202600068CDE9CD
:102D0000006100F01000CDE904B0CDE9025669463B
:102D1000AD48FEF7BDFDAE4EAC484FF020683060C8
:102D2000C6E90185C6E903577561B561F56135628C
:102D300030467562FEF70AFD08B1FDF754FFA66341
:102D4000B463A34EA14860369038C6E90357756155
:102D5000B561F5613562756286E801033046FEF7BC
:102D6000F5FC08B1FDF73FFF6663002211465320D2
:102D7000B463FEF71FFF53206BE0DFF85882DFF8E3
:102D800044A207220AF1040AC44567D1DAF800C058
:102D90004CF0100CCAF800C0DAF8003003F0100351
:102DA0000593036843F002030360036803F0020322
:102DB0000593036843F0010303600068884600F050
:102DC000010005908020CDE9000802AB924683E81F
:102DD000600469468048FEF75BFD4FF40070CDE962
:102DE000000802AB694683E860047C48FEF750FDAA
:102DF000774E7B48C0364FF000683060C6E90185E9
:102E0000C6E903577561B561F56135623046756293
:102E1000FEF79CFC08B1FDF7E6FEA663B463714EB5
:102E20006F48C6E903577561B561F56135623030A9
:102E3000756286E801033046FEF788FC08B1FDF7AD
:102E4000D2FE6663002211462520B463FEF7B2FE6F
:102E50002520FEF7A1FE07B0BDE8F08FDFF88881DE
:102E6000C4451ED11C6844F400341C601B6803F484
:102E700000330593036843F008030360006804927D
:102E800000F00800059060208DE86300694657480F
:102E9000FEF7FEFC002211462620FEF78BFE2620C0
:102EA000D7E7DFF84C81C44539D1D3F800C04CF4E2
:102EB000802CC3F800C01B6803F4802305930368CB
:102EC00043F0040303600068049200F004000590DE
:102ED0004FF440608DE8630069464648FEF7D8FC31
:102EE000404E3A486036783830604FF00060C6E9AE
:102EF0000105C6E903577561B561F5613562304674
:102F00007562FEF723FC08B1FDF76DFEA663002293
:102F100011462720B463FEF74DFE272099E7364A75
:102F2000944598D1DAF8003043F02003CAF8003015
:102F3000DAF8002002F020020592026842F0400216
:102F40000260006800F0400005904FF484408DE876
:102F5000630869462948FEF79BFC224E2048C0368C
:102F6000603830604FF02068C6E90185C6E9035734
:102F70007561B561F561356230467562FEF7E6FB55
:102F800008B1FDF730FEA663B4631D4E1448C6E9D0
:102F900003577561B561F56135621830756286E871
:102FA00001033046FEF7D2FB08B1FDF71CFE666355
:102FB000002211464720B463FEF7FCFD472048E796
:102FC000007C00404038024000100240A0600240F7
:102FD00024040020001001400004024000000240D0
:102FE000886402404405002000440040000C024078
:102FF0000048004000080240001401400018024050
:103000006406002090F83E30202B0ED159B152B109
:1030100090F83C30012B08D0012380F83C3000238D
:10302000036301F073BD0120704702207047000068
:1030300010B5042205A1074800F0B0F8BDE8104023
:103040000C2205490348FFF7DDBF0000313233345D
:1030500000000000E00300204C0C00202DE9F843A4
:10306000044690F83D001F4616460D4620284CD1D8
:10307000C5B1BEB194F83C00012846D0012084F8C7
:103080003C004FF00008C4F84080212084F83D0047
:10309000FEF722FDA6848146E684A068B0F5805F35
:1030A00003D004E00120BDE8F883206928B12E4652
:1030B0005FF0000584F83C800EE00026FAE78021EE
:1030C000204601F040FDA0B9AEB116F8010B216811
:1030D0004860E08C401EE084E08C4B464FF00002DC
:1030E00000970028EBD14FF04001204601F02BFD66
:1030F00030B10320D7E735F8020BC0F30800E6E74C
:10310000202084F83D000020CDE70220CBE700001E
:1031100070B5044690F83D00202836D191B38AB3AB
:1031200094F83C00012830D0012084F83C00216252
:10313000A284E28400252564212084F83D00636B8D
:103140001348D863636B13481864636B1248D864E0
:10315000606B134605652668606B321DFEF760FBE9
:1031600021686FF04000086084F83C5020681430FB
:1031700050E8001F41F0800140E80012002AF5D11C
:10318000002070BDFFE70120FBE70220F9E7000007
:1031900077480008B94800082D48000890F83D30ED
:1031A000202B18D1A9B1A2B190F83C30012B12D03C
:1031B00001628284C28400210164212280F83D20C2
:1031C00080F83C100068C16841F08001C1600020B7
:1031D0007047012070470220704770477047000019
:1031E0000A49082008700A48002181614161016193
:1031F0008163C163C16201634163016441648164AD
:10320000C16440F6B83141627047000060000020A0
:103210005C08002010B50C4A20B1012804D0082811
:1032200006D10EE0506801E05068404201F07EF89F
:10323000083292EC030A01F0F9FDBDE8104001F0FC
:1032400067B80020F2E7000060000020FEE7000001
:103250002DE9F047F84C2078012872D1F74DF84954
:10326000F84AA88AF84BF94E5FEAC06C4FF00007A5
:103270004FEAC07815D54FF04B0CB8F1000F02D0D3
:10328000C1F800C000E00F604FEA80786FF04A019B
:1032900013E0420718D5C3F800C0020716D5316005
:1032A00015E04FF4DC7CB8F1000F02D0C1F800C08B
:1032B00000E00F60E6494FEA8078B8F1000F01DACC
:1032C0001160E6E71760E4E71F60E6E73760A97C76
:1032D000DFF88093DFF880830126012908D14006BA
:1032E00006D4012210214846FEF7F1FB88F8006061
:1032F000E87C012809D1287D400606D4002210214F
:103300004846FEF7E4FB88F80070A88A81064FEA79
:10331000C04109D5002915DA010513D4C10511D41E
:1033200041060FD4032008E000290BDA010509D477
:10333000C10507D4410605D4022000F051FD082044
:1033400035E02CE210F4815F07D1010505D5C105F8
:1033500003D4410601D404200EE081064FEAC041A7
:103360000ED500294FEA005117DB002922DAC105EA
:1033700020D441061ED4052000F066FD082046E05A
:10338000002917DA010515D5C10513D4410611D45A
:10339000072000F025FD072009E000290ADAC10511
:1033A00008D4410606D4062000F01AFD062000F0DD
:1033B0004BFD2EE010F4815F05D1010503D4C1055A
:1033C00001D4410609D5810611D5C1040FD40105E8
:1033D0000DD4C1050BD4410609D4082000F000FD2E
:1033E000082000F031FD0820FDF742FC11E010F448
:1033F000815F18D1010516D4C10514D5410612D438
:103400000120FDF735FC072000F01EFD072000F02D
:10341000E7FC287D800615D5A88A410612D48004D1
:1034200020D5012017E081060CD5C104F4D4010594
:10343000F2D4C105F0D5400604D40020FDF718FCF5
:10344000082099E7A88A10F0600F06D1800401D502
:10345000002000E0082000F009FEA88A810606D5B9
:10346000410604D4A88A400414D5012007E010F0D6
:10347000600F06D1400401D5002000E0082000F0D4
:1034800005FEA88A810605D401060AD5400608D49F
:1034900001200BE0A88A010603D5400601D40020D4
:1034A00004E0287D10F0C00F02D10820FFF7B2FE23
:1034B000A88A81064FEA805107D400290EDA410517
:1034C0000CD441060AD4092006E0002906DA410599
:1034D00004D4410602D40A200E2126E010F4087F0D
:1034E00005D1410503D5410601D40B210CE081062D
:1034F0004FEA80510AD500294FEA40510FDB0029DD
:103500001EDA41061CD40C210D200EE0002917DA2A
:10351000410515D5410613D40B21092005E00029EA
:103520000EDA41060CD40C210A2000F0BDFCA88A5A
:1035300081060ED541060CD4010417D5E77015E0BD
:1035400010F4087FF3D14105F1D44006EFD40E21E9
:10355000DAE710F0600F02D1010400D5E6704106F1
:1035600004D5810602D4617801B96670A94610F0CD
:10357000600F07D16078012800D167702079012899
:1035800000D127716078012878D1207918B9FEF729
:10359000A3FAA0602671FEF79FFAA16840F6EA3808
:1035A0004FF43965884208D0FEF796FAA168401AB0
:1035B000A84202D20B2109200DE0FEF78DFAA16886
:1035C000401AA84209D9FEF787FAA168411A414575
:1035D00003D20E210D2000F067FCFEF77DFAA168F2
:1035E000401A40F2E241884207D9FEF775FAA16815
:1035F000401AA84201D201200CE0FEF76DFAA16842
:10360000401AA84208D9FEF767FAA168411A414555
:1036100002D20820FFF7FEFDFEF75EFAA168401A0D
:1036200040F6A20188421AD9FEF756FAA168401A5C
:10363000A84214D201201FE008000020C406002088
:10364000FC000020000100200401002008010020EF
:1036500048FEFFFF001C0240740000200EE0FEF751
:103660003BFAA168401AA84208D9FEF735FAA168CA
:10367000411A414502D20820FDF7FAFAB9F81400C0
:103680004D46810604D5410602D5A17801B9A67040
:1036900010F0600F07D1A078012800D1A7706079E1
:1036A000012800D16771A07801286AD1607918B922
:1036B000FEF712FAE0606671FEF70EFAE16841F279
:1036C000CC06884208D0FEF707FAE168401AB042FB
:1036D00002D20E2109200FE0FEF7FEF9E168401A40
:1036E000B0420BD9FEF7F8F9E168401A41F2301107
:1036F000884203D20E210D2000F0D6FBFEF7ECF934
:10370000E1684FF47A67401A40F6C411CE0088424F
:1037100007D9FEF7E1F9E168401AB84201D2012069
:103720000EE0FEF7D9F9E168401A40F66E71884262
:1037300008D9FEF7D1F9E168401AB04202D2082058
:10374000FFF768FDFEF7C8F9E168401A40F6B2419C
:10375000884207D9FEF7C0F9E168401AB84201D2A1
:1037600001200CE0FEF7B8F9E168401AB84208D928
:10377000FEF7B2F9E168401AB04202D20820FDF724
:1037800077FAE078012801D1FCF7F2FE287D10F0ED
:10379000C00F04D1BDE8F0470820FFF73BBDBDE8EE
:1037A000F08700000F4810B50D4901600521416008
:1037B00000214FF440328160C0E9031212014261DE
:1037C0000176012242768176C17601774177FDF755
:1037D0000AFD002803D0BDE81040FDF704BA10BD73
:1037E00000640040600100200F4810B50D490160E1
:1037F0000E21416000214FF440328160C0E9031284
:10380000120142610176012242768176C17601770A
:103810004177FDF7E8FC002803D0BDE81040FDF734
:10382000E2B910BD0068004088010020254808B5B5
:10383000016841F400110160016801F40011009178
:10384000016841F4800101600068002200F48000FA
:10385000009011460B20FEF7ADF90B20FEF79CF906
:10386000002211460C20FEF7A5F90C20FEF794F972
:10387000002211461120FEF79DF91120FEF78CF968
:10388000002211463920FEF795F93920FEF784F918
:10389000002211464420FEF78DF94420FEF77CF902
:1038A000002211464520FEF785F94520FEF774F900
:1038B000002211464620FEF77DF9BDE8084046206B
:1038C000FEF76AB93038024070B586B014216846F8
:1038D000FCF7B8FD34480024016841F01001016094
:1038E000016801F010010591016841F002010160D9
:1038F000016801F002010591016841F04001016099
:10390000016801F040010591016841F00101016089
:10391000016801F001010591016841F008010160B1
:10392000016801F008010591016841F0040101609E
:10393000016801F004010591016841F02001016076
:10394000016801F020010591016841F48071016076
:10395000016801F480710591016841F08001016006
:103960000068124E00F080000590002210213046C1
:10397000FEF7ADF8012220213046FEF7A8F8012518
:10398000CDE9005469460A480294FDF781FF3020D2
:10399000CDE900050320CDE9024069463046FDF738
:1039A00077FF06B070BD000030380240001C0240B6
:1039B0000014024010B58EB00024079408940994B6
:1039C0000A940B941C2168460C94FCF73BFD1F489D
:1039D0004FF08041016040F28F61C0E9011440F274
:1039E000E731C0E903148461FEF74EFC08B1FDF72E
:1039F000FAF84FF48050079007A91448FEF720FD0D
:103A000008B1FDF7F0F81148FEF70DFF08B1FDF71A
:103A1000EAF80B940BA90D480C94FEF7EDFB08B1E6
:103A2000FDF7E1F8602000901920CDE901040022A3
:103A3000694606480494FEF790FE08B1FDF7D3F8F6
:103A40000248FEF71FFE0EB010BD0000B0010020BE
:103A500010B58EB000240794089409940A940B942E
:103A60001C2168460C94FCF7EDFC2A4828490160AB
:103A70005921C0E9011440F2E731C0E9031484611F
:103A8000FEF702FC08B1FDF7AEF84FF48050079046
:103A900007A92048FEF7D4FC08B1FDF7A4F81D489B
:103AA000FEF7C1FE08B1FDF79EF80B940BA919486B
:103AB0000C94FEF7A1FB08B1FDF795F86020CDE965
:103AC000000402940022694612480494FEF745FE61
:103AD00008B1FDF788F8042269460E48FEF73DFE5E
:103AE00008B1FDF780F8082269460A48FEF735FE5E
:103AF00008B1FDF778F80C2269460648FEF72DFE5E
:103B000008B1FDF770F80348FEF7BCFD0EB010BD1C
:103B100000080040F801002010B58EB00024079482
:103B2000089409940A940B941C2168460C94FCF7A1
:103B300089FC2A48284901605921C0E9011440F252
:103B4000E731C0E903148461FEF79EFB08B1FDF77D
:103B50004AF84FF48050079007A92048FEF770FC00
:103B600008B1FDF740F81D48FEF75DFE08B1FDF70E
:103B70003AF80B940BA919480C94FEF73DFB08B1D9
:103B8000FDF731F86020CDE9000402940022694677
:103B900012480494FEF7E1FD08B1FDF724F8042271
:103BA00069460E48FEF7D9FD08B1FDF71CF808225A
:103BB00069460A48FEF7D1FD08B1FDF714F80C225A
:103BC00069460648FEF7C9FD08B1FDF70CF8034841
:103BD000FEF758FD0EB010BD000C00404002002062
:103BE0001CB500240E4800940C490194016042F277
:103BF0002731C0E9011409218461C160FEF744FB4B
:103C000008B1FCF7F0FF0094694605480194FEF7FF
:103C1000F3FA002801D0FCF7E6FF1CBD00100040BD
:103C2000880200200C4810B50A4901604FF4E131C8
:103C30004160002181600C22C160C0E904128161F1
:103C4000C161FFF705F8002803D0BDE81040FCF77C
:103C5000CABF10BD007C0040D00200200D4810B546
:103C60000B4901600C49416000214FF48062816082
:103C7000C0E903120C22C0E90521C161FEF7E8FF8B
:103C8000002803D0BDE81040FCF7ADBF10BD000018
:103C90000010014014030020A08601000C4810B55C
:103CA0000A4901600B494160002181600C22C1601A
:103CB000C0E904128161C161FEF7CAFF002803D088
:103CC000BDE81040FCF78FBF10BD0000004400406D
:103CD00058030020A08601000C4810B50A49016075
:103CE0000B494160002181600C22C160C0E90412CF
:103CF0008161C161FEF7ACFF002803D0BDE8104030
:103D0000FCF771BF10BD0000004800409C0300207C
:103D1000A08601000C4810B50A4901604FF4165105
:103D20004160002181600C22C160C0E90412816100
:103D3000C161FEF78DFF002803D0BDE81040FCF7FD
:103D400052BF10BD00140140E0030020FEE7000058
:103D50002149082040F6B833087048701F490020F8
:103D600001F19002086110618861906148615061C1
:103D700088639063C863D063C862D06208631063CD
:103D800048635063086410644864506488649064B5
:103D9000C864D0644B6201F59071536201F19002E6
:103DA0000861106188619061486150618863906327
:103DB000C863D063C862D06208631063486350630D
:103DC000086410644864506488649064C864D06473
:103DD0004B62536270470000B40000200C0A0020C0
:103DE00010B5184A801E072812D2DFE800F0040937
:103DF00011111A202600506800F0CCFA506805E036
:103E00005068404200F0C6FA506814E000F098FA9A
:103E10000C3292EC030A01F00FF8BDE8104000F0FC
:103E200097BA9068404200F0B5FA9068EEE7906863
:103E300000F0B0FA90684042E8E7002000F0AAFAEB
:103E40000020E3E7B400002010B5154A001F052844
:103E50000CD2DFE800F00305141A2000906816E089
:103E6000906840420CE000BF00F09CFA0C3292ECEB
:103E7000030A00F0FDFFBDE8104000F069BA906849
:103E800000F098FA90684042EEE79068404200F0F7
:103E900091FA9068E8E7002000F08CFA0020E3E750
:103EA000B4000020FEE770472DE9F04188465349F1
:103EB000534C01270B68002522684FF47A760928B5
:103EC00004D00A2822D00D2847D13FE012B1012AA0
:103ED00009D042E05E63086885630868C6630968C4
:103EE0000A20086439E0A06810B1012805D034E048
:103EF000FDF7F2FDC4E901072FE0FDF7EDFD616874
:103F0000401A642829D92560A56026E0012A01D03D
:103F10004AB122E05D63086886630A684620D06380
:103F20000868066419E0206910B1012805D014E082
:103F3000FDF7D2FDC4E903070FE0FDF7CDFDE16811
:103F4000401A642809D92760256106E05D63086886
:103F500085630868C563086805642A484146B8F166
:103F60000B0F0BD00C2929D0B8F10E0F16D1016818
:103F70004D6301688D630168CD6317E0616979B1B4
:103F800001290BD1E069A0B1012807D1FDF7A4FDFB
:103F9000A169401A642801D96561E561BDE8F08135
:103FA00001684E6301688D630168CE630068056433
:103FB000F4E7FDF791FDC4E90607EFE76169012920
:103FC0000ED00029EAD1606A98B10128E6D1FDF748
:103FD00083FD216A401A6428E0D967616562DDE7E4
:103FE00001684D6301688E630168CD6300680664F3
:103FF000D4E7FDF771FDC4E90807CFE740020020D0
:1040000024010020F801002070B5164C050A257027
:104010006070080AA070E170100A20716271180ABD
:10402000A071201FE371016811B1012904D007E0DC
:104030006B21A172012102E06A21A17200210160BD
:1040400000F039F9012805D100F070FC70202072D1
:104050006072E072BDE870400C2202490248FFF72E
:1040600057B80000D8000020E0030020064930B116
:10407000012806D0082801D17020087270476320FB
:10408000FBE74320F9E70000D8000020064930B1E3
:10409000012806D0082801D1702048727047762088
:1040A000FBE75620F9E70000D8000020002801DCDB
:1040B000404200B27047000070B5194CB4F90000DE
:1040C000FFF7F4FF4FF42575A84217DCB4F902009E
:1040D000FFF7ECFFA84211DCB4F90400FFF7E6FF9C
:1040E000A8420BDCB4F90600FFF7E0FFA84205DCAC
:1040F000A07A18B1E07A08B1002070BD00202080BD
:104100006080A080E08020810221A172E172A08104
:10411000E0812082A074E074A082012070BD0000C4
:10412000C406002030B5144B1C68656945F0400595
:1041300065611B68DC6844F01004DC600F4B1C6890
:10414000256825F0010525601C682568ED07F7D175
:104150001D680B4CAC601C68E06018680161186851
:1041600042601868016841F48021016018680168A4
:1041700041F00101016030BD14030020E40400207F
:104180000410014038B51B480168CA6822F4005287
:10419000CA60194A11680B6823F001030B601368A9
:1041A000242159600068016841680091134C13682C
:1041B0004FF40011A34202D9104B4C3B04E0104CC9
:1041C000A34203D90D4B503B196008E00C4D0C4C39
:1041D000603DB83CAB4201D9E16000E0A160C1683C
:1041E00041F40051C1601068016841F001010160B3
:1041F00038BD000014030020E4040020586402408D
:10420000B860024030B5836EC3604A780C7802EB28
:10421000042212B28266CC788D7804EB052424B295
:10422000C4634C790D7904EB052424B244614468DD
:104230003CB94C78097804EB012109B201600121F5
:104240004160D31A0169B3F5805F01DD491E03E0C7
:1042500013F5805F01DA491C016102EB4131C0F8BE
:10426000801030BD11481249827A012A0BD0022AEF
:1042700009D002883AB942882AB982881AB9C28814
:104280000AB9028952B100220A70C07A012808D006
:10429000022808D0032803D100F0EABF01200870EB
:1042A000704701F043B800F0A3BF0000C40600202F
:1042B0000800002070470120704700000A4B03F1FE
:1042C0009002D86CD16CA0F5AF7001F5C8719861FF
:1042D0009161064A030A13705070080A9070D170F9
:1042E0001046FCF78DBA0000EC080020AC0000205E
:1042F000064A00EB400101EB001191636FF01201DF
:104300004843A2F190018863704700007C090020B7
:104310000449C86C88610449020A0A714871084658
:10432000FCF78ABA5C080020AC00002000EB4001DA
:1043300001EB001001498863704700005C08002011
:10434000024900EBC0008000886370479C0A00208F
:104350000D48C26C82619030130AC16C81610B48B8
:10436000037042700A0A8270C170094901F190031A
:10437000CA6C8A61D96C9961130A037142710A0A85
:104380008271C171FCF774BA0C0A0020CC000020C5
:104390002C0B0020024900EBC000800088637047AE
:1043A0000C0A0020024900EBC000800088637047BF
:1043B000BC0B0020024900EBC000800088637047FE
:1043C0002C0B0020FDF78EBB30B593B03021684632
:1043D000FCF738F814210CA8FCF734F82048002525
:1043E000016841F080510160006800F08050119038
:1043F0001C48016841F4404101600068022400F457
:104400004040119001200090000401908001CDE90E
:10441000064006200890B420CDE9090404200B9042
:104420006846FDF71DFD08B172B6FEE7FDF7F4FB27
:1044300008B172B6FEE70CA90F2081E831004FF4F5
:10444000A0500F904FF48050109005210CA8FDF75C
:104450001BFC002801D072B6FEE713B030BD00008F
:1044600040380240007000400248016841F4700189
:104470000160704788ED00E00148FEF750B8000089
:10448000F80100200148FEF74AB800004002002071
:104490000148FEF744B8000088020020F0B5026829
:1044A000254C264D264E274F274B4FF0804CA042DF
:1044B00009D0604507D0A84205D0B04203D0B84229
:1044C00001D0984204D122F0700E4A6842EA0E02EE
:1044D000A0421BD0604519D0A84217D0B04215D0D9
:1044E000B84213D0984211D0184DA8420ED0184DA2
:1044F000A8420BD0174DA84208D0174DA84205D0AE
:10450000164DA84202D0164DA84203D122F44075A0
:10451000CA682A434D6922F080022A4302608A68F1
:10452000C2620A688262A04201D0984201D1096940
:10453000016301214161F0BD000001400004004021
:1045400000080040000C0040000401400040014011
:10455000004401400048014000180040001C004099
:104560000020004010B501F01F030121046A9940AA
:104570008C430462016A9A401143016210BD10B578
:10458000846842EA032224F47F440A43224382607F
:1045900010BD826822F070020A4342F00701816078
:1045A00070470000F0B5026A22F001020262036A5D
:1045B00042688469124E24F073050C682C4323F082
:1045C00002058B682B430D4DA84201D0B04205D1A6
:1045D00023F00807CB683B4323F00403A84201D033
:1045E000B04205D14D6922F4407215438A692A43CD
:1045F00042608461496841630362F0BD000001408C
:1046000000040140F0B5026A22F010020262026A60
:10461000436884690D6824F4E64444EA05248D68FF
:1046200022F0200242EA05120F4D104EA84201D09E
:10463000B04206D1CF6822F0800242EA071222F08F
:104640004002A84201D0B04207D14D6923F4406333
:1046500043EA85038D6943EA8503436084614968C1
:1046600081630262F0BD00000000014000040140CF
:10467000F0B5026A22F480720262026A4368C46979
:1046800022F4007224F073050C68124E2C438D68DE
:1046900042EA05220E4DA84201D0B04206D1CF68B1
:1046A00022F4006242EA072222F48062A84201D08A
:1046B000B04207D14D6923F4405343EA05138D6995
:1046C00043EA05134360C4614968C1630262F0BDF7
:1046D000000001400004014030B5026A22F480521B
:1046E0000262046A4268C3690D6823F4E64343EA40
:1046F00005238D6824F4005444EA0534084DA8428B
:1047000002D0084DA84204D14D6922F4804242EA09
:1047100085124260C36149680164046230BD0000D3
:10472000000001400004014070B500212448FEF75C
:10473000A9F804212248FEF7A5F808212048FEF731
:10474000A1F80C211E48FEF79DF800211D48FEF738
:1047500099F804211B48FEF795F808211948FEF73F
:1047600091F80C211748FEF78DF815484FF0FF35EA
:1047700001680D6101682A1F0A6101686FF0080372
:104780000B6101681C1F0C610E490E6835610D68D4
:104790002A610A6813610A6814610B6800225A636F
:1047A0000B689A630B68DA6309680A6401684A63F4
:1047B00001688A630168CA630068026470BD000012
:1047C000F80100204002002010B5036A046A24F0BA
:1047D00001040462846924F0F00444EA021423F022
:1047E0000A020A438461026210BD10B5036A23F015
:1047F000100303628369046A23F4704343EA0232BC
:1048000024F0A00343EA01118261016210BD00009F
:104810000148FEF7E9B80000D002002010B5806B17
:104820000021C185C184FEF7DDF810BD70B5846B31
:104830002068406994F83D10C0F3C010002521297C
:1048400004D118B1E584204600F062F82068406980
:1048500094F83E10C0F38010222904D118B1E585E8
:10486000204600F02EF8206C40F010002064204616
:10487000FEF7B8F870BD10B50146806B096809688D
:10488000C90516D40021C1840168143151E8002FF4
:1048900022F0800241E80023002BF5D101680C31A1
:1048A00051E8002F42F0400241E80023002BF5D1EF
:1048B00010BDFEF792FC10BD10B5806BFEF78EFCAC
:1048C00010BD01680C3151E8002F22F4907241E8CC
:1048D0000023002BF5D10168143151E8002F22F09C
:1048E000010241E80023002BF5D1016B012909D118
:1048F00001680C3151E8002F22F0100241E800233A
:10490000002BF5D1202180F83E1000210163704773
:1049100001680C3151E8002F22F0C00241E8002369
:10492000002BF5D1202180F83D1070470C22024960
:104930000248FEF767BB00004C0C0020E00300209B
:1049400008B590F83E10222901D0022008BD8268E7
:104950004FF480539A4201D1016921B1816A9A4290
:104960001BD04AB10AE00268816A5268C2F30802A9
:104970000A80816A891C08E0026972B10268526883
:1049800002F07F020A70816A491C8162C18D491E52
:104990000904090CC18503D019E002685268F1E7E7
:1049A0000168CA6822F02002CA600168CA6822F45D
:1049B0008072CA6001684A6922F001024A612021BE
:1049C00080F83E10016B012903D0FEF731FB002077
:1049D00008BD0021016301680C3151E8002F22F06D
:1049E000100241E80023002BF5D101680A68D206C5
:1049F00002D50A6849680091818DFDF7F2FFE6E76C
:104A000070B5044600680169E26821F44051114321
:104A100001612169A068E2690843616911430843A3
:104A20002168CA6849F20C639A430243CA6020684D
:104A30004169A26921F44071114341613149206803
:104A4000884202D03049884202D1FDF7C7F901E01F
:104A5000FDF7B4F9E2690023192164253226B2F585
:104A6000004F626828D0A0FB0101930F9200FBF772
:104A70002DFC0146B0FBF5F06FF01802504301EB3E
:104A8000800006EB0010B0FBF5F000F0F002B1FB87
:104A9000F5F002EB0012B1FBF5F06FF0180358438C
:104AA00001EB800006EB0010B0FBF5F000F00F000A
:104AB00021681044886070BDA0FB010192185B4121
:104AC000FBF704FC0146B0FBF5F00201B1FBF5F089
:104AD0006FF01803584301EB800006EBC000B0FBF9
:104AE000F5F000F0F80002EB4002B1FBF5F058439E
:104AF00001EB800006EBC000B0FBF5F000F0070012
:104B0000D6E7000000100140001401408162828558
:104B1000C28500210164222280F83E2080F83C10EA
:104B2000016921B10168CA6842F48072CA600168F3
:104B30004A6942F001024A610068C16841F02001FF
:104B4000C160002070472DE9F041984617460E4697
:104B50000446069D27E0681C25D02DB1FCF7BCFF5C
:104B6000A0EB0800A8421ED920680C3050E8001FB6
:104B700021F4D07140E80012002AF5D120681430E9
:104B800050E8001F21F0010140E80012002AF5D191
:104B9000202084F83D0084F83E00002084F83C008A
:104BA0000320BDE8F0812068006836EA000004D0E8
:104BB0000020B842CFD00020F3E70120F9E700F051
:104BC00001B80000F0B585B040F256450027CDE9A8
:104BD000015702244FF487660094CDE9035605235C
:104BE0000922012125A000F055F8304640F22A366E
:104BF000CDE901670094CDE9036005230922012175
:104C00001FA000F047F84FF42070CDE90205CDE970
:104C1000004604900223092201211AA000F03AF86C
:104C20004FF4DC70CDE90205CDE900460490022383
:104C30000922012114A000F02DF840F2B22040F228
:104C400024454FF45776CDE90205CDE9004604909E
:104C50000223092201210DA000F01CF84FF4C370BB
:104C6000CDE90205CDE90046049002230922012185
:104C700007A000F00FF805B0F0BD0000303931009A
:104C800030393200303933003039340030393500B2
:104C9000303936002DE9F05F274CDDE90A9B884664
:104CA000054640F20110DDF834A0244920801E465C
:104CB0001746881E00F040FA662060804FF4B370FB
:104CC000A0802878A0716878E071A8782072607A56
:104CD000224668F3020020F038006072B4F8090040
:104CE000152367F38910A4F80900A07A66F38500FC
:104CF000A072B4F80D1069F30901A4F80D10E18950
:104D00006BF38C01E181B4F80F100C9860F34F1134
:104D1000A4F80F10618A6AF38C016182B4F8131051
:104D20000E9860F34F11A4F81310BDE8F05F40F245
:104D30000131A52000F0BABB110800205A00002064
:104D400038B52A4800680168890603D501684068BB
:104D5000009038BD26490968C906FAD5016840683F
:104D6000244A0090106801684FF024030C03224984
:104D7000046824F00104046016D414686068C0F16B
:104D8000240080B20880636011680B6843F400233C
:104D90000B6011680A6842F001020A601228D8D13B
:104DA000164901F1160015E010684468C4F12404A6
:104DB000A4B20C8043601248816A21F40021816210
:104DC0001068016841F001010160122CC1D10B494A
:104DD00001F13A0000F0DCFCFFF76EF90128B8D1D0
:104DE000BDE838402420FFF7CDB9000014030020AF
:104DF00000100140E404002018000020C406002038
:104E0000006002400148FDF7EFBD0000580300209C
:104E10000148FDF7E9BD00009C0300200148FDF7B3
:104E2000E3BD0000E0030020FEE70000014800F0C1
:104E30003BB800005C08002010B50C482DED048B39
:104E4000B0EE418AF0EE608AB0EE409A00F02CF8A5
:104E5000B0EE481AF0EE680AB0EE490ABDEC048BD9
:104E60000248BDE81040903000F01EB80C0A002047
:104E700010B50C482DED048BB0EE418AF0EE608A3F
:104E8000B0EE409A00F010F8B0EE481AF0EE680A62
:104E9000B0EE490ABDEC048B0248BDE810409030EA
:104EA00000F002B82C0B002010B5D0E90E12891AC0
:104EB0000A46C16200D55242142A426B01DC0A4400
:104EC00042634FF4FA739A4202DC5B429A4200DA80
:104ED000436301EE901AF8EEE11A21EE800ABDEE6E
:104EE000C00A10EE104A046490ED0D0AB8EEC00A34
:104EF00020EE200ABDEEC00A10EE103A4364026BA9
:104F00008A1A00EE102A0029B8EEC00A20EE010A23
:104F1000BDEEC00A10EE102A8264016300DA494235
:104F2000022901DC002107E0E1180A44416A8A42B3
:104F300002DC49428A4201DAC16410BDC26410BD7C
:104F40000907090E002804DB00F1E02080F80014B6
:104F5000704700F00F0000F1E02080F8141D70474A
:104F600030B50C4605000CD0022C0AD90548A11E0C
:104F70000288284600F0BCF8291901F8020D000A41
:104F8000487030BD5C00002030B50C46050008D0EC
:104F9000022C06D9FF22611E00F0C0F8291901F881
:104FA000010C30BD70B59FED160A8D1C2DED048BE4
:104FB000441AA8429FED139B07DB581A801E00F08D
:104FC0002CFE41EC180BA01E09E08B1E984214DC4D
:104FD000881A801E00F021FE41EC180BA01C00F086
:104FE0001CFE53EC182B00F091FC53EC192B00F035
:104FF0002BFE00F059FC00EE100ABDEC048B70BDD6
:1050000000000000000000C049345E4070B59FED14
:10501000160A8D1C2DED048B441AA8429FED139B9C
:1050200007DB581A801E00F0F8FD41EC180BA01E9B
:1050300009E08B1E984214DC881A801E00F0EDFDFA
:1050400041EC180BA01C00F0E8FD53EC182B00F00D
:105050005DFC53EC192B00F0F7FD00F025FC00EE91
:10506000100ABDEC048B70BD00000000000000E0E1
:10507000D20A1D40EFF3108172B6436802699A426A
:1050800001D90268026112F8013B02618268521C78
:105090008260C268521E81F31088C2601846704751
:1050A000C068704730B5002800DA40424C42002901
:1050B00001DB0D4600E02546854202DD080000D5F3
:1050C00020465142002A01DB144600E00C4684428F
:1050D00002DD100000D508465942002B01DB1A46BC
:1050E00000E00A46824202DD180000D5084630BDC5
:1050F00010B558B1084C491E0BD310F8013B534072
:10510000DBB234F8133083EA1222F4E74FF6FF7073
:1051100010BD104610BD0000585F000810B5054CCA
:1051200004E000BF10F8013B5340E25C491EF9D295
:10513000104610BD585E000870B50C46054600F0DC
:1051400051F865282ED007DC072849D2DFE800F0A7
:10515000480C11161B2025006638052840D2DFE8D0
:1051600000F0262B30353A000120288040F2011053
:1051700035E0022028804FF4817030E00320288041
:1051800040F203102BE0042028804FF4827026E0C8
:105190000520288040F2051021E0062028804FF4E9
:1051A00083701CE06520288040F2651017E06620BF
:1051B00028804FF4B37012E06720288040F2671017
:1051C0000DE0682028804FF4B47008E06920288042
:1051D00040F2691003E06A2028804FF4B570208007
:1051E00070BD00000148007870470000D60700201D
:1051F00010B50820FEF7F4FD0820FEF725FE082074
:10520000FEF744FF1949887A012804D0022804D007
:10521000032804D004E0002402E0012400E0082474
:10522000B1F904006FF0C702C82801DD092004E0CD
:10523000904201DA0A2000E00D20B1F90610C829D9
:1052400001DD0B2104E0914201DA0C2100E00E2186
:10525000FEF72AFE0820FDF7DDFF0820FBF708FD1A
:105260002046BDE81040FEF701BF0000C406002044
:105270002DE9F0410820FDF7CDFF0820FBF7F8FCF1
:105280000820FEF7F3FE274C4FF42076B4F9060011
:10529000B04202DD0220FEF7A3FDB4F90600224F62
:1052A000B84202DA0320FEF79BFDB4F906004FF482
:1052B000A06500F52070A84205D8A07A032802D185
:1052C0000820FEF78DFDB4F90400B04202DD042091
:1052D000FEF7BAFDB4F90400B84202DA0520FEF781
:1052E000B3FDB4F9040000F52070A84205D2A07AFD
:1052F000032802D10820FEF7A7FDA07A012809D0D3
:1053000002280CD10620FEF76BFD0620BDE8F04117
:10531000FEF79ABD0720FEF763FD0720F6E7BDE81C
:10532000F0810000C406002080FDFFFF2DE9F04160
:105330000820FEF7ABFE0820FEF798FE3B4C3C48E9
:105340003C4EA17A4FF4AF75012904D003290CD04B
:10535000022915D020E0B4F90610A9421CDC012274
:105360001021FCF7B4FB012008E0B4F90610A942B3
:1053700012DC00221021FCF7AAFB0020307005E0AF
:10538000B4F90600A84207DCFBF7F2F80820FEF7A4
:1053900027FD0820FEF758FDB4F90400264E4FF40F
:1053A0002F77A84205DDB4F90610A94201DC0120DF
:1053B00010E0B04205DAB4F90610A94201DC002081
:1053C00008E000F5AF70B8420CD8B4F90600A84266
:1053D0000CDC0820FDF71EFF0820FEF701FD082069
:1053E000FEF732FDB4F90600A8420ADD0120FBF702
:1053F0003FFC0720FEF728FDBDE8F0410720FEF73F
:10540000EFBCB04201DA002004E000F5AF70B84212
:105410000AD80820FBF72CFC0820FEF7E1FCBDE8C9
:10542000F0410820FEF710BDBDE8F081C406002061
:10543000001C024074000020A2FEFFFFFCF75AFB94
:10544000FEF7C2FFFEF740FAFEF7ACF9FEF7CCF923
:10545000FEF7ECF9FEF740FCFEF7C2FBFEF7FEFBA1
:10546000FEF71CFCFEF756FCFEF7A4FAFEF7F0FA76
:10547000FEF752FBFEF7D6FB0B48FCF7A1FFFDF74A
:10548000AFFEFBF7B3FBFEF763FCFBF77BFAFBF722
:1054900081F900F075F9FFF749FAFBF773FAFFF7A6
:1054A00043F9FFF78FFBFEE788020020FFB5A1B0AC
:1054B0000446BDF89060174606F1090085B22946FA
:1054C0006846FAF7BFFF8DF80040194CBDF8900010
:1054D000ADF8010020788DF8030005216846FFF73C
:1054E00053FDBDF88800ADF80500324639460DF190
:1054F0000700FAF762FF29466846FFF731FD20787A
:10550000FF2813D0401C20700A4C6FF04000216827
:10551000086064232A4669462046FDF79FFD2068FF
:105520000168C9434906FBD425B0F0BD0020EAE775
:1055300052000020D002002018B40021ADF8001065
:105540004749026840F202248A6102790A77B0F87A
:105550000520ADF8002092B2A2F20223A2425DD053
:105560001EDCB2F5817F48D00EDC012A30D0022A41
:105570003BD0032A3CD0B2EB640203D1D0F8070041
:10558000C1F80A0018BC7047A2F58072033A39D0FE
:10559000012A3ED0FE2AF5D1C11D1B22314846E02A
:1055A000042B4AD008DC012B3DD0022B42D0032B28
:1055B000E8D1C079C870E5E7052B41D0062B48D06B
:1055C000FF2BDFD150F8072F8A6280888885D9E7C2
:1055D000244950F8072F343941F8092F42684A60AE
:1055E00002890A81807A8872CCE7C0794870C9E75D
:1055F000C11D1C482022203819E0D0F80700C1F84E
:105600000E00BFE7B0F80720A1F80720407A4872E3
:10561000B8E7B0F80700A1F80500B3E7C11D1148CD
:1056200010221B3003E0C11D0E4810222B3018BC85
:10563000FAF7C3BEC0798870A4E7C0790871A1E702
:1056400050F8072F41F82E2F82888A808079887140
:1056500098E750F8072FC1F822208088C88491E786
:105660001C000020D60700202DE9F041A527414C61
:105670004148FFF715FD414E0025706172E03E483C
:10568000FFF7F8FC307094F8861006294BD2DFE85B
:1056900001F003131D2D384DB8420AD1012184F8C1
:1056A0008610B4F88710A31D4A1CA4F88720C8549C
:1056B00058E0A4F8875055E0A080B4F88710A31DE7
:1056C0004A1CA4F88720C854022017E0A188A31D13
:1056D00041EA0021A180B4F887104A1CA4F8872071
:1056E000C854A08877281ED2032007E0B4F887109A
:1056F000A31D4A1CA4F88720C854042084F88600FF
:1057000030E0B4F88710A31D4A1CA4F88720C854C1
:10571000B4F88700052825D10521A01D00F0B0F8B8
:1057200008B10520EAE784F88650C2E7A288B4F8F9
:1057300087100932914204D2A31D4A1CA4F8872085
:10574000C854A188B4F88700093188420AD384F884
:105750008650A4F88750A01D00F074F810B1A01D69
:10576000FFF7EAFE0448FFF79BFC002887D1BDE85D
:10577000F0810000220700201C1300201C000020E4
:1057800002492422A1F12400FEF7CCBCFE06002031
:10579000F0B5002855D0002953D00278437842EA6A
:1057A0000322C2F30A020A8043788478DB0843EAC2
:1057B0004413C3F30A034B808478C578A40944EAF0
:1057C0008504057944EA8524C4F30A048C800579AC
:1057D00046796D0845EAC615C5F30A05CD804679B8
:1057E000C6F301168E724679B609CE728679C779EC
:1057F00046EA07268E81067A477A46EA0726CE8150
:10580000867AC77A46EA07260E82067B8E74467B26
:10581000CE74867BC77B46EA07268E82067C407C58
:10582000A2F580620A80A3F580634B80A4F58064B2
:1058300046EA00208C80A5F58065CD80A0F58060CB
:105840000881F0BD30B50C46050014D0022C12D9E9
:105850000A48A11E02882846FFF74AFC2919C2B24D
:1058600011F8023C9A4206D111F8011CB1EB102F3D
:1058700001D1012030BD002030BD00005C000020BF
:1058800030B50C4605000CD0022C0AD9FF22611E4F
:10589000FFF744FC291911F8011C814201D10120B4
:1058A00030BD002030BD000021F00042A2F1605266
:1058B000B2F5801F01F0004328BFD2F17F6C0BD9F5
:1058C0005FEA001C43EAC20242EB507018BF704707
:1058D00028BF20F001007047B2F5801FBCBF1846FA
:1058E00070474FEA410C1CF5001F02D2084600F039
:1058F000AEBA70B500F052FA00000089FFF7F6BFAB
:105900004FF00040A0F58000704700002DE9C04135
:1059100030B4DFF8A0C23CEA111418BF3CEA1314FB
:1059200000F0EC8081EA03051CEA111444EAD57406
:1059300018BF1CEA131500F0C780A4EB05044FF054
:10594000004545EAC12145EAC32341EA505143EAF3
:10595000525304F17F74994204F500344FEAC02099
:105960004FEAC22208BF904200F09C804FEA1365C4
:105970000FF24016765D4FEA134506FB05F7C7F1B7
:10598000807706FB07F74FEAD737A7FB0368764215
:10599000C8F58038A7FB06CE38BFA8F1010807FB81
:1059A00008E64FF0000EA6FB028CE6FB03CEDCF10E
:1059B000000CCEF1004E38BFAEF1010EA6FB0C5824
:1059C0004FF000074FF00005E6FB0E87A1FB08C66D
:1059D000A0FB07CE16EB0E0645F10005E1FB0765BF
:1059E00015F1E04E7EBFA4F580345FEA46066D41B6
:1059F00016F1800745F100054FEA17274FEA0666C2
:105A000047EA0567A6F1DE46B6F1805F4FEA152545
:105A10001FD9384624F0010C05EBC471BCF1FE6FB0
:105A200001EB0C1102D8F0BCBDE8008124425CBF40
:105A300001F5801E9EEAC47F02D4F0BCBDE800815F
:105A4000244238D4F0BCA1F1C041BDE8004100F0CF
:105A5000F3B94FEAD22242EA43524FEAD323A7FBDB
:105A600002864FEAD02040EA415007FB03661EEA57
:105A70000E0F4FEAD12105FB026658BFA6EB005678
:105A8000B6EB00564FEA520E4EEAC37E18EB0E0EEE
:105A900056EB530EBDD518EB02085E417F1C55F145
:105AA0000005B6E74FF480154FF000074FF00006F1
:105AB0004FF00008ADE7F0BC4FF0000001F1C0412D
:105AC00001F00041BDE8008111EA0C1F0CEA13153A
:105AD00000D00CE013EA0C1F00F025804FF000000E
