:020000040800F2
:10000000881000204D0200085528000881240008AF
:10001000E1260008A10400082531000800000000C6
:10002000000000000000000000000000B1290008EE
:10003000C50600080000000057280008BD2A000877
:1000400067020008670200086702000867020008EC
:1000500067020008670200086702000867020008DC
:1000600067020008670200086702000867020008CC
:10007000FD05000867020008670200086702000823
:1000800067020008670200086702000867020008AC
:10009000A50400086702000867020008670200085C
:1000A000670200086702000867020008670200088C
:1000B000670200086702000867020008670200087C
:1000C000670200086702000867020008670200086C
:1000D0006702000821300008553000086130000830
:1000E000670200086702000867020008670200084C
:1000F000670200086702000867020008670200083C
:10010000670200086702000867020008670200082B
:100110006702000867020008912B000867020008C8
:100120006702000867020008090600086702000865
:1001300067020008670200086702000867020008FB
:1001400065050008670200086702000867020008EA
:100150006702000867020008150600086702000829
:1001600067020008670200086702000867020008CB
:10017000670200086702000867020008000000002C
:1001800067020008670200086702000867020008AB
:10019000670200086702000867020008670200089B
:1001A00000000000000000006702000800F002F8F4
:1001B00000F03CF80AA090E8000C82448344AAF1C5
:1001C0000107DA4501D100F031F8AFF2090EBAE8C3
:1001D0000F0013F0010F18BFFB1A43F0010318477B
:1001E00098310000B8310000103A24BF78C878C1B7
:1001F000FAD8520724BF30C830C144BF04680C602D
:10020000704700000023002400250026103A28BF74
:1002100078C1FBD8520728BF30C148BF0B60704778
:100220001FB503F094F81FBD10B510BD00F0CFF856
:100230001146FFF7F5FF03F011F800F0EDF803B4F5
:10024000FFF7F2FF03BC00F0F5F800000948804713
:1002500009480047FEE7FEE7FEE7FEE7FEE7FEE7A8
:10026000FEE7FEE7FEE7FEE704480549054A064BC0
:1002700070470000812B0008AD010008880A0020AB
:1002800088100020880C0020880C002053EA020C03
:1002900000F069802DE9F04B4FF00006002B1FBFE6
:1002A000B3FA83F503FA05F424FA05F65E4012BFAB
:1002B0001643B2FA82F502FA05F4C5F120051EBF15
:1002C00022FA05FC44EA0C04203556EA044C4FEAB5
:1002D000144418BF641C4FF000084FF0000990420E
:1002E00071EB030C39D3002919BFB1FA81F701FA78
:1002F00007F6B0FA80F700FA07F6C7F120071EBF2D
:1003000020FA07FC46EA0C062037B6FBF4FCA7EB04
:100310000507103F07F01F0BCBF120060CFA0BFB73
:100320002CFA06F644BFB3460026202FA4BF5E4633
:100330004FF0000B5BEA060C08BF4FF0010B19EB06
:100340000B09ABFB027C48EB0608C01B06FB02CC8A
:100350000BFB03CC71EB0C01C1E70B460246414697
:100360004846BDE8F08B13B54FF000004FF0000198
:10037000AFF30080BDE81C4070474FF0000200B5AD
:10038000134694469646203922BFA0E80C50A0E8B8
:100390000C50B1F12001BFF4F7AF090728BFA0E866
:1003A0000C5048BF0CC05DF804EB890028BF40F832
:1003B000042B08BF704748BF20F8022B11F0804F74
:1003C00018BF00F8012B704770477047704775469B
:1003D00000F02CF8AE4605006946534620F00700B1
:1003E000854618B020B5FFF73FFFBDE820404FF02D
:1003F00000064FF000074FF000084FF0000B21F00F
:100400000701AC46ACE8C009ACE8C009ACE8C009DB
:10041000ACE8C0098D46704710B50446AFF30080C4
:100420002046BDE81040FFF70ABF000000487047B3
:10043000240A002001491820ABBEFEE72600020076
:100440007047000010B58AB0002001210090019093
:1004500002900390CDE905100E24099408910791AC
:10046000049069460C4800F0E1F969460B48059490
:1004700000F0DCF90446084800F026FD074800F0CB
:1004800023FD0221044800F05BF90221034800F03B
:1004900057F90AB0204610BD78000020A0000020C7
:1004A000FEE70000014800F0BCBA00007800002020
:1004B00000B589B040F2FF1100910021082202919D
:1004C000CDE903128DF8141006AA435C5354491C5D
:1004D00089B20829F9D300236946024800F042F99D
:1004E00009B000BD7800002010B588B040F2FF11BF
:1004F0000091002108220291CDE90312094A8DF8EA
:10050000141006AB1160445C5C54491C0829FADBEA
:100510001160002306AA6946034800F023F908B0D9
:1005200010BD00005C0000207800002000B589B0FC
:100530004FF400710091002108220291CDE90312CD
:100540008DF8141006AA435C5354491C89B208293B
:10055000F9D300236946024800F004F909B000BD50
:1005600078000020014800F05CBA0000A0000020E4
:10057000204910B500200861C8608860C880888064
:10058000488008801C49A1F190020861A1F5907390
:100590001061A1F5D8741861206188639063986335
:1005A000A063C863D063D863E06388619061986199
:1005B000A0614861506158616061C862D062D862D0
:1005C000E0620863106318632063486350635863F4
:1005D000606308641064186420644864506458645C
:1005E0006064886490649864A064C864D064D864CB
:1005F000E06410BD4800002038090020014800F0E8
:10060000F1BC00009C020020014800F0EBBC00009F
:10061000DC010020014800F0E5BC00003C020020A5
:1006200001681823CAB2103AB2FBF3F2054B6FF31C
:100630000901032A9B5CC36500D9091D8165084631
:10064000704700005833000810B5014600208B6940
:100650008A6A4FF0C07453B1B3F5005F15D072B120
:10066000012A0CD0022A0AD0032A09D104E01AB1C7
:10067000012A06D0022A03D1C96AC90100D5012086
:1006800010BDC96AA142FAD010BD002AF7D0012AD4
:10069000F2D0022AF3D0032AF3D010BD30B504689B
:1006A000256825F480252560046863608368402BF5
:1006B000036803D099600068C26030BD9A6000682A
:1006C000C16030BD704772B6FEE700000F490020E0
:1006D00040F6B8328861486108618863C863C862BF
:1006E000086348630864486488644A62C864903157
:1006F0008861486108618863C863C86208634863A9
:100700000864486488644A62C8647047EC03002047
:1007100010B5094CE06802F065F994EC030A07484B
:1007200002F040FD054894EC030A903002F03AFDD7
:10073000BDE8104002F03EB918000020EC03002094
:1007400090F82020012A07D0022A05D0416A41F4FE
:100750008021416201207047006842690A4342617A
:1007600000207047F0B590F820500468A468012D6F
:1007700005D0022D03D0416A41F4802153E014F0EA
:10078000406F01D1E5004BD5C4F30164022C03D9BD
:10079000416A41F4000146E00125A5401D608D68D5
:1007A0004FF4C0739DB1CE6835434E6845EAC60527
:1007B000066803EB0417F5514FF4C275076805EBA3
:1007C00004150E697E51097D012905D009E00E88C6
:1007D000CD6845EA4655EBE701684E5946F4807608
:1007E0004E511179D2F805504FF4C67641EA0525ED
:1007F000016806EB04168D511178D2F801204FF4F0
:10080000C47541EA0221026805EB041551510068E4
:1008100003EB0411425842F0010242500020F0BDA7
:10082000416A41F4001141620120F0BD10B590F819
:100830002020012A07D0022A05D0416A41F48021F4
:100840004162012010BD3B48D0F8002242F0010275
:10085000C0F80022D0F8002222F47C52C0F8002216
:10086000D0F800224B6A42EA0322C0F800220A7D37
:1008700002F01F0301229A40D0F81C329343C0F8C3
:100880001C32CB69B3B9D0F80C329343C0F80C32A8
:100890008C894B6864F31F434C6900EBC404C4F8B3
:1008A00040320C890B6864F31F434C6900EBC404AD
:1008B000C4F84432CB69012B16D1D0F80C32134363
:1008C000C0F80C320C884B6864F31F434C6900EB92
:1008D000C404C4F840320C89CB6864F31F434C69EC
:1008E00000EBC404C4F844328B69002BD0F8043206
:1008F0000ED01343C0F804320B69002BD0F8143229
:1009000008D01343C0F81432096A012904D008E062
:100910009343EFE79343F5E7D0F81C121143C0F877
:100920001C12D0F8001221F00101C0F800120020C2
:1009300010BD000000640040704730B590F82040C2
:10094000012C05D0022C03D0416A41F480215DE0E6
:100950000468002955D02469A40754D04FF4D874F2
:10096000056804EB01142D5915F004059560056820
:100970002D594ED0ED08556005682C5904F002043D
:10098000D4604FF4DA74056804EB01142D5905F0B6
:100990000F05156105682D59C5F307259561056893
:1009A0002C59240C54614FF4DC72046802EB0112E0
:1009B000A4581C700468A458240A5C700468A458E5
:1009C000240C9C700468A258120EDA704FF4DE7288
:1009D000046802EB0112A4581C710468A458240A8C
:1009E0005C710468A458240C9C710468A258120E0F
:1009F000DA71006881B1016941F0200101610020D4
:100A000030BDE468A8E7416A41F400114162012069
:100A100030BD6D0D1560AFE7C16841F02001C160C8
:100A2000EDE72DE9F05F0546006800244669D0F83F
:100A300004908768D0F80CB0D0F810A0D0F81880D7
:100A4000F10748D0F90714D001218160B80703D518
:100A5000284600F066FA0CE0780702D54FF40064EF
:100A600007E0380702D54FF4805402E0284600F032
:100A700057FAF80516D529684FF480708860B805D4
:100A800003D5284600F04FFA0CE0780502D544F46F
:100A9000005407E0380502D544F4804402E02846BB
:100AA00000F040FAF80316D529684FF480308860CA
:100AB000B80303D5284600F038FA0CE0780302D5D5
:100AC00044F4004407E0380302D544F4803402E0E3
:100AD000284600F029FA300707D55FEACB6004D535
:100AE0002968102044F40074C86070074FF00807AC
:100AF00007D55FEA0B7004D52868C760284600F068
:100B000099F9B00706D52868C068800702D0284642
:100B100000F092F9700607D55FEACA6004D529682B
:100B2000102044F480640861B00607D55FEA0A70BB
:100B300004D528680761284600F0C2F9F00606D5FA
:100B400028680069800702D0284600F0BAF9B0038F
:100B500008D55FEAC96005D5296810204860284695
:100B600000F0B0F9F00307D55FEA097004D52868F2
:100B70004760284600F0DAF9300446D55FEA49704C
:100B800040D5F00504D55FEAC87001D044F00104F7
:100B9000B00504D55FEA887001D544F00204700501
:100BA00004D55FEA487001D544F00404300529D526
:100BB00018F0700F26D008F07000402815D006DC21
:100BC000102809D020280AD0302816D10AE0502851
:100BD0000ED0602811D10EE044F008040DE044F07E
:100BE00010040AE044F0200407E044F0400404E06C
:100BF00044F0800401E044F480742868816921F0A5
:100C000070018161296804204860002C05D0686A61
:100C1000204368622846FFF78FFEBDE8F09F70B55D
:100C2000040003D094F8200010B104E0012070BD4E
:100C3000204600F081F82068016841F00101016060
:100C400000F05CFC0546052604E000F057FC401B64
:100C50000A2811D820684068C007F6D020680168CB
:100C600021F00201016000F049FC05460BE000F0B4
:100C700045FC401B0A2806D9606A40F400306062D7
:100C800084F82060D2E7206840688007EFD4207E97
:100C90000128206801683DD021F080010160607E5C
:100CA00001282068016838D021F040010160A07E51
:100CB00001282068016833D021F020010160E07E26
:100CC0000128206801682ED041F010010160207FCA
:100CD00001282068016829D021F008010160607FA7
:100CE00001282068016824D021F004010160D4E9C2
:100CF00002010843D4E90412114308436168491E04
:100D000008432168C86100206062012084F8200047
:100D1000002070BD41F08001C0E741F04001C5E70F
:100D200041F02001CAE721F01001CFE741F00801AE
:100D3000D4E741F00401D9E7F0B587B004461421A7
:100D40006846FFF71AFB364B3648DFF8D0E01968E3
:100D5000D4F800C0334A03250226092710300024A6
:100D6000491CF44522D11960012907D1016841F0DD
:100D700000710160006800F000700590106840F09C
:100D8000080010601068CDE9005600F00800CDE9B9
:100D9000047069462448CDE9024500F095FA002226
:100DA0001146142000F018FC142032E0DFF87CE03B
:100DB000F44530D1D0F800C04CF0806CC0F800C0D1
:100DC000D0F800C001290CF0806CCDF814C0196077
:100DD00007D1016841F000710160006800F0007007
:100DE0000590106840F002001060106802AB00F03F
:100DF000020005906020CDE9000683E8B000694656
:100E00000B4800F061FA00221146402000F0E4FB9C
:100E1000402000F0D3FB07B0F0BD000000640040AC
:100E20000000002030380240000C02400068004002
:100E3000000402407047000010B50446164B174AE4
:100E40000021FFF77AFD164914488C4222D1006830
:100E5000A0F2012007281DD2DFE800F004070A0DE8
:100E6000101316000C490F4810E00B490E480DE016
:100E700009490E480AE008490D4807E006490D48AF
:100E800004E005490C4801E003490C48BDE8104066
:100E900001F05EBD10BD000060000020080A0020C7
:100EA000780000200C0500209C0500202C06002066
:100EB000BC060020EC0300207C0400205C03002022
:100EC000704770477047000070B5044690F82000E6
:100ED000012804D0606A40F40020606218E002201B
:100EE00084F820002068016821F00101016000F011
:100EF00005FB05460EE000BF00F000FB401B0A2882
:100F000008D9606A40F400306062052084F820004F
:100F1000012070BD20684068C007EDD1606270BDDF
:100F200070477047704770477047704770472DE9AA
:100F3000F0410446876D00F0E1FA064694F835006A
:100F40000025022806D08020606584F834500120F6
:100F5000BDE8F0812068016821F016010160206879
:100F6000416921F080014161206C08B9A06C20B179
:100F70002068016821F0080101602068016821F003
:100F8000010101600CE000F0B9FA801B052807D9C7
:100F900020206065032084F8350084F83450D7E7BA
:100FA00020680068C007EED194F85C103F208840AC
:100FB000B860012084F8350084F834500020C7E779
:100FC00090F83510022903D0802141650120704737
:100FD000052180F835100068016821F001010160E9
:100FE000002070472DE9F84304464FF00009CDF882
:100FF000009063484FF41651A56D0068B0FBF1F7FF
:101000002E6894F85C10082000FA01F131420FD0EC
:1010100021680A6852070BD50A6822F004020A60A8
:1010200094F85C108840A860606D40F00100606535
:1010300094F85C104FF0010808FA01F0304208D033
:1010400021684969090604D5A860606D40F0020076
:10105000606594F85C1004208840304208D0216814
:101060000968890704D5A860606D40F004006065D8
:1010700094F85C1010208840304218D0216809682C
:10108000090714D5A86020680168490304D50068E1
:10109000000308D5A16C07E00168C90503D4016805
:1010A00021F008010160216C09B12046884794F8BD
:1010B0005C1020208840304231D021680968C90680
:1010C0002DD5A86094F8350005282068016806D061
:1010D000490347D5006800031DD4616C1CE021F072
:1010E000160101602068416921F080014161206C96
:1010F00008B9A06C20B12068016821F008010160E6
:1011000094F85C103F208840A86084F8358084F80B
:101110003490216D1FE0E16B09B120468847606D76
:1011200000282BD0606DC00714D0052084F835004E
:101130002068016821F0010101600098401C0090C6
:10114000B84203D820680068C007F6D184F835801B
:1011500084F83490E16C002910D001B02046BDE83D
:10116000F04308470168C905D5D4016821F0100192
:10117000016084F8358084F83490CCE7BDE8F883CA
:10118000740000202DE9F041044600F0B7F906464E
:101190005CB1022084F83500002584F834502068C2
:1011A000016821F0010101600DE00120BDE8F0813E
:1011B00000F0A4F9801B052805D9202060650320D4
:1011C00084F83500F2E720680068C007F0D1226893
:1011D000116820480140D4E901031843D4E90336DB
:1011E0003343184363691843A3691843E3691843F9
:1011F000236A18430843616A042903D1D4E90B1315
:1012000019430843106020684069666A20F00701AE
:1012100030460E43012704280CD1A06A0643E06A39
:1012200040B12046FFF710FA20B14020606584F8F5
:101230003570BAE7206846612046FFF7F1F994F867
:101240005C203F2191408160656584F83570002005
:10125000ACE700003F8010F02DE9F0410446866DB8
:1012600090F83400002501280DD0012084F83400C6
:1012700094F835700020012F07D084F8340002253F
:101280002846BDE8F0810220FBE7022784F835708C
:1012900060652046FFF702FA94F85C103F20884012
:1012A000B0602068016841F016010160206C20B137
:1012B0002068016841F0080101602068016841F080
:1012C00001010160DCE700002DE9F84FDFF8F8A12B
:1012D000002201240AF1040B03254FF00F090BF142
:1012E000040E00BF0B6804FA02F63340B34270D11B
:1012F0000F7907F00307012F01D0022F16D187685D
:101300004FEA420805FA08FC27EA0C07D1F80CC09E
:101310000CFA08FC4CEA070CC0F808C04768B74351
:101320000E79C6F3001696403E4346600E79F643AA
:10133000B6070AD0C7684FEA420C05FA0CF6B74365
:101340008E6806FA0CF63E43C6600E7906F0030678
:10135000022E10D1D60800EB8608D8F82060570777
:101360004FEAD76C09FA0CF7BE430F6907FA0CF77E
:101370003743C8F8207006684FEA420C05FA0CF7AC
:10138000BE430F7907F0030707FA0CF737430760EE
:101390004E6816F4403F1CD04C4E376847F48047E7
:1013A0003760366822F0030706F480460096484E00
:1013B00007EB060CDCF8086897073F0F09FA07F8F7
:1013C00026EA0806DFF80C81404503D14FF00008FB
:1013D00041E072E0DFF80081404502D14FF00108A2
:1013E00039E0DFF8F880404502D14FF0020832E0E2
:1013F000DFF8EC80404502D14FF003082BE0DFF826
:10140000E480404502D14FF0040824E0DFF8D880A2
:10141000404502D14FF005081DE0DFF8D08040457F
:1014200002D14FF0060816E0DFF8C480404502D133
:101430004FF007080FE0DFF8BC80404502D14FF0C5
:10144000080808E0DFF8B080404502D14FF00908F5
:1014500001E04FF00A0808FA07F848EA0608CCF855
:101460000888DAF800605746D1F804C09E435FEA66
:10147000CC3C00D51E433E60DBF800605F46D1F8EF
:1014800004C09E435FEA8C3C00D51E433E60DEF8FC
:1014900000607746D1F804C09E435FEACC2C00D5AB
:1014A0001E433E60084F0C373E68D1F804C09E438F
:1014B0005FEA8C2C00D51E433E60521C102AFFF4BC
:1014C00011AFBDE8F88F0000003C014044380240F5
:1014D00000300140000002400004024000080240C9
:1014E000000C0240001002400014024000180240AC
:1014F000001C024000200240002402400148806895
:10150000704700006800002002488168027811449A
:1015100081607047680000200B4810B5016841F4F5
:1015200000710160016841F480610160016841F46B
:1015300080710160032000F06FF80F2000F006F8C2
:1015400000F024F8002010BD003C024070B50D4DA5
:1015500004464FF47A712878B1FBF0F00A49096823
:10156000B1FBF0F000F044FB48B9102C07D2002288
:101570002146501E00F030F800206C6070BD012044
:1015800070BD000068000020740000200A4808B503
:10159000016841F480410160006800F480400090DF
:1015A0000548001F016841F080510160006800F0AB
:1015B0008050009008BD000044380240002809DB3C
:1015C00000F01F02012191404009800000F1E0205D
:1015D000C0F8001170470000F0B40E4B1B680C46B9
:1015E000C3F30223C3F10705042D00D90425191DF7
:1015F000072901D2002300E0DB1E012606FA05F1CF
:10160000491E214099409E40761E16403143F0BC51
:1016100001F014BE0CED00E0064900F00702086876
:101620004FF6FF03184040EA0220034A10430860C7
:10163000704700000CED00E00000FA052DE9F843CA
:101640001748016841F0805101600068154F00F0B3
:101650008050012600903E64FFF750FF05464FF48E
:101660007A78114C05E000BFFFF748FF401B40456A
:101670000DD86068C003F7D57E64FFF73FFF0546CD
:10168000464607E0FFF73AFF401BB04202D903206D
:10169000BDE8F88360688003F4D50020F8E7000017
:1016A0004038024000000E42007000402DE9F04733
:1016B0000E46050065D0DFF81481D8F80000F7B2B7
:1016C00000F00F00B04207D288F80070D8F8000090
:1016D00000F00F00B04254D128683D4C810712D56C
:1016E000400703D5206840F4E050206028780007C8
:1016F00003D5206840F4604020602068A96820F08D
:10170000F000084320602878C0072DD03049686871
:101710000839012812D0022813D0032811D00968F3
:10172000890700292DDA216821F003010143216096
:10173000FFF7E4FE814641F2883A0EE0096889032A
:10174000EFE709688901ECE7FFF7D8FEA0EB090194
:10175000514502D90320BDE8F0872068696800F090
:101760000C00B0EB810FEFD1D8F80010404601F02B
:101770000F01B14207D90770006800F00F00B042B6
:1017800001D00120E7E72878400705D52068E968FF
:1017900020F4E050084320602878000706D5206830
:1017A000296920F4604040EAC100206000F038F868
:1017B0002168084AC1F30311515CC840064908601A
:1017C00006480068FFF7C2FE0020C4E7003C024064
:1017D0000838024060330008740000206C000020CC
:1017E0000448054900680968044AC1F38221515C34
:1017F000C840704774000020083802407033000869
:101800000448054900680968044AC1F34231515C43
:10181000C840704774000020083802407033000848
:10182000154810B5006810F00C02144813D0144984
:10183000042A0FD0082A0ED10F4C241F22682368D7
:1018400002F03F025B0207D52068C0F38810A0FBBE
:10185000010106E0084610BD2168C1F38811A1FB13
:1018600000010023FEF712FD2168C1F30141491C6C
:101870004900B0FBF1F010BD083802400024F4002C
:10188000001BB7002DE9F84F04006ED02078DFF878
:101890004C93C007A9F104054AD009F1040001687E
:1018A000C1F38101012908D00068C0F3810002283A
:1018B0000AD1D9F80000400206D52868800337D540
:1018C00060680028E1D033E06068B0F5803F10D058
:1018D000B0F5A02F286810D020F480302860286848
:1018E00020F4802028606068A8B1FFF707FE064654
:1018F0000DE0286840F48030F4E740F48020286050
:10190000F7E700BFFFF7FAFD801B642873D828684B
:101910008003F7D50CE0FFF7F1FD064605E000BFB8
:10192000FFF7ECFD801B6428F0D828688003F7D40B
:101930002078DFF8AC8280074FF0000A3ED5A74838
:10194000001D016811F00C0F08D00068C0F3810081
:1019500002280BD1D9F80000400207D4286880077C
:1019600016D5E068012800D112E033E1E068B8B193
:101970000120C8F80000FFF7C1FD064605E000BFE2
:10198000FFF7BCFD801B0228C0D828688007F7D568
:101990002868216920F0F80040EAC10028600DE0C5
:1019A000C8F800A0FFF7AAFD064604E0FFF7A6FD71
:1019B000801B02281FD828688007F7D420780007EA
:1019C00022D5864F87486169703771B10121016066
:1019D000FFF794FD064604E0FFF790FD801B022808
:1019E00009D838688007F7D50EE0C0F800A0FFF7E7
:1019F00085FD064605E082E0FFF780FD801B02289A
:101A00007DD838688007F7D42078400768D5DFF89C
:101A1000CCB100270BF13C0BDBF80000C0000BD46D
:101A2000DBF8001041F08051CBF80010DBF800002B
:101A3000012700F0805000906B4E3068C00510D434
:101A4000306840F480703060FFF758FD009005E08A
:101A5000FFF754FD0099401A022850D83068C0059D
:101A6000F6D55E4EA0686C3601280FD00528306888
:101A700010D020F001003060306820F004003060A9
:101A8000A068B8B1FFF73AFD00900FE0306840F071
:101A90000100F4E740F004003060F7E7FFF72EFDA7
:101AA0000099411A41F28830814266D83068800737
:101AB000F4D50EE0FFF722FD009007E0FFF71EFDD2
:101AC0000099411A41F28830814256D83068800727
:101AD000F4D42FB1DBF8001021F08051CBF80010C6
:101AE000A069C8B33D49091D0968C1F381010229F4
:101AF0004AD00228504607D0C8F8600000E03CE019
:101B0000FFF7FCFC04463BE04746C8F86000FFF7DF
:101B1000F5FC064605E000BFFFF7F0FC801B02283D
:101B20002BD828688001F7D4D4E907010843A16ABB
:101B30002E4A490802EB0141626A41EA82110843D8
:101B400094F82C1040EA0161C9F8001001203866B1
:101B5000FFF7D4FC044606E03EE000BFFFF7CEFCF2
:101B6000001B022809D828688001F7D534E000BF9F
:101B7000FFF7C4FC001B022802D90320BDE8F88F40
:101B800028688001F4D427E00128F7D0D9F80000B4
:101B9000E26900F4800191421CD1226A00F03F0109
:101BA000914217D147F6C071626A0140B1EB821FC2
:101BB00010D1A26A4FF0FF3300F4403103EB520220
:101BC000B1EB024F06D194F82C1000F07060B0EB2E
:101BD000016F01D00120D1E70020CFE70438024097
:101BE00000004742800E4742007000400000FFFFA7
:101BF00010B5401EB0F1807F01D3012010BD4FF021
:101C0000E02460610F21601701F018FB0020A06143
:101C100007202061002010BD7047704770B590F814
:101C20003C20012A32D0012480F83C40022280F876
:101C30003D2003685A689D6822F070060A683243A6
:101C40005A60134B02689A4214D0B2F1804F11D0FF
:101C5000104B9A420ED0104B9A420BD00F4B9A4227
:101C600008D00F4B9A4205D00E4B9A4202D00E4B31
:101C70009A4204D1496825F080031943916080F8A5
:101C80003D40002180F83C10084670BD022070BD28
:101C9000000001400004004000080040000C00402B
:101CA00000040140004001400018004010B504004D
:101CB00003D094F83D0010B107E0012010BD0020D2
:101CC00084F83C00204600F01FF8022084F83D0014
:101CD000211D206800F062FF012084F8460084F88E
:101CE0003E0084F83F0084F8400084F8410084F806
:101CF000420084F8430084F8440084F8450084F8E6
:101D00003D00002010BD000008B500680B49884266
:101D100012D10B48016841F01001016000680022F7
:101D200000F01000009011463620FFF755FCBDE88A
:101D300008403620FFF742BC08BD000000100040FC
:101D400040380240704770B50446006801694FF0A2
:101D50000005C943890715D4C168C943890711D44F
:101D6000E91E0161012020772068806980072046F4
:101D700002D0FFF7E7FF04E000F098F8204600F0FB
:101D800096F8257720680169C943490717D4C168C7
:101D9000C943490713D46FF0040101610220207781
:101DA0002068806910F4407F204602D0FFF7CAFF08
:101DB00004E000F07BF8204600F079F825772068F1
:101DC0000169C943090716D4C168C943090712D478
:101DD0006FF008010161042020772068C069800746
:101DE000204602D0FFF7AEFF04E000F05FF8204687
:101DF00000F05DF8257720680169C943C90617D44A
:101E0000C168C943C90613D46FF0100101610820ED
:101E100020772068C06910F4407F204602D0FFF789
:101E200091FF04E000F042F8204600F040F82577EA
:101E300020680169C943C90708D1C168C943C907F6
:101E400004D1891E0161204600F032F82068016942
:101E5000C943090609D4C168C943090605D46FF00E
:101E6000800101612046FFF7D7FE20680169C94360
:101E7000490609D4C168C943490605D46FF0400139
:101E80000161204600F015F820680169C943890600
:101E90000BD4C168C943890607D46FF020010161E2
:101EA0002046BDE87040FFF7B8BE70BD7047704770
:101EB00070477047704710B504460068406994F851
:101EC0003D10C0F3C010212911D180B12068143019
:101ED00050E8001F21F0800140E80012002AF5D1EF
:101EE000606B08B1FFF723F8204600F05DFF206823
:101EF000406994F83E10C0F38010222911D180B1BE
:101F00002068143050E8001F21F0400140E8001222
:101F1000002AF5D1A06B08B1FFF709F8204600F0C0
:101F20001CFF002010BD7047F8B501680446086822
:101F3000CA684B6910F00F0F4FF000055AD003F03C
:101F4000010602F49077374365D0C10705D0D1056B
:101F500003D5216C41F001012164410705D5D90762
:101F600003D0216C41F002012164810705D5D90716
:101F700003D0216C41F004012164010707D502F070
:101F80002001314303D0216C41F008012164216C10
:101F900000293BD0800604D5900602D5204600F0EB
:101FA00011FF20684069216CC0F3801001F0080126
:101FB000014320462BD000F0D0FE20684069400647
:101FC00021D52068143050E8001F21F0400140E87E
:101FD0000012002AF5D1A06BA8B16C490165A06B75
:101FE000FEF7EEFF002811D0A06B016D01B0BDE837
:101FF000F040084783060ED593060CD52046BDE871
:10200000F84000F0DFBE2046FFF78DFFF8BDFFF778
:102010008AFF2564F8BD266B2023012E79D1C606E0
:1020200077D5D60675D50868486800904869400697
:1020300040D5A16B086840680004000CEAD0A28D6E
:102040008242E7D9E085C869B0F5807F2DD020684D
:102050000C3050E8001F21F4807140E80012002A83
:10206000F5D12068143050E8001F21F0010140E84C
:102070000012002AF5D12068143050E8001F21F02A
:10208000400140E80012002AF5D184F83E30256373
:1020900020680C3050E8001F21F0100140E80012C9
:1020A000002AF5D1A06BFEF742FFA08DE18D401A0A
:1020B00081B229E0A08DE18D401A81B2E08D002827
:1020C000A8D00029A6D020680C3050E8002F22F4B8
:1020D000907240E80026002EF5D12068143050E8B8
:1020E000002F22F0010240E80026002EF5D184F8EE
:1020F0003E30256320680C3050E8002F22F010029B
:1021000040E80023002BF5D12046FFF7D3FEF8BDB1
:10211000FFE705062BD5150629D594F83D002128A3
:10212000F5D1A068B0F5805F01D12069B0B1206A17
:10213000411C2162216800784860E08C401E000448
:10214000000CE084E3D12068C16821F08001C16007
:102150002068C16841F04001C160D8E7206A00886A
:10216000C0F308004860206A801C2062E5E7400652
:10217000CDD55006CBD5CA68204622F04002CA60B1
:1021800084F83D3000F041F9C1E70000652C0008FB
:102190000548006840680549C0F13200FF22086028
:1021A0000349044800F01AB9DC0100203C0000207B
:1021B000550700201001002070B5040004D094F8E9
:1021C0003D00002510B106E0012070BD84F83C50B0
:1021D000204600F023F8242084F83D002068C168E0
:1021E00021F40051C160204600F04CFE20680169D6
:1021F00021F4904101612068416921F02A01416187
:102200002068C16841F40051C1602564202084F831
:102210003D0084F83E00002070BD00002DE9F04331
:1022200087B0064614216846FEF7A7F861490222E6
:10223000D6F800C0604803230725002497064FF412
:1022400080698C4550D15C491431D1F800C04CF004
:10225000100CC1F800C0096801F010010591016877
:1022600041F0010101600068694600F0010005903D
:1022700058028DE81500CDE903355048FFF724F8E2
:10228000504D4F48C8462860C5E90174C5E9034967
:102290006C61AC61EC612C6228466C62FEF772FFE7
:1022A00008B1FEF710FAB563AE63464D4448603599
:1022B0007830E5E802074020A5E81101414845F8DB
:1022C00014496030AC61EC612C626C62FEF75AFF1D
:1022D00008B1FEF7F8F97563002211462520AE63B8
:1022E000FFF77AF9252024E03349DFF8DC8010314C
:1022F000C44523D10E6846F400360E60096801F427
:1023000000310591016841F00801016000686946EB
:1023100000F00800059060208DE81500CDE9033538
:102320002A48FEF7D1FF002211462620FFF754F974
:102330002620FFF743F907B0BDE8F083DFF890806F
:10234000C445F8D1D1F800C04CF4802CC1F800C0CD
:10235000096801F480210591016841F004010160E0
:102360000068694600F0040005904FF440608DE875
:102370001500CDE903351748FEF7A6FF114D1648A5
:10238000C0352860C5E90174C5E903496C61AC61D9
:10239000EC612C6228466C62FEF7F4FE08B1FEF791
:1023A00092F9B563002211462720AE63FFF714F9B6
:1023B0002720BEE7001001403038024000000240F4
:1023C00040640240DC01002000440040000C024058
:1023D00000480040000802402860024090F83E306B
:1023E000202B0ED159B152B190F83C30012B08D0BE
:1023F000012380F83C300023036300F0C9BD0120B5
:1024000070470220704770477047704708480021A6
:102410008161416101618163C163C16201634163A3
:10242000016441648164C16440F6B831416270471F
:102430005C030020114A10B50F4B116820B1012830
:1024400004D0082806D103E0996303E0484200E085
:102450000020986392ED030AB8EEC01A92ED020ACA
:10246000F8EEC00A92ED010AB8EEC00A00F05CFE78
:10247000BDE8104000F0C6BA5C0300200800002050
:10248000FEE700000F4810B50D49016005214160CD
:1024900000214FF440328160C0E903121201426111
:1024A0000176012242768276C17601774177FEF786
:1024B000B6FB002803D0BDE81040FEF704B910BDFC
:1024C00000640040780000200F4810B50D490160FD
:1024D0000E21416000214FF440328160C0E90312B7
:1024E000120142610176012242768176C17601773E
:1024F0004177FEF794FB002803D0BDE81040FEF7BB
:10250000E2B810BD00680040A0000020154808B5E2
:10251000016841F400110160016801F400110091AB
:10252000016841F4800101600068002200F480002D
:10253000009011460C20FFF74FF80C20FFF73EF8F3
:10254000002211463A20FFF747F83A20FFF736F805
:10255000002211464620FFF73FF8BDE8084046201C
:10256000FFF72CB83038024000B587B01421684618
:10257000FDF703FF1B480021026842F002020260DF
:10258000026802F002020592026842F00102026053
:10259000026802F001020592026842F0080202603D
:1025A000026802F008020592026842F0040202602A
:1025B000026802F004020592026842F080020260A2
:1025C000006800F080000590032000900220CDE913
:1025D00001010120CDE9031069460348FEF774FEAE
:1025E00007B000BD30380240000002401CB5002496
:1025F0000E4800940C490194016042F22731C0E971
:10260000011409218461C160FFF750FB08B1FEF796
:102610005AF80094694605480194FFF7FFFA00282C
:1026200001D0FEF750F81CBD00100040C80000208B
:102630000C4810B50A4901604FF4E13141600021B6
:1026400081600C22C160C0E904128161C161FFF7A1
:10265000B3FD002803D0BDE81040FEF734B810BD2C
:1026600000100140100100200C4810B50A4901601B
:102670000B494160002181600C22C160C0E9041255
:102680008161C161FFF798FD002803D0BDE81040CB
:10269000FEF719B810BD00000044004054010020AE
:1026A000A08601000C4810B50A4901600B49416041
:1026B000002181600C22C160C0E904128161C16106
:1026C000FFF77AFD002803D0BDE81040FDF7FBBFFF
:1026D00010BD00000048004098010020A0860100C5
:1026E000FEE700001F49002001F19002086110611F
:1026F000886190614861506188639063C863D0636A
:10270000C862D06208631063486350630864106451
:102710004864506488649064C86440F6B833D064F8
:102720004B6201F59071536201F1900208611061F2
:10273000886190614861506188639063C863D06329
:10274000C862D06208631063486350630864106411
:102750004864506488649064C864D0644B62536277
:10276000704700000C0500201C4A10B5811E10683F
:10277000072910D2DFE801F004080F0F1F262D00F3
:1027800000F084F9106804E0404200F07FF910681E
:10279000404200F047F9106800F078F910684042B4
:1027A00000F040F9083292EC030A00F0C3FCBDE8E7
:1027B000104000F03FB9506800F068F9506840429E
:1027C00000F030F95068404200F060F9506800F0C5
:1027D00029F9002000F05AF90020DAE7280000204B
:1027E00010B51B4A001F052811D2DFE800F00308CE
:1027F0001D242B00506800F059F9506805E050681E
:10280000404200F053F95068404200F047F95068E8
:1028100000F04CF9506800F041F9083292EC030ADC
:10282000BDE8104000F0A2BC506800F03FF95068CD
:10283000404200F033F95068404200F037F95068E8
:1028400000F02CF9002000F031F90020DDE7000055
:1028500028000020FEE77047002801DC404200B25B
:102860007047000070B5194CB4F90000FFF7F4FF91
:102870004FF42575A84217DCB4F90200FFF7ECFF0E
:10288000A84211DCB4F90400FFF7E6FFA8420BDC14
:10289000B4F90600FFF7E0FFA84205DCA07A18B102
:1028A000E07A08B1002070BD002020806080A08008
:1028B000E08020810221A172E172A081E08120826A
:1028C000A074E074A082012070BD0000FC02002012
:1028D00038B51B480168CA6822F40052CA60194A18
:1028E00011680B6823F001030B6013682421596001
:1028F0000068016841680091134C13684FF400119F
:10290000A34202D9104B4C3B04E0104CA34203D924
:102910000D4B503B196008E00C4D0C4C603DB83C31
:10292000AB4201D9E16000E0A160C16841F400510F
:10293000C1601068016841F00101016038BD00000C
:10294000980100209C02002058640240B8600240B8
:1029500030B5836EC3604A780C7802EB042212B261
:102960008266CC788D7804EB052424B2C4634C795C
:102970000D7904EB052424B2446144683CB94C78D9
:10298000097804EB012109B2016001214160D31AE9
:102990000169B3F5805F01DD491E03E013F5805F37
:1029A00001DA491C016102EB4131C0F8801030BDF1
:1029B000704700001CB50A4901F19002C86C88619B
:1029C000D16C9161020A8DF800208DF80100080A8F
:1029D0008DF802008DF803106846FDF769FD1CBDF7
:1029E000EC030020064A00EB400101EB001191636B
:1029F0006FF01201484302F19001886370470000B4
:102A0000EC0300201CB50649C86C8861010A8DF8EA
:102A100000108DF801006846FDF766FD1CBD000042
:102A20005C030020024900EBC0008000886370470F
:102A30009C0500201CB5134901F19002C86C886107
:102A4000D16C9161020A8DF800208DF80100080A0E
:102A50008DF802000C488DF8031000F19002C16C53
:102A60008161D06C90610A0A8DF804208DF8051000
:102A7000010A8DF806108DF807006846FDF756FD2F
:102A80001CBD00000C0500202C060020024900EBB4
:102A9000C0008000886370470C050020024900EBED
:102AA000C000800088637047BC060020024900EB2C
:102AB000C0008000886370472C06002010B5FEF728
:102AC00023FD0020FFF7B6FC0720FFF74DFE042092
:102AD000FFF786FEBDE810400820FDF719BE000094
:102AE00030B593B030216846FDF747FC14210CA89F
:102AF000FDF743FC20480025016841F0805101604A
:102B0000006800F0805011901C48016841F4404179
:102B100001600068022400F4404011900120009000
:102B2000000401908001CDE9064006200890B42001
:102B3000CDE9090404200B906846FEF7A3FE08B116
:102B400072B6FEE7FEF77AFD08B172B6FEE70CA991
:102B50000F2081E831004FF4A0500F904FF48050C7
:102B6000109005210CA8FEF7A1FD002801D072B637
:102B7000FEE713B030BD0000403802400070004056
:102B80000248016841F470010160704788ED00E07F
:102B90000148FFF7D8B80000C8000020F0B502686F
:102BA000254C264D264E274F274B4FF0804CA042F8
:102BB00009D0604507D0A84205D0B04203D0B84242
:102BC00001D0984204D122F0700E4A6842EA0E0207
:102BD000A0421BD0604519D0A84217D0B04215D0F2
:102BE000B84213D0984211D0184DA8420ED0184DBB
:102BF000A8420BD0174DA84208D0174DA84205D0C7
:102C0000164DA84202D0164DA84203D122F44075B9
:102C1000CA682A434D6922F080022A4302608A680A
:102C2000C2620A688262A04201D0984201D1096959
:102C3000016301214161F0BD00000140000400403A
:102C400000080040000C004000040140004001402A
:102C5000004401400048014000180040001C0040B2
:102C60000020004010B5806B0021C185C184FFF7B2
:102C70005AF910BD70B5846B2068406994F83D1016
:102C8000C0F3C0100025212904D118B1E5842046E5
:102C900000F08AF82068406994F83E10C0F3801074
:102CA000222904D118B1E585204600F056F8206CA1
:102CB00040F0100020642046FFF735F970BD10B5D4
:102CC0000146806B09680968C9052FD40021C185B8
:102CD00001680C3151E8002F22F4807241E8002392
:102CE000002BF5D10168143151E8002F22F00102C8
:102CF00041E80023002BF5D10168143151E8002F81
:102D000022F0400241E80023002BF5D1202180F879
:102D10003E10016B012909D101680C3151E8002FE7
:102D200022F0100241E80023002BF5D1016B0129AC
:102D300002D0FFF768FB10BD818DFFF7BBF810BD17
:102D400010B5806B016B012902D0FFF75DFB10BD50
:102D5000818D4908FFF7AEF810BD01680C3151E8CC
:102D6000002F22F4907241E80023002BF5D1016876
:102D7000143151E8002F22F0010241E80023002B1A
:102D8000F5D1016B012909D101680C3151E8002FFF
:102D900022F0100241E80023002BF5D1202180F819
:102DA0003E1000210163704701680C3151E8002F8B
:102DB00022F0C00241E80023002BF5D1202180F849
:102DC0003D10704708B590F83E10222901D002202E
:102DD00008BD82684FF480539A4201D1016921B144
:102DE000816A9A421BD04AB10AE00268816A52683D
:102DF000C2F308020A80816A891C08E0026972B184
:102E00000268526802F07F020A70816A491C81627E
:102E1000C18D491E0904090CC18503D019E002685F
:102E20005268F1E70168CA6822F02002CA600168AE
:102E3000CA6822F48072CA6001684A6922F00102FD
:102E40004A61202180F83E10016B012903D0FFF771
:102E5000DAFA002008BD0021016301680C3151E855
:102E6000002F22F0100241E80023002BF5D1016869
:102E70000A68D20602D50A6849680091818DFFF779
:102E800019F8E6E770B5044600680169E26821F4C4
:102E90004051114301612169A068E26908436169F9
:102EA000114308432168CA6849F20C639A430243FC
:102EB000CA6020684169A26921F4407111434161EF
:102EC00031492068884202D03049884202D1FEF759
:102ED00097FC01E0FEF784FCE269002319216425D8
:102EE0003226B2F5004F626828D0A0FB0101930F93
:102EF0009200FDF7CBF90146B0FBF5F06FF0180238
:102F0000504301EB800006EB0010B0FBF5F000F041
:102F1000F002B1FBF5F002EB0012B1FBF5F06FF03F
:102F20001803584301EB800006EB0010B0FBF5F0EE
:102F300000F00F0021681044886070BDA0FB010103
:102F400092185B41FDF7A2F90146B0FBF5F00201D2
:102F5000B1FBF5F06FF01803584301EB800006EB6E
:102F6000C000B0FBF5F000F0F80002EB4002B1FB4E
:102F7000F5F0584301EB800006EBC000B0FBF5F024
:102F800000F00700D6E700000010014000140140E7
:102F900038B58162828500251346044605642220E7
:102FA00084F83E00A26B1B48D063A26B1A481064E1
:102FB000A26B1A48D064A06B0A4605652168A06B15
:102FC000091DFEF749F9206801684068009084F8FF
:102FD0003C5020680C3050E8001F41F4807140E8FC
:102FE0000012002AF5D12068143050E8001F41F08B
:102FF000010140E80012002AF5D12068143050E8A1
:10300000001F41F0400140E80012002AF5D10020E5
:1030100038BD0000BF2C0008412D0008752C0008A9
:103020000A4808B5006802680949914308D1016857
:10303000406800900548FEF73EFF0448FFF7A8F8F7
:10304000BDE808400148FEF76FBF000010010020F6
:10305000100000100148FEF767BF00005401002077
:1030600038B52A4800680168890603D501684068B8
:10307000009038BD26490968C906FAD5016840683C
:10308000244A0090106801684FF024030C03224981
:10309000046824F00104046016D414686068C0F168
:1030A000240080B20880636011680B6843F4002339
:1030B0000B6011680A6842F001020A601228D8D138
:1030C000164901F1160015E010684468C4F12404A3
:1030D000A4B20C8043601248816A21F4002181620D
:1030E0001068016841F001010160122CC1D10B4947
:1030F00001F13A0000F0D1F8FFF7B4FB0128B8D194
:10310000BDE838402420FFF7E3BB00009801002011
:10311000004800409C02002004000020FC02002027
:1031200000600240FEE70000014800F03BB80000EC
:103130005C03002010B50C482DED048BB0EE418AE5
:10314000F0EE608AB0EE409A00F02CF8B0EE481A2B
:10315000F0EE680AB0EE490ABDEC048B0248BDE807
:103160001040903000F01EB80C05002010B50C483F
:103170002DED048BB0EE418AF0EE608AB0EE409AFD
:1031800000F010F8B0EE481AF0EE680AB0EE490A06
:10319000BDEC048B0248BDE81040903000F002B84E
:1031A0002C06002010B5D0E90E12891A0A46C16219
:1031B00000D55242142A426B01DC0A4442634FF4A8
:1031C000FA739A4202DC5B429A4200DA436301EEF0
:1031D000901AF8EEE11A21EE800ABDEEC00A10EE58
:1031E000104A046490ED0D0AB8EEC00A20EE200AE1
:1031F000BDEEC00A10EE103A4364026B8A1A00EE6C
:10320000102A0029B8EEC00A20EE010ABDEEC00A5D
:1032100010EE102A8264016300DA4942022901DCBF
:10322000002107E0E1180A44416A8A4202DC49426F
:103230008A4201DAC16410BDC26410BD0907090EDB
:10324000002804DB00F1E02080F80014704700F053
:103250000F0000F1E02080F8141D7047FEF75CF9C4
:10326000FFF73EFCFFF780F9FFF70CF9FFF72CF9A9
:10327000FFF74CF9FFF716FAFFF7B8F9FFF7D8F99F
:10328000FFF7F2F9FFF7C2F8FDF720FAFFF72AFA85
:10329000FDF76EF9FDF7D6F8FEE7F0B5002855D03A
:1032A000002953D00278437842EA0322C2F30A028B
:1032B0000A8043788478DB0843EA4413C3F30A03A3
:1032C0004B808478C578A40944EA8504057944EAEA
:1032D0008524C4F30A048C80057946796D0845EA93
:1032E000C615C5F30A05CD804679C6F301168E7260
:1032F0004679B609CE728679C77946EA07268E8165
:10330000067A477A46EA0726CE81867AC77A46EA5F
:1033100007260E82067B8E74467BCE74867BC77B27
:1033200046EA07268E82067C407CA2F580620A80EF
:10333000A3F580634B80A4F5806446EA00208C806E
:10334000A5F58065CD80A0F580600881F0BD4FF0C7
:103350004070E1EE100A70470006101600061016C5
:103360000000000000000000010203040607080935
:103370000000000001020304983300080000002050
:1033800078000000E80100081034000878000020F0
:1033900010100000040200080000000000000000FF
:1033A000B80B000004000000000000000100000055
:1033B000000090409A99993FCDCCCC3F000000008E
:1033C0001400000014000000000000419A99993F89
:1033D0000000003F000000000000000000000000AE
:1033E00000000000000000000000000000000000DD
:1033F00000000000000000000000000000000000CD
:103400000100000010000000000000000024F40093
:04000005080001AD41
:00000001FF
