:020000040800F2
:10000000181200204D020008D9330008892D00087D
:10001000653200081D060008313F0008000000009E
:100020000000000000000000000000004136000851
:10003000E109000800000000DB3300086537000814
:1000400067020008670200086702000867020008EC
:1000500067020008670200086702000867020008DC
:1000600067020008670200086702000867020008CC
:10007000010900086702000867020008670200081B
:1000800067020008670200086702000867020008AC
:1000900021060008670200086702000867020008DE
:1000A000670200086702000867020008670200088C
:1000B000670200086702000867020008670200087C
:1000C000670200086702000867020008670200086C
:1000D00067020008493E00080D3F0008193F00086C
:1000E000670200086702000867020008670200084C
:1000F000670200086702000867020008670200083C
:10010000670200086702000867020008670200082B
:1001100067020008670200083D380008670200080F
:10012000670200080D09000867020008670200085E
:1001300067020008670200086702000867020008FB
:10014000D506000867020008670200086702000879
:10015000190900082509000831090008253F000891
:1001600067020008670200086702000867020008CB
:10017000670200086702000867020008000000002C
:1001800067020008670200086702000867020008AB
:10019000670200086702000867020008670200089B
:1001A00000000000000000006702000800F002F8F4
:1001B00000F03CF80AA090E8000C82448344AAF1C5
:1001C0000107DA4501D100F031F8AFF2090EBAE8C3
:1001D0000F0013F0010F18BFFB1A43F0010318477B
:1001E000A44D0000C44D0000103A24BF78C878C167
:1001F000FAD8520724BF30C830C144BF04680C602D
:10020000704700000023002400250026103A28BF74
:1002100078C1FBD8520728BF30C148BF0B60704778
:100220001FB504F095FE1FBD10B510BD00F0CFF84E
:100230001146FFF7F5FF04F037F800F0EDF803B4CE
:10024000FFF7F2FF03BC00F0F5F800000948804713
:1002500009480047FEE7FEE7FEE7FEE7FEE7FEE7A8
:10026000FEE7FEE7FEE7FEE704480549054A064BC0
:100270007047000009380008AD010008180C002084
:1002800018120020180E0020180E002053EA020C4D
:1002900000F069802DE9F04B4FF00006002B1FBFE6
:1002A000B3FA83F503FA05F424FA05F65E4012BFAB
:1002B0001643B2FA82F502FA05F4C5F120051EBF15
:1002C00022FA05FC44EA0C04203556EA044C4FEAB5
:1002D000144418BF641C4FF000084FF0000990420E
:1002E00071EB030C39D3002919BFB1FA81F701FA78
:1002F00007F6B0FA80F700FA07F6C7F120071EBF2D
:1003000020FA07FC46EA0C062037B6FBF4FCA7EB04
:100310000507103F07F01F0BCBF120060CFA0BFB73
:100320002CFA06F644BFB3460026202FA4BF5E4633
:100330004FF0000B5BEA060C08BF4FF0010B19EB06
:100340000B09ABFB027C48EB0608C01B06FB02CC8A
:100350000BFB03CC71EB0C01C1E70B460246414697
:100360004846BDE8F08B13B54FF000004FF0000198
:10037000AFF30080BDE81C4070474FF0000200B5AD
:10038000134694469646203922BFA0E80C50A0E8B8
:100390000C50B1F12001BFF4F7AF090728BFA0E866
:1003A0000C5048BF0CC05DF804EB890028BF40F832
:1003B000042B08BF704748BF20F8022B11F0804F74
:1003C00018BF00F8012B704770477047704775469B
:1003D00000F02CF8AE4605006946534620F00700B1
:1003E000854618B020B5FFF73FFFBDE820404FF02D
:1003F00000064FF000074FF000084FF0000B21F00F
:100400000701AC46ACE8C009ACE8C009ACE8C009DB
:10041000ACE8C0098D46704710B50446AFF30080C4
:100420002046BDE81040FFF70ABF000000487047B3
:10043000B80B002001491820ABBEFEE726000200E1
:100440007047000010B5164C164894EC030A203C87
:1004500000F02AF82034134894EC030A9038203C2A
:1004600000F022F80F48C06F03F008F90D489038EB
:10047000C06F03F003F994ED071AD4ED050A94ED6B
:10048000030A084803F094FD94ED071AD4ED060A18
:1004900094ED040A0348BDE81040903803F088BD8D
:1004A0004000002018060020D0F88020C16E891A74
:1004B00000EE901AF8EEE00A20EE800ABDEEC00AC7
:1004C00010EE103A0367C165026E8A1A00EE102A18
:1004D000B8EEC00A20EE010ABDEEC00A10EE102AE6
:1004E00082670166816A1A448A4202DC49428A4272
:1004F00001DAC1677047C2677047000070EE201ACA
:1005000070EE600ADFED2B2A2B49B0EE612A41EE36
:10051000221AB0EE600A41EE620AB0EE403A01F1F2
:10052000100001EE223AC1ED001A01EE622A9FEDA1
:10053000230AC0ED000A00F1100200F1200382ED51
:10054000003A83ED002A21EE801A60EE800A63EE05
:10055000001A81ED011A22EE002AB3EE030AC0ED63
:10056000010A21EE001A60EE800AC2ED011AA0F520
:100570001470BDEEC11AFDEEE00A83ED012A80ED94
:100580000E1A10EE900A61EE800A22EE000AA1F522
:10059000D8714042FDEEE00A886301F19000BDEEA3
:1005A000C00AC0ED0E0A01F5907110EE100A40422B
:1005B00088637047000070425C0B00204276F43F75
:1005C00010B58AB0002001210090019002900390A4
:1005D000CDE905100E24099408910791049069460D
:1005E0000C4800F0DDFA69460B48059400F0D8FA93
:1005F0000446084800F022FE074800F01FFE0221D2
:10060000044800F057FA0221034800F053FA0AB0F8
:10061000204610BDC8000020F0000020FEE70000CA
:10062000014800F0B8BB0000C800002000B589B048
:1006300040F2FF110091002108220291CDE903123E
:100640008DF8141006AA435C5354491C89B208293A
:10065000F9D300236946024800F03EFA09B000BD14
:10066000C800002000B589B040F2FF1100910021C0
:1006700008220291CDE903128DF8141006AA435CFA
:100680005354491C89B20829F9D30023694602480A
:1006900000F022FA09B000BDC800002000B589B002
:1006A0004FF400710091002108220291CDE903125C
:1006B0008DF8141006AA435C5354491C89B20829CA
:1006C000F9D300236946024800F006FA09B000BDDC
:1006D000C8000020014800F05EBB0000F0000020D0
:1006E0002DE9F0472DED028BFFF708FF2E4CA4F10A
:1006F0009005A4F59076A4F5D877A36BAA6BB16B9F
:10070000B86B03F019FD43F6E83188423FDD04F091
:100710009AF98946804649EC180BB86B43F6E831E4
:10072000484304F090F953EC182B03F0D7FF04F082
:100730002DF9B863B06B43F6E83149EC188B4843A8
:1007400004F081F953EC182B03F0C8FF04F01EF9F4
:10075000B063A86B43F6E83149EC188B484304F0CA
:1007600072F953EC182B03F0B9FF04F00FF9A863EA
:10077000A06B43F6E83149EC188B484304F063F969
:1007800053EC182B03F0AAFF04F000F9A06307480C
:10079000B96B0160B16B4160A96B8160A16BC160F5
:1007A000BDEC028BBDE8F087CC0A00207C00002065
:1007B000234910B500200863C86288624862086255
:1007C000C861886148610861C860886048600860E5
:1007D0001C49A1F190020861A1F590731061A1F587
:1007E000D87418612061886390639863A063C863BC
:1007F000D063D863E063886190619861A0614861CB
:10080000506158616061C862D062D862E06208637A
:10081000106318632063486350635863606308641F
:100820001064186420644864506458646064886488
:1008300090649864A064C864D064D864E06410BD17
:100840007C000020CC0A00202DE9F04129482A4CE8
:100850002A4D0078012801D050B10FE0D4E90601FB
:1008600008446061D4E9080108444042206105E081
:10087000B5F900002061B5F902006061606940F2DD
:1008800094664FF4B6774FF4806833463A46414653
:1008900000F5806003F0E8FBBDEEC00A33463A463F
:1008A00084ED0A0A2069414600F5806003F0DCFB14
:1008B000BDEEC00A73007A0084ED0B0AB5F908009A
:1008C0004FF40061C0F58060400003F001FCBDEE14
:1008D000C00A84ED0C0AB8EEC01A94ED0B0AF8EECB
:1008E000C00A94ED0A0ABDE8F041B8EEC00AFFF76D
:1008F000F7BE0000080000207C00002098040020C3
:10090000014800F029BD000078030020014800F0F4
:1009100023BD0000D8030020014800F01DBD0000E9
:10092000B8020020014800F017BD00003804002084
:10093000014800F011BD00001803002001681823D1
:10094000CAB2103AB2FBF3F2054B6FF30901032A66
:100950009B5CC36500D9091D81650846704700008E
:10096000644F000810B5014600208B698A6A4FF079
:10097000C07453B1B3F5005F15D072B1012A0CD029
:10098000022A0AD0032A09D104E01AB1012A06D0AA
:10099000022A03D1C96AC90100D5012010BDC96A64
:1009A000A142FAD010BD002AF7D0012AF2D0022AC3
:1009B000F3D0032AF3D010BD30B50468256825F4C0
:1009C00080252560046863608368402B036803D03A
:1009D00099600068C26030BD9A600068C16030BD37
:1009E000704772B6FEE700001E49082040F6B83393
:1009F00008701D49002001F190028861486108617A
:100A00008863C863C862086348630864486488648C
:100A10004B62C8649061506110619063D063D06292
:100A2000106350631064506490645362D064C8656E
:100A3000086648668866C86608674867886745F23A
:100A40000823C8678B62C1F88000D06510665066C5
:100A50009066D066106750679067D0679362C2F85F
:100A600080007047200000208805002070B50F4DE1
:100A70000F4905F19004D5F88030D4F8802020B1DA
:100A8000012805D0082807D104E0BE32BE3301E0BA
:100A9000BE3ABE3BC1E901324868E8664042E066C2
:100AA000FFF7D0FCBDE8704002F0CEBD8805002005
:100AB0002000002090F82020012A07D0022A05D02B
:100AC000416A41F480214162012070470068426917
:100AD0000A43426100207047F0B590F82050046846
:100AE000A468012D05D0022D03D0416A41F4802174
:100AF00053E014F0406F01D1E5004BD5C4F301641D
:100B0000022C03D9416A41F4000146E00125A540C9
:100B10001D608D684FF4C0739DB1CE6835434E683B
:100B200045EAC605066803EB0417F5514FF4C27594
:100B3000076805EB04150E697E51097D012905D072
:100B400009E00E88CD6845EA4655EBE701684E5945
:100B500046F480764E511179D2F805504FF4C6769E
:100B600041EA0525016806EB04168D511178D2F88B
:100B700001204FF4C47541EA0221026805EB041517
:100B80005151006803EB0411425842F001024250F7
:100B90000020F0BD416A41F4001141620120F0BD26
:100BA00010B590F82020012A07D0022A05D0416A0A
:100BB00041F480214162012010BD3B48D0F8002261
:100BC00042F00102C0F80022D0F8002222F47C5248
:100BD000C0F80022D0F800224B6A42EA0322C0F893
:100BE00000220A7D02F01F0301229A40D0F81C3235
:100BF0009343C0F81C32CB69B3B9D0F80C3293439D
:100C0000C0F80C328C894B6864F31F434C6900EBCD
:100C1000C404C4F840320C890B6864F31F434C6968
:100C200000EBC404C4F84432CB69012B16D1D0F8D0
:100C30000C321343C0F80C320C884B6864F31F432A
:100C40004C6900EBC404C4F840320C89CB6864F3EF
:100C50001F434C6900EBC404C4F844328B69002B79
:100C6000D0F804320ED01343C0F804320B69002BC5
:100C7000D0F8143208D01343C0F81432096A01299D
:100C800004D008E09343EFE79343F5E7D0F81C1254
:100C90001143C0F81C12D0F8001221F00101C0F875
:100CA0000012002010BD000000640040704730B505
:100CB00090F82040012C05D0022C03D0416A41F469
:100CC00080215DE00468002955D02469A40754D030
:100CD0004FF4D874056804EB01142D5915F0040580
:100CE000956005682D594ED0ED08556005682C5962
:100CF00004F00204D4604FF4DA74056804EB0114C4
:100D00002D5905F00F05156105682D59C5F3072507
:100D1000956105682C59240C54614FF4DC72046809
:100D200002EB0112A4581C700468A458240A5C70D9
:100D30000468A458240C9C700468A258120EDA703F
:100D40004FF4DE72046802EB0112A4581C710468AF
:100D5000A458240A5C710468A458240C9C7104688B
:100D6000A258120EDA71006881B1016941F02001C8
:100D70000161002030BDE468A8E7416A41F4001138
:100D80004162012030BD6D0D1560AFE7C16841F0D3
:100D90002001C160EDE72DE9F05F05460068002401
:100DA0004669D0F804908768D0F80CB0D0F810A04D
:100DB000D0F81880F10748D0F90714D001218160DC
:100DC000B80703D5284600F066FA0CE0780702D58C
:100DD0004FF4006407E0380702D54FF4805402E076
:100DE000284600F057FAF80516D529684FF48070A8
:100DF0008860B80503D5284600F04FFA0CE0780566
:100E000002D544F4005407E0380502D544F4804488
:100E100002E0284600F040FAF80316D529684FF49E
:100E200080308860B80303D5284600F038FA0CE01B
:100E3000780302D544F4004407E0380302D544F4B3
:100E4000803402E0284600F029FA300707D55FEA2F
:100E5000CB6004D52968102044F40074C860700782
:100E60004FF0080707D55FEA0B7004D52868C76004
:100E7000284600F099F9B00706D52868C0688007B1
:100E800002D0284600F092F9700607D55FEACA60E2
:100E900004D52968102044F480640861B00607D5A1
:100EA0005FEA0A7004D528680761284600F0C2F995
:100EB000F00606D528680069800702D0284600F0B1
:100EC000BAF9B00308D55FEAC96005D529681020D2
:100ED0004860284600F0B0F9F00307D55FEA0970D2
:100EE00004D528684760284600F0DAF9300446D572
:100EF0005FEA497040D5F00504D55FEAC87001D0BB
:100F000044F00104B00504D55FEA887001D544F0CF
:100F10000204700504D55FEA487001D544F004046A
:100F2000300529D518F0700F26D008F07000402841
:100F300015D006DC102809D020280AD0302816D178
:100F40000AE050280ED0602811D10EE044F00804C9
:100F50000DE044F010040AE044F0200407E044F0FF
:100F6000400404E044F0800401E044F48074286804
:100F7000816921F070018161296804204860002C9A
:100F800005D0686A204368622846FFF78FFEBDE8F7
:100F9000F09F70B5040003D094F8200010B104E075
:100FA000012070BD204600F081F82068016841F002
:100FB0000101016000F05CFC0546052604E000F03C
:100FC00057FC401B0A2811D820684068C007F6D09B
:100FD0002068016821F00201016000F049FC05462B
:100FE0000BE000F045FC401B0A2806D9606A40F47B
:100FF0000030606284F82060D2E720684068800793
:10100000EFD4207E0128206801683DD021F08001C6
:101010000160607E01282068016838D021F040011D
:101020000160A07E01282068016833D021F02001F2
:101030000160E07E0128206801682ED041F0100197
:101040000160207F01282068016829D021F0080173
:101050000160607F01282068016824D021F004012C
:101060000160D4E902010843D4E9041211430843A2
:101070006168491E08432168C86100206062012040
:1010800084F82000002070BD41F08001C0E741F0ED
:101090004001C5E741F02001CAE721F01001CFE788
:1010A00041F00801D4E741F00401D9E7F0B587B079
:1010B000044614216846FFF760F9364B3648DFF8DE
:1010C000D0E01968D4F800C0334A03250226092766
:1010D00010300024491CF44522D11960012907D1A0
:1010E000016841F000710160006800F00070059037
:1010F000106840F0080010601068CDE9005600F05C
:101100000800CDE9047069462448CDE9024500F0A5
:1011100095FA00221146142000F018FC142032E049
:10112000DFF87CE0F44530D1D0F800C04CF0806CA2
:10113000C0F800C0D0F800C001290CF0806CCDF8D8
:1011400014C0196007D1016841F0007101600068A6
:1011500000F000700590106840F002001060106808
:1011600002AB00F0020005906020CDE9000683E8A4
:10117000B00069460B4800F061FA00221146402099
:1011800000F0E4FB402000F0D3FB07B0F0BD00000E
:10119000006400400000002030380240000C024093
:1011A00000680040000402407047000010B504468B
:1011B000164B174A0021FFF77AFD164914488C4256
:1011C00022D10068A0F2012007281DD2DFE800F03C
:1011D00004070A0D101316000C490F4810E00B49C4
:1011E0000E480DE009490E480AE008490D4807E09D
:1011F00006490D4804E005490C4801E003490C4844
:10120000BDE8104002F0DAB910BD0000B0000020C7
:101210009C0B0020C8000020A806002038070020F2
:10122000C807002058080020880500201806002064
:10123000F8040020704770477047000070B50446FE
:1012400090F82000012804D0606A40F40020606219
:1012500018E0022084F820002068016821F00101D4
:10126000016000F005FB05460EE000BF00F000FB4A
:10127000401B0A2808D9606A40F4003060620520EB
:1012800084F82000012070BD20684068C007EDD1BF
:10129000606270BD70477047704770477047704715
:1012A00070472DE9F0410446876D00F0E1FA0646EB
:1012B00094F835000025022806D08020606584F867
:1012C00034500120BDE8F0812068016821F016014A
:1012D00001602068416921F080014161206C08B9FA
:1012E000A06C20B12068016821F00801016020682D
:1012F000016821F0010101600CE000F0B9FA801BE7
:10130000052807D920206065032084F8350084F87B
:101310003450D7E720680068C007EED194F85C101D
:101320003F208840B860012084F8350084F83450AC
:101330000020C7E790F83510022903D080214165CD
:1013400001207047052180F835100068016821F000
:1013500001010160002070472DE9F84304464FF079
:101360000009CDF8009063484FF41651A56D006850
:10137000B0FBF1F72E6894F85C10082000FA01F138
:1013800031420FD021680A6852070BD50A6822F053
:1013900004020A6094F85C108840A860606D40F018
:1013A0000100606594F85C104FF0010808FA01F044
:1013B000304208D021684969090604D5A860606DEB
:1013C00040F00200606594F85C10042088403042D0
:1013D00008D021680968890704D5A860606D40F0CD
:1013E0000400606594F85C1010208840304218D0EA
:1013F00021680968090714D5A860206801684903B5
:1014000004D50068000308D5A16C07E00168C90590
:1014100003D4016821F008010160216C09B1204664
:10142000884794F85C1020208840304231D02168F1
:101430000968C9062DD5A86094F8350005282068EC
:10144000016806D0490347D5006800031DD4616CCC
:101450001CE021F0160101602068416921F0800143
:101460004161206C08B9A06C20B12068016821F0AE
:101470000801016094F85C103F208840A86084F85F
:10148000358084F83490216D1FE0E16B09B120466E
:101490008847606D00282BD0606DC00714D00520F0
:1014A00084F835002068016821F00101016000988E
:1014B000401C0090B84203D820680068C007F6D1ED
:1014C00084F8358084F83490E16C002910D001B0A4
:1014D0002046BDE8F04308470168C905D5D4016836
:1014E00021F01001016084F8358084F83490CCE755
:1014F000BDE8F883C40000202DE9F041044600F067
:10150000B7F906465CB1022084F83500002584F85E
:1015100034502068016821F0010101600DE00120D4
:10152000BDE8F08100F0A4F9801B052805D9202032
:101530006065032084F83500F2E720680068C00782
:10154000F0D12268116820480140D4E90103184312
:10155000D4E903363343184363691843A369184336
:10156000E3691843236A18430843616A042903D1D5
:10157000D4E90B1319430843106020684069666A78
:1015800020F0070130460E43012704280CD1A06A41
:101590000643E06A40B12046FFF7E4F920B140205D
:1015A000606584F83570BAE7206846612046FFF729
:1015B000C5F994F85C203F2191408160656584F80D
:1015C00035700020ACE700003F8010F02DE9F041BD
:1015D0000446866D90F83400002501280DD00120C6
:1015E00084F8340094F835700020012F07D084F877
:1015F000340002252846BDE8F0810220FBE70227DF
:1016000084F8357060652046FFF7D6F994F85C10D1
:101610003F208840B0602068016841F016010160F9
:10162000206C20B12068016841F008010160206849
:10163000016841F001010160DCE700002DE9F84F8D
:10164000DFF8F8A10022012403254FF00F090AF169
:10165000040BAAF1040E00BF0B6804FA02F6334033
:10166000B34270D10F7907F00307012F01D0022F89
:1016700016D187684FEA420805FA08FC27EA0C07EA
:10168000D1F80CC00CFA08FC4CEA070CC0F808C0F2
:101690004768B7430E79C6F3001696403E4346604E
:1016A0000E79F643B6070AD0C7684FEA420C05FA2E
:1016B0000CF6B7438E6806FA0CF63E43C6600E7908
:1016C00006F00306022E10D1D60800EB8608D8F8E3
:1016D000206057074FEAD76C09FA0CF7BE430F6931
:1016E00007FA0CF73743C8F8207006684FEA420C37
:1016F00005FA0CF7BE430F7907F0030707FA0CF75A
:10170000374307604E6816F4403F1CD04C4E376894
:1017100047F480473760366822F0030706F48046B6
:101720000096484E07EB060CDCF8086897073F0F59
:1017300009FA07F826EA0806DFF80C81404503D1CC
:101740004FF0000841E072E0DFF80081404502D12F
:101750004FF0010839E0DFF8F880404502D14FF042
:10176000020832E0DFF8EC80404502D14FF0030878
:101770002BE0DFF8E480404502D14FF0040824E07C
:10178000DFF8D880404502D14FF005081DE0DFF8B2
:10179000D080404502D14FF0060816E0DFF8C48043
:1017A000404502D14FF007080FE0DFF8BC8040450C
:1017B00002D14FF0080808E0DFF8B080404502D1C0
:1017C0004FF0090801E04FF00A0808FA07F848EA64
:1017D0000608CCF80888DAF800605746D1F804C04B
:1017E0009E435FEACC2C00D51E433E60DBF80060D0
:1017F0005F46D1F804C09E435FEA8C2C00D51E439F
:101800003E60DEF800607746D1F804C09E435FEA90
:101810008C3C00D51E433E60084F083F3E68D1F81F
:1018200004C09E435FEACC3C00D51E433E60521C80
:10183000102AFFF411AFBDE8F88F0000083C01400A
:1018400044380240003001400000024000040240E1
:1018500000080240000C0240001002400014024048
:1018600000180240001C02400020024000240240F8
:101870000148806870470000B80000200248816875
:101880000278114481607047B80000200B4810B501
:10189000016841F400710160016841F480610160F8
:1018A000016841F480710160032000F06FF80F209F
:1018B00000F006F800F024F8002010BD003C0240C3
:1018C00070B50D4D04464FF47A712878B1FBF0F0F5
:1018D0000A490968B1FBF0F000F044FB48B9102C4C
:1018E00007D200222146501E00F030F800206C6024
:1018F00070BD012070BD0000B8000020C4000020B1
:101900000A4808B5016841F480410160006800F4AC
:10191000804000900548001F016841F0805101603F
:10192000006800F08050009008BD0000443802407C
:10193000002809DB00F01F020121914040098000CE
:1019400000F1E020C0F8001170470000F0B40E4B29
:101950001B680C46C3F30223C3F10705042D00D90D
:101960000425191D072901D2002300E0DB1E0126F2
:1019700006FA05F1491E214099409E40761E164008
:101980003143F0BC02F060BB0CED00E0064900F012
:10199000070208684FF6FF03184040EA0220034A96
:1019A00010430860704700000CED00E00000FA05ED
:1019B0002DE9F8431748016841F080510160006843
:1019C000154F00F08050012600903E64FFF750FF55
:1019D00005464FF47A78114C05E000BFFFF748FF49
:1019E000401B40450DD86068C003F7D57E64FFF703
:1019F0003FFF0546464607E0FFF73AFF401BB0426F
:101A000002D90320BDE8F88360688003F4D5002084
:101A1000F8E700004038024000000E42007000402D
:101A20002DE9F0470E46050065D0DFF81481D8F89F
:101A30000000F7B200F00F00B04207D288F8007043
:101A4000D8F8000000F00F00B04254D128683D4C97
:101A5000810712D5400703D5206840F4E05020608C
:101A60002878000703D5206840F460402060206893
:101A7000A96820F0F000084320602878C0072DD026
:101A8000304968680839012812D0022813D0032889
:101A900011D00968890700292DDA216821F0030196
:101AA00001432160FFF7E4FE814641F2883A0EE0EF
:101AB00009688903EFE709688901ECE7FFF7D8FEB9
:101AC000A0EB0901514502D90320BDE8F087206849
:101AD000696800F00C00B0EB810FEFD1D8F800106E
:101AE000404601F00F01B14207D90770006800F0CD
:101AF0000F00B04201D00120E7E72878400705D564
:101B00002068E96820F4E050084320602878000746
:101B100006D52068296920F4604040EAC1002060B1
:101B200000F038F82168084AC1F30311515CC8403D
:101B30000649086006480068FFF7C2FE0020C4E7B7
:101B4000003C0240083802406C4F0008C4000020EE
:101B5000BC0000200448054900680968044AC1F334
:101B60008221515CC8407047C40000200838024000
:101B70007C4F00080448054900680968044AC1F31D
:101B80004231515CC8407047C40000200838024010
:101B90007C4F0008154810B5006810F00C0214487E
:101BA00013D01449042A0FD0082A0ED10F4C241F39
:101BB0002268236802F03F025B0207D52068C0F369
:101BC0008810A0FB010106E0084610BD2168C1F3A2
:101BD0008811A1FB00010023FEF758FB2168C1F327
:101BE0000141491C4900B0FBF1F010BD083802402A
:101BF0000024F400001BB7002DE9F84F04006ED05C
:101C00002078DFF84C93C007A9F104054AD009F108
:101C100004000168C1F38101012908D00068C0F304
:101C2000810002280AD1D9F80000400206D52868B0
:101C3000800337D560680028E1D033E06068B0F5F4
:101C4000803F10D0B0F5A02F286810D020F480304D
:101C50002860286820F4802028606068A8B1FFF719
:101C600007FE06460DE0286840F48030F4E740F4B3
:101C700080202860F7E700BFFFF7FAFD801B64288B
:101C800073D828688003F7D50CE0FFF7F1FD06460E
:101C900005E000BFFFF7ECFD801B6428F0D8286842
:101CA0008003F7D42078DFF8AC8280074FF0000A79
:101CB0003ED5A748001D016811F00C0F08D0006840
:101CC000C0F3810002280BD1D9F80000400207D4EC
:101CD0002868800716D5E068012800D112E033E1BA
:101CE000E068B8B10120C8F80000FFF7C1FD064662
:101CF00005E000BFFFF7BCFD801B0228C0D82868A4
:101D00008007F7D52868216920F0F80040EAC10073
:101D100028600DE0C8F800A0FFF7AAFD064604E021
:101D2000FFF7A6FD801B02281FD828688007F7D47C
:101D30002078000722D5864F87486169703771B1D6
:101D400001210160FFF794FD064604E0FFF790FDD6
:101D5000801B022809D838688007F7D50EE0C0F844
:101D600000A0FFF785FD064605E082E0FFF780FD55
:101D7000801B02287DD838688007F7D42078400778
:101D800068D5DFF8CCB100270BF13C0BDBF8000085
:101D9000C0000BD4DBF8001041F08051CBF80010EC
:101DA000DBF80000012700F0805000906B4E306897
:101DB000C00510D4306840F480703060FFF758FDE3
:101DC000009005E0FFF754FD0099401A022850D812
:101DD0003068C005F6D55E4EA0686C3601280FD07D
:101DE0000528306810D020F001003060306820F005
:101DF00004003060A068B8B1FFF73AFD00900FE032
:101E0000306840F00100F4E740F004003060F7E78C
:101E1000FFF72EFD0099411A41F28830814266D8C1
:101E200030688007F4D50EE0FFF722FD009007E050
:101E3000FFF71EFD0099411A41F28830814256D8C1
:101E400030688007F4D42FB1DBF8001021F0805106
:101E5000CBF80010A069C8B33D49091D0968C1F35A
:101E6000810102294AD00228504607D0C8F86000F4
:101E700000E03CE0FFF7FCFC04463BE04746C8F8C6
:101E80006000FFF7F5FC064605E000BFFFF7F0FC39
:101E9000801B02282BD828688001F7D4D4E90701D9
:101EA0000843A16A2E4A490802EB0141626A41EAED
:101EB0008211084394F82C1040EA0161C9F800101F
:101EC00001203866FFF7D4FC044606E03EE000BF80
:101ED000FFF7CEFC001B022809D828688001F7D53F
:101EE00034E000BFFFF7C4FC001B022802D9032026
:101EF000BDE8F88F28688001F4D427E00128F7D0E6
:101F0000D9F80000E26900F4800191421CD1226AF4
:101F100000F03F01914217D147F6C071626A01405B
:101F2000B1EB821F10D1A26A4FF0FF3300F44031B1
:101F300003EB5202B1EB024F06D194F82C1000F0E3
:101F40007060B0EB016F01D00120D1E70020CFE736
:101F50000438024000004742800E474200700040B3
:101F60000000FFFF10B5401EB0F1807F01D30120BB
:101F700010BD4FF0E02460610F21601702F064F89B
:101F80000020A06107202061002010BD704770472D
:101F900070B590F83C20012A32D0012480F83C40F2
:101FA000022280F83D2003685A689D6822F070067E
:101FB0000A6832435A60134B02689A4214D0B2F155
:101FC000804F11D0104B9A420ED0104B9A420BD03A
:101FD0000F4B9A4208D00F4B9A4205D00E4B9A42B3
:101FE00002D00E4B9A4204D1496825F08003194370
:101FF000916080F83D40002180F83C10084670BD9B
:10200000022070BD000001400004004000080040B4
:10201000000C004000040140004001400018004056
:1020200010B5040003D094F83D0010B107E0012082
:1020300010BD002084F83C00204600F01FF802206C
:1020400084F83D00211D206801F0FEFB012084F88A
:10205000460084F83E0084F83F0084F8400084F88D
:10206000410084F8420084F8430084F8440084F876
:10207000450084F83D00002010BD000010B586B07A
:10208000044614216846FEF778F9226800211B48AF
:10209000B2F1804F14D01A498A420FD1016841F041
:1020A000100101600068002200F010000590114648
:1020B0003620FFF74BFC3620FFF73AFC06B010BD88
:1020C000026842F001020260006800F00100059021
:1020D0000A481038026842F001020260006800F00D
:1020E0000100059002200090CDE901010120CDE919
:1020F000031069460348FFF7A1FADFE740380240C2
:10210000001000400000024090F83D10012901D06D
:1021100001207047022180F83D100168CA6842F032
:102120000102CA6000681149884214D0B0F1804FA2
:1021300011D00F4988420ED00E4988420BD00E496B
:10214000884208D00D49884205D00D49884202D006
:102150000C49884204D1816801F00701062903D0A7
:10216000016841F00101016000207047000001405A
:102170000004004000080040000C00400004014042
:10218000004001400018004070B5044690F83C0043
:102190000025012817D0012684F83C60022084F82D
:1021A0003D002068826822F0770222F47F4282603C
:1021B0000868502838D00DDC20284FD005DC90B3BB
:1021C000102811D14AE0022070BD302846D04028A6
:1021D0000AD13BE060282FD070280DD0B0F5805F89
:1021E00003D0B0F5005F12D0012584F83D600020D7
:1021F00084F83C00284670BDCB68D1E901212068F5
:1022000001F093FB2068816841F0770109E0CB6819
:10221000D1E90121206801F088FB2068816841F440
:1022200080418160E1E719E0CA684968206801F0EF
:1022300051FC5021206806E0CA684968206801F016
:102240005AFC6021206801F07AFBCEE7CA68496831
:10225000206801F03FFC40212068F4E72268014635
:102260001046F0E7704770B50446006801694FF00A
:102270000005C943890715D4C168C943890711D42A
:10228000E91E0161012020772068806980072046CF
:1022900002D0FFF7E7FF04E000F0BEF8204600F0B0
:1022A00050F9257720680169C943490717D4C168E7
:1022B000C943490713D46FF004010161022020775C
:1022C0002068806910F4407F204602D0FFF7CAFFE3
:1022D00004E000F0A1F8204600F033F925772068EB
:1022E0000169C943090716D4C168C943090712D453
:1022F0006FF008010161042020772068C069800721
:10230000204602D0FFF7AEFF04E000F085F820463B
:1023100000F017F9257720680169C943C90617D469
:10232000C168C943C90613D46FF0100101610820C8
:1023300020772068C06910F4407F204602D0FFF764
:1023400091FF04E000F068F8204600F0FAF82577E5
:1023500020680169C943C90708D1C168C943C907D1
:1023600004D1891E0161204600F050F920680169FE
:10237000C943090609D4C168C943090605D46FF0E9
:10238000800101612046FFF701FE20680169C94311
:10239000490609D4C168C943490605D46FF0400114
:1023A0000161204600F06AF920680169C943890685
:1023B0000BD4C168C943890607D46FF020010161BD
:1023C0002046BDE87040FFF7E2BD70BD10B586B095
:1023D000044614216846FDF7D0FF2068B0F1804F15
:1023E00014D10B480021026842F00102026000682B
:1023F000022200F00100059001200090CDE90121AA
:10240000CDE9031069460348FFF718F906B010BD7F
:102410003038024000000240704770B5044690F822
:102420003C0000260D4601280FD0012084F83C0016
:102430006AB1042A1DD0082A2FD00C2A3FD00126C9
:10244000002084F83C00304670BD022070BD20683A
:1024500001F07EFA2068816941F0080181612068FD
:10246000816921F004018161206881692A69114331
:1024700011E0206801F09CFA2068816941F4006154
:1024800081612068816921F48061816120688169AE
:102490002A6941EA02218161D2E7206801F0BEFA8F
:1024A0002068C16941F00801C1612068C16921F05B
:1024B0000401C1612068C1692A69114311E02068E3
:1024C00001F0E0FA2068C16941F40061C16120684F
:1024D000C16921F48061C1612068C1692A6941EA4A
:1024E0000221C161ACE710B5040003D094F83D00AF
:1024F00010B107E0012010BD002084F83C00204608
:1025000000F01EF8022084F83D00211D206801F033
:102510009BF9012084F8460084F83E0084F83F00CF
:1025200084F8400084F8410084F8420084F84300B5
:1025300084F8440084F8450084F83D00002010BD74
:102540007047704710B50446022249B104290ED0E5
:10255000082913D094F84100012816D0012010BD9D
:1025600094F83E000128F9D184F83E200FE094F859
:102570003F000128F2D184F83F2008E094F84000A1
:102580000128EBD184F8402001E084F841200122A9
:10259000206801F0BDF916492068164A884201D02A
:1025A000904203D1436C43F4004343642068884263
:1025B00013D0B0F1804F10D00F4988420DD00F4991
:1025C00088420AD00E49884207D0904205D00D4972
:1025D000884202D00C49884204D1816801F0070189
:1025E000062903D0016841F001010160002010BDFF
:1025F00000000140000401400004004000080040C9
:10260000000C0040004001400018004010B5164C7E
:102610002068401C206001F001F800F0B7FB206842
:10262000072190FBF1F201FB120008B9FEF70CF94B
:102630002068252190FBF1F201FB120068B90B48DC
:10264000008803B20A48008802B20A48008801B232
:102650000948008800B200F0C1FE2068B0F57A7F1A
:1026600001DB0120206010BD040000208800002054
:1026700084000020800000207C000020704770470C
:1026800070470000F8B5016804460868CA684B69DD
:1026900010F00F0F4FF0000559D003F0010602F4BF
:1026A0009077374365D0C10705D0D10503D5216C9C
:1026B00041F001012164410705D5D90703D0216C00
:1026C00041F002012164810705D5D90703D0216CAF
:1026D00041F004012164010707D502F020013143D4
:1026E00003D0216C41F008012164216C00293AD00B
:1026F000800604D5900602D5204601F0A1FA206894
:102700004069216CC0F38010090700D460B32046F3
:1027100001F056FA20684069400621D5206814303F
:1027200050E8001F21F0400140E80012002AF5D1D6
:10273000A06BA8B16C490165A06BFEF7FBFD0028FA
:1027400011D0A06B016D01B0BDE8F04008478306D1
:102750000FD593060DD52046BDE8F84001F070BABC
:102760002046FFF78DFFF8BD2046FFF789FF25645F
:10277000F8BD266B2023012E79D1C60677D5D60663
:1027800075D50868486800904869400640D5A16B37
:10279000086840680004000CEAD0A28D8242E7D9A4
:1027A000E085C869B0F5807F2DD020680C3050E8F6
:1027B000001F21F4807140E80012002AF5D1206842
:1027C000143050E8001F21F0010140E80012002AF7
:1027D000F5D12068143050E8001F21F0400140E896
:1027E0000012002AF5D184F83E30256320680C30B1
:1027F00050E8001F21F0100140E80012002AF5D136
:10280000A06BFEF74EFDA08DE18D401A81B229E04C
:10281000A08DE18D401A81B2E08D0028A8D000295A
:10282000A6D020680C3050E8002F22F4907240E8C7
:102830000026002EF5D12068143050E8002F22F039
:10284000010240E80026002EF5D184F83E302563D1
:1028500020680C3050E8002F22F0100240E80023DE
:10286000002BF5D12046FFF70AFFF8BDFFE705066C
:102870002BD5150629D594F83D002128F5D1A0685F
:10288000B0F5805F01D12069B0B1206A411C21629E
:10289000216800784860E08C401E0004000CE08451
:1028A000E3D12068C16821F08001C1602068C1685F
:1028B00041F04001C160D8E7206A0088C0F30800F9
:1028C0004860206A801C2062E5E74006CDD55006AE
:1028D000CBD5CA68204622F04002CA6084F83D3059
:1028E00000F019FAC1E700001B3B000870B50400B6
:1028F00004D094F83D00002510B106E0012070BD21
:1029000084F83C50204600F023F8242084F83D0051
:102910002068C16821F40051C160204601F0F0F93F
:102920002068016921F4904101612068416921F02A
:102930002A0141612068C16841F40051C1602564E9
:10294000202084F83D0084F83E00002070BD000087
:102950002DE9F04F87B0044614216846FDF70DFDC0
:102960009748964B1438D4F800C0DFF854920221EF
:1029700003220727002506154FF0400B4FF0006A91
:102980009C4561D1D9F800C04CF0100CC9F800C0CA
:10299000D9F8003003F010030593036843F00203F5
:1029A0000360036803F002030593036843F0010327
:1029B00003600068894600F0010005908020CDE9A1
:1029C0000009CDE902529046694604977D48FEF71A
:1029D00035FE7010CDE90009CDE90258694604972B
:1029E0007948FEF72BFE7A4F7848D0463860C7E921
:1029F00001A5C7E903567D61BD61FD613D623846B1
:102A00007D62FEF779FD08B1FDF7EBFFA763BC63BC
:102A10006F4F6E4860373030C7E903567D61BD6146
:102A2000FD613D627D6287E801093846FEF764FD7D
:102A300008B1FDF7D6FF6763002211462520BC636D
:102A4000FEF784FF252024E05D4BDFF888811B1F03
:102A5000C44523D11C6844F400341C601B6803F493
:102A600000330593036843F008030360006800F037
:102A70000800059060208DE82300CDE90327694612
:102A80005548FEF7DBFD002211462620FEF75EFFCB
:102A90002620FEF74DFF07B0BDE8F08FDFF83C8140
:102AA000C44537D1D3F800C04CF4802CC3F800C023
:102AB0001B6803F480230593036843F00403036059
:102AC000006800F0040005904FF440608DE823009A
:102AD000CDE9032769464248FEF7B0FD3C4F414827
:102AE000C0373860C7E901A5C7E903567D61BD61FC
:102AF000FD613D6238467D62FEF7FEFC08B1FDF7E0
:102B000070FFA763002211462720BC63FEF71EFF5B
:102B10002720BEE7344B9C45BDD1D9F8007047F063
:102B20002007C9F80070D9F8003003F0200305939E
:102B3000036843F040030360006800F04000059024
:102B40004FF484408DE823000820CDE90320694636
:102B50002648FEF773FD1D48254F60384FF020686A
:102B60003860C7E90185C7E903567D61BD61FD6134
:102B70003D6238467D62FEF7BFFC08B1FDF731FFCC
:102B8000A763BC631A4F114860371830C7E9035672
:102B90007D61BD61FD613D627D6287E80109384666
:102BA000FEF7AAFC08B1FDF71CFF6763002211467F
:102BB0004720BC63FEF7CAFE47206AE700100140C9
:102BC0004438024000040240000002408864024091
:102BD000B802002000440040000C024000480040C1
:102BE0000008024028600240001401400018024022
:102BF000D803002090F83E30202B0ED159B152B1AD
:102C000090F83C30012B08D0012380F83C300023A1
:102C1000036301F0FBB801207047022070470000F9
:102C200010B5042205A1074800F056F8BDE8104091
:102C30000C2205490348FFF7DDBF00003132333471
:102C40000000000074020020E808002070B504466F
:102C500090F83D00202836D191B38AB394F83C0017
:102C6000012830D0012084F83C002162A284E28453
:102C700000252564212084F83D00636B1348D86348
:102C8000636B13481864636B1248D864606B134617
:102C900005652668606B321DFEF798FC21686FF0B1
:102CA0004000086084F83C502068143050E8001F51
:102CB00041F0800140E80012002AF5D1002070BDEB
:102CC000FFE70120FBE70220F9E70000753B000861
:102CD000B73B00082B3B000890F83D30202B18D163
:102CE000A9B1A2B190F83C30012B12D001628284CC
:102CF000C28400210164212280F83D2080F83C102C
:102D00000068C16841F08001C16000207047012067
:102D10007047022070477047704700000A4908203A
:102D200008700A4800218161416101618163C163CA
:102D3000C16201634163016441648164C16440F61E
:102D4000B8314162704700000C000020F8040020F8
:102D500010B50C4A20B1012804D0082806D10EE095
:102D6000506801E05068404200F0A6FC083292EC46
:102D7000030A01F0DFF8BDE8104000F08FBC00202E
:102D8000F2E700000C000020FEE700002DE9F04112
:102D90005A4C5B4A5B4BA08A5B4D5C4EDFF870C1BE
:102DA0005FEA806E4FF000014FF0010705D55FEA42
:102DB000C06E02D58CF8007007E09CF800C0BCF132
:102DC000010F6FD15FEAC06C14D55FEAC07E4FF48B
:102DD000257C02D0C2F800C000E011604FEA807E7E
:102DE0004C4A14E0430719D5C5F800C0030717D5AE
:102DF000326016E05FEAC07E4FF4DC7C02D0C2F89D
:102E000000C000E01160434A4FEA807EDC32BEF130
:102E1000000F01DA1A60E5E71960E3E72960E5E7EA
:102E200031603D4D3D4E3E4B5FEA806C4FF00802F5
:102E300010D5070502D505272F7000E02A70C504BC
:102E400000D503223270820400D5197000061BD50C
:102E500000201CE0010502D50421297000E02A7041
:102E6000C10402D50221317000E03270010504D5A1
:102E7000C10402D5062129703170810401D51F706B
:102E800000E01A70000601D4082000E00120FFF7DE
:102E90005FFFA08A81064FEAC05006D5002802DAFB
:102EA000002005E028E0082002E00028FBDA0120ED
:102EB000FDF7DCFDA08A81064FEA805005D5002889
:102EC00001DA012004E0082002E00028FBDA0020FB
:102ED00000F0B8FAA08A81064FEA405005D50028D4
:102EE00001DA012004E0082002E00028FBDA0020DB
:102EF000BDE8F04100F096BABDE8F08198040020EA
:102F000094000020980000209C000020A0000020D9
:102F1000080000206CFDFFFF550000205400002039
:102F2000780000200F4810B50D490160052141606F
:102F300000214FF440328160C0E903121201426166
:102F40000176012242768176C17601774177FEF7DC
:102F500020F8002803D0BDE81040FDF742BD10BDA9
:102F600000640040C80000200F4810B50D49016002
:102F70000E21416000214FF440328160C0E903120C
:102F8000120142610176012242768176C176017793
:102F90004177FDF7FEFF002803D0BDE81040FDF7A4
:102FA00020BD10BD00680040F00000201D4808B59D
:102FB000016841F400110160016801F40011009101
:102FC000016841F4800101600068002200F4800083
:102FD000009011460C20FEF7B9FC0C20FEF7A8FC6F
:102FE000002211463920FEF7B1FC3920FEF7A0FC83
:102FF000002211464420FEF7A9FC4420FEF798FC6D
:10300000002211464520FEF7A1FC4520FEF790FC6A
:10301000002211464620FEF799FCBDE808404620F4
:10302000FEF786BC30380240194808B5016841F007
:1030300002010160016801F002010091016841F0A4
:1030400040010160016801F040010091016841F018
:1030500001010160016801F001010091016841F086
:1030600008010160016801F008010091016841F068
:1030700004010160016801F004010091016841F060
:1030800080010160006800F08000009008BD000031
:103090003038024010B58EB000240794089409948B
:1030A0000A940B941C2168460C94FDF766F91F489E
:1030B0004FF08041016040F28F61C0E9011440F29D
:1030C000E731C0E903148461FEF7AAFF08B1FDF7F8
:1030D00088FC4FF48050079007A91448FFF754F874
:1030E00008B1FDF77EFC1148FFF7FDF908B1FDF7C7
:1030F00078FC0B940BA90D480C94FEF749FF08B11E
:10310000FDF76FFC602000901920CDE9010400223A
:10311000694606480494FFF780F908B1FDF761FCA1
:103120000248FFF753F90EB010BD0000180100204F
:103130001CB500240E4800940C490194016042F231
:103140002731C0E9011409218461C160FEF768FFDD
:1031500008B1FDF746FC0094694605480194FEF766
:1031600017FF002801D0FDF73CFC1CBD00100040FB
:10317000600100200D4810B50B4901600C49416009
:1031800000214FF480628160C0E903120C22C0E983
:103190000521C161FFF7AAFB002803D0BDE810405C
:1031A000FDF71FBC10BD000000100140A801002069
:1031B000A08601000C4810B50A4901600B49416026
:1031C000002181600C22C160C0E904128161C161EB
:1031D000FFF78CFB002803D0BDE81040FDF701BCD1
:1031E00010BD000000440040EC010020A08601005A
:1031F0000C4810B50A4901600B494160002181600B
:103200000C22C160C0E904128161C161FFF76EFB4D
:10321000002803D0BDE81040FDF7E3BB10BD00005F
:103220000048004030020020A08601000C4810B584
:103230000A4901604FF416514160002181600C225F
:10324000C160C0E904128161C161FFF74FFB002832
:1032500003D0BDE81040FDF7C4BB10BD0014014011
:1032600074020020FEE700002149082040F6B83330
:10327000087048701F49002001F190020861106138
:10328000886190614861506188639063C863D063CE
:10329000C862D062086310634863506308641064B6
:1032A0004864506488649064C864D0644B6201F5DB
:1032B0009071536201F19002086110618861906120
:1032C0004861506188639063C863D063C862D0620C
:1032D0000863106348635063086410644864506472
:1032E00088649064C864D0644B6253627047000085
:1032F00054000020A806002010B5184A801E072898
:1033000012D2DFE800F0040911111A2026005068DB
:1033100000F010FA506805E05068404200F00AFAE8
:1033200050680EE000F0D2F90C3292EC030A00F083
:1033300007FEBDE8104000F0D1B9906800F0FAF93E
:1033400090684042EEE79068404200F0F3F99068E0
:10335000E8E7002000F0EEF90020E3E75400002049
:1033600010B51C4A001F052826D2DFE800F003082C
:10337000181E2E00906800F0EDF9906805E0906846
:10338000404200F0E7F99068404200F0DBF99068B5
:10339000404200F0CFF9906800F098F90CE0906896
:1033A000404200F0D7F9906804E0906800F0D2F94C
:1033B0009068404200F0C6F90C3292EC030A00F02B
:1033C000DBFDBDE8104000F089B9002000F0C2F933
:1033D0000020EFE754000020FEE7704770B50F4C67
:1033E000050A25706070080AA070E170100A20714B
:1033F0006271180AA071E37100F023F9012806D167
:1034000000F014FC702020726072A072E072BDE8BF
:1034100070400C2201490248FFF718BC6C000020E4
:1034200074020020064930B1012806D0082801D1D5
:103430007020C87270476720FBE74720F9E700005B
:103440006C000020064930B1012806D0082801D1BF
:103450007020887270476620FBE74620F9E700007D
:103460006C000020002801DC404200B270470000E0
:1034700070B5194CB4F90000FFF7F4FF4FF425754F
:10348000A84217DCB4F90200FFF7ECFFA84211DCF8
:10349000B4F90400FFF7E6FFA8420BDCB4F906001C
:1034A000FFF7E0FFA84205DCA07A18B1E07A08B186
:1034B000002070BD002020806080A080E0802081FE
:1034C0000221A172E172A081E0812082A074E074E7
:1034D000A082012070BD00009804002030B5144B7C
:1034E0001C68656945F0400565611B68DC6844F04F
:1034F0001004DC600F4B1C68256825F00105256071
:103500001C682568ED07F7D11D680B4CAC601C6882
:10351000E06018680161186842601868016841F449
:10352000802101601868016841F00101016030BD2F
:10353000A8010020B80200200410014038B51B4843
:103540000168CA6822F40052CA60194A11680B68FF
:1035500023F001030B60136824215960006801689F
:1035600041680091134C13684FF40011A34202D933
:10357000104B4C3B04E0104CA34203D90D4B503B85
:10358000196008E00C4D0C4C603DB83CAB4201D9D1
:10359000E16000E0A160C16841F40051C1601068C1
:1035A000016841F00101016038BD0000A801002060
:1035B000B802002058640240B860024030B5836E03
:1035C000C3604A780C7802EB042212B28266CC788F
:1035D0008D7804EB052424B2C4634C790D7904EB97
:1035E000052424B2446144683CB94C78097804EB62
:1035F000012109B2016001214160D31A0169B3F5CB
:10360000805F01DD491E03E013F5805F01DA491C8C
:10361000016102EB4131C0F8801030BD0748C07A2B
:10362000012805D0022805D0032805D100F0D2BD1D
:1036300000F00EBE00F0A6BD704700009804002008
:1036400070470120704700000A4B03F19002D86CCC
:10365000D16CA0F5AF7001F5C87198619161064A0F
:10366000030A13705070080A9070D1701046FCF76E
:10367000DDBF0000880500204C000020064A00EB5A
:10368000400101EB001191636FF012014843A2F178
:103690009001886370470000180600200449C86C38
:1036A00088610449020A0A7148710846FCF7DABFCA
:1036B000F80400204C00002000EB400101EB00105A
:1036C0000149886370470000F8040020024900EBBC
:1036D000C000800088637047380700201CB513497C
:1036E00001F19002C86C8861D16C9161020A8DF879
:1036F00000208DF80100080A8DF802000C488DF8B2
:10370000031000F19002C16C8161D06C90610A0AD3
:103710008DF804208DF80510010A8DF806108DF83B
:1037200007006846FCF7BAFF1CBD0000A806002091
:10373000C8070020024900EBC00080008863704782
:10374000A8060020024900EBC00080008863704793
:1037500058080020024900EBC000800088637047D1
:10376000C8070020FEF78AB830B593B0302168460C
:10377000FCF703FE14210CA8FCF7FFFD20480025F0
:10378000016841F080510160006800F080501190A4
:103790001C48016841F4404101600068022400F4C3
:1037A0004040119001200090000401908001CDE97B
:1037B000064006200890B420CDE9090404200B90AF
:1037C0006846FEF719FA08B172B6FEE7FEF7F0F8A0
:1037D00008B172B6FEE70CA90F2081E831004FF462
:1037E000A0500F904FF48050109005210CA8FEF7C8
:1037F00017F9002801D072B6FEE713B030BD000003
:1038000040380240007000400248016841F47001F5
:103810000160704788ED00E010B500210648FEF712
:1038200091FE05494FF0FF3009680861BDE810407E
:10383000002000F0CBBD0000180100200148FEF779
:1038400012BD000060010020F0B50268254C264D35
:10385000264E274F274B4FF0804CA04209D06045A1
:1038600007D0A84205D0B04203D0B84201D0984258
:1038700004D122F0700E4A6842EA0E02A0421BD028
:10388000604519D0A84217D0B04215D0B84213D025
:10389000984211D0184DA8420ED0184DA8420BD016
:1038A000174DA84208D0174DA84205D0164DA84282
:1038B00002D0164DA84203D122F44075CA682A43AB
:1038C0004D6922F080022A4302608A68C2620A6857
:1038D0008262A04201D0984201D1096901630121AD
:1038E0004161F0BD000001400004004000080040BC
:1038F000000C004000040140004001400044014031
:103900000048014000180040001C0040002000401A
:1039100010B501F01F030121046A99408C43046231
:10392000016A9A401143016210BD10B5846842EAF1
:10393000032224F47F440A432243826010BD82683C
:1039400022F070020A4342F00701816070470000D4
:10395000F0B5026A22F001020262036A42688469D9
:10396000124E24F073050C682C4323F002058B687B
:103970002B430D4DA84201D0B04205D123F00807DA
:10398000CB683B4323F00403A84201D0B04205D1E9
:103990004D6922F4407215438A692A43426084616A
:1039A000496841630362F0BD00000140000401402A
:1039B000F0B5026A22F010020262026A436884696A
:1039C0000D6824F4E64444EA05248D6822F02002C0
:1039D00042EA05120F4D104EA84201D0B04206D166
:1039E000CF6822F0800242EA071222F04002A84289
:1039F00001D0B04207D14D6923F4406343EA850307
:103A00008D6943EA8503436084614968816302628A
:103A1000F0BD00000000014000040140F0B5026A62
:103A200022F480720262026A4368C46922F400725E
:103A300024F073050C68124E2C438D6842EA05226F
:103A40000E4DA84201D0B04206D1CF6822F40062E8
:103A500042EA072222F48062A84201D0B04207D194
:103A60004D6923F4405343EA05138D6943EA051376
:103A70004360C4614968C1630262F0BD0000014057
:103A80000004014030B5026A22F480520262046AE6
:103A90004268C3690D6823F4E64343EA05238D6851
:103AA00024F4005444EA0534084DA84202D0084DDD
:103AB000A84204D14D6922F4804242EA8512426054
:103AC000C36149680164046230BD00000000014028
:103AD0000004014010B5036A046A24F00104046282
:103AE000846924F0F00444EA021423F00A020A4331
:103AF0008461026210BD10B5036A23F010030362F3
:103B00008369046A23F4704343EA023224F0A00379
:103B100043EA01118261016210BD10B5806B002182
:103B2000C185C184FEF7ACFD10BD70B5846B206803
:103B3000406994F83D10C0F3C0100025212904D13C
:103B400018B1E584204600F062F82068406994F8D6
:103B50003E10C0F38010222904D118B1E58520461B
:103B600000F02EF8206C40F0100020642046FEF794
:103B700087FD70BD10B50146806B09680968C905ED
:103B800016D40021C1840168143151E8002F22F0BD
:103B9000800241E80023002BF5D101680C3151E887
:103BA000002F42F0400241E80023002BF5D110BD68
:103BB000FFF7B1F810BD10B5806BFFF7ADF810BD81
:103BC00001680C3151E8002F22F4907241E8002383
:103BD000002BF5D10168143151E8002F22F00102C9
:103BE00041E80023002BF5D1016B012909D10168BF
:103BF0000C3151E8002F22F0100241E80023002B85
:103C0000F5D1202180F83E10002101637047016842
:103C10000C3151E8002F22F0C00241E80023002BB4
:103C2000F5D1202180F83D10704700000C22024998
:103C30000248FEF7DFBF0000E80800207402002001
:103C400008B590F83E10222901D0022008BD8268F4
:103C50004FF480539A4201D1016921B1816A9A429D
:103C60001BD04AB10AE00268816A5268C2F30802B6
:103C70000A80816A891C08E0026972B10268526890
:103C800002F07F020A70816A491C8162C18D491E5F
:103C90000904090CC18503D019E002685268F1E7F4
:103CA0000168CA6822F02002CA600168CA6822F46A
:103CB0008072CA6001684A6922F001024A612021CB
:103CC00080F83E10016B012903D0FEF7A9FF002008
:103CD00008BD0021016301680C3151E8002F22F07A
:103CE000100241E80023002BF5D101680A68D206D2
:103CF00002D50A6849680091818DFEF7C0FCE6E7AD
:103D000070B5044600680169E26821F4405111432E
:103D100001612169A068E2690843616911430843B0
:103D20002168CA6849F20C639A430243CA6020685A
:103D30004169A26921F44071114341613149206810
:103D4000884202D03049884202D1FDF713FF01E0DA
:103D5000FDF700FFE2690023192164253226B2F540
:103D6000004F626828D0A0FB0101930F9200FCF77E
:103D70008DFA0146B0FBF5F06FF01802504301EBED
:103D8000800006EB0010B0FBF5F000F0F002B1FB94
:103D9000F5F002EB0012B1FBF5F06FF01803584399
:103DA00001EB800006EB0010B0FBF5F000F00F0017
:103DB00021681044886070BDA0FB010192185B412E
:103DC000FCF764FA0146B0FBF5F00201B1FBF5F037
:103DD0006FF01803584301EB800006EBC000B0FB06
:103DE000F5F000F0F80002EB4002B1FBF5F05843AB
:103DF00001EB800006EBC000B0FBF5F000F007001F
:103E0000D6E7000000100140001401408162828565
:103E1000C28500210164222280F83E2080F83C10F7
:103E2000016921B10168CA6842F48072CA60016800
:103E30004A6942F001024A610068C16841F020010C
:103E4000C16000207047000038B52A48006801684A
:103E5000890603D501684068009038BD2649096885
:103E6000C906FAD501684068244A009010680168C4
:103E70004FF024030C032249046824F00104046079
:103E800016D414686068C0F1240080B208806360B2
:103E900011680B6843F400230B6011680A6842F054
:103EA00001020A601228D8D1164901F1160015E066
:103EB00010684468C4F12404A4B20C804360124822
:103EC000816A21F4002181621068016841F00101DA
:103ED0000160122CC1D10B4901F13A0000F01CFA2B
:103EE000FFF7C6FA0128B8D1BDE838402420FFF713
:103EF00025BB0000A801002000100140B8020020EE
:103F00000A00002098040020006002400148FEF7EB
:103F1000B9BB0000EC0100200148FEF7B3BB000074
:103F2000300200200148FEF7ADBB00007402002003
:103F3000FEE70000014800F03BB80000F804002054
:103F400010B50C482DED048BB0EE418AF0EE608A7E
:103F5000B0EE409A00F02CF8B0EE481AF0EE680A85
:103F6000B0EE490ABDEC048B0248BDE81040903029
:103F700000F01EB8A806002010B50C482DED048BEB
:103F8000B0EE418AF0EE608AB0EE409A00F010F890
:103F9000B0EE481AF0EE680AB0EE490ABDEC048BA8
:103FA0000248BDE81040903000F002B8C807002079
:103FB00010B5D0E90E12891A0A46C16200D55242E4
:103FC000142A426B01DC0A4442634FF4FA739A42AA
:103FD00002DC5B429A4200DA436301EE901AF8EE8B
:103FE000E11A21EE800ABDEEC00A10EE104A046408
:103FF00090ED0D0AB8EEC00A20EE200ABDEEC00A10
:1040000010EE103A4364026B8A1A00EE102A00295F
:10401000B8EEC00A20EE010ABDEEC00A10EE102A6A
:104020008264016300DA4942022901DC002107E0D1
:10403000E1180A44416A8A4202DC49428A4201DAB2
:10404000C16410BDC26410BD0907090E002804DB5D
:1040500000F1E02080F80014704700F00F0000F13C
:10406000E02080F8141D704770B59FED160A8D1C76
:104070002DED048B441AA8429FED139B07DB581AC1
:10408000801E00F0E0FC41EC180BA01E09E08B1E26
:10409000984214DC881A801E00F0D5FC41EC180B05
:1040A000A01C00F0D0FC53EC182B00F017FB53ECD5
:1040B000192B00F02FFD00F02BFA00EE100ABDECDA
:1040C000048B70BD00000000000000C049345E4059
:1040D00070B59FED160A8D1C2DED048B441AA84275
:1040E0009FED139B07DB581A801E00F0ACFC41ECDF
:1040F000180BA01E09E08B1E984214DC881A801E43
:1041000000F0A1FC41EC180BA01C00F09CFC53EC4F
:10411000182B00F0E3FA53EC192B00F0FBFC00F035
:10412000F7F900EE100ABDEC048B70BD0000000032
:10413000000000E0D20A1D4030B5002800DA4042FD
:104140004C42002901DB0D4600E02546854202DD98
:10415000080000D520465142002A01DB144600E049
:104160000C46844202DD100000D508465942002B5F
:1041700001DB1A4600E00A46824202DD180000D543
:10418000084630BD124910B50820B1F90420044694
:104190006FF0C703C82A01DD002002E09A4200DA6E
:1041A0000120B1F90610C82901DD002402E099427E
:1041B00000DA0124FFF746F92046FFF733F908201B
:1041C000FEF7C6FDBDE810400820FCF74FBC00001C
:1041D0009804002010B50820FEF7BAFD0820FCF76F
:1041E00045FC1A48B0F90610642901DD022011E0EF
:1041F0006FF06302914201DA03200BE0B0F9041082
:10420000642901DD042002E0914207DA0520FFF76E
:10421000A7F80620BDE81040FFF76EB8807A0128A5
:1042200009D002280CD00820FFF766F80820BDE866
:104230001040FFF795B80720FFF75EF80720F6E774
:104240000620FFF759F80620F1E700009804002047
:1042500070B5144C4FF4AF756E42B4F90400A84227
:1042600001DD002004E0B04201DA012000E0082076
:10427000FEF76EFDB4F90600A8420ADD0120FCF746
:10428000F5FB0720FFF76CF8BDE870400720FFF74B
:1042900033B8B04201DA002000E00820BDE87040E9
:1042A000FCF7E4BB98040020FDF7F0FAFFF75CFA96
:1042B000FEF7BAFEFEF736FEFEF756FEFEF776FE76
:1042C000FEF796FFFEF734FFFEF754FFFEF772FF8E
:1042D000FEF7ACFFFEF7DEFE0A48FDF715FFFEF71E
:1042E0001DFDFCF781FBFEF7BFFFFCF761FAFCF751
:1042F00067F9FFF791FA00F007F8FFF797FCFCF772
:1043000057FAFEE76001002002492422A1F12400AF
:10431000FFF7E4B8D2040020F0B5002855D00029FA
:1043200053D00278437842EA0322C2F30A020A8099
:1043300043788478DB0843EA4413C3F30A034B80D1
:104340008478C578A40944EA8504057944EA85247B
:10435000C4F30A048C80057946796D0845EAC615D0
:10436000C5F30A05CD804679C6F301168E724679EB
:10437000B609CE728679C77946EA07268E81067A13
:10438000477A46EA0726CE81867AC77A46EA072622
:104390000E82067B8E74467BCE74867BC77B46EA94
:1043A00007268E82067C407CA2F580620A80A3F5F7
:1043B00080634B80A4F5806446EA00208C80A5F5DC
:1043C0008065CD80A0F580600881F0BD10B5044601
:1043D00017482DED028BC06800F04CFB41EC180B28
:1043E000204600F047FB9FED131B53EC112B00F010
:1043F00075F99FED121B53EC112B00F08BFB9FED19
:10440000111B53EC112B00F0B5F89FED101B53EC72
:10441000112B00F063F953EC182B00F07BFB00F03C
:10442000E5FABDEC028B80B2BDE8104000F012B896
:10443000180100200000000000806640000000001D
:1044400000000040000000000000E03F000000000D
:104450000000344070B52DED068B9FED28AB00F0C9
:1044600009FB2A4C0E46054646EC180B9FED259B92
:10447000E06800F0FFFA53EC1A2B00F04BFB53EC12
:10448000182B00F045FC09D2E06800F0F3FA53EC79
:104490001A2B00F03FFB41EC180B01E046EC185BD7
:1044A00051EC180B00F0A2FA80B200F0E3FA0E46CD
:1044B000054646EC180BE06800F0DCFA53EC192BCB
:1044C00000F028FB53EC182B00F0E8FA09D2E06862
:1044D00000F0D0FA53EC192B00F01CFB41EC100B50
:1044E00001E046EC105B51EC100B00F07FFA216804
:1044F00080B24863BDEC068B70BD00009A99999913
:104500009999993F000000000000C03F1801002069
:1045100021F00042A2F16052B2F5801F01F0004389
:1045200028BFD2F17F6C0BD95FEA001C43EAC202BC
:1045300042EB507018BF704728BF20F00100704751
:10454000B2F5801FBCBF184670474FEA410C1CF5FE
:10455000001F02D2084600F000BD70B500F084FBD9
:1045600000000089FFF7F6BF4FF00040A0F5800083
:104570007047000010B591EA030F48BF83F0004375
:1045800000F10484841A71EB030C05D2121943EB79
:104590000C03001B61EB0C01DFF824E14FEA11541E
:1045A000A4EB135C1EEA430F18BF9EEA445F73D06E
:1045B00023EA0E03DCF1200E21EA045143F48013B8
:1045C00032D322FA0CFE10EB0E0023FA0CFE41EB64
:1045D0000E01CCF1200E03FA0EFE10EB0E0051F18D
:1045E0000001B1F5801FCCF1200E32D201EB045155
:1045F00012FA0EF2BDE8104058BF7047401C38BF99
:104600005FEA420218BF7047002814BF20F0010083
:1046100041F100014FEA410313F5001F38BF704715
:10462000A1F1C04100F06EBB012A43EB0302ACF1E3
:10463000200CDCF11F0E32BF4FF0000E23FA0CF3FA
:1046400010EB030041EB0451B4EB115FD0D0A1EBB0
:10465000045101F5801149085FEA300001EB045173
:104660000ED350F1000038BF12FA0EFE08D1BDE89B
:104670001040C9E7401C38BF5FEA4202CAD1C3E715
:10468000BDE810404FEA410313F5001F38BF7047E3
:10469000A1F1C04100F036BB9EEA445F08D011EAA8
:1046A0005E0FBDE8104004BF01F0004100207047DC
:1046B000BDE8104070B500F0D7FA00BF64FBBE3E05
:1046C0000000E0FF491058BFC1F140415B1058BFE6
:1046D000C3F140438B42EFF3008070472DE9C041A6
:1046E00030B4DFF8A0C23CEA111418BF3CEA13143E
:1046F00000F0EC8081EA03051CEA111444EAD57449
:1047000018BF1CEA131500F0C780A4EB05044FF096
:10471000004545EAC12145EAC32341EA505143EA35
:10472000525304F17F74994204F500344FEAC020DB
:104730004FEAC22208BF904200F09C804FEA136506
:104740000FF24016765D4FEA134506FB05F7C7F1F9
:10475000807706FB07F74FEAD737A7FB0368764257
:10476000C8F58038A7FB06CE38BFA8F1010807FBC3
:1047700008E64FF0000EA6FB028CE6FB03CEDCF150
:10478000000CCEF1004E38BFAEF1010EA6FB0C5866
:104790004FF000074FF00005E6FB0E87A1FB08C6AF
:1047A000A0FB07CE16EB0E0645F10005E1FB076501
:1047B00015F1E04E7EBFA4F580345FEA46066D41F8
:1047C00016F1800745F100054FEA17274FEA066604
:1047D00047EA0567A6F1DE46B6F1805F4FEA152588
:1047E0001FD9384624F0010C05EBC471BCF1FE6FF3
:1047F00001EB0C1102D8F0BCBDE8008124425CBF83
:1048000001F5801E9EEAC47F02D4F0BCBDE80081A1
:10481000244238D4F0BCA1F1C041BDE8004100F011
:1048200071BA4FEAD22242EA43524FEAD323A7FB9E
:1048300002864FEAD02040EA415007FB03661EEA99
:104840000E0F4FEAD12105FB026658BFA6EB0056BA
:10485000B6EB00564FEA520E4EEAC37E18EB0E0E30
:1048600056EB530EBDD518EB02085E417F1C55F187
:104870000005B6E74FF480154FF000074FF0000633
:104880004FF00008ADE7F0BC4FF0000001F1C0416F
:1048900001F00041BDE8008111EA0C1F0CEA13157C
:1048A00000D00CE013EA0C1F00F025804FF0000050
:1048B000F0BC81EA030101F00041BDE80081F0BCD9
:1048C000BDE8004181EA030100F01CBAF0BCBDE87C
:1048D000004170B500F0C8F9097EFC3E00F007B851
:1048E00081EA03014FF0000001F00041704781EAC6
:1048F000030100F007BAF0BCBDE800414FF0000032
:1049000021497047FFFDFBF9F7F5F4F2F0EEEDEB0E
:10491000E9E8E6E4E3E1E0DEDDDBDAD8D7D5D4D3BD
:10492000D1D0CFCDCCCBCAC8C7C6C5C4C2C1C0BF09
:10493000BEBDBCBBBAB9B8B7B6B5B4B3B2B1B0AF0F
:10494000AEADACABAAA9A8A8A7A6A5A4A3A3A2A1F3
:10495000A09F9F9E9D9C9C9B9A99999897979695AE
:1049600095949393929191908F8F8E8E8D8C8C8B4A
:104970008B8A8989888887878685858484838382D2
:10498000828181800000FF070000F87F4FEA410329
:104990004FEA5353A3F58063D3F11E03C8BFD3F18D
:1049A000210C0CDD4FF0004242EAC12242EA505293
:1049B00032FA03FC8CEAE17CACEBE1707047102B1F
:1049C000C4BF0020704703F5787CBCF1FF3F04D0E2
:1049D0006FF0004282EA2100704770B500F044F9A0
:1049E0004992248000207047F2E700004FEA1153FB
:1049F000A3F58063D3F11E03A8BFD3F1200C08DB1D
:104A00004FF0004242EAC12252EA505232FA03F019
:104A1000704709420BD4102BC4BF0020704703F528
:104A2000787CBCF1FF3F05D04FF0FF3070474FF06E
:104A30000000704770B500F017F900BF499224805C
:104A400000207047F0E710F0004248BF4042B0FA43
:104A500080F310FA03F10AD0C3F11D0303F580635C
:104A60004FEA415002EB035202EBD12170474FF065
:104A700000007047B0FA80F310FA03F10AD0C3F1D6
:104A80001D0303F580634FEA41504FEA035202EBE6
:104A9000D12170474FF000007047000051EA030C2D
:104AA00017D41CF5801F58BFBCF5801F00F106808D
:104AB000994218BF704708BF9042704707D711F559
:104AC000801F58BF13F5801F19D49942704789423F
:104AD00070471CF5801F08D5BCF5801FF7D58B42A9
:104AE00018BF704708BF824270474FF4001C1CEB90
:104AF000410F38BF1CEB430F01D28B42704770B59A
:104B000000F0B2F8922449004FF000514FF080536A
:104B1000FFF7D8BDDFF848C170B51CEA111E1EBFF3
:104B20001CEA13159EEA0C0F95EA0C0F00F06F803B
:104B300081EA030423EA4C134EEAD47E21EA4C11A5
:104B400041F4801143F48013AE44A1FB024CA0FB5E
:104B50000365AEF17F7E361955EB0C05A1FB034CC6
:104B60004CF10003A0FB021C16EB0C06654153F14F
:104B70000003094218BF46F0010613F4007F0BD171
:104B80004FEA03314FEA0530340341EA155140EA58
:104B900016506FF003020AE04FEAC3214FEAC52026
:104BA000F40241EA555140EA56506FF0020202EB1E
:104BB0002E4201EB025585EACE710AD05FEA440C21
:104BC00018BF24F0004450F1000041F1000120EA38
:104BD000D47040F2FE7C624500D270BDA84214BF82
:104BE0004FF080444FF04044002E08BF0024BEF137
:104BF000806FA8BFA1F1C041BDE8704080F2828003
:104C00004FF0000001F1C04101F0004170479EEA01
:104C10000C0F0CEA131518BF95EA0C0F06D04FF0D5
:104C2000000081EA030E0EF0004170BD00F01CF898
:104C30008900013E00F007B800F009B84FEA430CC4
:104C40005FEA5C5C08D081EA030100F05BB84FEAE0
:104C5000410C5FEA5C5CF6D14FF0000001497047FF
:104C60000000FF070000F87F0EF1020E2EF0030E89
:104C70005EF8046B364205D4012A43EB030515F5B3
:104C8000001F12D8012841EB010C1CF5001F0CD8A5
:104C90000ED14FEAD17C15F5001F0CEB4C0C0CF13A
:104CA000020C08BF4CEBD37C04E04FF0080C01E091
:104CB0004FEAD37C0CEB4C0526FA05F606F0070606
:104CC000B6F1040C06D20EEB860CBDE870404CF039
:104CD000010C6047DFE80CF0090B02024FF00041C5
:104CE0004FF00000A1F5002170BD194610460128C3
:104CF00051EB010418BFD4F5001484BF002001F06B
:104D0000004170BD0808A0F500114FEA310170475D
:104D100053EA010C17D41CF5801F58BFBCF5801F47
:104D200000F106808B4218BF704708BF824270476F
:104D300007D713F5801F58BF11F5801F19D48B4278
:104D400070479B4270471CF5801F08D5BCF5801F3B
:104D5000F7D5994218BF704708BF904270474FF48B
:104D6000001C1CEB430F38BF1CEB410F01D29942D2
:104D700070470FB40CBC03BCFFF7C1BE10B591EA7D
:104D8000030F48BF83F000433FF5FCAB841A71EB7F
:104D9000030C07D212198CF0004C43EB0C03001BE0
:104DA00061EB0C01DFF8A4E14FEA1154A4EB135CB2
:104DB0001EEA430F18BF9EEA445F00F0B08023EA6A
:104DC0006E03524221EA0451C3EB6E0338BF5B1EEF
:104DD000DCF1200E25D322FA0CFE10EB0E0043FA74
:104DE0000CFE41EB0E01CCF1200E03FA0EFE10EB8F
:104DF0000E0051F10001CCF1200E29D412FA0EF26E
:104E000001EB0451BDE8104058BF7047401C1CBF67
:104E1000B2F1004F704700280CBF491C20F0010080
:104E2000704712EB020E43EB030218BF4FF0010E66
:104E30004EEA4202ACF1200CDCF11E0E54D943FACA
:104E40000CFE10EB0E0051F1FF31CCF11E0ED5D54A
:104E50000EF1010E12FA0EFE404141EB010101EB91
:104E6000445C5FEA5C5C10D910EBDE7001EB04512E
:104E700038BFBEF1004FBDE8104018BF7047002892
:104E80000CBF491C20F00100704730D24FEAD42CEF
:104E900011F5001124F400641BD0B1FA81F20B3A31
:104EA000A41AA41ED2F12003914030FA03F319434F
:104EB000904001EBCC71002C01EB0451BDE8104097
:104EC000A8BF704701F1C0414FF0000001F0004160
:104ED0007047B0FA80F310FA03F100D110BDE41A64
:104EE000173C4805C90AE4E701EB045110BD49101D
:104EF00001EB0451BDE810404FEA300002E04FF0F2
:104F0000000170474A0008BF0042F8D0B2F5001F08
:104F100028BF704701F000414FF0000070479EEA43
:104F2000445F07D011EA5E0FBDE8104004BF0021C6
:104F300000207047BDE8104070B5FFF795FE00BF38
:104F400040DFF63E83F00041104670470000E0FF6E
:104F50004FF04070E1EE100A7047FF2141EAD05057
:104F6000C00570470006101600061016000000006D
:104F70000000000001020304060708090000000009
:104F800001020304A44F000800000020C800000034
:104F9000E80100086C500008C80000205011000013
:104FA00004020008000000000100000000000000F2
:104FB00000000000640000000000B0413333B33F44
:104FC0000000804000000000000000000000000021
:104FD0000000C8410000F041CDCC6C4066668640C0
:104FE0000000F0419A99193F9A99993E9A99193E71
:104FF0000000000000000000000000003C00000075
:105000003C000000000000419A99993F0000003FD9
:1050100000000000000000007070707000000000D0
:105020000000000000000000000000000000000080
:105030000000000000000000000000000000000070
:105040000000000000000000000000000000000060
:10505000000000000000000000000000010000004F
:0C50600010000000000000000024F4001C
:04000005080001AD41
:00000001FF
