:020000040800F2
:10000000801000204D020008B1270008E1230008FD
:1000100065260008A1040008452F00080000000024
:100020000000000000000000000000008929000816
:100030009106000800000000B3270008A92A000864
:1000400067020008670200086702000867020008EC
:1000500067020008670200086702000867020008DC
:1000600067020008670200086702000867020008CC
:10007000F10500086702000867020008670200082F
:1000800067020008670200086702000867020008AC
:10009000A50400086702000867020008670200085C
:1000A000670200086702000867020008670200088C
:1000B000670200086702000867020008670200087C
:1000C000670200086702000867020008670200086C
:1000D00067020008752E0008392F00086702000823
:1000E000670200086702000867020008670200084C
:1000F000670200086702000867020008670200083C
:10010000670200086702000867020008670200082B
:100110006702000867020008752B000867020008E4
:100120006702000867020008FD0500086702000872
:1001300067020008670200086702000867020008FB
:1001400059050008670200086702000867020008F6
:100150006702000867020008090600086702000835
:1001600067020008670200086702000867020008CB
:10017000670200086702000867020008000000002C
:1001800067020008670200086702000867020008AB
:10019000670200086702000867020008670200089B
:1001A00000000000000000006702000800F002F8F4
:1001B00000F03CF80AA090E8000C82448344AAF1C5
:1001C0000107DA4501D100F031F8AFF2090EBAE8C3
:1001D0000F0013F0010F18BFFB1A43F0010318477B
:1001E0008C300000AC300000103A24BF78C878C1D1
:1001F000FAD8520724BF30C830C144BF04680C602D
:10020000704700000023002400250026103A28BF74
:1002100078C1FBD8520728BF30C148BF0B60704778
:100220001FB503F00DF81FBD10B510BD00F0CFF8DD
:100230001146FFF7F5FF02F07FFF00F0EDF803B481
:10024000FFF7F2FF03BC00F0F5F800000948804713
:1002500009480047FEE7FEE7FEE7FEE7FEE7FEE7A8
:10026000FEE7FEE7FEE7FEE704480549054A064BC0
:1002700070470000652B0008AD010008800A0020CF
:1002800080100020800C0020800C002053EA020C1B
:1002900000F069802DE9F04B4FF00006002B1FBFE6
:1002A000B3FA83F503FA05F424FA05F65E4012BFAB
:1002B0001643B2FA82F502FA05F4C5F120051EBF15
:1002C00022FA05FC44EA0C04203556EA044C4FEAB5
:1002D000144418BF641C4FF000084FF0000990420E
:1002E00071EB030C39D3002919BFB1FA81F701FA78
:1002F00007F6B0FA80F700FA07F6C7F120071EBF2D
:1003000020FA07FC46EA0C062037B6FBF4FCA7EB04
:100310000507103F07F01F0BCBF120060CFA0BFB73
:100320002CFA06F644BFB3460026202FA4BF5E4633
:100330004FF0000B5BEA060C08BF4FF0010B19EB06
:100340000B09ABFB027C48EB0608C01B06FB02CC8A
:100350000BFB03CC71EB0C01C1E70B460246414697
:100360004846BDE8F08B13B54FF000004FF0000198
:10037000AFF30080BDE81C4070474FF0000200B5AD
:10038000134694469646203922BFA0E80C50A0E8B8
:100390000C50B1F12001BFF4F7AF090728BFA0E866
:1003A0000C5048BF0CC05DF804EB890028BF40F832
:1003B000042B08BF704748BF20F8022B11F0804F74
:1003C00018BF00F8012B704770477047704775469B
:1003D00000F02CF8AE4605006946534620F00700B1
:1003E000854618B020B5FFF73FFFBDE820404FF02D
:1003F00000064FF000074FF000084FF0000B21F00F
:100400000701AC46ACE8C009ACE8C009ACE8C009DB
:10041000ACE8C0098D46704710B50446AFF30080C4
:100420002046BDE81040FFF70ABF000000487047B3
:10043000200A002001491820ABBEFEE7260002007A
:100440007047000010B58AB0002001210090019093
:1004500002900390CDE905100E24099408910791AC
:10046000049069460C4800F0D5F969460B4805949C
:1004700000F0D0F90446084800F01AFD074800F0E3
:1004800017FD0221044800F04FF90221034800F053
:100490004BF90AB0204610BD6C00002094000020EB
:1004A000FEE70000014800F0B0BA00006C00002038
:1004B00000B589B040F2FF1100910021082202919D
:1004C000CDE903128DF8141006AA435C5354491C5D
:1004D00089B20829F9D300236946024800F036F9A9
:1004E00009B000BD6C00002000B589B040F2FF11DA
:1004F0000091002108220291CDE903128DF8141019
:1005000006AA435C5354491C89B20829F9D3002335
:100510006946024800F01AF909B000BD6C000020DD
:1005200000B589B04FF400710091002108220291BA
:10053000CDE903128DF8141006AA435C5354491CEC
:1005400089B20829F9D300236946024800F0FEF871
:1005500009B000BD6C000020014800F056BA000050
:1005600094000020204910B500200861C860886010
:10057000C8808880488008801C49A1F190020861E9
:10058000A1F590731061A1F5D8741861206188639A
:1005900090639863A063C863D063D863E0638861A5
:1005A00090619861A0614861506158616061C86262
:1005B000D062D862E0620863106318632063486306
:1005C000506358636063086410641864206448646E
:1005D000506458646064886490649864A064C864DB
:1005E000D064D864E06410BD4000002034090020CD
:1005F000014800F0EBBC0000D4020020014800F0EC
:10060000E5BC000014020020014800F0DFBC00003F
:100610007402002001681823CAB2103AB2FBF3F248
:10062000054B6FF30901032A9B5CC36500D9091DC3
:1006300081650846704700004A32000810B501463F
:1006400000208B698A6A4FF0C07453B1B3F5005F24
:1006500015D072B1012A0CD0022A0AD0032A09D17E
:1006600004E01AB1012A06D0022A03D1C96AC901DD
:1006700000D5012010BDC96AA142FAD010BD002AE0
:10068000F7D0012AF2D0022AF3D0032AF3D010BD0A
:10069000704772B6FEE700000F49002040F6B832FE
:1006A0008861486108618863C863C86208634863F9
:1006B0000864486488644A62C8649031886148610B
:1006C00008618863C863C862086348630864486453
:1006D00088644A62C86470472404002010B5104C36
:1006E00020B1012804D0082805D116E0206800E0D8
:1006F000606802F063F908340A4894EC030A083C85
:1007000002F060FC0834074894EC030A903002F0D1
:1007100059FCBDE8104002F039B90020E9E70000BB
:10072000180000202404002090F82020012A07D07F
:10073000022A05D0416A41F48021416201207047BC
:10074000006842690A43426100207047F0B590F8A2
:1007500020500468A468012D05D0022D03D0416A01
:1007600041F4802153E014F0406F01D1E5004BD5F6
:10077000C4F30164022C03D9416A41F4000146E04C
:100780000125A5401D608D684FF4C0739DB1CE68F2
:1007900035434E6845EAC605066803EB0417F55174
:1007A0004FF4C275076805EB04150E697E51097D8B
:1007B000012905D009E00E88CD6845EA4655EBE7EA
:1007C00001684E5946F480764E511179D2F80550A1
:1007D0004FF4C67641EA0525016806EB04168D51F3
:1007E0001178D2F801204FF4C47541EA0221026861
:1007F00005EB04155151006803EB0411425842F017
:10080000010242500020F0BD416A41F400114162F2
:100810000120F0BD10B590F82020012A07D0022A4F
:1008200005D0416A41F480214162012010BD3B485E
:10083000D0F8002242F00102C0F80022D0F80022D5
:1008400022F47C52C0F80022D0F800224B6A42EA1F
:100850000322C0F800220A7D02F01F0301229A4001
:10086000D0F81C329343C0F81C32CB69B3B9D0F82E
:100870000C329343C0F80C328C894B6864F31F43ED
:100880004C6900EBC404C4F840320C890B6864F373
:100890001F434C6900EBC404C4F84432CB69012BFC
:1008A00016D1D0F80C321343C0F80C320C884B68C8
:1008B00064F31F434C6900EBC404C4F840320C8954
:1008C000CB6864F31F434C6900EBC404C4F84432A2
:1008D0008B69002BD0F804320ED01343C0F80432D9
:1008E0000B69002BD0F8143208D01343C0F814322F
:1008F000096A012904D008E09343EFE79343F5E741
:10090000D0F81C121143C0F81C12D0F8001221F0CC
:100910000101C0F80012002010BD0000006400407A
:10092000704730B590F82040012C05D0022C03D040
:10093000416A41F480215DE00468002955D02469B2
:10094000A40754D04FF4D874056804EB01142D5952
:1009500015F00405956005682D594ED0ED085560D9
:1009600005682C5904F00204D4604FF4DA74056869
:1009700004EB01142D5905F00F05156105682D597B
:10098000C5F30725956105682C59240C54614FF473
:10099000DC72046802EB0112A4581C700468A458AD
:1009A000240A5C700468A458240C9C700468A25843
:1009B000120EDA704FF4DE72046802EB0112A458D2
:1009C0001C710468A458240A5C710468A458240C9F
:1009D0009C710468A258120EDA71006881B1016935
:1009E00041F020010161002030BDE468A8E7416AC0
:1009F00041F400114162012030BD6D0D1560AFE77B
:100A0000C16841F02001C160EDE72DE9F05F0546C6
:100A1000006800244669D0F804908768D0F80CB0CC
:100A2000D0F810A0D0F81880F10748D0F90714D0FA
:100A300001218160B80703D5284600F066FA0CE072
:100A4000780702D54FF4006407E0380702D54FF469
:100A5000805402E0284600F057FAF80516D52968B8
:100A60004FF480708860B80503D5284600F04FFA2F
:100A70000CE0780502D544F4005407E0380502D5AF
:100A800044F4804402E0284600F040FAF80316D50A
:100A900029684FF480308860B80303D5284600F0F9
:100AA00038FA0CE0780302D544F4004407E0380338
:100AB00002D544F4803402E0284600F029FA3007D9
:100AC00007D55FEACB6004D52968102044F4007490
:100AD000C86070074FF0080707D55FEA0B7004D5B0
:100AE0002868C760284600F099F9B00706D528683D
:100AF000C068800702D0284600F092F9700607D53A
:100B00005FEACA6004D52968102044F48064086153
:100B1000B00607D55FEA0A7004D528680761284641
:100B200000F0C2F9F00606D528680069800702D0F7
:100B3000284600F0BAF9B00308D55FEAC96005D5C8
:100B4000296810204860284600F0B0F9F00307D566
:100B50005FEA097004D528684760284600F0DAF992
:100B6000300446D55FEA497040D5F00504D55FEA08
:100B7000C87001D044F00104B00504D55FEA887064
:100B800001D544F00204700504D55FEA487001D530
:100B900044F00404300529D518F0700F26D008F071
:100BA0007000402815D006DC102809D020280AD073
:100BB000302816D10AE050280ED0602811D10EE05E
:100BC00044F008040DE044F010040AE044F020046E
:100BD00007E044F0400404E044F0800401E044F401
:100BE00080742868816921F070018161296804207E
:100BF0004860002C05D0686A204368622846FFF7E9
:100C00008FFEBDE8F09F70B5040003D094F820007B
:100C100010B104E0012070BD204600F081F820688A
:100C2000016841F00101016000F024FC0546052641
:100C300004E000F01FFC401B0A2811D8206840681F
:100C4000C007F6D02068016821F00201016000F0C1
:100C500011FC05460BE000F00DFC401B0A2806D9EC
:100C6000606A40F40030606284F82060D2E7206857
:100C700040688007EFD4207E0128206801683DD0BD
:100C800021F080010160607E01282068016838D071
:100C900021F040010160A07E01282068016833D066
:100CA00021F020010160E07E0128206801682ED03B
:100CB00041F010010160207F01282068016829D0DF
:100CC00021F008010160607F01282068016824D0BC
:100CD00021F004010160D4E902010843D4E90412BF
:100CE000114308436168491E08432168C861002018
:100CF0006062012084F82000002070BD41F0800176
:100D0000C0E741F04001C5E741F02001CAE721F00A
:100D10001001CFE741F00801D4E741F00401D9E721
:100D2000F0B587B0044614216846FFF726FB364B22
:100D30003648DFF8D0E01968D4F800C0334A0325FC
:100D40000226092710300024491CF44522D11960DD
:100D5000012907D1016841F000710160006800F0CD
:100D600000700590106840F0080010601068CDE930
:100D7000005600F00800CDE9047069462448CDE92A
:100D8000024500F05DFA00221146142000F0E0FB5D
:100D9000142032E0DFF87CE0F44530D1D0F800C018
:100DA0004CF0806CC0F800C0D0F800C001290CF0F5
:100DB000806CCDF814C0196007D1016841F0007152
:100DC0000160006800F000700590106840F00200BB
:100DD0001060106802AB00F0020005906020CDE9C1
:100DE000000683E8B00069460B4800F029FA0022AB
:100DF0001146402000F0ACFB402000F09BFB07B008
:100E0000F0BD0000006400400000002030380240C7
:100E1000000C0240006800400004024070470000DF
:100E200010B50446164B174A0021FFF77AFD164904
:100E300014488C4222D10068A0F2012007281DD25C
:100E4000DFE800F004070A0D101316000C490F48E4
:100E500010E00B490E480DE009490E480AE0084928
:100E60000D4807E006490D4804E005490C4801E03B
:100E700003490C48BDE8104001F048BD10BD00001A
:100E800054000020040A00206C00002044050020CB
:100E9000D405002064060020F4060020240400206D
:100EA000B40400209403002070477047704700008E
:100EB00070B5044690F82000012804D0606A40F420
:100EC0000020606218E0022084F820002068016899
:100ED00021F00101016000F0CDFA05460EE000BFEF
:100EE00000F0C8FA401B0A2808D9606A40F40030B4
:100EF0006062052084F82000012070BD20684068F1
:100F0000C007EDD1606270BD704770477047704791
:100F10007047704770472DE9F0410446876D00F037
:100F2000A9FA064694F835000025022806D080204C
:100F3000606584F834500120BDE8F08120680168C4
:100F400021F0160101602068416921F080014161B2
:100F5000206C08B9A06C20B12068016821F008015C
:100F600001602068016821F0010101600CE000F0DF
:100F700081FA801B052807D920206065032084F8AA
:100F8000350084F83450D7E720680068C007EED1F8
:100F900094F85C103F208840B860012084F8350048
:100FA00084F834500020C7E790F83510022903D0A8
:100FB0008021416501207047052180F835100068C7
:100FC000016821F001010160002070472DE9F8431C
:100FD00004464FF00009CDF8009063484FF41651D5
:100FE000A56D0068B0FBF1F72E6894F85C1008203E
:100FF00000FA01F131420FD021680A6852070BD57F
:101000000A6822F004020A6094F85C108840A86024
:10101000606D40F00100606594F85C104FF00108CD
:1010200008FA01F0304208D021684969090604D560
:10103000A860606D40F00200606594F85C100420C8
:101040008840304208D021680968890704D5A86023
:10105000606D40F00400606594F85C1010208840DA
:10106000304218D021680968090714D5A8602068A3
:101070000168490304D50068000308D5A16C07E0A6
:101080000168C90503D4016821F008010160216CE1
:1010900009B12046884794F85C10202088403042EF
:1010A00031D021680968C9062DD5A86094F83500AB
:1010B00005282068016806D0490347D50068000369
:1010C0001DD4616C1CE021F01601016020684169AB
:1010D00021F080014161206C08B9A06C20B120682A
:1010E000016821F00801016094F85C103F208840FD
:1010F000A86084F8358084F83490216D1FE0E16B9E
:1011000009B120468847606D00282BD0606DC0076C
:1011100014D0052084F835002068016821F0010111
:1011200001600098401C0090B84203D82068006815
:10113000C007F6D184F8358084F83490E16C00293A
:1011400010D001B02046BDE8F04308470168C9054A
:10115000D5D4016821F01001016084F8358084F84D
:101160003490CCE7BDE8F883680000202DE9F04119
:10117000044600F07FF906465CB1022084F8350091
:10118000002584F834502068016821F001010160D5
:101190000DE00120BDE8F08100F06CF9801B05280E
:1011A00005D920206065032084F83500F2E7206827
:1011B0000068C007F0D12268116820480140D4E9D6
:1011C00001031843D4E903363343184363691843D2
:1011D000A3691843E3691843236A18430843616A03
:1011E000042903D1D4E90B13194308431060206884
:1011F0004069666A20F0070130460E430127042843
:101200000CD1A06A0643E06A40B12046FFF716FA07
:1012100020B14020606584F83570BAE720684661E7
:101220002046FFF7F7F994F85C203F219140816058
:10123000656584F835700020ACE700003F8010F051
:101240002DE9F84FDFF8F8A1002201240AF1040B80
:1012500003254FF00F090BF1040E00BF0B6804FAD1
:1012600002F63340B34270D10F7907F00307012F24
:1012700001D0022F16D187684FEA420805FA08FC10
:1012800027EA0C07D1F80CC00CFA08FC4CEA070C52
:10129000C0F808C04768B7430E79C6F300169640F9
:1012A0003E4346600E79F643B6070AD0C7684FEA58
:1012B000420C05FA0CF6B7438E6806FA0CF63E436C
:1012C000C6600E7906F00306022E10D1D60800EB98
:1012D0008608D8F8206057074FEAD76C09FA0CF750
:1012E000BE430F6907FA0CF73743C8F82070066849
:1012F0004FEA420C05FA0CF7BE430F7907F00307DB
:1013000007FA0CF7374307604E6816F4403F1CD0CD
:101310004C4E376847F480473760366822F0030741
:1013200006F480460096484E07EB060CDCF8086889
:1013300097073F0F09FA07F826EA0806DFF80C813D
:10134000404503D14FF0000841E072E0DFF8008132
:10135000404502D14FF0010839E0DFF8F880404500
:1013600002D14FF0020832E0DFF8EC80404502D1B4
:101370004FF003082BE0DFF8E480404502D14FF046
:10138000040824E0DFF8D880404502D14FF005087A
:101390001DE0DFF8D080404502D14FF0060816E08E
:1013A000DFF8C480404502D14FF007080FE0DFF8B6
:1013B000BC80404502D14FF0080808E0DFF8B0805B
:1013C000404502D14FF0090801E04FF00A0808FA41
:1013D00007F848EA0608CCF80888DAF800605746AB
:1013E000D1F804C09E435FEACC3C00D51E433E606A
:1013F000DBF800605F46D1F804C09E435FEA8C3C96
:1014000000D51E433E60DEF800607746D1F804C088
:101410009E435FEACC2C00D51E433E60084F0C373C
:101420003E68D1F804C09E435FEA8C2C00D51E4371
:101430003E60521C102AFFF411AFBDE8F88F000087
:10144000003C0140443802400030014000000240AE
:101450000004024000080240000C0240001002405C
:101460000014024000180240001C0240002002400C
:101470000024024001488068704700005C000020A2
:101480000248816802781144816070475C00002046
:101490000B4810B5016841F400710160016841F426
:1014A00080610160016841F480710160032000F0F7
:1014B0006FF80F2000F006F800F024F8002010BDAF
:1014C000003C024070B50D4D04464FF47A71287807
:1014D000B1FBF0F00A490968B1FBF0F000F044FB01
:1014E00048B9102C07D200222146501E00F030F8D7
:1014F00000206C6070BD012070BD00005C00002009
:10150000680000200A4808B5016841F48041016084
:10151000006800F4804000900548001F016841F019
:1015200080510160006800F08050009008BD00000C
:1015300044380240002809DB00F01F0201219140DD
:101540004009800000F1E020C0F800117047000061
:10155000F0B40E4B1B680C46C3F30223C3F107051E
:10156000042D00D90425191D072901D2002300E00C
:10157000DB1E012606FA05F1491E214099409E40D6
:10158000761E16403143F0BC01F068BD0CED00E062
:10159000064900F0070208684FF6FF03184040EACA
:1015A0000220034A10430860704700000CED00E081
:1015B0000000FA052DE9F8431748016841F0805111
:1015C00001600068154F00F08050012600903E64D5
:1015D000FFF750FF05464FF47A78114C05E000BF45
:1015E000FFF748FF401B40450DD86068C003F7D5A2
:1015F0007E64FFF73FFF0546464607E0FFF73AFFE8
:10160000401BB04202D90320BDE8F8836068800324
:10161000F4D50020F8E700004038024000000E42F8
:10162000007000402DE9F0470E46050065D0DFF858
:101630001481D8F80000F7B200F00F00B04207D2D2
:1016400088F80070D8F8000000F00F00B04254D1C4
:1016500028683D4C810712D5400703D5206840F427
:10166000E05020602878000703D5206840F46040EF
:1016700020602068A96820F0F000084320602878E6
:10168000C0072DD0304968680839012812D00228D7
:1016900013D0032811D00968890700292DDA2168A1
:1016A00021F0030101432160FFF7E4FE814641F28E
:1016B000883A0EE009688903EFE709688901ECE7D9
:1016C000FFF7D8FEA0EB0901514502D90320BDE880
:1016D000F0872068696800F00C00B0EB810FEFD153
:1016E000D8F80010404601F00F01B14207D9077049
:1016F000006800F00F00B04201D00120E7E7287831
:10170000400705D52068E96820F4E05008432060D0
:101710002878000706D52068296920F4604040EA4F
:10172000C100206000F038F82168084AC1F30311B5
:10173000515CC8400649086006480068FFF7C2FED1
:101740000020C4E7003C0240083802405232000842
:10175000680000206000002004480549006809680E
:10176000044AC1F38221515CC840704768000020E0
:1017700008380240623200080448054900680968D8
:10178000044AC1F34231515CC840704768000020F0
:101790000838024062320008154810B5006810F0A1
:1017A0000C02144813D01449042A0FD0082A0ED171
:1017B0000F4C241F2268236802F03F025B0207D50A
:1017C0002068C0F38810A0FB010106E0084610BDA8
:1017D0002168C1F38811A1FB00010023FEF756FD2B
:1017E0002168C1F30141491C4900B0FBF1F010BD73
:1017F000083802400024F400001BB7002DE9F84F20
:1018000004006ED02078DFF84C93C007A9F10405DE
:101810004AD009F104000168C1F38101012908D00F
:101820000068C0F3810002280AD1D9F80000400204
:1018300006D52868800337D560680028E1D033E0FA
:101840006068B0F5803F10D0B0F5A02F286810D0A8
:1018500020F480302860286820F4802028606068A8
:10186000A8B1FFF707FE06460DE0286840F4803077
:10187000F4E740F480202860F7E700BFFFF7FAFDA7
:10188000801B642873D828688003F7D50CE0FFF725
:10189000F1FD064605E000BFFFF7ECFD801B642864
:1018A000F0D828688003F7D42078DFF8AC8280076E
:1018B0004FF0000A3ED5A748001D016811F00C0F3B
:1018C00008D00068C0F3810002280BD1D9F80000CD
:1018D000400207D42868800716D5E068012800D1A7
:1018E00012E033E1E068B8B10120C8F80000FFF76A
:1018F000C1FD064605E000BFFFF7BCFD801B0228C6
:10190000C0D828688007F7D52868216920F0F8003A
:1019100040EAC10028600DE0C8F800A0FFF7AAFD6A
:10192000064604E0FFF7A6FD801B02281FD82868A2
:101930008007F7D42078000722D5864F8748616951
:10194000703771B101210160FFF794FD064604E094
:10195000FFF790FD801B022809D838688007F7D56B
:101960000EE0C0F800A0FFF785FD064605E082E026
:10197000FFF780FD801B02287DD838688007F7D4E8
:101980002078400768D5DFF8CCB100270BF13C0B7D
:10199000DBF80000C0000BD4DBF8001041F08051F0
:1019A000CBF80010DBF80000012700F08050009019
:1019B0006B4E3068C00510D4306840F480703060E1
:1019C000FFF758FD009005E0FFF754FD0099401A1D
:1019D000022850D83068C005F6D55E4EA0686C3637
:1019E00001280FD00528306810D020F001003060A9
:1019F000306820F004003060A068B8B1FFF73AFD0D
:101A000000900FE0306840F00100F4E740F004007F
:101A10003060F7E7FFF72EFD0099411A41F2883058
:101A2000814266D830688007F4D50EE0FFF722FDCA
:101A3000009007E0FFF71EFD0099411A41F288303F
:101A4000814256D830688007F4D42FB1DBF80010FB
:101A500021F08051CBF80010A069C8B33D49091DA1
:101A60000968C1F3810102294AD00228504607D0F3
:101A7000C8F8600000E03CE0FFF7FCFC04463BE0F7
:101A80004746C8F86000FFF7F5FC064605E000BFD2
:101A9000FFF7F0FC801B02282BD828688001F7D4C0
:101AA000D4E907010843A16A2E4A490802EB014123
:101AB000626A41EA8211084394F82C1040EA0161FD
:101AC000C9F8001001203866FFF7D4FC044606E090
:101AD0003EE000BFFFF7CEFC001B022809D82868B3
:101AE0008001F7D534E000BFFFF7C4FC001B0228DB
:101AF00002D90320BDE8F88F28688001F4D427E0DC
:101B00000128F7D0D9F80000E26900F48001914281
:101B10001CD1226A00F03F01914217D147F6C071F3
:101B2000626A0140B1EB821F10D1A26A4FF0FF330D
:101B300000F4403103EB5202B1EB024F06D194F8AE
:101B40002C1000F07060B0EB016F01D00120D1E7E4
:101B50000020CFE70438024000004742800E474291
:101B6000007000400000FFFF10B5401EB0F1807F04
:101B700001D3012010BD4FF0E02460610F216017F8
:101B800001F06CFA0020A06107202061002010BD48
:101B90007047704770B590F83C20012A32D001247C
:101BA00080F83C40022280F83D2003685A689D6816
:101BB00022F070060A6832435A60134B02689A4258
:101BC00014D0B2F1804F11D0104B9A420ED0104B6E
:101BD0009A420BD00F4B9A4208D00F4B9A4205D035
:101BE0000E4B9A4202D00E4B9A4204D1496825F01E
:101BF00080031943916080F83D40002180F83C103B
:101C0000084670BD022070BD000001400004004085
:101C100000080040000C004000040140004001406A
:101C20000018004010B5040003D094F83D0010B136
:101C300007E0012010BD002084F83C00204600F0A1
:101C40001FF8022084F83D00211D206800F098FF55
:101C5000012084F8460084F83E0084F83F0084F8B0
:101C6000400084F8410084F8420084F8430084F87E
:101C7000440084F8450084F83D00002010BD0000B9
:101C800008B500680B49884212D10B48016841F041
:101C9000100101600068002200F010000090114661
:101CA0003620FFF755FCBDE808403620FFF742BC60
:101CB00008BD00000010004040380240704770B579
:101CC0000446006801694FF00005C943890715D42F
:101CD000C168C943890711D4E91E01610120207739
:101CE000206880698007204602D0FFF7E7FF04E004
:101CF00000F098F8204600F096F8257720680169F2
:101D0000C943490717D4C168C943490713D46FF0C1
:101D100004010161022020772068806910F4407F6F
:101D2000204602D0FFF7CAFF04E000F07BF820460F
:101D300000F079F8257720680169C943090716D4AE
:101D4000C168C943090712D46FF00801016104207A
:101D500020772068C0698007204602D0FFF7AEFFD9
:101D600004E000F05FF8204600F05DF82577206879
:101D70000169C943C90617D4C168C943C90613D448
:101D80006FF010010161082020772068C06910F40D
:101D9000407F204602D0FFF791FF04E000F042F8B8
:101DA000204600F040F8257720680169C943C9073B
:101DB00008D1C168C943C90704D1891E0161204601
:101DC00000F032F820680169C943090609D4C168E6
:101DD000C943090605D46FF0800101612046FFF771
:101DE000D7FE20680169C943490609D4C168C943BF
:101DF000490605D46FF040010161204600F015F856
:101E000020680169C94389060BD4C168C9438906A2
:101E100007D46FF0200101612046BDE87040FFF754
:101E2000B8BE70BD704770477047704770477047C5
:101E3000F8B5016804460868CA684B6910F00F0FCE
:101E40004FF000055AD003F0010602F490773743B3
:101E500065D0C10705D0D10503D5216C41F0010142
:101E60002164410705D5D90703D0216C41F0020157
:101E70002164810705D5D90703D0216C41F0040105
:101E80002164010707D502F02001314303D0216C02
:101E900041F008012164216C00293BD0800604D563
:101EA000900602D5204600F0FEFE20684069216CB5
:101EB000C0F3801001F00801014320462BD000F050
:101EC000CBFE20684069400621D52068143050E8D8
:101ED000001F21F0400140E80012002AF5D1A06B5C
:101EE000A8B16C490165A06BFFF75EF8002811D01E
:101EF000A06B016D01B0BDE8F040084783060ED528
:101F000093060CD52046BDE8F84000F0CCBE204634
:101F1000FFF78DFFF8BDFFF78AFF2564F8BD266B3C
:101F20002023012E79D1C60677D5D60675D5086847
:101F3000486800904869400640D5A16B0868406831
:101F40000004000CEAD0A28D8242E7D9E085C8697E
:101F5000B0F5807F2DD020680C3050E8001F21F4B0
:101F6000807140E80012002AF5D12068143050E852
:101F7000001F21F0010140E80012002AF5D120687D
:101F8000143050E8001F21F0400140E80012002A00
:101F9000F5D184F83E30256320680C3050E8001FEE
:101FA00021F0100140E80012002AF5D1A06BFEF7E5
:101FB000B2FFA08DE18D401A81B229E0A08DE18DA4
:101FC000401A81B2E08D0028A8D00029A6D0206850
:101FD0000C3050E8002F22F4907240E80026002ECA
:101FE000F5D12068143050E8002F22F0010240E8BB
:101FF0000026002EF5D184F83E30256320680C3091
:1020000050E8002F22F0100240E80023002BF5D109
:102010002046FFF70BFFF8BDFFE705062BD5150699
:1020200029D594F83D002128F5D1A068B0F5805F4E
:1020300001D12069B0B1206A411C21622168007879
:102040004860E08C401E0004000CE084E3D120686E
:10205000C16821F08001C1602068C16841F0400181
:10206000C160D8E7206A0088C0F308004860206A91
:10207000801C2062E5E74006CDD55006CBD5CA6866
:10208000204622F04002CA6084F83D3000F077F923
:10209000C1E70000492C000870B5040004D094F892
:1020A0003D00002510B106E0012070BD84F83C50D1
:1020B000204600F023F8242084F83D002068C16801
:1020C00021F40051C160204600F04EFE20680169F5
:1020D00021F4904101612068416921F02A014161A8
:1020E0002068C16841F40051C1602564202084F853
:1020F0003D0084F83E00002070BD00002DE9F04F47
:1021000087B0054614216846FEF737F98F488E4A96
:102110002B68DFF8389214380121032607270024A2
:102120004FF002084FF4007A4FF0006B934269D1F0
:10213000D9F8003043F01003C9F80030D9F8002076
:1021400002F010020592026842F002020260026888
:1021500002F002020592026842F001020260006889
:10216000C14600F0010005908020CDE900090291F0
:10217000884669467648CDE90367FFF761F8CDF8F0
:1021800000A0CDE90367CDE9019869467148FFF7E2
:1021900057F8724F70484FF480683860C7E901B44F
:1021A000C7E903487C614FF40030BC61C7E90740D0
:1021B0005E4638467C62FEF7D9FF08B1FEF769FA41
:1021C000AF63BD63654F644860373030E7E80206AF
:1021D0004020A7E81101800247F81449BC61C7E913
:1021E00007405E487C626030FEF7C0FF08B1FEF732
:1021F00050FA6F63002201212520BD63FFF7A8F983
:10220000252025E0514ADFF858C1121F634524D12B
:10221000136843F400331360126802F4003205922D
:10222000026842F008020260006802AB00F0080099
:10223000059083E8C2006020CDE90008694649485E
:10224000FEF7FEFF002201212620FFF781F926205C
:10225000FFF770F907B0BDE8F08FDFF80CC16345F8
:1022600039D1136843F480231360126802F480228A
:102270000592026842F004020260006802AB00F0BE
:102280000400059083E8C2004FF44060CDE90008E7
:1022900069463648FEF7D4FF304E3548C0363060C8
:1022A000C6E901B40015C6E9034080107461C6E9AF
:1022B00006400002C6E908043046FEF757FF08B1A1
:1022C000FEF7E7F9AE63002201212720B563FFF78F
:1022D0003FF92720BCE727498B42BBD1D9F8002022
:1022E00042F02002C9F80020D9F8001001F02001C6
:1022F0000591016841F040010160016801F0400171
:102300000591016841F0040101600068082500F0B2
:102310000400CDE90450CDE90246CDE900A86946A4
:102320001548FEF78DFF4020CDE90008CDE90246B3
:10233000694604950D48FEF783FF002201214720DE
:10234000FFF706F9472083E70010014044380240B8
:102350000004024000000240886402401402002091
:1023600000440040000C02400048004000080240C9
:102370002860024000140140001802407047704776
:10238000084800218161416101618163C163C162CB
:1023900001634163016441648164C16440F6B83102
:1023A00041627047940300200C4A10B50100106888
:1023B00004D001290DD0082902D10CE000F01EFB49
:1023C000121D92EC030A00F0BFFDBDE8104000F0C2
:1023D00005BB4042F2E70020F0E7000008000020C3
:1023E000FEE700000F4810B50D490160052141606E
:1023F00000214FF440328160C0E9031212014261B2
:102400000176012242768276C17601774177FEF726
:10241000FAFB002803D0BDE81040FEF73AB910BD22
:10242000006400406C0000200F4810B50D490160A9
:102430000E21416000214FF440328160C0E9031257
:10244000120142610176012242768176C1760177DE
:102450004177FEF7D8FB002803D0BDE81040FEF717
:1024600018B910BD00680040940000201D4808B550
:10247000016841F400110160016801F4001100914C
:10248000016841F4800101600068002200F48000CE
:10249000009011460C20FFF75BF80C20FFF74AF87C
:1024A000002211463A20FFF753F83A20FFF742F88E
:1024B000002211463B20FFF74BF83B20FFF73AF88C
:1024C000002211464420FFF743F84420FFF732F87A
:1024D000002211464620FFF73BF8BDE808404620A1
:1024E000FFF728B83038024000B587B0142168469D
:1024F000FDF743FF1B480021026842F00202026020
:10250000026802F002020592026842F001020260D3
:10251000026802F001020592026842F008020260BD
:10252000026802F008020592026842F004020260AA
:10253000026802F004020592026842F08002026022
:10254000006800F080000590032000900220CDE993
:1025500001010120CDE9031069460348FEF770FE32
:1025600007B000BD30380240000002401CB5002416
:102570000E4800940C490194016042F22731C0E9F1
:10258000011409218461C160FFF74CFB08B1FEF71B
:1025900080F80094694605480194FFF7FBFA00288B
:1025A00001D0FEF776F81CBD00100040BC000020F2
:1025B0000C4810B50A4901600B4941600021816057
:1025C0000C22C160C0E904128161C161FFF764FDA2
:1025D000002803D0BDE81040FEF75BB810BD000036
:1025E0000010014004010020A08601000C4810B535
:1025F0000A4901600B494160002181600C22C160E1
:10260000C0E904128161C161FFF746FD002803D0D3
:10261000BDE81040FEF73DB810BD0000004400408A
:1026200048010020A08601000C4810B50A4901604D
:102630000B494160002181600C22C160C0E9041295
:102640008161C161FFF728FD002803D0BDE810407B
:10265000FEF71FB810BD0000004800408C010020AC
:10266000A0860100FEE700001F49002001F1900252
:10267000086110618861906148615061886390636E
:10268000C863D063C862D062086310634863506354
:10269000086410644864506488649064C86440F6B8
:1026A000B833D0644B6201F59071536201F190022E
:1026B000086110618861906148615061886390632E
:1026C000C863D063C862D062086310634863506314
:1026D000086410644864506488649064C864D0647A
:1026E0004B6253627047000044050020184A10B541
:1026F000811E1068072910D2DFE801F004080F0FCF
:10270000181E240000F0B8F9106804E0404200F000
:10271000B3F910680EE000F07BF9083292EC030A7E
:1027200000F018FCBDE8104000F07AB9506800F0E5
:10273000A3F950684042EEE75068404200F09CF92F
:102740005068E8E7002000F097F90020E3E7000078
:102750002C00002010B5154A001F05280CD2DFE818
:1027600000F00305141A2000506810E05068404241
:1027700012E000BF00F088F9083292EC030A00F082
:1027800005FCBDE8104000F04BB95068404200F035
:1027900083F95068EEE7506800F07EF950684042D7
:1027A000E8E7002000F078F90020E3E72C000020A3
:1027B000FEE77047002801DC404200B2704700008D
:1027C00070B5194CB4F90000FFF7F4FF4FF425750C
:1027D000A84217DCB4F90200FFF7ECFFA84211DCB5
:1027E000B4F90400FFF7E6FFA8420BDCB4F90600D9
:1027F000FFF7E0FFA84205DCA07A18B1E07A08B143
:10280000002070BD002020806080A080E0802081BA
:102810000221A172E172A081E0812082A074E074A3
:10282000A082012070BD00003403002030B5144B9D
:102830001C68656945F0400565611B68DC6844F00B
:102840001004DC600F4B1C68256825F0010525602D
:102850001C682568ED07F7D11D680B4CAC601C683F
:10286000E06018680161186842601868016841F406
:10287000802101601868016841F00101016030BDEC
:1028800004010020140200200410014038B51B4848
:102890000168CA6822F40052CA60194A11680B68BC
:1028A00023F001030B60136824215960006801685C
:1028B00041680091134C13684FF40011A34202D9F0
:1028C000104B4C3B04E0104CA34203D90D4B503B42
:1028D000196008E00C4D0C4C603DB83CAB4201D98E
:1028E000E16000E0A160C16841F40051C16010687E
:1028F000016841F00101016038BD000004010020C1
:102900001402002058640240B860024030B5836E63
:10291000C3604A780C7802EB042212B28266CC784B
:102920008D7804EB052424B2C4634C790D7904EB53
:10293000052424B2446144683CB94C78097804EB1E
:10294000012109B2016001214160D31A0169B3F587
:10295000805F01DD491E03E013F5805F01DA491C49
:10296000016102EB4131C0F8801030BD0548807A2A
:10297000012803D0022803D100F0B8BB00F07EBBD1
:102980007047000034030020704700001CB50A495E
:1029900001F19002C86C8861D16C9161020A8DF8D6
:1029A00000208DF80100080A8DF802008DF8031050
:1029B0006846FDF77DFD1CBD24040020064A00EB9F
:1029C000400101EB001191636FF01201484302F1E5
:1029D0009001886370470000240400201CB506495C
:1029E000C86C8861010A8DF804108DF805006846EE
:1029F000FDF77AFD1CBD00009403002000EB4001B0
:102A000001EB001001498863704700009403002027
:102A1000024900EBC000800088637047D4050020A5
:102A20001CB5134901F19002C86C8861D16C9161A9
:102A3000020A8DF800208DF80100080A8DF80200C6
:102A40000C488DF8031000F19002C16C8161D06CCC
:102A500090610A0A8DF804208DF80510010A8DF89E
:102A600006108DF807006846FDF75AFD1CBD0000F2
:102A70004405002064060020024900EBC0008000ED
:102A80008863704744050020024900EBC0008000C5
:102A900088637047F4060020024900EBC000800004
:102AA000886370476406002010B5FEF7E9FC00203B
:102AB000FFF77AFCFFF75AFFBDE810400820FDF74A
:102AC0000DBE000030B593B030216846FDF755FCCF
:102AD00014210CA8FDF751FC20480025016841F0A5
:102AE00080510160006800F0805011901C4801681E
:102AF00041F4404101600068022400F4404011901C
:102B000001200090000401908001CDE906400620DC
:102B10000890B420CDE9090404200B906846FEF724
:102B20006DFE08B172B6FEE7FEF744FD08B172B65D
:102B3000FEE70CA90F2081E831004FF4A0500F9060
:102B40004FF48050109005210CA8FEF76BFD002873
:102B500001D072B6FEE713B030BD0000403802402D
:102B6000007000400248016841F470010160704744
:102B700088ED00E00148FFF7A2B80000BC0000208B
:102B8000F0B50268254C264D264E274F274B4FF0B7
:102B9000804CA04209D0604507D0A84205D0B04281
:102BA00003D0B84201D0984204D122F0700E4A6896
:102BB00042EA0E02A0421BD0604519D0A84217D0AD
:102BC000B04215D0B84213D0984211D0184DA84247
:102BD0000ED0184DA8420BD0174DA84208D0174D63
:102BE000A84205D0164DA84202D0164DA84203D1E6
:102BF00022F44075CA682A434D6922F080022A43B4
:102C000002608A68C2620A688262A04201D0984269
:102C100001D10969016301214161F0BD000001405A
:102C20000004004000080040000C00400004014087
:102C300000400140004401400048014000180040AD
:102C4000001C00400020004010B5806B0021C185B1
:102C5000C184FFF7ECF810BD01680C3151E8002F7A
:102C600022F4907241E80023002BF5D10168143161
:102C700051E8002F22F0010241E80023002BF5D19A
:102C8000016B012909D101680C3151E8002F22F0B4
:102C9000100241E80023002BF5D1202180F83E10DE
:102CA00000210163704708B590F83E10222901D039
:102CB000022008BD82684FF480539A4201D1016915
:102CC00021B1816A9A421BD04AB10AE00268816A46
:102CD0005268C2F308020A80816A891C08E002690E
:102CE00072B10268526802F07F020A70816A491C60
:102CF0008162C18D491E0904090CC18503D019E008
:102D000002685268F1E70168CA6822F02002CA60CE
:102D10000168CA6822F48072CA6001684A6922F0B8
:102D200001024A61202180F83E10016B012903D085
:102D3000FFF724FB002008BD0021016301680C316E
:102D400051E8002F22F0100241E80023002BF5D1BA
:102D500001680A68D20602D50A6849680091818D27
:102D6000FFF764F8E6E7000070B504460068016903
:102D7000E26821F44051114301612169A068E269D0
:102D800008436169114308432168CA6849F20C632A
:102D90009A430243CA6020684169A26921F44071E4
:102DA0001143416131492068884202D0304988424C
:102DB00002D1FEF7E1FC01E0FEF7CEFCE269002360
:102DC000192164253226B2F5004F626828D0A0FB95
:102DD0000101930F9200FDF759FA0146B0FBF5F09F
:102DE0006FF01802504301EB800006EB0010B0FBBF
:102DF000F5F000F0F002B1FBF5F002EB0012B1FBD0
:102E0000F5F06FF01803584301EB800006EB00105B
:102E1000B0FBF5F000F00F0021681044886070BD31
:102E2000A0FB010192185B41FDF730FA0146B0FBAF
:102E3000F5F00201B1FBF5F06FF01803584301EB18
:102E4000800006EBC000B0FBF5F000F0F80002EBEC
:102E50004002B1FBF5F0584301EB800006EBC000E7
:102E6000B0FBF5F000F00700D6E7000000100140CD
:102E70000014014038B52A4800680168890603D566
:102E800001684068009038BD26490968C906FAD52E
:102E900001684068244A0090106801684FF02403DC
:102EA0000C032249046824F00104046016D4146859
:102EB0006068C0F1240080B20880636011680B680C
:102EC00043F400230B6011680A6842F001020A60B3
:102ED0001228D8D1164901F1160015E0106844688F
:102EE000C4F12404A4B20C8043601248816A21F426
:102EF000002181621068016841F001010160122C1B
:102F0000C1D10B4901F13A0000F040F9FFF758FC3C
:102F10000128B8D1BDE838402420FFF7B7BC000035
:102F200004010020001001401402002004000020D1
:102F300034030020006002400148FEF779BF000022
:102F400048010020FEE70000014800F03BB8000007
:102F50009403002010B50C482DED048BB0EE418A8F
:102F6000F0EE608AB0EE409A00F02CF8B0EE481A0D
:102F7000F0EE680AB0EE490ABDEC048B0248BDE8E9
:102F80001040903000F01EB84405002010B50C48E9
:102F90002DED048BB0EE418AF0EE608AB0EE409ADF
:102FA00000F010F8B0EE481AF0EE680AB0EE490AE8
:102FB000BDEC048B0248BDE81040903000F002B830
:102FC0006406002010B5D0E90E12891A0A46C162C3
:102FD00000D55242142A426B01DC0A4442634FF48A
:102FE000FA739A4202DC5B429A4200DA436301EED2
:102FF000901AF8EEE11A21EE800ABDEEC00A10EE3A
:10300000104A046490ED0D0AB8EEC00A20EE200AC2
:10301000BDEEC00A10EE103A4364026B8A1A00EE4D
:10302000102A0029B8EEC00A20EE010ABDEEC00A3F
:1030300010EE102A8264016300DA4942022901DCA1
:10304000002107E0E1180A44416A8A4202DC494251
:103050008A4201DAC16410BDC26410BD0907090EBD
:10306000002804DB00F1E02080F80014704700F035
:103070000F0000F1E02080F8141D70471A4810B5C9
:10308000B0F90610642901DD022011E06FF063023F
:10309000914201DA03200BE0B0F90410642901DD4C
:1030A000042002E0914207DA0520FFF753FB0620D7
:1030B000BDE81040FFF71ABBB0F90000642804DD3A
:1030C0000720FFF713FB07200AE0904204DA0620EE
:1030D000FFF70CFB062003E00820FFF707FB0820A2
:1030E000BDE81040FFF736BB3403002010B5114C8B
:1030F000E07A012802D10020FFF756F9E07A022891
:1031000002D10120FFF750F9E07A032802D108200C
:10311000FFF74AF9B4F90200642801DD002005E058
:1031200010F1640F01DA012000E00820BDE8104032
:10313000FDF7D4BA34030020FEF7AAF9FFF7C2FC6A
:10314000FFF7D2F9FFF74EF9FFF76EF9FFF78EF9A7
:10315000FFF76AFAFFF70AFAFFF72AFAFFF746FACB
:10316000FFF70EF9FDF798FAFFF77EFAFDF7FAF987
:10317000FDF768F900F002F8FEE70000024924229A
:10318000A1F12400FFF752BB6E030020F0B5002828
:1031900055D0002953D00278437842EA0322C2F383
:1031A0000A020A8043788478DB0843EA4413C3F3B5
:1031B0000A034B808478C578A40944EA850405791C
:1031C00044EA8524C4F30A048C80057946796D08A5
:1031D00045EAC615C5F30A05CD804679C6F3011642
:1031E0008E724679B609CE728679C77946EA072685
:1031F0008E81067A477A46EA0726CE81867AC77A92
:1032000046EA07260E82067B8E74467BCE74867B4A
:10321000C77B46EA07268E82067C407CA2F5806248
:103220000A80A3F580634B80A4F5806446EA002001
:103230008C80A5F58065CD80A0F580600881F0BD0B
:103240004FF04070E1EE100A7047000610160006BD
:103250001016000000000000000001020304060731
:103260000809000000000102030400008C3200087D
:10327000000000206C000000E8010008F83200089F
:103280006C00002014100000040200080000000080
:10329000000000001400000000008040CDCC4C3F36
:1032A000CDCCCC3F14000000F1FFFFFF00009040A8
:1032B0009A99993FCDCCCC3F140000001400000037
:1032C000000000419A99993F0000003F0000000073
:1032D00000000000000000000000000000000000EE
:1032E00000000000000000000100000010000000CD
:0832F000000000000024F400BE
:04000005080001AD41
:00000001FF
