:020000040800F2
:10000000A01300204D02000815390008C92F000870
:10001000BD370008C10600081546000800000000B2
:10002000000000000000000000000000993C0008F3
:10003000B50A00080000000017390008A93D0008B3
:1000400067020008670200086702000867020008EC
:1000500067020008670200086702000867020008DC
:10006000670200086702000867020008BD0900086F
:10007000C909000867020008670200086702000853
:1000800067020008D5090008670200086702000837
:10009000C50600086702000867020008670200083A
:1000A000670200086702000867020008670200088C
:1000B00067020008670200085D3E0008670200084A
:1000C000670200086702000867020008670200086C
:1000D000670200082D450008F1450008FD450008AD
:1000E000670200086702000867020008670200084C
:1000F000670200086702000867020008670200083C
:100100006702000867020008693E000867020008ED
:100110006702000867020008753E000867020008D1
:1001200067020008E109000867020008670200088A
:1001300067020008670200086702000867020008FB
:1001400079070008670200086702000867020008D4
:10015000ED090008F9090008050A00080946000829
:1001600067020008670200086702000867020008CB
:10017000670200086702000867020008000000002C
:10018000670200086702000867020008F5410008DE
:10019000670200086702000867020008670200089B
:1001A00000000000000000006702000800F002F8F4
:1001B00000F03CF80AA090E8000C82448344AAF1C5
:1001C0000107DA4501D100F031F8AFF2090EBAE8C3
:1001D0000F0013F0010F18BFFB1A43F0010318477B
:1001E000C04F0000E04F0000103A24BF78C878C12B
:1001F000FAD8520724BF30C830C144BF04680C602D
:10020000704700000023002400250026103A28BF74
:1002100078C1FBD8520728BF30C148BF0B60704778
:100220001FB504F0A3FF1FBD10B510BD00F0D5F839
:100230001146FFF7F5FF04F035FC00F0F3F803B4C6
:10024000FFF7F2FF03BC00F0F7F800000948804711
:1002500009480047FEE7FEE7FEE7FEE7FEE7FEE7A8
:10026000FEE7FEE7FEE7FEE704480549054A064BC0
:10027000704700004D3E0008AD010008A00D0020B1
:10028000A0130020A00F0020A00F002053EA020CB2
:1002900000F069802DE9F04B4FF00006002B1FBFE6
:1002A000B3FA83F503FA05F424FA05F65E4012BFAB
:1002B0001643B2FA82F502FA05F4C5F120051EBF15
:1002C00022FA05FC44EA0C04203556EA044C4FEAB5
:1002D000144418BF641C4FF000084FF0000990420E
:1002E00071EB030C39D3002919BFB1FA81F701FA78
:1002F00007F6B0FA80F700FA07F6C7F120071EBF2D
:1003000020FA07FC46EA0C062037B6FBF4FCA7EB04
:100310000507103F07F01F0BCBF120060CFA0BFB73
:100320002CFA06F644BFB3460026202FA4BF5E4633
:100330004FF0000B5BEA060C08BF4FF0010B19EB06
:100340000B09ABFB027C48EB0608C01B06FB02CC8A
:100350000BFB03CC71EB0C01C1E70B460246414697
:100360004846BDE8F08B13B54FF000004FF0000198
:10037000AFF30080BDE81C4070474FF0000200B5AD
:10038000134694469646203922BFA0E80C50A0E8B8
:100390000C50B1F12001BFF4F7AF090728BFA0E866
:1003A0000C5048BF0CC05DF804EB890028BF40F832
:1003B000042B08BF704748BF20F8022B11F0804F74
:1003C00018BF00F8012B7047704770477047000056
:1003D000004870473C0D002070477546FFF7F8FF56
:1003E000AE4605006946534620F00700854618B022
:1003F00020B5FFF739FFBDE820404FF000064FF071
:1004000000074FF000084FF0000B21F00701AC4649
:10041000ACE8C009ACE8C009ACE8C009ACE8C00968
:100420008D46704710B50446AFF300802046BDE806
:100430001040FFF704BF000001491820ABBEFEE7E3
:100440002600020070B5174C0121204601F0A2FAE7
:10045000154E012823D00121204601F09BFA0028E7
:100460001FD101F0A1FA114D286001F09DFA296811
:10047000401AB0F57A7F14D30121204601F08AFAA0
:1004800001280CD00121204601F084FA002808D16F
:1004900000223046BDE87040102101F080BA0122F0
:1004A000F7E770BD00140240001C0240EC00002081
:1004B00010B5224C224894EC030A203C00F046F888
:1004C00020341F4894EC030A9038203C00F03EF89A
:1004D0001B48C06F03F0FEFB19489038C06F03F053
:1004E000F9FB0121174801F055FA012813D01648ED
:1004F000807A01280FD02C34114894EC030A2C3C4C
:1005000004F0C8F80E4890382C3494EC030ABDE887
:10051000104004F0BFB894ED071AD4ED050A94ED2D
:10052000030A074804F0B6F8054894ED071AD4ED1D
:10053000060A94ED040A9038E9E70000480000201C
:100540009C070020001402401C060020D0F88020E8
:10055000C16E891A00EE901AF8EEE00A20EE800AC9
:10056000BDEEC00A10EE103A0367C165026E8A1A2A
:1005700000EE102AB8EEC00A20EE010ABDEEC00A55
:1005800010EE102A82670166816A1A448A4202DCF0
:1005900049428A4201DAC1677047C267704700006A
:1005A00070EE201A70EE600ADFED2B2A2B49B0EEB8
:1005B000612A41EE221AB0EE600A41EE620AB0EE04
:1005C000403A01F1100001EE223AC1ED001A01EEAD
:1005D000622A9FED230AC0ED000A00F1100200F12B
:1005E000200382ED003A83ED002A21EE801A60EEAE
:1005F000800A63EE001A81ED011A22EE002AB3EEA2
:10060000030AC0ED010A21EE001A60EE800AC2ED75
:10061000011AA0F51470BDEEC11AFDEEE00A83EDDB
:10062000012A80ED0E1A10EE900A61EE800A22EE89
:10063000000AA1F5D8714042FDEEE00A886301F19D
:100640009000BDEEC00AC0ED0E0A01F5907110EEEB
:10065000100A40428863704700007042E00C00209E
:100660004276F43F10B58AB000200121009001903D
:1006700002900390CDE905100E240994089107918A
:10068000049069460C4800F01DFB69460B48059430
:1006900000F018FB0446084800F062FE074800F02E
:1006A0005FFE0221044800F097FA0221034800F09F
:1006B00093FA0AB0204610BD000100202801002056
:1006C000FEE70000014800F0F8BB00000001002038
:1006D00000B589B040F2FF1100910021082202917B
:1006E000CDE903128DF8141006AA435C5354491C3B
:1006F00089B20829F9D300236946024800F07EFA3E
:1007000009B000BD0001002000B589B040F2FF1122
:100710000091002108220291CDE903128DF81410F6
:1007200006AA435C5354491C89B20829F9D3002313
:100730006946024800F062FA09B000BD00010020DD
:1007400000B589B04FF40071009100210822029198
:10075000CDE903128DF8141006AA435C5354491CCA
:1007600089B20829F9D300236946024800F046FA05
:1007700009B000BD00010020014800F09EBB000050
:10078000280100202DE9F0472DED028BFFF708FF2F
:100790002E4CA4F19005A4F59076A4F5D877A36B20
:1007A000AA6BB16BB86B04F039F843F6E8318842B4
:1007B0003FDD04F0C6FB8946804649EC180BB86B58
:1007C00043F6E831484304F0BCFB53EC182B04F02B
:1007D00031FA04F087FBB863B06B43F6E83149ECBB
:1007E000188B484304F0ADFB53EC182B04F022FAAD
:1007F00004F078FBB063A86B43F6E83149EC188B42
:10080000484304F09EFB53EC182B04F013FA04F059
:1008100069FBA863A06B43F6E83149EC188B4843A9
:1008200004F08FFB53EC182B04F004FA04F05AFB8D
:10083000A0630748B96B0160B16B4160A96B81602F
:10084000A16BC160BDEC028BBDE8F087500C0020AD
:1008500098000020244910B500200863C86288620F
:1008600048620862C8618861486108614863C8607D
:100870008860486008601D49A1F190020861A1F5F7
:1008800090731061A1F5D87418612061886390633A
:100890009863A063C863D063D863E06388619061A4
:1008A0009861A0614861506158616061C862D0621E
:1008B000D862E06208631063186320634863506382
:1008C000586360630864106418642064486450646A
:1008D00058646064886490649864A064C864D06458
:1008E000D864E06410BD000098000020500C002087
:1008F0002DE9F0412E48304C01782E48012901D0D5
:1009000099B11CE0D4E9061211446161D4E90812DE
:1009100011444942216180894FF45C7110FB01F060
:100920004FF4257190FBF1F008E0B0F9001021615F
:10093000B0F902106161B0F908004042606360697B
:1009400040F294654FF4B6764FF480672B463246FA
:10095000394600F5806003F0F9FEBDEEC00A2B4673
:10096000324684ED0A0A2069394600F5806003F0BA
:10097000EDFEBDEEC00A6B00720084ED0B0A606BE9
:100980007900400000F5006003F014FFBDEEC00ADE
:1009900084ED0C0AB8EEC01A94ED0B0AF8EEC00A0A
:1009A00094ED0A0ABDE8F041B8EEC00AFFF7EABECE
:1009B000080000201C06002098000020014800F0DC
:1009C0005DBD0000DC030020014800F057BD0000C1
:1009D000FC040020014800F051BD00007C03002011
:1009E000014800F04BBD00005C050020014800F00C
:1009F00045BD00003C040020014800F03FBD000060
:100A0000BC050020014800F039BD00009C04002016
:100A100001681823CAB2103AB2FBF3F2054B6FF328
:100A20000901032A9B5CC36500D9091D816508463D
:100A3000704700008051000810B5014600208B6906
:100A40008A6A4FF0C07453B1B3F5005F15D072B12C
:100A5000012A0CD0022A0AD0032A09D104E01AB1D3
:100A6000012A06D0022A03D1C96AC90100D5012092
:100A700010BDC96AA142FAD010BD002AF7D0012AE0
:100A8000F2D0022AF3D0032AF3D010BD30B50468A7
:100A9000256825F480252560046863608368402B01
:100AA000036803D099600068C26030BD9A60006836
:100AB000C16030BD704772B6FEE700001E490820D5
:100AC00041F2707308701D49002001F190028861A5
:100AD000486108618863C863C86208634863086442
:100AE000486488644B62C86490615061106190638F
:100AF000D063D0621063506310645064906453629A
:100B0000D064C865086648668866C866086748672E
:100B1000886745F6D813C8678B62C1F88000D06536
:100B2000106650669066D066106750679067D06711
:100B30009362C2F880007047280000200C07002054
:100B400070B5234D214A234C05F1900620B10128B0
:100B500016D0082822D132E00121104600F01AFFF9
:100B60000128D5F8800005D028306060D6F88000D4
:100B7000283012E0BE306060D6F88000BE300CE055
:100B80000121104600F006FF0128D5F8800010D0A2
:100B900028386060D6F880002838A0606068E86671
:100BA000A0684042F066FFF783FCBDE8704003F0A8
:100BB00077B814386060D6F880001438EDE7D5F8BF
:100BC00080006060D6F88000E7E700000014024073
:100BD0000C0700202800002090F82020012A07D0D0
:100BE000022A05D0416A41F4802141620120704708
:100BF000006842690A43426100207047F0B590F8EE
:100C000020500468A468012D05D0022D03D0416A4C
:100C100041F4802153E014F0406F01D1E5004BD541
:100C2000C4F30164022C03D9416A41F4000146E097
:100C30000125A5401D608D684FF4C0739DB1CE683D
:100C400035434E6845EAC605066803EB0417F551BF
:100C50004FF4C275076805EB04150E697E51097DD6
:100C6000012905D009E00E88CD6845EA4655EBE735
:100C700001684E5946F480764E511179D2F80550EC
:100C80004FF4C67641EA0525016806EB04168D513E
:100C90001178D2F801204FF4C47541EA02210268AC
:100CA00005EB04155151006803EB0411425842F062
:100CB000010242500020F0BD416A41F4001141623E
:100CC0000120F0BD10B590F82020012A07D0022A9B
:100CD00005D0416A41F480214162012010BD3B48AA
:100CE000D0F8002242F00102C0F80022D0F8002221
:100CF00022F47C52C0F80022D0F800224B6A42EA6B
:100D00000322C0F800220A7D02F01F0301229A404C
:100D1000D0F81C329343C0F81C32CB69B3B9D0F879
:100D20000C329343C0F80C328C894B6864F31F4338
:100D30004C6900EBC404C4F840320C890B6864F3BE
:100D40001F434C6900EBC404C4F84432CB69012B47
:100D500016D1D0F80C321343C0F80C320C884B6813
:100D600064F31F434C6900EBC404C4F840320C899F
:100D7000CB6864F31F434C6900EBC404C4F84432ED
:100D80008B69002BD0F804320ED01343C0F8043224
:100D90000B69002BD0F8143208D01343C0F814327A
:100DA000096A012904D008E09343EFE79343F5E78C
:100DB000D0F81C121143C0F81C12D0F8001221F018
:100DC0000101C0F80012002010BD000000640040C6
:100DD000704730B590F82040012C05D0022C03D08C
:100DE000416A41F480215DE00468002955D02469FE
:100DF000A40754D04FF4D874056804EB01142D599E
:100E000015F00405956005682D594ED0ED08556024
:100E100005682C5904F00204D4604FF4DA740568B4
:100E200004EB01142D5905F00F05156105682D59C6
:100E3000C5F30725956105682C59240C54614FF4BE
:100E4000DC72046802EB0112A4581C700468A458F8
:100E5000240A5C700468A458240C9C700468A2588E
:100E6000120EDA704FF4DE72046802EB0112A4581D
:100E70001C710468A458240A5C710468A458240CEA
:100E80009C710468A258120EDA71006881B1016980
:100E900041F020010161002030BDE468A8E7416A0B
:100EA00041F400114162012030BD6D0D1560AFE7C6
:100EB000C16841F02001C160EDE72DE9F05F054612
:100EC000006800244669D0F804908768D0F80CB018
:100ED000D0F810A0D0F81880F10748D0F90714D046
:100EE00001218160B80703D5284600F066FA0CE0BE
:100EF000780702D54FF4006407E0380702D54FF4B5
:100F0000805402E0284600F057FAF80516D5296803
:100F10004FF480708860B80503D5284600F04FFA7A
:100F20000CE0780502D544F4005407E0380502D5FA
:100F300044F4804402E0284600F040FAF80316D555
:100F400029684FF480308860B80303D5284600F044
:100F500038FA0CE0780302D544F4004407E0380383
:100F600002D544F4803402E0284600F029FA300724
:100F700007D55FEACB6004D52968102044F40074DB
:100F8000C86070074FF0080707D55FEA0B7004D5FB
:100F90002868C760284600F099F9B00706D5286888
:100FA000C068800702D0284600F092F9700607D585
:100FB0005FEACA6004D52968102044F4806408619F
:100FC000B00607D55FEA0A7004D52868076128468D
:100FD00000F0C2F9F00606D528680069800702D043
:100FE000284600F0BAF9B00308D55FEAC96005D514
:100FF000296810204860284600F0B0F9F00307D5B2
:101000005FEA097004D528684760284600F0DAF9DD
:10101000300446D55FEA497040D5F00504D55FEA53
:10102000C87001D044F00104B00504D55FEA8870AF
:1010300001D544F00204700504D55FEA487001D57B
:1010400044F00404300529D518F0700F26D008F0BC
:101050007000402815D006DC102809D020280AD0BE
:10106000302816D10AE050280ED0602811D10EE0A9
:1010700044F008040DE044F010040AE044F02004B9
:1010800007E044F0400404E044F0800401E044F44C
:1010900080742868816921F07001816129680420C9
:1010A0004860002C05D0686A204368622846FFF734
:1010B0008FFEBDE8F09F70B5040003D094F82000C7
:1010C00010B104E0012070BD204600F081F82068D6
:1010D000016841F00101016000F066FC054605264B
:1010E00004E000F061FC401B0A2811D82068406829
:1010F000C007F6D02068016821F00201016000F00D
:1011000053FC05460BE000F04FFC401B0A2806D9B3
:10111000606A40F40030606284F82060D2E72068A2
:1011200040688007EFD4207E0128206801683DD008
:1011300021F080010160607E01282068016838D0BC
:1011400021F040010160A07E01282068016833D0B1
:1011500021F020010160E07E0128206801682ED086
:1011600041F010010160207F01282068016829D02A
:1011700021F008010160607F01282068016824D007
:1011800021F004010160D4E902010843D4E904120A
:10119000114308436168491E08432168C861002063
:1011A0006062012084F82000002070BD41F08001C1
:1011B000C0E741F04001C5E741F02001CAE721F056
:1011C0001001CFE741F00801D4E741F00401D9E76D
:1011D000F0B587B0044614216846FFF7CEF8364BC9
:1011E0003648DFF8D0E01968D4F800C0334A032548
:1011F0000226092710300024491CF44522D1196029
:10120000012907D1016841F000710160006800F018
:1012100000700590106840F0080010601068CDE97B
:10122000005600F00800CDE9047069462448CDE975
:10123000024500F095FA00221146142000F022FC2D
:10124000142032E0DFF87CE0F44530D1D0F800C063
:101250004CF0806CC0F800C0D0F800C001290CF040
:10126000806CCDF814C0196007D1016841F000719D
:101270000160006800F000700590106840F0020006
:101280001060106802AB00F0020005906020CDE90C
:10129000000683E8B00069460B4800F061FA0022BE
:1012A0001146402000F0EEFB402000F0DDFB07B0CF
:1012B000F0BD000000640040000000203038024013
:1012C000000C02400068004000040240704700002B
:1012D00010B50446164B174A0021FFF77AFD164950
:1012E00014488C4222D10068A0F2012007281DD2A8
:1012F000DFE800F004070A0D101316000C490F4830
:1013000010E00B490E480DE009490E480AE0084973
:101310000D4807E006490D4804E005490C4801E086
:1013200003490C48BDE8104002F06EBC10BD00003F
:10133000D0000020200D0020000100202C080020FB
:10134000BC0800204C090020DC0900200C0700200C
:101350009C0700207C060020704770477047000003
:1013600070B5044690F82000012804D0606A40F46B
:101370000020606218E0022084F8200020680168E4
:1013800021F00101016000F00FFB05460EE000BFF7
:1013900000F00AFB401B0A2808D9606A40F40030BC
:1013A0006062052084F82000012070BD206840683C
:1013B000C007EDD1606270BD7047704770477047DD
:1013C0007047704770472DE9F0410446876D00F083
:1013D000EBFA064694F835000025022806D0802056
:1013E000606584F834500120BDE8F0812068016810
:1013F00021F0160101602068416921F080014161FE
:10140000206C08B9A06C20B12068016821F00801A7
:1014100001602068016821F0010101600CE000F02A
:10142000C3FA801B052807D920206065032084F8B3
:10143000350084F83450D7E720680068C007EED143
:1014400094F85C103F208840B860012084F8350093
:1014500084F834500020C7E790F83510022903D0F3
:101460008021416501207047052180F83510006812
:10147000016821F001010160002070472DE9F84367
:1014800004464FF00009CDF8009063484FF4165120
:10149000A56D0068B0FBF1F72E6894F85C10082089
:1014A00000FA01F131420FD021680A6852070BD5CA
:1014B0000A6822F004020A6094F85C108840A86070
:1014C000606D40F00100606594F85C104FF0010819
:1014D00008FA01F0304208D021684969090604D5AC
:1014E000A860606D40F00200606594F85C10042014
:1014F0008840304208D021680968890704D5A8606F
:10150000606D40F00400606594F85C101020884025
:10151000304218D021680968090714D5A8602068EE
:101520000168490304D50068000308D5A16C07E0F1
:101530000168C90503D4016821F008010160216C2C
:1015400009B12046884794F85C102020884030423A
:1015500031D021680968C9062DD5A86094F83500F6
:1015600005282068016806D0490347D500680003B4
:101570001DD4616C1CE021F01601016020684169F6
:1015800021F080014161206C08B9A06C20B1206875
:10159000016821F00801016094F85C103F20884048
:1015A000A86084F8358084F83490216D1FE0E16BE9
:1015B00009B120468847606D00282BD0606DC007B8
:1015C00014D0052084F835002068016821F001015D
:1015D00001600098401C0090B84203D82068006861
:1015E000C007F6D184F8358084F83490E16C002986
:1015F00010D001B02046BDE8F04308470168C90596
:10160000D5D4016821F01001016084F8358084F898
:101610003490CCE7BDE8F883FC0000202DE9F041D0
:10162000044600F0C1F906465CB1022084F835009A
:10163000002584F834502068016821F00101016020
:101640000DE00120BDE8F08100F0AEF9801B052817
:1016500005D920206065032084F83500F2E7206872
:101660000068C007F0D12268116820480140D4E921
:1016700001031843D4E9033633431843636918431D
:10168000A3691843E3691843236A18430843616A4E
:10169000042903D1D4E90B131943084310602068CF
:1016A0004069666A20F0070130460E43012704288E
:1016B0000CD1A06A0643E06A40B12046FFF7BCF9AE
:1016C00020B14020606584F83570BAE72068466133
:1016D0002046FFF79DF994F85C203F2191408160FE
:1016E000656584F835700020ACE700003F8010F09D
:1016F0002DE9F0410446866D90F83400002501285C
:101700000DD0012084F8340094F835700020012FAA
:1017100007D084F8340002252846BDE8F081022075
:10172000FBE7022784F8357060652046FFF7AEF9C5
:1017300094F85C103F208840B0602068016841F058
:1017400016010160206C20B12068016841F0080199
:1017500001602068016841F001010160DCE70000E0
:101760002DE9F84FDFF8F8A10022012403254FF0FE
:101770000F090AF1040BAAF1040E00BF0B6804FA6A
:1017800002F63340B34270D10F7907F00307012FFF
:1017900001D0022F16D187684FEA420805FA08FCEB
:1017A00027EA0C07D1F80CC00CFA08FC4CEA070C2D
:1017B000C0F808C04768B7430E79C6F300169640D4
:1017C0003E4346600E79F643B6070AD0C7684FEA33
:1017D000420C05FA0CF6B7438E6806FA0CF63E4347
:1017E000C6600E7906F00306022E10D1D60800EB73
:1017F0008608D8F8206057074FEAD76C09FA0CF72B
:10180000BE430F6907FA0CF73743C8F82070066823
:101810004FEA420C05FA0CF7BE430F7907F00307B5
:1018200007FA0CF7374307604E6816F4403F1CD0A8
:101830004C4E376847F480473760366822F003071C
:1018400006F480460096484E07EB060CDCF8086864
:1018500097073F0F09FA07F826EA0806DFF80C8118
:10186000404503D14FF0000841E072E0DFF800810D
:10187000404502D14FF0010839E0DFF8F8804045DB
:1018800002D14FF0020832E0DFF8EC80404502D18F
:101890004FF003082BE0DFF8E480404502D14FF021
:1018A000040824E0DFF8D880404502D14FF0050855
:1018B0001DE0DFF8D080404502D14FF0060816E069
:1018C000DFF8C480404502D14FF007080FE0DFF891
:1018D000BC80404502D14FF0080808E0DFF8B08036
:1018E000404502D14FF0090801E04FF00A0808FA1C
:1018F00007F848EA0608CCF80888DAF80060574686
:10190000D1F804C09E435FEACC2C00D51E433E6054
:10191000DBF800605F46D1F804C09E435FEA8C2C80
:1019200000D51E433E60DEF800607746D1F804C063
:101930009E435FEA8C3C00D51E433E60084F083F43
:101940003E68D1F804C09E435FEACC3C00D51E43FC
:101950003E60521C102AFFF411AFBDE8F88F000062
:10196000083C014044380240003001400000024081
:101970000004024000080240000C02400010024037
:101980000014024000180240001C024000200240E7
:10199000002402400069084000D0012070470AB1CD
:1019A000816170470904FBE70148806870470000C7
:1019B000F00000200248816802781144816070477D
:1019C000F00000200B4810B5016841F4007101607F
:1019D000016841F480610160016841F48071016037
:1019E000032000F06FF80F2000F006F800F024F854
:1019F000002010BD003C024070B50D4D04464FF470
:101A00007A712878B1FBF0F00A490968B1FBF0F06F
:101A100000F044FB48B9102C07D200222146501E8A
:101A200000F030F800206C6070BD012070BD000037
:101A3000F0000020FC0000200A4808B5016841F4CD
:101A400080410160006800F4804000900548001F5C
:101A5000016841F080510160006800F08050009002
:101A600008BD000044380240002809DB00F01F02D6
:101A7000012191404009800000F1E020C0F80011F0
:101A800070470000F0B40E4B1B680C46C3F30223F2
:101A9000C3F10705042D00D90425191D072901D21A
:101AA000002300E0DB1E012606FA05F1491E214055
:101AB00099409E40761E16403143F0BC02F036BE7F
:101AC0000CED00E0064900F0070208684FF6FF033E
:101AD000184040EA0220034A1043086070470000A3
:101AE0000CED00E00000FA052DE9F8431748016805
:101AF00041F0805101600068154F00F080500126D0
:101B000000903E64FFF750FF05464FF47A78114C81
:101B100005E000BFFFF748FF401B40450DD8606857
:101B2000C003F7D57E64FFF73FFF0546464607E052
:101B3000FFF73AFF401BB04202D90320BDE8F8830B
:101B400060688003F4D50020F8E7000040380240C8
:101B500000000E42007000402DE9F0470E460500DF
:101B600065D0DFF81481D8F80000F7B200F00F005C
:101B7000B04207D288F80070D8F8000000F00F00DB
:101B8000B04254D128683D4C810712D5400703D597
:101B9000206840F4E05020602878000703D52068D2
:101BA00040F4604020602068A96820F0F0000843FD
:101BB00020602878C0072DD030496868083901288E
:101BC00012D0022813D0032811D0096889070029F0
:101BD0002DDA216821F0030101432160FFF7E4FEC3
:101BE000814641F2883A0EE009688903EFE7096807
:101BF0008901ECE7FFF7D8FEA0EB0901514502D9B6
:101C00000320BDE8F0872068696800F00C00B0EBA5
:101C1000810FEFD1D8F80010404601F00F01B1421A
:101C200007D90770006800F00F00B04201D0012012
:101C3000E7E72878400705D52068E96820F4E050F8
:101C4000084320602878000706D52068296920F419
:101C5000604040EAC100206000F038F82168084A7E
:101C6000C1F30311515CC84006490860064800688A
:101C7000FFF7C2FE0020C4E7003C024008380240E3
:101C800088510008FC000020F400002004480549A9
:101C900000680968044AC1F38221515CC84070475A
:101CA000FC0000200838024098510008044805490B
:101CB00000680968044AC1F34231515CC84070476A
:101CC000FC0000200838024098510008154810B563
:101CD000006810F00C02144813D01449042A0FD0E5
:101CE000082A0ED10F4C241F2268236802F03F02FD
:101CF0005B0207D52068C0F38810A0FB010106E055
:101D0000084610BD2168C1F38811A1FB0001002322
:101D1000FEF7BCFA2168C1F30141491C4900B0FB40
:101D2000F1F010BD083802400024F400001BB70099
:101D30002DE9F84F04006ED02078DFF84C93C007EF
:101D4000A9F104054AD009F104000168C1F3810139
:101D5000012908D00068C0F3810002280AD1D9F80F
:101D60000000400206D52868800337D56068002847
:101D7000E1D033E06068B0F5803F10D0B0F5A02F1F
:101D8000286810D020F480302860286820F4802053
:101D900028606068A8B1FFF707FE06460DE02868D6
:101DA00040F48030F4E740F480202860F7E700BF7B
:101DB000FFF7FAFD801B642873D828688003F7D5E5
:101DC0000CE0FFF7F1FD064605E000BFFFF7ECFD74
:101DD000801B6428F0D828688003F7D42078DFF8C7
:101DE000AC8280074FF0000A3ED5A748001D01686D
:101DF00011F00C0F08D00068C0F3810002280BD14D
:101E0000D9F80000400207D42868800716D5E0689A
:101E1000012800D112E033E1E068B8B10120C8F830
:101E20000000FFF7C1FD064605E000BFFFF7BCFD5F
:101E3000801B0228C0D828688007F7D52868216948
:101E400020F0F80040EAC10028600DE0C8F800A0CA
:101E5000FFF7AAFD064604E0FFF7A6FD801B022857
:101E60001FD828688007F7D42078000722D5864F2E
:101E700087486169703771B101210160FFF794FDF6
:101E8000064604E0FFF790FD801B022809D8386859
:101E90008007F7D50EE0C0F800A0FFF785FD0646E5
:101EA00005E082E0FFF780FD801B02287DD83868BE
:101EB0008007F7D42078400768D5DFF8CCB1002739
:101EC0000BF13C0BDBF80000C0000BD4DBF800107A
:101ED00041F08051CBF80010DBF80000012700F042
:101EE000805000906B4E3068C00510D4306840F4CC
:101EF00080703060FFF758FD009005E0FFF754FD5B
:101F00000099401A022850D83068C005F6D55E4EB8
:101F1000A0686C3601280FD00528306810D020F05A
:101F200001003060306820F004003060A068B8B173
:101F3000FFF73AFD00900FE0306840F00100F4E751
:101F400040F004003060F7E7FFF72EFD0099411ADA
:101F500041F28830814266D830688007F4D50EE0BF
:101F6000FFF722FD009007E0FFF71EFD0099411AE0
:101F700041F28830814256D830688007F4D42FB1BE
:101F8000DBF8001021F08051CBF80010A069C8B335
:101F90003D49091D0968C1F3810102294AD002287F
:101FA000504607D0C8F8600000E03CE0FFF7FCFCBA
:101FB00004463BE04746C8F86000FFF7F5FC0646DC
:101FC00005E000BFFFF7F0FC801B02282BD8286833
:101FD0008001F7D4D4E907010843A16A2E4A4908D1
:101FE00002EB0141626A41EA8211084394F82C1025
:101FF00040EA0161C9F8001001203866FFF7D4FCFF
:10200000044606E03EE000BFFFF7CEFC001B0228BE
:1020100009D828688001F7D534E000BFFFF7C4FC79
:10202000001B022802D90320BDE8F88F2868800130
:10203000F4D427E00128F7D0D9F80000E26900F4D1
:10204000800191421CD1226A00F03F01914217D1D8
:1020500047F6C071626A0140B1EB821F10D1A26ADB
:102060004FF0FF3300F4403103EB5202B1EB024F6B
:1020700006D194F82C1000F07060B0EB016F01D025
:102080000120D1E70020CFE704380240000047429A
:10209000800E4742007000400000FFFF10B5401E58
:1020A000B0F1807F01D3012010BD4FF0E0246061CA
:1020B0000F21601702F03AFB0020A0610720206189
:1020C000002010BD7047704770B590F83C20012A81
:1020D00032D0012480F83C40022280F83D20036881
:1020E0005A689D6822F070060A6832435A60134BA2
:1020F00002689A4214D0B2F1804F11D0104B9A422C
:102100000ED0104B9A420BD00F4B9A4208D00F4B77
:102110009A4205D00E4B9A4202D00E4B9A4204D1FD
:10212000496825F080031943916080F83D40002103
:1021300080F83C10084670BD022070BD00000140D0
:102140000004004000080040000C00400004014072
:10215000004001400018004010B5040003D094F87E
:102160003D0010B107E0012010BD002084F83C00C4
:10217000204600F01FF8022084F83D00211D206851
:1021800001F07EFE012084F8460084F83E0084F8C9
:102190003F0084F8400084F8410084F8420084F84D
:1021A000430084F8440084F8450084F83D00002092
:1021B00010BD000008B51E4A01681E4891420ED1AC
:1021C000016841F0040101600068002200F0040091
:1021D000009011461E20FFF755FC1E2022E0164AF3
:1021E00091420ED1016841F00801016000680022AF
:1021F00000F00800009011463220FFF743FC322027
:1022000010E00E4A914211D1016841F010010160C5
:102210000068002200F01000009011463620FFF701
:1022200031FC3620BDE80840FFF71EBC08BD0000A9
:102230000008004040380240000C00400010004000
:1022400090F83D10012901D001207047022180F84B
:102250003D100168CA6842F00102CA600068114975
:10226000884214D0B0F1804F11D00F4988420ED06F
:102270000E4988420BD00E49884208D00D49884249
:1022800005D00D49884202D00C49884204D18168AA
:1022900001F00701062903D0016841F00101016046
:1022A000002070470000014000040040000800408A
:1022B000000C0040000401400040014000180040B4
:1022C00070B5044690F83C000025012817D001267F
:1022D00084F83C60022084F83D002068826822F087
:1022E000770222F47F4282600868502838D00DDCE3
:1022F00020284FD005DC90B3102811D14AE00220ED
:1023000070BD302846D040280AD13BE060282FD04D
:1023100070280DD0B0F5805F03D0B0F5005F12D00B
:10232000012584F83D60002084F83C00284670BDFB
:10233000CB68D1E90121206801F013FE2068816893
:1023400041F0770109E0CB68D1E90121206801F073
:1023500008FE2068816841F480418160E1E719E06E
:10236000CA684968206801F021FF5021206806E012
:10237000CA684968206801F02AFF6021206801F0DE
:10238000FAFDCEE7CA684968206801F00FFF4021D6
:102390002068F4E7226801461046F0E7704770B500
:1023A0000446006801694FF00005C943890715D448
:1023B000C168C943890711D4E91E01610120207752
:1023C000206880698007204602D0FFF7E7FF04E01D
:1023D00000F0ECF8204600F07EF9257720680169CE
:1023E000C943490717D4C168C943490713D46FF0DB
:1023F00004010161022020772068806910F4407F89
:10240000204602D0FFF7CAFF04E000F0CFF82046D4
:1024100000F061F9257720680169C943090716D4DE
:10242000C168C943090712D46FF008010161042093
:1024300020772068C0698007204602D0FFF7AEFFF2
:1024400004E000F0B3F8204600F045F92577206855
:102450000169C943C90617D4C168C943C90613D461
:102460006FF010010161082020772068C06910F426
:10247000407F204602D0FFF791FF04E000F096F87D
:10248000204600F028F9257720680169C943C9076B
:1024900008D1C168C943C90704D1891E016120461A
:1024A00000F07EF920680169C943090609D4C168B2
:1024B000C943090605D46FF0800101612046FFF78A
:1024C00001FE20680169C943490609D4C168C943AE
:1024D000490605D46FF040010161204600F098F9EB
:1024E00020680169C94389060BD4C168C9438906BC
:1024F00007D46FF0200101612046BDE87040FFF76E
:10250000E2BD70BD30B587B0044614216846FDF7C2
:1025100034FF204A216800241F48022591420FD130
:10252000016841F0080101600068694600F0080098
:1025300005904FF470400090CDE90154174823E016
:10254000174A914224D1016841F480710160016809
:1025500001F480710591016841F08001016000681B
:10256000694600F08000059001200090CDE90154FB
:102570000C48CDE90345FFF7F3F84FF4E050009025
:10258000CDE9015408486946CDE90345FFF7E8F86D
:1025900007B030BD0008004030380240000C024057
:1025A000000C004000200240001C0240704770B543
:1025B000044690F83C0000260D4601280FD001206B
:1025C00084F83C006AB1042A1DD0082A2FD00C2AB6
:1025D0003FD00126002084F83C00304670BD022028
:1025E00070BD206801F0D0FC2068816941F00801CD
:1025F00081612068816921F004018161206881691D
:102600002A69114311E0206801F0EEFC206881691D
:1026100041F4006181612068816921F480618161F8
:10262000206881692A6941EA02218161D2E7206834
:1026300001F010FD2068C16941F00801C161206806
:10264000C16921F00401C1612068C1692A6911438F
:1026500011E0206801F032FD2068C16941F4006199
:10266000C1612068C16921F48061C1612068C169CC
:102670002A6941EA0221C161ACE710B5040003D028
:1026800094F83D0010B107E0012010BD002084F84F
:102690003C00204600F01EF8022084F83D00211D79
:1026A000206801F0EDFB012084F8460084F83E002C
:1026B00084F83F0084F8400084F8410084F8420028
:1026C00084F8430084F8440084F8450084F83D0011
:1026D000002010BD7047704710B50446022249B172
:1026E00004290ED0082913D094F84100012816D0EF
:1026F000012010BD94F83E000128F9D184F83E2055
:102700000FE094F83F000128F2D184F83F2008E060
:1027100094F840000128EBD184F8402001E084F8CF
:1027200041200122206801F00FFC16492068164A5A
:10273000884201D0904203D1436C43F40043436488
:102740002068884213D0B0F1804F10D00F498842E2
:102750000DD00F4988420AD00E49884207D09042D6
:1027600005D00D49884202D00C49884204D18168C5
:1027700001F00701062903D0016841F00101016061
:10278000002010BD00000140000401400004004092
:1027900000080040000C00400040014000180040CC
:1027A00010B5164C2068401C206001F05DFA00F066
:1027B0000DFC2068072190FBF1F201FB120008B923
:1027C000FEF796F82068252190FBF1F201FB12003C
:1027D00068B90B48008803B20A48008802B20A4868
:1027E000008801B20948008800B201F00FF92068A2
:1027F000B0F57A7F01DB0120206010BD04000020CD
:10280000A4000020A00000209C00002098000020D0
:102810007047704770470000F8B5016804460868C3
:10282000CA684B6910F00F0F4FF000055AD003F043
:10283000010602F49077374365D0C10705D0D10572
:1028400003D5216C41F001012164410705D5D90769
:1028500003D0216C41F002012164810705D5D9071D
:1028600003D0216C41F004012164010707D502F077
:102870002001314303D0216C41F008012164216C17
:1028800000293BD0800604D5900602D5204601F0F1
:1028900049FD20684069216CC0F3801001F00801F7
:1028A000014320462BD001F0FEFC20684069400621
:1028B00021D52068143050E8001F21F0400140E885
:1028C0000012002AF5D1A06BA8B16C490165A06B7C
:1028D000FEF7C2FD002811D0A06B016D01B0BDE86C
:1028E000F040084783060ED593060CD52046BDE878
:1028F000F84001F017BD2046FFF78CFFF8BDFFF749
:1029000089FF2564F8BD266B2023012E79D1C606E8
:1029100077D5D60675D5086848680090486940069E
:1029200040D5A16B086840680004000CEAD0A28D75
:102930008242E7D9E085C869B0F5807F2DD0206854
:102940000C3050E8001F21F4807140E80012002A8A
:10295000F5D12068143050E8001F21F0010140E853
:102960000012002AF5D12068143050E8001F21F031
:10297000400140E80012002AF5D184F83E3025637A
:1029800020680C3050E8001F21F0100140E80012D0
:10299000002AF5D1A06BFEF716FDA08DE18D401A3F
:1029A00081B229E0A08DE18D401A81B2E08D00282E
:1029B000A8D00029A6D020680C3050E8002F22F4BF
:1029C000907240E80026002EF5D12068143050E8BF
:1029D000002F22F0010240E80026002EF5D184F8F5
:1029E0003E30256320680C3050E8002F22F01002A2
:1029F00040E80023002BF5D12046FFF70AFFF8BD81
:102A0000FFE705062BD5150629D594F83D002128AA
:102A1000F5D1A068B0F5805F01D12069B0B1206A1E
:102A2000411C2162216800784860E08C401E00044F
:102A3000000CE084E3D12068C16821F08001C1600E
:102A40002068C16841F04001C160D8E7206A008871
:102A5000C0F308004860206A801C2062E5E7400659
:102A6000CDD55006CBD5CA68204622F04002CA60B8
:102A700084F83D3000F06FFAC1E700000142000821
:102A800070B5040004D094F83D00002510B106E0B4
:102A9000012070BD84F83C50204600F023F824202B
:102AA00084F83D002068C16821F40051C1602046CF
:102AB00001F098FC2068016921F4904101612068CF
:102AC000416921F02A0141612068C16841F4005147
:102AD000C1602564202084F83D0084F83E00002079
:102AE00070BD00002DE9F04F87B004461421684600
:102AF000FDF743FCBF48BE4A1038D4F800C0BD4BB8
:102B000003260221002507154FF0080B4FF040095E
:102B100094454AD11A6842F000421A601A6802F0DD
:102B200000420592026842F0100202600068CDE99E
:102B3000006100F01000CDE904B0CDE9025669460D
:102B4000AD48FEF70DFEAE4EAC484FF02068306049
:102B5000C6E90185C6E903577561B561F56135625E
:102B600030467562FEF75AFD08B1FDF7A4FFA66373
:102B7000B463A34EA14860369038C6E90357756127
:102B8000B561F5613562756286E801033046FEF78E
:102B900045FD08B1FDF78FFF666300221146532003
:102BA000B463FEF76FFF53206BE0DFF85882DFF865
:102BB00044A207220AF1040AC44567D1DAF800C02A
:102BC0004CF0100CCAF800C0DAF8003003F0100323
:102BD0000593036843F002030360036803F00203F4
:102BE0000593036843F0010303600068884600F022
:102BF000010005908020CDE9000802AB924683E8F1
:102C0000600469468048FEF7ABFD4FF40070CDE9E3
:102C1000000802AB694683E860047C48FEF7A0FD2B
:102C2000774E7B48C0364FF000683060C6E90185BA
:102C3000C6E903577561B561F56135623046756265
:102C4000FEF7ECFC08B1FDF736FFA663B463714EE6
:102C50006F48C6E903577561B561F561356230307B
:102C6000756286E801033046FEF7D8FC08B1FDF72F
:102C700022FF6663002211462520B463FEF702FF9F
:102C80002520FEF7F1FE07B0BDE8F08FDFF8888160
:102C9000C4451ED11C6844F400341C601B6803F456
:102CA00000330593036843F008030360006804924F
:102CB00000F00800059060208DE8630069465748E1
:102CC000FEF74EFD002211462620FEF7DBFE2620F1
:102CD000D7E7DFF84C81C44539D1D3F800C04CF4B4
:102CE000802CC3F800C01B6803F48023059303689D
:102CF00043F0040303600068049200F004000590B0
:102D00004FF440608DE8630069464648FEF728FDB1
:102D1000404E3A486036783830604FF00060C6E97F
:102D20000105C6E903577561B561F5613562304645
:102D30007562FEF773FC08B1FDF7BDFEA6630022C5
:102D400011462720B463FEF79DFE272099E7364AF7
:102D5000944598D1DAF8003043F02003CAF80030E7
:102D6000DAF8002002F020020592026842F04002E8
:102D70000260006800F0400005904FF484408DE848
:102D8000630869462948FEF7EBFC224E2048C0360E
:102D9000603830604FF02068C6E90185C6E9035706
:102DA0007561B561F561356230467562FEF736FCD6
:102DB00008B1FDF780FEA663B4631D4E1448C6E952
:102DC00003577561B561F56135621830756286E843
:102DD00001033046FEF722FC08B1FDF76CFE666386
:102DE000002211464720B463FEF74CFE472048E717
:102DF000007C00404038024000100240A0600240C9
:102E00007C0300200010014000040240000002404A
:102E1000886402409C04002000440040000C0240F2
:102E20000048004000080240001401400018024021
:102E3000BC05002090F83E30202B0ED159B152B184
:102E400090F83C30012B08D0012380F83C3000235F
:102E5000036301F04DBB0120704702207047000062
:102E600010B5042205A1074800F056F8BDE810404F
:102E70000C2205490348FFF7DDBF0000313233342F
:102E800000000000380300206C0A002070B50446E2
:102E900090F83D00202836D191B38AB394F83C00D5
:102EA000012830D0012084F83C002162A284E28411
:102EB00000252564212084F83D00636B1348D86306
:102EC000636B13481864636B1248D864606B1346D5
:102ED00005652668606B321DFEF70AFC21686FF0FD
:102EE0004000086084F83C502068143050E8001F0F
:102EF00041F0800140E80012002AF5D1002070BDA9
:102F0000FFE70120FBE70220F9E700005B42000831
:102F10009D4200081142000890F83D30202B18D146
:102F2000A9B1A2B190F83C30012B12D00162828489
:102F3000C28400210164212280F83D2080F83C10E9
:102F40000068C16841F08001C16000207047012025
:102F50007047022070477047704700000A490820F8
:102F600008700A4800218161416101618163C16388
:102F7000C16201634163016441648164C16440F6DC
:102F8000B831416270470000140000207C06002028
:102F900010B50C4A20B1012804D0082806D10EE053
:102FA000506801E05068404200F0B2FE083292ECF6
:102FB000030A01F031FBBDE8104000F09BBE002089
:102FC000F2E7000014000020FEE700002DE9F047C2
:102FD000A94CAA4A2046E37801780127908A002666
:102FE00023B1012B08D0022B14D10CE0830611D59C
:102FF000C3060FD5E7700DE083060BD5C30609D5D0
:103000000223E37006E083061BD5C30602D563687E
:103010005B1C63606378012B16D0012919D191469E
:103020009749984A984B994D5FEAC06C4FEAC0782F
:1030300020D54FF4257CB8F1000F0ED0C1F800C0A8
:103040000CE06660E6706770667021B1012900D1FE
:103050002670BDE8F0872770E1E70E604FEA8078C0
:103060008B4914E0420719D5C3F800C0000717D5F3
:10307000296016E04FF4DC7CB8F1000F02D0C1F8F3
:1030800000C000E00E6082494FEA8078DC31B8F180
:10309000000F01DA1160E5E71660E3E71E60E5E77F
:1030A0002E6099F81200DFF8EC814D46012804D11A
:1030B000012210214046FEF772FCE87C012804D171
:1030C000002210214046FEF76AFCA88A81064FEADA
:1030D000C04107D5002910DA01050ED4C1050CD472
:1030E000032006E0002908DA010506D4C10504D44E
:1030F000022000F0ADFB08202CE010F4815F05D128
:10310000010503D5C10501D404200CE081064FEA76
:10311000C0410CD500294FEA005113DB00291CDA0D
:10312000C1051AD4052000F0C7FB08203CE00029A7
:1031300013DA010511D5C1050FD4072000F088FB73
:10314000072007E0002908DAC10506D4062000F0B0
:103150007FFB062000F0B0FB28E010F4815F03D174
:10316000010501D4C10507D581060FD5C1040DD4D1
:1031700001050BD4C10509D4082000F069FB082023
:1031800000F09AFB0820FDF7DBFC0FE010F4815FF4
:1031900014D1010512D4C10510D50120FDF7D0FCD2
:1031A000072000F089FB072000F052FB287D8006F5
:1031B00011D5A88A800419D5012012E081060AD50C
:1031C000C104F6D40105F4D4C005F2D50020FDF702
:1031D000B7FC0820A7E7A88A800401D5002000E0FA
:1031E000082000F045FCA88A810604D5A88A40047E
:1031F0000FD5012004E0400401D5002000E00820A4
:1032000000F046FCA88A810603D4000606D50120FA
:1032100005E0287D000601D5002000E00820FFF72A
:10322000B7FE0820AA8A014693064FEA825306D5C4
:10323000002B00DA0120520507D5012105E0002B03
:1032400000DA0020520500D5002100F065FBA88AB5
:1032500081064FEA004003D5002805DAA670F8E69B
:10326000002801DAA77002E0A0780128F7D1BDE8B4
:10327000F047FDF7E7B80000080000201C0600201A
:10328000B0000020B4000020B8000020BC000020E6
:103290006CFDFFFF001C02400F4810B50D49016096
:1032A0000521416000214FF440328160C0E90312E2
:1032B000120142610176012242768176C176017760
:1032C0004177FDF7F8FE002803D0BDE81040FDF778
:1032D000F2BB10BD00640040000100200F4810B593
:1032E0000D4901600E21416000214FF440328160A0
:1032F000C0E9031212014261017601224276817611
:10330000C17601774177FDF7D6FE002803D0BDE8EE
:103310001040FDF7D0BB10BD006800402801002020
:10332000254808B5016841F400110160016801F405
:1033300000110091016841F48001016000680022E1
:1033400000F48000009011460B20FEF79BFB0B2041
:10335000FEF78AFB002211460C20FEF793FB0C209F
:10336000FEF782FB002211461120FEF78BFB112095
:10337000FEF77AFB002211463920FEF783FB392045
:10338000FEF772FB002211464420FEF77BFB44202F
:10339000FEF76AFB002211464520FEF773FB45202D
:1033A000FEF762FB002211464620FEF76BFBBDE8EC
:1033B00008404620FEF758BB30380240F0B587B0D1
:1033C00014216846FCF7D9FF39480024016841F010
:1033D00010010160016801F010010591016841F0E0
:1033E00002010160016801F002010591016841F0EC
:1033F00040010160016801F040010591016841F060
:1034000001010160016801F001010591016841F0CD
:1034100008010160016801F008010591016841F0AF
:1034200004010160016801F004010591016841F0A7
:1034300020010160016801F020010591016841F45B
:1034400080710160016801F480710591016841F0AB
:10345000800101600068174F00F080000590002295
:1034600010213846FEF79BFA012220213846FEF74C
:1034700096FA0125CDE9005469460F480294FEF7FB
:103480006FF930200326CDE90005CDE902466946F3
:103490003846FEF765F902200096CDE90104694639
:1034A0000648CDE90345FEF75BF907B0F0BD000023
:1034B00030380240001C024000140240000002406C
:1034C00010B58EB000240794089409940A940B94C4
:1034D0001C2168460C94FCF750FF2A4828490160DB
:1034E0005921C0E9011440F2E731C0E903148461B5
:1034F000FEF732FE08B1FDF7DEFA4FF48050079078
:1035000007A92048FEF7DCFE08B1FDF7D4FA1D48F4
:10351000FFF7B3F808B1FDF7CEFA0B940BA91948E1
:103520000C94FEF7D1FD08B1FDF7C5FA6020CDE996
:10353000000402940022694612480494FFF737F809
:1035400008B1FDF7B8FA042269460E48FFF72FF8D4
:1035500008B1FDF7B0FA082269460A48FFF727F8D4
:1035600008B1FDF7A8FA0C2269460648FFF71FF8D4
:1035700008B1FDF7A0FA0348FEF7C4FF0EB010BD76
:10358000000800405001002010B58EB000240794C0
:10359000089409940A940B941C2168460C94FCF737
:1035A000ECFE2A48284901605921C0E9011440F283
:1035B000E731C0E903148461FEF7CEFD08B1FDF7E1
:1035C0007AFA4FF48050079007A92048FEF778FE5A
:1035D00008B1FDF770FA1D48FFF74FF808B1FDF785
:1035E0006AFA0B940BA919480C94FEF76DFD08B10B
:1035F000FDF761FA6020CDE90004029400226946DB
:1036000012480494FEF7D3FF08B1FDF754FA0422E0
:1036100069460E48FEF7CBFF08B1FDF74CFA0822C9
:1036200069460A48FEF7C3FF08B1FDF744FA0C22C9
:1036300069460648FEF7BBFF08B1FDF73CFA0348B0
:10364000FEF760FF0EB010BD000C00409801002096
:103650001CB500240E4800940C490194016042F20C
:103660002731C0E9011409218461C160FEF774FDAE
:1036700008B1FDF720FA0094694605480194FEF769
:1036800023FD002801D0FDF716FA1CBD00100040F4
:10369000E00100200C4810B50A4901604FF4E13107
:1036A0004160002181600C22C160C0E90412816187
:1036B000C161FFF7E5F9002803D0BDE81040FDF730
:1036C000FAB910BD007C0040280200200D4810B55A
:1036D0000B4901600C49416000214FF48062816018
:1036E000C0E903120C22C0E90521C161FFF7C8F946
:1036F000002803D0BDE81040FDF7DDB910BD000083
:10370000001001406C020020A08601000C4810B59A
:103710000A4901600B494160002181600C22C160AF
:10372000C0E904128161C161FFF7AAF9002803D042
:10373000BDE81040FDF7BFB910BD000000440040D7
:10374000B0020020A08601000C4810B50A490160B3
:103750000B494160002181600C22C160C0E9041264
:103760008161C161FFF78CF9002803D0BDE81040EA
:10377000FDF7A1B910BD000000480040F402002090
:10378000A08601000C4810B50A4901604FF416519B
:103790004160002181600C22C160C0E90412816196
:1037A000C161FFF76DF9002803D0BDE81040FDF7B7
:1037B00082B910BD0014014038030020FEE700006C
:1037C0002149082040F6B833087048701F4900208E
:1037D00001F1900208611061886190614861506157
:1037E00088639063C863D063C862D0620863106363
:1037F000486350630864106448645064886490644B
:10380000C864D0644B6201F59071536201F190027B
:1038100008611061886190614861506188639063BC
:10382000C863D063C862D0620863106348635063A2
:10383000086410644864506488649064C864D06408
:103840004B62536270470000680000202C08002083
:1038500010B5184A801E072812D2DFE800F00409CC
:1038600011111A202600506800F086FA506805E011
:103870005068404200F080FA506814E000F052FABC
:103880000C3292EC030A00F0CDFEBDE8104000F0CF
:1038900051BA9068404200F06FFA9068EEE7906885
:1038A00000F06AFA90684042E8E7002000F064FA0D
:1038B0000020E3E76800002010B5154A001F052826
:1038C0000CD2DFE800F00305141A2000906816E01F
:1038D000906840420CE000BF00F056FA0C3292ECC7
:1038E000030A00F0BBFEBDE8104000F023BA906868
:1038F00000F052FA90684042EEE79068404200F0D3
:103900004BFA9068E8E7002000F046FA0020E3E771
:1039100068000020FEE7704770B5394A00244FF474
:103920007A731568092804D00A280BD00D2819D1FC
:1039300011E06B63106884631068C36312680A2027
:1039400010640FE06C631068836315684620E863B9
:103950001068036406E06C63106884631068C463D5
:1039600010680464284D274801262A680B290AD0CC
:103970000C2924D00E2914D101684C6301688C6392
:103980000168CC630BE022B1012A0AD1A86848B1D2
:103990000CE001684B6301688C630168CB630068CD
:1039A000046470BDFEF700F8C5E90106FDF7FCFFF1
:1039B000E968401A6428F4D92C60AC6070BD012A13
:1039C0000FD0002AFAD12869A0B10128F6D100BF92
:1039D000FDF7EAFFE968401A6428EFD92E602C61F0
:1039E00070BD01684C6301688B630168CC6300683B
:1039F000036470BDFDF7D8FFC5E90306E8E70000E2
:103A00009801002050010020D800002070B5164C0D
:103A1000050A25706070080AA070E170100A207114
:103A20006271180AA071201FE371016811B10129A8
:103A300004D007E06B21A172012102E06A21A1728A
:103A40000021016000F029F9012805D100F060FC97
:103A5000702020726072E072BDE870400C22024952
:103A60000248FFF713BA00008C0000203803002042
:103A7000064930B1012806D0082801D1702008720B
:103A800070476320FBE74320F9E700008C0000202B
:103A9000064930B1012806D0082801D170204872AB
:103AA00070477620FBE75620F9E700008C000020E5
:103AB000002801DC404200B27047000070B5194C8C
:103AC000B4F90000FFF7F4FF4FF42575A84217DCA6
:103AD000B4F90200FFF7ECFFA84211DCB4F90400CE
:103AE000FFF7E6FFA8420BDCB4F90600FFF7E0FFA2
:103AF000A84205DCA07A18B1E07A08B1002070BDB8
:103B0000002020806080A080E08020810221A172BE
:103B1000E172A081E0812082A074E074A082012083
:103B200070BD00001C06002030B5144B1C68656990
:103B300045F0400565611B68DC6844F01004DC60FA
:103B40000F4B1C68256825F0010525601C68256859
:103B5000ED07F7D11D680B4CAC601C68E06018687D
:103B60000161186842601868016841F480210160B1
:103B70001868016841F00101016030BD6C0200204D
:103B80003C0400200410014038B51B480168CA6895
:103B900022F40052CA60194A11680B6823F001032D
:103BA0000B60136824215960006801684168009126
:103BB000134C13684FF40011A34202D9104B4C3B35
:103BC00004E0104CA34203D90D4B503B196008E0B0
:103BD0000C4D0C4C603DB83CAB4201D9E16000E0BB
:103BE000A160C16841F40051C1601068016841F0F2
:103BF0000101016038BD00006C0200203C0400207F
:103C000058640240B860024030B5836EC3604A78A1
:103C10000C7802EB042212B28266CC788D7804EB29
:103C2000052424B2C4634C790D7904EB052424B235
:103C3000446144683CB94C78097804EB012109B22D
:103C4000016001214160D31A0169B3F5805F01DD94
:103C5000491E03E013F5805F01DA491C016102EBA4
:103C60004131C0F8801030BD0948007800280DD1DE
:103C70000848C07A012805D0022805D0032805D1BC
:103C800000F032BE00F08EBE00F0EEBD70470000C6
:103C9000080000201C06002070470120704700002B
:103CA0000A4B03F19002D86CD16CA0F5AF7001F50E
:103CB000C87198619161064A030A13705070080A2E
:103CC0009070D1701046FCF703BD00000C07002077
:103CD00060000020064A00EB400101EB00119163F7
:103CE0006FF012014843A2F1900188637047000011
:103CF0009C0700200449C86C88610449020A0A71C3
:103D000048710846FCF700BD7C06002060000020DA
:103D100000EB400101EB001001498863704700008F
:103D20007C060020024900EBC000800088637047D9
:103D3000BC0800200D48C26C82619030130AC16C2F
:103D400081610B48037042700A0A8270C170094990
:103D500001F19003CA6C8A61D96C9961130A0371ED
:103D600042710A0A8271C171FCF7EABC2C0800207A
:103D7000800000204C090020024900EBC0008000B8
:103D8000886370472C080020024900EBC0008000C7
:103D900088637047DC090020024900EBC000800006
:103DA000886370474C090020FDF704BE30B593B01E
:103DB00030216846FCF7E1FA14210CA8FCF7DDFA83
:103DC00020480025016841F080510160006800F042
:103DD000805011901C48016841F440410160006826
:103DE000022400F440401190012000900004019052
:103DF0008001CDE9064006200890B420CDE90904F1
:103E000004200B906846FDF793FF08B172B6FEE7F9
:103E1000FDF76AFE08B172B6FEE70CA90F2081E833
:103E200031004FF4A0500F904FF4805010900521B6
:103E30000CA8FDF791FE002801D072B6FEE713B082
:103E400030BD000040380240007000400248016868
:103E500041F470010160704788ED00E00148FEF711
:103E60009EBA0000500100200148FEF798BA0000F9
:103E7000980100200148FEF792BA0000E0010020FE
:103E8000F0B50268254C264D264E274F274B4FF0A4
:103E9000804CA04209D0604507D0A84205D0B0426E
:103EA00003D0B84201D0984204D122F0700E4A6883
:103EB00042EA0E02A0421BD0604519D0A84217D09A
:103EC000B04215D0B84213D0984211D0184DA84234
:103ED0000ED0184DA8420BD0174DA84208D0174D50
:103EE000A84205D0164DA84202D0164DA84203D1D3
:103EF00022F44075CA682A434D6922F080022A43A1
:103F000002608A68C2620A688262A04201D0984256
:103F100001D10969016301214161F0BD0000014047
:103F20000004004000080040000C00400004014074
:103F3000004001400044014000480140001800409A
:103F4000001C00400020004010B501F01F030121BB
:103F5000046A99408C430462016A9A4011430162E9
:103F600010BD10B5846842EA032224F47F440A435A
:103F70002243826010BD826822F070020A4342F040
:103F80000701816070470000F0B5026A22F001026B
:103F90000262036A42688469124E24F073050C6859
:103FA0002C4323F002058B682B430D4DA84201D012
:103FB000B04205D123F00807CB683B4323F004034C
:103FC000A84201D0B04205D14D6922F44072154398
:103FD0008A692A4342608461496841630362F0BD93
:103FE0000000014000040140F0B5026A22F0100216
:103FF0000262026A436884690D6824F4E64444EA74
:1040000005248D6822F0200242EA05120F4D104E61
:10401000A84201D0B04206D1CF6822F0800242EA25
:10402000071222F04002A84201D0B04207D14D69E8
:1040300023F4406343EA85038D6943EA85034360C3
:104040008461496881630262F0BD000000000140A4
:1040500000040140F0B5026A22F480720262026A32
:104060004368C46922F4007224F073050C68124E90
:104070002C438D6842EA05220E4DA84201D0B04281
:1040800006D1CF6822F4006242EA072222F480625D
:10409000A84201D0B04207D14D6923F4405343EA0E
:1040A00005138D6943EA05134360C4614968C16320
:1040B0000262F0BD000001400004014030B5026A18
:1040C00022F480520262046A4268C3690D6823F4D4
:1040D000E64343EA05238D6824F4005444EA05349A
:1040E000084DA84202D0084DA84204D14D6922F4DF
:1040F000804242EA85124260C361496801640462F9
:1041000030BD0000000001400004014070B50021F6
:104110002448FEF7E1FA04212248FEF7DDFA0821DF
:104120002048FEF7D9FA0C211E48FEF7D5FA0021E7
:104130001D48FEF7D1FA04211B48FEF7CDFA0821ED
:104140001948FEF7C9FA0C211748FEF7C5FA1548B9
:104150004FF0FF3501680D6101682A1F0A6101688F
:104160006FF008030B6101681C1F0C610E490E689B
:1041700035610D682A610A6813610A6814610B6869
:1041800000225A630B689A630B68DA6309680A6451
:1041900001684A6301688A630168CA63006802644F
:1041A00070BD0000500100209801002010B5036A86
:1041B000046A24F001040462846924F0F00444EAEF
:1041C000021423F00A020A438461026210BD10B592
:1041D000036A23F0100303628369046A23F47043C3
:1041E00043EA023224F0A00343EA01118261016232
:1041F00010BD00000148FEF70FBB000028020020A0
:1042000010B5806B0021C185C184FEF703FB10BD92
:1042100070B5846B2068406994F83D10C0F3C010FD
:104220000025212904D118B1E584204600F062F868
:104230002068406994F83E10C0F38010222904D110
:1042400018B1E585204600F02EF8206C40F01000F3
:1042500020642046FEF7DEFA70BD10B50146806B83
:1042600009680968C90516D40021C18401681431A0
:1042700051E8002F22F0800241E80023002BF5D105
:1042800001680C3151E8002F42F0400241E8002360
:10429000002BF5D110BDFEF75EFE10BD10B5806B92
:1042A000FEF75AFE10BD01680C3151E8002F22F4D0
:1042B000907241E80023002BF5D10168143151E8D8
:1042C000002F22F0010241E80023002BF5D1016B01
:1042D000012909D101680C3151E8002F22F01002A8
:1042E00041E80023002BF5D1202180F83E10002169
:1042F0000163704701680C3151E8002F22F0C002C1
:1043000041E80023002BF5D1202180F83D107047B3
:104310000C2202490248FEF78DBD00006C0A002005
:104320003803002008B590F83E10222901D0022061
:1043300008BD82684FF480539A4201D1016921B1CE
:10434000816A9A421BD04AB10AE00268816A5268C7
:10435000C2F308020A80816A891C08E0026972B10E
:104360000268526802F07F020A70816A491C816209
:10437000C18D491E0904090CC18503D019E00268EA
:104380005268F1E70168CA6822F02002CA60016839
:10439000CA6822F48072CA6001684A6922F0010288
:1043A0004A61202180F83E10016B012903D0FEF7FD
:1043B00057FD002008BD0021016301680C3151E860
:1043C000002F22F0100241E80023002BF5D10168F4
:1043D0000A68D20602D50A6849680091818DFEF705
:1043E00018FAE6E770B5044600680169E26821F44E
:1043F0004051114301612169A068E2690843616984
:10440000114308432168CA6849F20C639A43024386
:10441000CA6020684169A26921F440711143416179
:1044200031492068884202D03049884202D1FDF7E4
:104430003DFC01E0FDF72AFCE26900231921642517
:104440003226B2F5004F626828D0A0FB0101930F1D
:104450009200FBF71BFF0146B0FBF5F06FF018026E
:10446000504301EB800006EB0010B0FBF5F000F0CC
:10447000F002B1FBF5F002EB0012B1FBF5F06FF0CA
:104480001803584301EB800006EB0010B0FBF5F079
:1044900000F00F0021681044886070BDA0FB01018E
:1044A00092185B41FBF7F2FE0146B0FBF5F002010A
:1044B000B1FBF5F06FF01803584301EB800006EBF9
:1044C000C000B0FBF5F000F0F80002EB4002B1FBD9
:1044D000F5F0584301EB800006EBC000B0FBF5F0AF
:1044E00000F00700D6E70000001001400014014072
:1044F00081628285C28500210164222280F83E20EB
:1045000080F83C10016921B10168CA6842F48072E8
:10451000CA6001684A6942F001024A610068C168E4
:1045200041F02001C16000207047000038B52A48E2
:1045300000680168890603D501684068009038BDAD
:1045400026490968C906FAD501684068244A0090DE
:10455000106801684FF024030C032249046824F01A
:104560000104046016D414686068C0F1240080B2AD
:104570000880636011680B6843F400230B601168C6
:104580000A6842F001020A601228D8D1164901F1E6
:10459000160015E010684468C4F12404A4B20C802D
:1045A00043601248816A21F4002181621068016829
:1045B00041F001010160122CC1D10B4901F13A0017
:1045C00000F0ACFAFFF77AFA0128B8D1BDE838401C
:1045D0002420FFF7D9BA00006C020020001001402F
:1045E0003C040020100000201C0600200060024057
:1045F0000148FEF711B90000B00200200148FEF7A3
:104600000BB90000F40200200148FEF705B90000D4
:1046100038030020FEE70000014800F03BB800002E
:104620007C06002010B50C482DED048BB0EE418ABD
:10463000F0EE608AB0EE409A00F02CF8B0EE481A26
:10464000F0EE680AB0EE490ABDEC048B0248BDE802
:104650001040903000F01EB82C08002010B50C4817
:104660002DED048BB0EE418AF0EE608AB0EE409AF8
:1046700000F010F8B0EE481AF0EE680AB0EE490A01
:10468000BDEC048B0248BDE81040903000F002B849
:104690004C09002010B5D0E90E12891A0A46C162F1
:1046A00000D55242142A426B01DC0A4442634FF4A3
:1046B000FA739A4202DC5B429A4200DA436301EEEB
:1046C000901AF8EEE11A21EE800ABDEEC00A10EE53
:1046D000104A046490ED0D0AB8EEC00A20EE200ADC
:1046E000BDEEC00A10EE103A4364026B8A1A00EE67
:1046F000102A0029B8EEC00A20EE010ABDEEC00A59
:1047000010EE102A8264016300DA4942022901DCBA
:10471000002107E0E1180A44416A8A4202DC49426A
:104720008A4201DAC16410BDC26410BD0907090ED6
:10473000002804DB00F1E02080F80014704700F04E
:104740000F0000F1E02080F8141D704770B59FED58
:10475000160A8D1C2DED048B441AA8429FED139B65
:1047600007DB581A801E00F0ECFB41EC180BA01E72
:1047700009E08B1E984214DC881A801E00F0E1FBD1
:1047800041EC180BA01C00F0DCFB53EC182B00F0E4
:1047900051FA53EC192B00F0EBFB00F019FA00EE84
:1047A000100ABDEC048B70BD00000000000000C0CA
:1047B00049345E4070B59FED160A8D1C2DED048BBB
:1047C000441AA8429FED139B07DB581A801E00F085
:1047D000B8FB41EC180BA01E09E08B1E984214DCBC
:1047E000881A801E00F0ADFB41EC180BA01C00F0F5
:1047F000A8FB53EC182B00F01DFA53EC192B00F01A
:10480000B7FB00F0E5F900EE100ABDEC048B70BDBB
:1048100000000000000000E0D20A1D4030B5002872
:1048200000DA40424C42002901DB0D4600E02546FB
:10483000854202DD080000D520465142002A01DBF6
:10484000144600E00C46844202DD100000D5084604
:104850005942002B01DB1A4600E00A46824202DD83
:10486000180000D5084630BD10B50820FEF7F0FF4F
:104870000820FFF721F80820FFF70AF91949887A7C
:10488000012804D0022804D0032804D004E0002426
:1048900002E0012400E00824B1F904006FF0C7022F
:1048A000C82801DD092004E0904201DA0A2000E076
:1048B0000D20B1F90610C82901DD0B2104E0914259
:1048C00001DA0C2100E00E21FFF726F80820FEF7A0
:1048D0005FFB0820FCF734F92046BDE81040FFF7E5
:1048E000C7B800001C0600202DE9F0410820FEF7A3
:1048F0004FFB0820FCF724F90820FFF7B9F8274CF4
:104900004FF42076B4F90600B04202DD0220FEF733
:104910009FFFB4F90600224FB84202DA0320FEF7E7
:1049200097FFB4F906004FF4A06500F52070A84287
:1049300005D8A07A032802D10820FEF789FFB4F930
:104940000400B04202DD0420FEF7B6FFB4F9040013
:10495000B84202DA0520FEF7AFFFB4F9040000F513
:104960002070A84205D2A07A032802D10820FEF7C1
:10497000A3FFA07A012809D002280CD10620FEF757
:1049800067FF0620BDE8F041FEF796BF0720FEF75F
:104990005FFF0720F6E7BDE8F08100001C0600205D
:1049A00080FDFFFF2DE9F0410820FFF771F8082096
:1049B000FFF75EF8384C39484FF4AF75A17A0129FA
:1049C00004D0032908D002290FD01AE0B4F9061048
:1049D000A94216DC012204E0B4F90610A94210DC59
:1049E00000221021FCF7DBFF05E0B4F90600A84225
:1049F00007DCFBF727FD0820FEF72AFF0820FEF75B
:104A00005BFFB4F90400264E4FF42F77A84205DD72
:104A1000B4F90610A94201DC012010E0B04205DA29
:104A2000B4F90610A94201DC002008E000F5AF70DF
:104A3000B8420CD8B4F90600A8420CDC0820FEF7F6
:104A4000A7FA0820FEF704FF0820FEF735FFB4F9A7
:104A50000600A8420ADD0120FCF772F80720FEF7E5
:104A60002BFFBDE8F0410720FEF7F2BEB04201DAAD
:104A7000002004E000F5AF70B8420AD80820FCF727
:104A80005FF80820FEF7E4FEBDE8F0410820FEF7DD
:104A900013BFBDE8F08100001C060020001C02408E
:104AA000A2FEFFFFFCF78EFFFFF780F9FEF786FC02
:104AB000FEF7F2FBFEF712FCFEF732FCFEF744FEB7
:104AC000FEF7C6FDFEF702FEFEF720FEFEF75AFED9
:104AD000FEF7F6FCFEF758FDFEF7DCFD0A48FDF791
:104AE000AFFBFEF73BFAFBF7E9FFFEF769FEFBF7CA
:104AF000B1FEFBF7B7FD00F009F8FFF709FCFBF783
:104B0000A9FEFFF703FBFEE7E00100200249242293
:104B1000A1F12400FFF708B856060020F0B50028E0
:104B200055D0002953D00278437842EA0322C2F3D9
:104B30000A020A8043788478DB0843EA4413C3F30B
:104B40000A034B808478C578A40944EA8504057972
:104B500044EA8524C4F30A048C80057946796D08FB
:104B600045EAC615C5F30A05CD804679C6F3011698
:104B70008E724679B609CE728679C77946EA0726DB
:104B80008E81067A477A46EA0726CE81867AC77AE8
:104B900046EA07260E82067B8E74467BCE74867BA1
:104BA000C77B46EA07268E82067C407CA2F580629F
:104BB0000A80A3F580634B80A4F5806446EA002058
:104BC0008C80A5F58065CD80A0F580600881F0BD62
:104BD00021F00042A2F16052B2F5801F01F00043C3
:104BE00028BFD2F17F6C0BD95FEA001C43EAC202F6
:104BF00042EB507018BF704728BF20F0010070478B
:104C0000B2F5801FBCBF184670474FEA410C1CF537
:104C1000001F02D2084600F0AEBA70B500F052FA9A
:104C200000000089FFF7F6BF4FF00040A0F58000BC
:104C3000704700002DE9C04130B4DFF8A0C23CEA63
:104C4000111418BF3CEA131400F0EC8081EA03054C
:104C50001CEA111444EAD57418BF1CEA131500F0BD
:104C6000C780A4EB05044FF0004545EAC12145EAA1
:104C7000C32341EA505143EA525304F17F749942ED
:104C800004F500344FEAC0204FEAC22208BF904228
:104C900000F09C804FEA13650FF24016765D4FEAF4
:104CA000134506FB05F7C7F1807706FB07F74FEAC8
:104CB000D737A7FB03687642C8F58038A7FB06CE36
:104CC00038BFA8F1010807FB08E64FF0000EA6FB6D
:104CD000028CE6FB03CEDCF1000CCEF1004E38BFB7
:104CE000AEF1010EA6FB0C584FF000074FF0000587
:104CF000E6FB0E87A1FB08C6A0FB07CE16EB0E064F
:104D000045F10005E1FB076515F1E04E7EBFA4F516
:104D100080345FEA46066D4116F1800745F10005D3
:104D20004FEA17274FEA066647EA0567A6F1DE460F
:104D3000B6F1805F4FEA15251FD9384624F0010CE3
:104D400005EBC471BCF1FE6F01EB0C1102D8F0BC95
:104D5000BDE8008124425CBF01F5801E9EEAC47F4D
:104D600002D4F0BCBDE80081244238D4F0BCA1F1EB
:104D7000C041BDE8004100F0F3B94FEAD22242EA57
:104D800043524FEAD323A7FB02864FEAD02040EAE2
:104D9000415007FB03661EEA0E0F4FEAD12105FBC7
:104DA000026658BFA6EB0056B6EB00564FEA520E0D
:104DB0004EEAC37E18EB0E0E56EB530EBDD518EB24
:104DC00002085E417F1C55F10005B6E74FF48015DF
:104DD0004FF000074FF000064FF00008ADE7F0BCC1
:104DE0004FF0000001F1C04101F00041BDE8008139
:104DF00011EA0C1F0CEA131500D00CE013EA0C1F8B
:104E000000F025804FF00000F0BC81EA030101F0C2
:104E10000041BDE80081F0BCBDE8004181EA03012A
:104E200000F09EB9F0BCBDE8004170B500F04AF951
:104E3000097EFC3E00F007B881EA03014FF0000054
:104E400001F00041704781EA030100F089B9F0BC2C
:104E5000BDE800414FF0000021497047FFFDFBF91C
:104E6000F7F5F4F2F0EEEDEBE9E8E6E4E3E1E0DE9D
:104E7000DDDBDAD8D7D5D4D3D1D0CFCDCCCBCAC80F
:104E8000C7C6C5C4C2C1C0BFBEBDBCBBBAB9B8B736
:104E9000B6B5B4B3B2B1B0AFAEADACABAAA9A8A829
:104EA000A7A6A5A4A3A3A2A1A09F9F9E9D9C9C9BF7
:104EB0009A999998979796959594939392919190A2
:104EC0008F8F8E8E8D8C8C8B8B8A89898888878733
:104ED0008685858484838382828181800000FF07A8
:104EE0000000F87F4FEA41034FEA5353A3F5806374
:104EF000D3F11E03C8BFD3F1210C0CDD4FF00042EB
:104F000042EAC12242EA505232FA03FC8CEAE17CC6
:104F1000ACEBE1707047102BC4BF0020704703F565
:104F2000787CBCF1FF3F04D06FF0004282EA2100A0
:104F3000704770B500F0C6F8499224800020704791
:104F4000F2E710F0004248BF4042B0FA80F310FA96
:104F500003F10AD0C3F11D0303F580634FEA41500A
:104F600002EB035202EBD12170474FF00000704773
:104F7000DFF848C170B51CEA111E1EBF1CEA1315EC
:104F80009EEA0C0F95EA0C0F00F06F8081EA030493
:104F900023EA4C134EEAD47E21EA4C1141F48011ED
:104FA00043F48013AE44A1FB024CA0FB0365AEF1B9
:104FB0007F7E361955EB0C05A1FB034C4CF1000329
:104FC000A0FB021C16EB0C06654153F100030942DD
:104FD00018BF46F0010613F4007F0BD14FEA0331EE
:104FE0004FEA0530340341EA155140EA16506FF09C
:104FF00003020AE04FEAC3214FEAC520F40241EA66
:10500000555140EA56506FF0020202EB2E4201EB7E
:10501000025585EACE710AD05FEA440C18BF24F02D
:10502000004450F1000041F1000120EAD47040F248
:10503000FE7C624500D270BDA84214BF4FF0804490
:105040004FF04044002E08BF0024BEF1806FA8BF7F
:10505000A1F1C041BDE8704080F282804FF00000B5
:1050600001F1C04101F0004170479EEA0C0F0CEACB
:10507000131518BF95EA0C0F06D04FF0000081EA17
:10508000030E0EF0004170BD00F01CF88900013ED7
:1050900000F007B800F009B84FEA430C5FEA5C5C27
:1050A00008D081EA030100F05BB84FEA410C5FEAE7
:1050B0005C5CF6D14FF00000014970470000FF072B
:1050C0000000F87F0EF1020E2EF0030E5EF8046B66
:1050D000364205D4012A43EB030515F5001F12D80B
:1050E000012841EB010C1CF5001F0CD80ED14FEA32
:1050F000D17C15F5001F0CEB4C0C0CF1020C08BF19
:105100004CEBD37C04E04FF0080C01E04FEAD37C79
:105110000CEB4C0526FA05F606F00706B6F1040C72
:1051200006D20EEB860CBDE870404CF0010C6047D7
:10513000DFE80CF0090B02024FF000414FF00000D5
:10514000A1F5002170BD19461046012851EB01045C
:1051500018BFD4F5001484BF002001F0004170BDD9
:105160000808A0F500114FEA310170474FF0407078
:10517000E1EE100A7047FF2141EAD050C0057047A8
:1051800000061016000610160000000000000000C7
:1051900001020304060708090000000001020304DD
:1051A000C05100080000002000010000E8010008D4
:1051B000C052000800010020A012000004020008F4
:1051C00000000000010000000000000000000000DE
:1051D00000000000000000006400000000007041BA
:1051E0003333B33F000080400000000000000000A7
:1051F000000000000000204200002042CDCC6C40A6
:10520000666686400000B0410000803F0000003F1D
:105210009A99193E0000A041CDCC6C40CDCC6C4099
:105220000000000000000000000000003C00000042
:105230003C000000000000419A99993F0000003FA7
:10524000000000000000000000000000000000005E
:10525000000000007070707000000000000000008E
:10526000000000000000000000000000000000003E
:10527000000000000000000000000000000000002E
:10528000000000000000000000000000000000001E
:10529000000000000000000000000000000000000E
:1052A00000000000000000000000000000000000FE
:1052B0000100000010000000000000000024F400C5
:04000005080001AD41
:00000001FF
