:020000040800F2
:10000000501900209D010008B7330008B92D0008E1
:10001000AD310008D9040008D143000800000000F9
:100020000000000000000000000000007937000818
:100030006708000800000000D93300082D380008C8
:10004000B7010008B7010008B7010008B7010008B0
:10005000B7010008B7010008B7010008B7010008A0
:10006000B7010008B7010008B7010008B701000890
:1000700091070008B7010008B7010008B7010008A0
:10008000B7010008B7010008B70100089105000892
:100090005D050008B7010008B7010008B7010008B6
:1000A000B7010008B7010008B7010008E1380008EF
:1000B000B7010008B7010008B7010008B701000840
:1000C000B7010008B7010008B7010008B701000830
:1000D000B701000845420008B7010008D9420008EE
:1000E000B7010008B7010008B7010008B701000810
:1000F000B7010008B7010008B7010008B701000800
:10010000B7010008B7010008B7010008B7010008EF
:10011000B7010008B7010008ED380008B701000872
:10012000B7010008B70100089D070008B7010008E3
:10013000B7010008B7010008B7010008B7010008BF
:100140008D060008B7010008B7010008B7010008D4
:10015000B7010008B7010008A9070008A543000877
:10016000B7010008B7010008B7010008B70100088F
:10017000B7010008B7010008B7010008000000003F
:10018000B7010008B7010008DFF80CD000F08CF8C8
:1001900000480047194700085019002006488047CA
:1001A00006480047FEE7FEE7FEE7FEE7FEE7FEE75C
:1001B000FEE7FEE7FEE7FEE7C53800088901000814
:1001C0002DE9F05F0546002092469B46884606468C
:1001D000814640241BE0284641464746224600F01F
:1001E00053F853465A46C01A914110D31146184647
:1001F000224600F03AF82D1A67EB01084F462246D6
:100200000120002100F031F817EB00094E41201EBB
:10021000A4F10104DFDC484631462A464346BDE8E6
:10022000F09F40EA01039B0703D009E008C9121FB1
:1002300008C0042AFAD203E011F8013B00F8013BA0
:10024000521EF9D27047D2B201E000F8012B491ECC
:10025000FBD270470022F6E710B513460A46044663
:100260001946FFF7F0FF204610BD202A04DB203A94
:1002700000FA02F1002070479140C2F1200320FAF9
:1002800003F3194390407047202A04DB203A21FAF7
:1002900002F00021704721FA02F3D040C2F120029F
:1002A0009140084319467047064C074D06E0E06848
:1002B00040F0010394E8070098471034AC42F6D3AD
:1002C000FFF766FFAC590008CC59000870B58C18D0
:1002D00010F8015B15F0070301D110F8013B2A115A
:1002E00006D110F8012B03E010F8016B01F8016B47
:1002F0005B1EF9D12B0705D40023521E0DD401F843
:10030000013BFAE710F8013BCB1A921C03E013F80B
:10031000015B01F8015B521EF9D5A142D8D3002040
:1003200070BD10B5026FC16D891A0A46C16400D54F
:10033000524203EE102AB8EEC33AB4EEE13AF1EEBF
:1003400010FA02D8426D0A444265D0ED151AB8EE93
:10035000E13AB4EEC23AF1EE10FA02DDFDEEC21A55
:100360000AE0B8EEE13AF1EE421AB4EEE13AF1EE0B
:1003700010FA03D2FDEEE11AC0ED151A01EE901A43
:10038000F8EEE11A21EE800ABDEEC00A10EE102A46
:10039000026690ED150AB8EEC00A20EE200ABDEE06
:1003A000C00A10EE104A4466036DCB1A00EE103AF4
:1003B0000029B8EEC00A20EE010ABDEEC00A10EE18
:1003C000103A8366016500DA4942022901DC002106
:1003D0001DE01119194400EE101AB8EEC00AB4EE6F
:1003E000E20AF1EE10FA02DDBDEEE20A0CE000EEE8
:1003F000101AF8EEC00AB1EE620AF4EEC00AF1EE8D
:1004000010FA04D2BDEEC00A80ED1B0A10BDC16611
:1004100010BD0000F1EE401ADFED282A31EEE02A8F
:1004200070EEC00A26482849F0EE421A01EE222A50
:10043000B0EE600A41EE620AB0EE403A41EE621A56
:1004400001EE223A80ED002A9FED1E0AC0ED040A5B
:1004500080ED083AC0ED0C1A22EE001A60EE800A18
:1004600023EE002A61EE801AB3EE030A80ED011A32
:1004700021EE001AC0ED050A80ED092AC0ED0D1A23
:10048000BDEEC11A60EE800A11EE100AFDEEE00A20
:10049000404288620D480E49C0ED0A0A62EE000A29
:1004A00021EE800AFDEEE00ABDEEC00A10EE900AD1
:1004B00040428862074880ED0A0A7047713D1E423B
:1004C000641200204276F43F0C0200208C020020CF
:1004D0000C0300208C030020FEE7000010B50B4940
:1004E0000B4800F041F90A480A49803000F03CF915
:1004F00009490A4800F038F908480949803000F0F5
:1005000033F9BDE8104003F039B900006000002065
:100510000C02002078000020900000200C03002036
:10052000A8000020A0F50070013809D0012809D0EA
:1005300002280AD003280BD1064800BF02F00ABFE8
:100540000548FBE704488030F8E702488038F5E7C3
:10055000704700008C0300200C020020014800F0CE
:1005600064BB00008007002000B587B0082200901F
:1005700000200290CDE903028DF814000A4606AB74
:100580006946024800F084F907B000BD80070020EA
:10059000014800F04ABB0000800700201CB5114A4A
:1005A0001149124802F008FF1048114A11498030E1
:1005B00002F002FF0D4901F18002C86B8861D16B26
:1005C0009161020A8DF800208DF80100080A8DF86B
:1005D00002008DF8031069464FF4007000F05CF8DB
:1005E0001CBD0000C0000020D80000200C0400202A
:1005F000F00000200801002010B51F4CA0F20120DF
:10060000082816D2DFE800F0040C1515161C242A61
:100610001A4802F09FFE207800280AD1012007E046
:100620001648803002F096FE2078012801D1022081
:10063000207010BD124802F08DFE1249104814E0DF
:100640000F48803002F086FE0D480E4980300CE0E5
:100650000D4802F07FFE0B490B4806E00A48803047
:1006600002F078FE08480749803002F0A0FDBDE89E
:10067000104003F0AFB800001C0000200C04002064
:100680000C050020200100200C060020014800F08D
:10069000CCBA0000A807002000B587B0082200905F
:1006A00000200290CDE903028DF8140003460A46AB
:1006B0006946024800F0ECF807B000BDA80700202A
:1006C00010B58AB001210020CDE9051003900490F7
:1006D0000E240290CDE9081400900190079169461C
:1006E0000B4800F057F90A4800F01DFD02210848A8
:1006F00000F0BCF869460748059400F04BF905483E
:1007000000F011FD0221034800F0B0F80AB010BD5E
:1007100080070020A807002010B50246FF20054BE7
:1007200004E000BF12F8014B4440185D491EF9D2A5
:1007300010BD00008A5600080200094810B5008864
:100740000BD0084B491E0AD312F8014B4440E4B2C7
:1007500033F8144084EA1020F4E74FF6FF7010BD20
:10076000780100208A57000891EC060A03F031BE98
:1007700010B504F031FD054890ED041AD0ED060ADD
:1007800090ED050ABDE81040FFF744BE440100208B
:10079000014800F065BD0000EC090020014800F0B0
:1007A0005FBD00002C090020014800F059BD000089
:1007B0008C09002001680A4BCAB2103AA3FB02322E
:1007C0001209084B9B5CC365032A04D96FF3090126
:1007D000091D816502E06FF309018165806D704735
:1007E000ABAAAAAA8A590008014600208A6A8B6926
:1007F000002B0FD0B3F5005F1DD08AB3012A30D093
:10080000022A2ED0032A04D1C96A11F0807F00D0B9
:10081000012070471AB1012A07D0022AF9D1C96A0A
:1008200011F0807FF5D001207047C96AB1F1C07F17
:10083000FAD1012070475AB1012A0BD0022A07D001
:10084000032AF7D1C96AB1F1C07FF3D10120704703
:1008500001207047C96A11F0807FFAD001207047EB
:10086000FFE701207047704772B6FEE790F820203E
:10087000012A07D0022A05D0416A41F48021416251
:1008800001207047006842691143416100207047B0
:1008900070B490F82040D0F800C0DCF808C0012CFB
:1008A00008D0022C06D0416A41F48021416270BC1C
:1008B000012070470CF080640CF000652C4302D1DD
:1008C0001CF0805F5FD0CCF3016CBCF1020F06D945
:1008D000416A41F40001416270BC0120704701246B
:1008E00004FA0CF41C608B684FF4C0749BB1CD68A3
:1008F00004EB0C162B434D6843EAC5030568AB5166
:100900004FF4C273066803EB0C130D69F550097DB3
:10091000012909D00DE00D88CB6804EB0C1643EAE1
:1009200045530568AB51EBE70168CD5845F4807538
:10093000CD501179D379557941EA036193791B043C
:1009400043EA052319434FF4C675036805EB0C15FC
:1009500059511178D37841EA0361937852781B0496
:1009600043EA022211434FF4C473026803EB0C13F1
:10097000D150016804EB0C100A5842F001020A50F1
:1009800070BC00207047416A41F40011416270BCA4
:100990000120704790F82020012A07D0022A05D0B4
:1009A000416A41F480214162012070474248D0F8F9
:1009B000002242F00102C0F80022D0F8002222F406
:1009C0007C52C0F80022D0F800224B6A42EA03228F
:1009D000C0F800220A7D012302F01F0203FA02F28E
:1009E000D0F81C329343C0F81C32CB69D3B9D0F88D
:1009F0000C329343C0F80C32B1F80CC04B686CF366
:100A00001F43D1F814C000EBCC0CCCF84032B1F845
:100A100008C00B686CF31F43D1F814C000EBCC0C7A
:100A2000CCF84432CB69012B1AD1D0F80C321343E5
:100A3000C0F80C32B1F800C04B686CF31F43D1F81A
:100A400014C000EBCC0CCCF84032B1F808C0CB6835
:100A50006CF31F43D1F814C000EBCC0CCCF844323B
:100A60008B697BB1D0F804321343C0F804320B69B0
:100A700073B1D0F814321343C0F81432096A012953
:100A80000CD010E0D0F804329343C0F80432EEE703
:100A9000D0F814329343C0F81432EFE7D0F81C12A8
:100AA0001143C0F81C12D0F8001221F00101C0F867
:100AB000001200207047000000640040704710B42E
:100AC00090F820C0BCF1010F09D0BCF1020F06D094
:100AD000416A41F48021416210BC0120704739B164
:100AE000D0F800C0DCF810C01CF0030F7DD006E089
:100AF000D0F800C0DCF80CC01CF0030F7BD04FF422
:100B0000D87C04680CEB011C54F80C4004F004047D
:100B10009460002C7DD0046854F80C40E4085460C4
:100B2000046854F80CC00CF0020CC2F80CC04FF46E
:100B3000DA7C04680CEB011C54F80C4004F00F0440
:100B40001461046854F80C40C4F3072494610468E9
:100B500054F80CC04FEA1C4CC2F814C04FF4DC72BD
:100B6000D0F800C002EB01125CF802C083F800C0AC
:100B7000D0F800C05CF802C04FEA1C2C83F801C01A
:100B8000D0F800C05CF802C04FEA1C4C83F802C0E9
:100B9000D0F800C05CF80220120EDA704FF4DE725A
:100BA000D0F800C002EB01125CF802C083F804C068
:100BB000D0F800C05CF802C04FEA1C2C83F805C0D6
:100BC000D0F800C05CF802C04FEA1C4C83F806C0A5
:100BD000D0F800C05CF80220120EDA71F9B100689A
:100BE000016941F02001016102E00BE003E010E047
:100BF00010BC00207047416A41F40011416210BCF2
:100C000001207047416A41F40011416210BC01208B
:100C10007047046854F80C40640D146080E7006865
:100C2000C16841F02001C160DEE72DE9F05F0546B3
:100C3000002428684669D0F804908768D0F80CA092
:100C4000D0F810B0D0F8188016F0010F54D017F07B
:100C5000010F17D00121816017F0020F03D0284641
:100C600000F094FA0EE017F0040F02D04FF4006485
:100C700008E017F0080F02D04FF4805402E0284635
:100C800000F083FA17F4807F19D029684FF4807040
:100C9000886017F4007F03D0284600F079FA0EE050
:100CA00017F4806F02D044F4005408E017F4006F8A
:100CB00002D044F4804402E0284600F068FA17F4B9
:100CC000803F19D029684FF48030886017F4003FC6
:100CD00003D0284600F05EFA0EE017F4802F02D011
:100CE00044F4004408E017F4002F02D044F48034A8
:100CF00002E0284600F04DFA16F0080F07D01AF06F
:100D0000100F04D044F4007429681020C86016F055
:100D1000040F4FF0080707D01AF0080F04D0286816
:100D2000C760284600F0D6F916F0020F07D02868F1
:100D3000C06810F0030F02D0284600F0CDF916F07D
:100D4000400F07D01BF0100F04D044F480642968D2
:100D50001020086116F0200F07D01BF0080F04D0F8
:100D600028680761284600F0DBF916F0100F07D05D
:100D70002868006910F0030F02D0284600F0D1F96E
:100D800016F4003F08D019F0100F05D02968102084
:100D90004860284600F0C6F916F4803F07D019F0E5
:100DA000080F04D028684760284600F0F4F916F4CC
:100DB000004F4AD019F0040F44D016F4807F04D0BD
:100DC00018F0010F01D044F0010416F4007F04D0A4
:100DD00018F0020F01D044F0020416F4806F04D022
:100DE00018F0040F01D044F0040416F4006F29D069
:100DF00018F0700F26D008F07000402815D006DCDF
:100E0000102809D020280AD0302816D10AE050280E
:100E10000ED0602811D10EE044F008040DE044F03B
:100E200010040AE044F0200407E044F0400404E029
:100E300044F0800401E044F480742868816921F062
:100E400070018161296804204860002C05D0686A1F
:100E5000204368622846FFF731FEBDE8F09F70B579
:100E60000446002C03D094F8200010B104E00120C7
:100E700070BD204600F0A8F82068016841F001012B
:100E8000016000F093FC0546206840684FF00506BD
:100E900010F0010F11D100F089FC401B0A2807D97E
:100EA000606A40F40030606284F82060012070BD08
:100EB0002068406810F0010FEDD02068016821F033
:100EC0000201016000F072FC05462068406810F0E5
:100ED000020F11D000F06AFC401B0A2807D9606A93
:100EE00040F40030606284F82060012070BD20680A
:100EF000406810F0020FEDD1207E01283FD020681D
:100F0000016821F080010160607E01283DD02068E9
:100F1000016821F040010160A07E01283BD02068DB
:100F2000016821F020010160E07E012839D02068AD
:100F3000016841F010010160207F012837D020684E
:100F4000016821F008010160607F012835D0206828
:100F5000016821F004010160E168A068626908434A
:100F60002169114308436168491E08432168C8612B
:100F700000206062012084F82000002070BD2068FD
:100F8000016841F080010160BEE72068016841F01E
:100F900040010160C0E72068016841F02001016064
:100FA000C2E72068016821F010010160C4E72068F1
:100FB000016841F008010160C6E72068016841F05E
:100FC00004010160C8E70000F0B587B004461421B1
:100FD0006846FFF73FF93A4B3A48DFF8E0E0196816
:100FE000D4F800C0374A0325022609271030002410
:100FF000491CF4452AD11960012907D1016841F043
:1010000000710160006800F000700590106840F009
:10101000080010601068CDE9005600F00800CDE926
:10102000047069462848CDE9024500F099FA00228B
:101030000121132000F02AFC132000F019FC0022EB
:101040000121142000F022FC142032E0DFF87CE0C3
:10105000F44530D1D0F800C04CF0806CC0F800C02E
:10106000D0F800C001290CF0806CCDF814C01960D4
:1010700007D1016841F000710160006800F0007064
:101080000590106840F002001060106802AB00F09C
:10109000020005906020CDE9000683E8B0006946B3
:1010A0000B4800F05DFA00220121402000F0EEFB29
:1010B000402000F0DDFB07B0F0BD00000064004000
:1010C0005000002030380240000C02400068004010
:1010D000000402407047000010B5044688B00120AB
:1010E00001F06CFE0B4B6A4600212046FFF7E7FC3F
:1010F0000948844205D107490098FFF713FA08B060
:1011000010BD06488442FAD102490098FFF774FAEC
:10111000F5E700005400002080070020A807002009
:1011200070477047704770B5044694F82000012856
:1011300005D0606A40F400206062012070BD02208A
:1011400084F820002068016821F00101016000F0AE
:101150002DFB05462068406810F0010F12D000F00A
:1011600025FB401B0A2808D9606A40F40030606201
:10117000052084F82000012070BD2068406810F030
:10118000010FECD10020606270BD7047704770475E
:1011900070477047704770472DE9F0410446A66DCF
:1011A00000F004FB054694F835000027022806D01D
:1011B0008020606584F834700120BDE8F0812068EB
:1011C000016821F0160101602068416921F0800169
:1011D0004161206C08B9A06C20B12068016821F041
:1011E000080101602068016821F0010101602068A8
:1011F000006810F0010F12D000F0D8FA401B05284B
:1012000008D920206065032084F8350084F8347004
:10121000BDE8F0812068006810F0010FECD194F86F
:101220005C003F2101FA00F0B060012084F8350035
:1012300084F834700020BDE8F08190F83510022960
:1012400003D08021416501207047052180F83510C9
:101250000068016821F00101016000207047000072
:101260002DE9F84304464FF00008CDF80080764899
:101270004FF416510068B0FBF1F7A56D2E6894F895
:101280005C00082101FA00F0304211D020680268A9
:1012900012F0040F0CD0026822F00402026094F8ED
:1012A0005C0001FA00F0A860606D40F0010060652C
:1012B00094F85C004FF0010909FA00F0304209D0BF
:1012C0002168496911F0800F04D0A860606D40F07A
:1012D0000200606594F85C1004208840304209D018
:1012E0002168096811F0020F04D0A860606D40F019
:1012F0000400606594F85C1010208840304224D0CF
:101300002168096811F0080F1FD0A86020680168E3
:1013100011F4802F0DD0006810F4002F04D0A16CC0
:1013200099B12046884710E0216C71B1204688476A
:101330000BE0016811F4807F03D1016821F00801FE
:101340000160216C09B12046884794F85C10202088
:101350008840304251D02168096811F0100F4CD0FC
:10136000A86094F8350005280DD02068016811F4B4
:10137000802F32D0006810F4002F29D0E16B59B3D0
:101380002046884739E02068016821F01601016095
:101390002068416921F080014161206C08B9A06C8E
:1013A00020B12068016821F00801016094F85C0018
:1013B0003F2101FA00F0A86084F8359084F8348069
:1013C000216D00293ED001B02046BDE8F04308471A
:1013D000616C09B1204688470FE0016811F4807FF5
:1013E00007D1016821F01001016084F8359084F87C
:1013F0003480E16B09B120468847606D002821D018
:10140000606D10F0010F15D0052084F835002068BC
:10141000016821F0010101600098401C0090B84271
:1014200004D82068006810F0010FF5D184F83590D9
:1014300084F83480E16C002904D001B02046BDE876
:10144000F0430847BDE8F883C00100202DE9F041D2
:10145000044600F0ABF90546DCB1022084F8350003
:10146000002684F834602068016821F001010160E1
:101470002068006810F0010F13D000F097F9401BAE
:10148000052809D920206065032084F83500BDE8CF
:10149000F0810120BDE8F0812068006810F0010FA4
:1014A000EBD121680868234A1040A3686268D4F829
:1014B00010C01A43E36843EA0C031A4363691A43F2
:1014C000A3691A43E3691A43236A1A431043626A01
:1014D000042A03D1236BE26A1A4310430860206890
:1014E000406920F00701606A40EA010501270428ED
:1014F0000ED1A06A0543E06A50B12046FFF774F9A7
:1015000030B14020606584F835700120BDE8F0817D
:10151000206845612046FFF74DF994F85C103F22A2
:1015200002FA01F18160666584F835700020BDE83B
:10153000F08100003F8010F070B5044600F036F9ED
:101540000546B4F1FF3F02D004480078044400F09F
:101550002DF9401BA042FAD370BD0000B401002059
:101560002DE9F84F0022DFF818A2DFF810924FF0B3
:10157000010E03274FF00F08AAF1040B0EFA02FC2C
:101580000B6803EA0C0363457DD10C7904F0030476
:10159000012C01D0022C14D18568540007FA04F6FE
:1015A000B543CE6806FA04F42C438460446824EA08
:1015B0000C0C0C79C4F30014944044EA0C0CC0F8F1
:1015C00004C0D1F804C037EA0C0C0CD0C4684FEA50
:1015D000420C07FA0CF5AC438D6805FA0CFC4CEA9A
:1015E000040CC0F80CC091F804C00CF0030CBCF162
:1015F000020F12D14FEAD20C00EB8C04256A4FEA9D
:10160000427C4FEADC6C08FA0CF6B5430E6906FA28
:101610000CFC4CEA050CC4F820C004684FEA420CEC
:1016200007FA0CF5AC430D7905F0030505FA0CFC3F
:101630004CEA040CC0F800C0D1F804C01CF4403FD0
:101640007DD0D9F800C04CF4804CC9F800C0D9F85E
:1016500000C00CF4804CCDF800C022F0030C0CF15B
:10166000804505F59835D5F808C89407240F08FA81
:1016700004F62CEA0606A0F1804CBCF5003C64D0D0
:10168000A0F1804C00E05AE0BCF5013C60D0A0F134
:10169000804CBCF5023C5ED0A0F1804CBCF5033C14
:1016A0005CD0A0F1804CBCF5043C5AD0A0F1804C39
:1016B000BCF5053C58D0A0F1804CBCF5063C56D09A
:1016C000A0F1804CBCF5073C54D04FF0080C0CFA4C
:1016D00004FC4CEA060CC5F808C8DAF800C02CEA8D
:1016E000030C4C6814F4801F01D04CEA030CCAF8B8
:1016F00000C0244CD4F800C02CEA030C4D6815F44B
:10170000001F01D04CEA030CC4F800C0DBF800C095
:101710002CEA030C4C6814F4003F01D04CEA030C93
:10172000CBF800C0184CD4F800C02CEA030C4D686C
:1017300015F4803F01D04CEA030CC4F800C0521CE1
:10174000102AFFF41BAFBDE8F88F4FF0000CBEE786
:101750004FF0010CBBE74FF0020CB8E74FF0030C61
:10176000B5E74FF0040CB2E74FF0050CAFE74FF0D0
:10177000060CACE74FF0070CA9E700004438024024
:10178000083C01400C3C0140003C0140426921EA18
:101790000203114043EA014181617047002A01D0F0
:1017A00081617047090481617047000001488068C9
:1017B00070470000B401002002488168027811449B
:1017C00081607047B401002010B50B48016841F4F6
:1017D00000710160016841F480610160016841F4B9
:1017E00080710160032000F085F8002000F006F809
:1017F00000F026F8002010BD003C024070B5044601
:101800000D4D4FF47A712878B1FBF0F00B4909685F
:10181000B1FBF0F000F0DEFB08B1012070BD102C30
:1018200007D200222146501E00F030F86C600020E4
:1018300070BD012070BD0000B4010020C001002077
:101840000A4808B5016841F480410160006800F46D
:10185000804000900548001F016841F08051016000
:10186000006800F08050009008BD0000443802403D
:1018700000280ADB00F01F01012202FA01F14009F1
:10188000800000F1E020C0F80011704710B4184B40
:101890001B68C3F30223C3F1070CBCF1040F01D989
:1018A0004FF0040C1C1D072C01D2002300E0DB1EAE
:1018B000012404FA0CFCACF1010C0CEA0101994082
:1018C00004FA03F35B1E1A401143002806DB00F103
:1018D000E020090180F8001410BC704700F00F00F0
:1018E00000F1E020090180F8141D10BC70470000D1
:1018F0000CED00E000F00700064A11684FF6FF0308
:10190000194041EA002040F0FD7040F08060106016
:10191000704700000CED00E02DE9F04704460D464D
:10192000002C13D0DFF85491D9F80000EFB200F08A
:101930000700A8420DD289F80070D9F8000000F025
:101940000700A84205D00120BDE8F0870120BDE8CE
:10195000F08720684A4E10F0020F14D010F0040FE8
:1019600003D0306840F4E0503060207810F0080F69
:1019700003D0306840F4604030603068A16820F0E7
:10198000F00008433060207810F0010F3ED060680E
:101990003C49012808D002280DD003280BD0096843
:1019A00011F0020F28D00AE0096811F4003F06D1B7
:1019B0000120BDE8F087096811F0007F19D0316877
:1019C00021F0030108433060FFF7F0FE80463068E5
:1019D000616800F00C00B0EB810F17D041F2883A3B
:1019E000FFF7E4FEA0EB0800504508D90320BDE84E
:1019F000F0870120BDE8F0870120BDE8F08730685E
:101A0000616800F00C00B0EB810FE9D1D9F800005B
:101A100000F00700A8420AD989F80070D9F8000040
:101A200000F00700A84202D00120BDE8F08720782E
:101A300010F0040F05D03068E16820F4E05008434E
:101A40003060207810F0080F06D03068216920F44B
:101A5000604040EAC100306000F042F831680A4A54
:101A6000C1F30311515CC840084908600848006888
:101A7000FFF7C4FE0020BDE8F0870000003C0240F4
:101A8000083802400038024092590008C001002086
:101A9000B80100200148006870470000C001002024
:101AA00000B5FFF7F7FF04490968044AC1F3822132
:101AB000515CC84000BD000008380240A25900082F
:101AC00000B5FFF7E7FF04490968044AC1F3423152
:101AD000515CC84000BD000008380240A25900080F
:101AE00010B51748006810F00C01164816D0164BB8
:101AF000042912D0082911D1144C216801F03F02A9
:101B0000216811F4800F0AD02068C0F38810A0FB70
:101B100003010023FEF754FB09E0184610BD2168BD
:101B20000023C1F38811A1FB0001FEF749FB2168E6
:101B3000C1F30141491C4900B0FBF1F010BD0000A8
:101B4000083802400024F400001BB70004380240AB
:101B50002DE9F84F0446002C12D02078FB4E10F0EF
:101B6000010FA6F1040563D0301D016801F00C01DE
:101B700004290CD0006800F00C00082803D010E005
:101B80000120BDE8F88F306810F4800F09D0286874
:101B900010F4003F4CD06068002849D10120BDE816
:101BA000F88F6068B0F5803F14D0B0F5A02F16D044
:101BB000286820F480302860286820F4802028607D
:101BC000606810B3FFF7F2FD0746286810F4003F85
:101BD0000ED02DE0286840F480302860F0E72868B7
:101BE00040F480202860286840F480302860E7E7CF
:101BF000FFF7DCFDC01B642802D90320BDE8F88F85
:101C0000286810F4003FF3D012E0FFF7CFFD07463D
:101C1000286810F4003F0BD0FFF7C8FDC01B6428F4
:101C200002D90320BDE8F88F286810F4003FF3D1F3
:101C30002078C74F10F0020F4FF0000957D0C54869
:101C4000016811F00C0F14D0006800F00C00082897
:101C500003D1306810F4800F0BD0E06880B301200E
:101C60003860FFF7A3FD8046286810F0020F12D0FD
:101C70001EE0286810F0020F05D0E068012802D0AD
:101C80000120BDE8F88F2868216920F0F80040EABB
:101C9000C10028602BE0FFF789FDA0EB08000228B7
:101CA00002D90320BDE8F88F286810F0020FF2D0A7
:101CB0002868216920F0F80040EAC100286016E099
:101CC000FFE7C7F80090FFF771FD8046286810F025
:101CD000020F0CD0FFF76AFDA0EB0800022802D922
:101CE0000320BDE8F88F286810F0020FF2D12078A9
:101CF00010F0080F35D09848DFF860A26169C1B1D3
:101D000001210160FFF752FD8046DAF8000010F073
:101D1000020F26D1FFF74AFDA0EB0800022802D9E6
:101D20000320BDE8F88FDAF8000010F0020FF1D0C0
:101D300017E0C0F80090FFF739FD8046DAF80000A0
:101D400010F0020F0DD0FFF731FDA0EB08000228C4
:101D500002D90320BDE8F88FDAF8000010F0020F76
:101D6000F1D1207810F0040F71D04FF000087C48BA
:101D7000006810F0805F0AD17948016841F0805115
:101D80000160006800F0805000904FF00108DFF81B
:101D9000D4B1DBF8000010F4807F1BD1DBF8000029
:101DA00040F48070CBF80000FFF700FD8246DBF8BE
:101DB000000010F4807F0DD1FFF7F8FCA0EB0A00C3
:101DC000022802D90320BDE8F88FDBF8000010F4E8
:101DD000807FF1D0A068DFF890B1012818D00528E5
:101DE0001DD0DBF8000020F00100CBF80000DBF88C
:101DF000000020F00400CBF80000A06840B3FFF71B
:101E0000D5FC8246DBF8000010F0020F14D03EE053
:101E1000DBF8000040F00100CBF80000EDE7DBF854
:101E2000000040F00400CBF80000DBF8000040F0B8
:101E30000100CBF80000E0E7FFF7B8FCA0EB0A01D7
:101E400041F28830814204D90320BDE8F88F26E0B2
:101E500005E0DBF8000010F0020FEDD017E0FFF70F
:101E6000A5FC8246DBF8000010F0020F0FD0FFF750
:101E70009DFCA0EB0A0141F28830814202D9032087
:101E8000BDE8F88FDBF8000010F0020FEFD1B8F1D9
:101E9000010F04D13248016821F080510160A0692E
:101EA000F0B32C4909684FF0FF3801F00C01082904
:101EB00066D0022810D0C7F86090FFF777FC044680
:101EC000286810F0007F2BD0FFF770FC001B022861
:101ED00051D90320BDE8F88FC7F86090FFF766FC82
:101EE0008146286810F0007F0CD0FFF75FFCA0EB64
:101EF0000900022802D90320BDE8F88F286810F0F5
:101F0000007FF2D1216AE069A26A0843616A08EBA6
:101F10005202890141EA0241084394F82C1000E082
:101F200055E040EA0160306001203866FFF73EFC72
:101F30000446286810F0007F49D1FFF737FC001BEA
:101F4000022813D90320BDE8F88F000004380240AE
:101F50000000474208380240800E47427438024071
:101F6000403802400070004070380240286810F08D
:101F7000007FE2D02BE0286810F0007FA4D126E09B
:101F8000012822D03068E26900F4800191421AD120
:101F9000226A00F03F01914215D147F6C071626A92
:101FA0000140B1EB821F0ED1A26A00F4403108EB70
:101FB0005202B1EB024F06D194F82C1000F0706081
:101FC000B0EB016F03D00120BDE70120BBE700208B
:101FD000B9E70000401EB0F1807F01D301207047B7
:101FE0004FF0E0214861044AF02010700020886121
:101FF000072008610020704723ED00E0704770471C
:1020000090F83C20012A2CD0012280F83C20CA689C
:102010000023D1F808C022F4407242EA0C02D1F841
:1020200004C022F4806242EA0C02D1F800C022F41B
:10203000006242EA0C02D1F810C022F4805242EA57
:102040000C02D1F814C022F4005242EA0C02C96911
:1020500022F4804211430268516480F83C30002031
:1020600070470220704730B490F83C20012A44D0D9
:10207000012480F83C40022280F83D200268D2F81A
:1020800004C093682CF0700C0D6845EA0C0CC2F883
:1020900004C00268A2F1804CBCF5803C20D0B2F1B3
:1020A000804F1DD0A2F1804CBCF5806C18D0A2F1FD
:1020B000804CBCF5006C13D0A2F1804CBCF5406C98
:1020C0000ED0A2F1804CBCF5823C09D0A2F1804C2C
:1020D000BCF5A03C04D0A2F1804CBCF5C05C04D19E
:1020E00023F0800349681943916080F83D40002146
:1020F00080F83C1030BC0020704730BC0220704794
:1021000010B50446002C03D094F83D0010B107E050
:10211000012010BD002084F83C00204600F01EF88D
:10212000022084F83D00211D206801F0E5FB01201C
:1021300084F8460084F83E0084F83F0084F84000AC
:1021400084F8410084F8420084F8430084F8440095
:1021500084F8450084F83D00002010BD08B50068F3
:10216000154988420FD11548016841F0010101600D
:102170000068002200F00100009011461B20FFF7CC
:1021800085FB1B2012E00E49884213D10B48001F2B
:10219000016841F0100101600068002200F01000A9
:1021A000009001213620FFF771FB3620BDE8084082
:1021B000FFF75EBB08BD000000000140443802404C
:1021C0000010004090F83D10012901D00120704717
:1021D000022180F83D100168CA6842F00102CA601D
:1021E0000068A0F18041B1F5803126D0B0F1804F78
:1021F00023D0A0F18041B1F580611ED0A0F18041D3
:10220000B1F5006119D0A0F18041B1F5406114D061
:10221000A0F18041B1F582310FD0A0F18041B1F53C
:10222000A0310AD0A0F18041B1F5C05105D00168BC
:1022300041F00101016000207047816801F0070151
:102240000629F8D0016841F001010160F3E770B59B
:102250000446002594F83C00012818D0012684F893
:102260003C60022084F83D002068826822F07702FA
:1022700022F47F4282600868502839D00EDC202882
:1022800054D006DC002851D0102811D14EE0022095
:1022900070BD30284AD040280AD13DE0602831D0B6
:1022A00070280DD0B0F5805F03D0B0F5005F13D07B
:1022B000012584F83D60002084F83C00284670BD6C
:1022C000CB684A688968206801F08BFB20688168C8
:1022D00041F077018160ECE7CB684A688968206843
:1022E00001F07FFB2068816841F480418160E0E774
:1022F000CA684968206801F063FC5021206801F039
:102300007BFBD6E7CA684968206801F06CFC602155
:10231000206801F071FBCCE7CA684968206801F0C9
:102320004FFC4021206801F067FBC2E722680146AC
:10233000104601F061FBBCE7704770B504462068A9
:1023400001694FF0000511F0020F17D0C16811F0BC
:10235000020F13D0E91E01610120207720688069F7
:1023600010F0030F03D02046FFF7E6FF05E02046FC
:1023700000F0C8F8204600F061F92577206801696F
:1023800011F0040F18D0C16811F0040F14D06FF0D1
:1023900004010161022020772068806910F4407FE9
:1023A00003D02046FFF7C8FF05E0204600F0AAF85A
:1023B000204600F043F925772068016911F0080FE5
:1023C00018D0C16811F0080F14D06FF00801016136
:1023D000042020772068C06910F0030F03D0204646
:1023E000FFF7AAFF05E0204600F08CF8204600F039
:1023F00025F925772068016911F0100F18D0C16800
:1024000011F0100F14D06FF0100101610820207737
:102410002068C06910F4407F03D02046FFF78CFF8E
:1024200005E0204600F06EF8204600F007F9257719
:102430002068016911F0010F09D0C16811F0010F86
:1024400005D06FF001010161204600F047F92068D6
:10245000016911F0800F09D0C16811F0800F05D01B
:102460006FF0800101612046FFF7C8FD2068016917
:1024700011F0400F09D0C16811F0400F05D06FF086
:1024800040010161204600F0B7F92068016911F0B0
:10249000200F0BD0C16811F0200F07D06FF0200182
:1024A00001612046BDE87040FFF7A9BD70BD000086
:1024B00010B586B0044614216846FDF7CBFE0E49E0
:1024C0002068884216D10D480021026842F01002AF
:1024D0000260006800F0100005904FF4007000905A
:1024E0000220CDE901010120CDE90310694604482D
:1024F000FFF736F806B010BD00000140303802404A
:1025000000100240704770B504460D46002694F84E
:102510003C0001280FD0012084F83C006AB1042A55
:102520001FD0082A32D00C2A44D00126002084F87B
:102530003C00304670BD022070BD2946206801F085
:1025400063FA2068816941F008018161206881692E
:1025500021F004018161206881692A691143816148
:10256000E4E72946206801F087FA2068816941F490
:10257000006181612068816921F480618161206846
:1025800081692A6941EA02218161CFE729462068F1
:1025900001F0AEFA2068C16941F00801C16120680C
:1025A000C16921F00401C1612068C1692A69114330
:1025B000C161BBE72946206801F0D6FA2068C169ED
:1025C00041F40061C1612068C16921F48061C16189
:1025D0002068C1692A6941EA0221C161A6E710B5F4
:1025E0000446002C03D094F83D0010B107E0012010
:1025F00010BD002084F83C00204600F01EF80220A8
:1026000084F83D00211D206801F076F9012084F84E
:10261000460084F83E0084F83F0084F8400084F8C7
:10262000410084F8420084F8430084F8440084F8B0
:10263000450084F83D00002010BD704706498842DF
:1026400009D106490878401C0870C00703D1002151
:10265000014800F005B87047D00700205C0000205A
:1026600030B504460D4600222946206801F0AAF93B
:10267000206841F211118A10A0F18043B3F5803334
:1026800004D0A0F18043B3F5823309D1036A0B4231
:1026900006D1036A134203D1436C23F4004343641D
:1026A0002068036A0B4206D1016A114203D1016816
:1026B00021F00101016001203DB1042D08D0082D59
:1026C00009D084F84100002030BD84F83E00FAE7CC
:1026D00084F83F00F7E784F84000F4E72DE9F0477D
:1026E0003C4C3D480022A168491CA16043883B48FE
:1026F00001253BB102702378DFF8E480394E012BCD
:1027000002D009E00570F6E703782BB988F800508D
:1027100032704FF0FF326260007820700F2791FB1B
:10272000F7F007FB101008B902F0C6F8A0684FF4E4
:102730007A79484500DBA56098F8000018B1307838
:1027400002283CD042E06068401C90FBF7F16060DA
:1027500007FB110018B9FEF70BF800F02DFD224819
:102760002249C26D8A4200DDC165214942F6A0724C
:10277000CB6D934200DACA651E4AC36D934200DAFC
:10278000C2651C48CA6D4042824200DDC86560686F
:10279000192190FBF1F201FB120018B900F03AFF89
:1027A00000F048FF6068B0F5FA7F01D100F00EFB41
:1027B0006068484500DB656001F092FE01E000F0D2
:1027C00099FD3078022801D1FDF7E8FEBDE8F04719
:1027D000FDF784BE380100206C1300203E0000206D
:1027E000020000201C0000200C04002060D0FFFF2D
:1027F0008C040020206CFBFF70477047704700007E
:10280000F8B5044622681068D168536900F00F0CCF
:10281000BCF1000F0AD110F0200F07D011F0200FEB
:1028200004D02046BDE8F84001F02BBA0025BCF1E9
:10283000000F75D003F0010C01F490765CEA0606F7
:102840006ED010F0010F06D011F4807F03D0226CFF
:1028500042F00102226410F0040F06D013F0010FC1
:1028600003D0226C42F00202226410F0020F06D064
:1028700013F0010F03D0226C42F00402226410F026
:10288000080F08D001F0200252EA0C0203D0226C9B
:1028900042F008022264226C002A35D010F0200F8A
:1028A00005D011F0200F02D0204601F0EAF920688F
:1028B0004069C0F38010216C11F0080F00D148B3BB
:1028C000204601F0AAF92068406910F0400F1CD0A2
:1028D0002068143050E8001F21F0400140E8001249
:1028E000002AF5D1A06B60B15C490165A06BFEF7D1
:1028F000A4FC002808D0A06B016D01B0BDE8F04039
:1029000008472046FFF77AFFF8BD2046FFF776FF1D
:10291000F8BD05E0FFE72046FFF770FF2564F8BD2E
:10292000236B012B7ED110F0100F7BD011F0100F14
:102930007ED010685068009050694FF0200310F06E
:10294000400F43D0A16B0868406880B20028E6D0F1
:10295000A28D8242E3D9E085C869B0F5807F2DD091
:1029600020680C3050E8001F21F4807140E800120C
:10297000002AF5D12068143050E8001F21F0010131
:1029800040E80012002AF5D12068143050E8001FFA
:1029900021F0400140E80012002AF5D184F83E30D1
:1029A000256320680C3050E8001F21F0100140E83A
:1029B0000012002AF5D1A06BFEF7EEFBA08DE18D91
:1029C000401A81B22046FFF718FFF8BDA08DE18DB7
:1029D000401A81B2E08D0028F7D00029F5D0206898
:1029E0000C3050E8002F22F4907240E8002CBCF12B
:1029F000000FF4D12068143050E8002F22F00102BB
:102A000040E8002CBCF1000FF4D184F83E3025637F
:102A100020680C3050E8002F22F0100240E800231C
:102A2000002B00E004E0F3D12046FFF7E6FEF8BDFE
:102A300010F0800F07D011F0800F04D02046BDE8C1
:102A4000F84001F01FBA10F0400FF0D011F0400F25
:102A5000EDD02046BDE8F84001F006B90B3C000877
:102A600070B50446002C04D094F83D00002510B148
:102A700006E0012070BD84F83C50204600F022F8AA
:102A8000242084F83D002068C16821F40051C16011
:102A9000204601F05BF92068016921F49041016151
:102AA0002068416921F02A0141612068C16841F430
:102AB0000051C1602564202084F83D0084F83E0068
:102AC000002070BD2DE9F04F87B0054614216846FF
:102AD000FDF7C0FB6F48DFF8B8C12B686D491438AB
:102AE00002260327072200244FF4803B4FF00069A1
:102AF0004FF4806A634563D10B6843F010030B60A9
:102B0000096801F010010591016841F002010160BE
:102B1000016801F002010591016841F001010160C5
:102B2000006802AB00F0010005908020CDE90006AE
:102B3000904683E8900169465748FEF711FD300240
:102B4000CDE9000602AB694683E890015348FEF7E1
:102B500007FD544F52484E463860C7E90194C7E913
:102B6000034A7C614FF40030BC61C7E90740D0469E
:102B700038467C62FEF76AFC08B1FDF775FEAF636C
:102B8000BD63484F464860377830E7E8020640208A
:102B9000A7E81101434847F814496030BC61C7E910
:102BA000074B7C62FEF752FC08B1FDF75DFE6F63D8
:102BB000002211462520BD63FEF768FE25203CE07B
:102BC000DFF8E4C063453DD13249091F0B6843F487
:102BD00080230B60096801F480210591016841F0B0
:102BE000040101600068029400F0040005904FF4B5
:102BF0004060CDE90006CDE9037269462B48FEF737
:102C0000AFFC284E2A48C0363060C6E90194C6E9B8
:102C1000034A80157461C6E90640C6E908B4304627
:102C2000FEF714FC08B1FDF71FFEAE630022012180
:102C30002720B563FEF72AFE2720FEF719FE07B00E
:102C4000BDE8F08F1B4A9342F9D10A6842F0200296
:102C50000A60096801F020010591016841F0400116
:102C600001600068029400F0400005904FF4844039
:102C7000CDE900060820CDE9037069460E48FEF74D
:102C80006FFC002211464720FEF700FE4720D4E7E4
:102C9000001001404438024000040240000002409D
:102CA000406402402C090020004800400008024017
:102CB00028600240001401400018024090F83E30A5
:102CC000202B01D00220704759B152B190F83C300E
:102CD000012B08D0012380F83C300023036301F06E
:102CE000B3B8012070470220704770472DE9F843C0
:102CF00004460E4615461F4694F83D00202802D093
:102D00000220BDE8F883C6B1BDB194F83C000128AB
:102D100016D0012084F83C004FF00009C4F8409020
:102D2000212084F83D00FEF741FD8046A584E5841E
:102D3000A068B0F5805F06D007E00120BDE8F88309
:102D40000220BDE8F883206980B13546002684F86A
:102D50003C90E08CB8B14346002280212046009789
:102D600001F0BFF820B10320BDE8F8830025EEE7AD
:102D7000A5B12168287848606D1CE08C401EE08475
:102D8000E08C0028E7D143460022402120460097EE
:102D900001F0A7F848B10320BDE8F8833088216826
:102DA000C0F308004860B61CE7E7202084F83D0027
:102DB0000020BDE8F8837047FEE7000002464FF4AC
:102DC00080610148FEF7EABC001C02404FF400613C
:102DD0000148FEF7DBBC0000001C0240124911480C
:102DE0000A7842F0100202704A7842F020024270E3
:102DF0008A7842F030028270CA7842F04002C27093
:102E00000A7942F0500202714A7942F0600242713E
:102E10008A7942F070028271897B41F08001C17130
:102E2000704700000C07002030000020104810B54B
:102E30000E4901600321416000214FF4802281602E
:102E4000C0E903124FF4E0024261017601224276AA
:102E50008176C17601774177FEF701F8002803D02B
:102E6000BDE81040FDF700BD10BD0000006400404B
:102E700080070020104810B50E4901600321416011
:102E800000214FF480228160C0E903124FF4E00278
:102E900042610176012242768176C17601774177DF
:102EA000FDF7DDFF002803D0BDE81040FDF7DCBCD6
:102EB00010BD000000680040A8070020154808B5B4
:102EC000016841F400110160016801F400110091F2
:102ED000016841F4800101600068002200F4800074
:102EE000009011460C20FEF7D1FC0C20FEF7C0FC30
:102EF000002211463A20FEF7C9FC3A20FEF7B8FC42
:102F0000002211464620FEF7C1FCBDE808404620DD
:102F1000FEF7AEBC303802402DE9F04186B01421F6
:102F20006846FDF797F930480024016841F0020136
:102F30000160016801F002010591016841F0400162
:102F40000160016801F040010591016841F0010153
:102F50000160016801F001010591016841F008017B
:102F60000160016801F008010591016841F0040168
:102F70000160016801F004010591016841F08001E0
:102F80000160016801F080010591016841F01001C4
:102F900001600068154F00F010004FF4E0550590F7
:102FA000002229463846FEF7F9FBDFF844804FF44B
:102FB0002056002231464046FEF7F0FB0320CDE9C3
:102FC000024000950125694601953846FEF7C8FA8A
:102FD0000096CDE90154694640460394FEF7C0FAD5
:102FE00006B0BDE8F081000030380240001C02400D
:102FF0000010024010B596B000240F941094119464
:10300000129413941C2108A81494FDF723F920218D
:103010006846FDF71FF9284826490160A721C0E945
:10302000011444F61F61C0E9031444618461FFF791
:1030300067F808B1FDF718FC4FF480500F900FA906
:103040001D48FFF704F908B1FDF70EFC1A48FFF719
:10305000C6FA08B1FDF708FC139413A91648149496
:10306000FFF701F808B1FDF7FFFB6020CDE9080488
:103070000A940B940C940D94002208A90E480E9407
:10308000FFF741FA08B1FDF7EFFB00944FF4005051
:10309000CDE90440029401940394694606480794DC
:1030A000FEF7AEFF08B1FDF7DFFB0348FFF700FABC
:1030B00016B010BD00000140D00700201CB5002450
:1030C0000E4800940C49019401605321C0E9011499
:1030D00040F2E7318461C160FFF712F808B1FDF7F3
:1030E000C3FB0094694605480194FEF7BCFF002825
:1030F00001D0FDF7B9FB1CBD0010004018080020EE
:103100000C4810B50A4901604FF4E13141600021DB
:1031100081600C22C160C0E904128161C161FFF7C6
:103120009FFC002803D0BDE81040FDF79DBB10BDFB
:1031300000100140600800200C4810B50A490160E9
:103140000B494160002181600C22C160C0E904127A
:103150008161C161FFF784FC002803D0BDE8104005
:10316000FDF782BB10BD000000480040A40800200D
:10317000A08601000C4810B50A4901604FF4E13106
:103180004160002181600C22C160C0E904128161AC
:10319000C161FFF765FC002803D0BDE81040FDF7D2
:1031A00063BB10BD00140140E8080020FEE791EC6D
:1031B000060A01F00EB9000070B54048404A414B84
:1031C0000478D16DD86D032C02D0042C06D00BE00E
:1031D000A1F6AC5100F6AC50D16504E001F6AC515B
:1031E000A0F6AC50D165D86537483849DFED380ACC
:1031F00000789FED381A9FED380AF3EE041ABBEE03
:10320000042A032807D0042808D0062809D0072854
:103210000AD060B10DE0C1ED000A0AE081ED001AAC
:1032200007E0C1ED001A04E081ED002A01E081ED24
:10323000000A2A482A490078032807D0042808D021
:10324000062809D007280AD060B10DE0C1ED000AB8
:103250000AE081ED001A07E0C1ED001A04E081EDFB
:10326000002A01E081ED000A1E481F49007803286A
:1032700003D0042804D028B106E0BEEE000A01E025
:10328000B6EE000A81ED000A18484FF40051184CC0
:1032900000788D1001280AD000222046FEF77EFA21
:1032A000002229462046BDE87040FEF777BA012289
:1032B0002046FEF773FA0122F3E7000046000020E3
:1032C0000C0400208C040020470000204C0100204A
:1032D00000008C4200008CC200000000480000206A
:1032E0005001002049000020540100203900002036
:1032F00000100240144A10B5D16D14482831D16530
:10330000C36D283BC365146F091B00D5494249F6BC
:103310004044A14216DD016F591A00D54942A1422D
:1033200010DDD16A002900DA4942C8290ADAC16AE7
:10333000002900DA4942C82904DA0021116101613B
:103340000348017010BD00000C0400208C04002014
:103350000200002010B54A780B7802EB032212B26B
:103360008265CB788C7803EB04231BB2C3624B7964
:103370000C7903EB04231BB2436143683BB94B78E0
:10338000097803EB012109B2016001214160C168A4
:10339000531A0169B3F5805F01DD491E03E013F59F
:1033A000805F01DA491C0161036802EB4131C91AEF
:1033B000C260016710BDFEE730B5144691EC060A05
:1033C0000546FCF7AEFFE86EA862284694EC060AB4
:1033D000BDE8304000F0FDBF7047002801DC4042EE
:1033E00000B2704770B5194CB4F90000FFF7F5FF53
:1033F00040F29465A84217DCB4F90200FFF7EDFF34
:10340000A84211DCB4F90400FFF7E7FFA8420BDC87
:10341000B4F90600FFF7E1FFA84205DCA07A18B175
:10342000E07A08B1002070BD002020806080A0807C
:10343000E08020810221A172E172A081E0812082DE
:10344000A074E074A082012070BD0000060000207E
:1034500030B5144B1C68656945F0400565611B6813
:10346000DC6844F01004DC600F4B1C68256825F014
:10347000010525601C682568ED07F7D11D680B4C18
:10348000AC601C68E06018680161186842601868E8
:10349000016841F4802101601868016841F0010170
:1034A000016030BDA4080020EC0900200448004061
:1034B00038B51B480168CA6822F40052CA60194A2C
:1034C00011680B6823F001030B6013682421596015
:1034D0000068016841680091134C13684FF40011B3
:1034E000A34202D9104B4C3B04E0104CA34203D939
:1034F0000D4B503B196008E00C4D0C4C603DB83C46
:10350000AB4201D9E16000E0A160C16841F4005123
:10351000C1601068016841F00101016038BD000020
:10352000A4080020EC09002058640240B860024062
:1035300030B5284801684B6943F040034B6101688E
:103540004B6943F080034B610068C16841F0100192
:10355000C160214801680B6823F001030B6001681A
:103560000B68DB07F7D11D4D4FF40013A94202D9B8
:103570001A4C4C3C04E01A4CA14203D9174C503C65
:10358000236008E0164D164C603DB83CA94201D9B5
:10359000E36000E0A360134B8B6004681249E160B4
:1035A0000468216101684A6001680A6842F4802267
:1035B0000A600068016841F0010101600B48016880
:1035C0000A6822F001020A6001680A68D207F7D18E
:1035D0008B6030BD600800202C0900205864024038
:1035E000B8600240041001404C0A00208C09002001
:1035F00006490A78521CD2B20A70642A01D300220A
:103600000A70034A09785054704700004A000020AD
:103610001C07002010B5FFF7E1FBBDE810404FF498
:103620007A73102201490248FFF760BB0C070020A3
:10363000E808002030B54948017F837E87E0521CAE
:10364000D1B2C176642901D10021C1764449C27E3C
:10365000895C0A09102A45D2DFE802F044080C1000
:1036600014181C2024282C3034383C4001F00F0260
:10367000C27137E001F00F02027233E001F00F0275
:1036800082722FE001F00F02C2732BE001F00F02F3
:10369000027427E001F00F02427423E001F00F02F0
:1036A00082741FE001F00F0202751BE001F00F02AF
:1036B000427517E001F00F02827513E001F00F026E
:1036C000C2750FE001F00F0202760BE001F00F026D
:1036D000427607E001F00F02427203E0214C01F054
:1036E0000F022270C27B047C42F6A07542EA0412EB
:1036F000C272427C847C42EA0412D4B21A4A047335
:10370000D26D521900D5524240F2871514FB05F4D0
:1037100002EB4402154CC2EB022292FBF4F2C2749B
:10372000027D447D9FED121A42EA0412D2B200EEED
:10373000102A4273F8EE400A80EE810ADFED0D0A8E
:1037400020EE200ABCEEC00A10EE102AC283C27E10
:103750009A427FF474AF017730BD00003000002042
:103760001C070020000000200C04002080710700CE
:1037700000007F430000B443704700001CB51448AC
:10378000C26B8261803000F18003C16B8161D86BB4
:1037900003F180049861E36BA361140A8DF8004083
:1037A0008DF801200A0A8DF802208DF80310010A15
:1037B0008DF804108DF80500180A8DF806008DF8B4
:1037C000073069464FF40070FCF7CEFE1CBD0000C8
:1037D0000C0200201CB51448C26B8261803000F1DD
:1037E0008003C16B8161D86B03F180049861E36B46
:1037F000A361140A8DF800408DF801200A0A8DF8A3
:1038000002208DF80310010A8DF804108DF80500D0
:10381000180A8DF806008DF80730694640F2FF104F
:10382000FCF73AFF1CBD00000C050020FDF7C4BFEB
:1038300030B593B030216846FCF70CFD14210CA87C
:10384000FCF708FD1D480025016841F0805101602A
:10385000006800F0805011901948016841F48041DF
:1038600001600068022400F4804011900120009063
:10387000000401908001CDE9064006200890A820B0
:10388000CDE9090404200B906846FEF761F908B100
:1038900072B6FEE70CA90F2081E831004FF4A0506A
:1038A0000F904FF48050109005210CA8FEF734F8CB
:1038B000002801D072B6FEE713B030BD4038024098
:1038C000007000400448016841F470010160034940
:1038D0004FF000600860704788ED00E008ED00E000
:1038E0000148FEF72ABD0000D00700200148FEF77E
:1038F00024BD000018080020F0B402682C4B2D4CA9
:103900002D4D2E4EDFF8B8C098420AD0B0F1804F4E
:1039100007D0A04205D0A84203D0B04201D06045F4
:1039200003D122F070024F683A43984228D0B0F198
:10393000804F25D0A04223D0A84221D0B0421FD032
:1039400060451DD0A0F18044B4F5A03418D0A0F19A
:103950008044B4F5A23413D0A0F18044B4F5A4346B
:103960000ED0A0F18044B4F5C05409D0A0F1804439
:10397000B4F5E05404D0A0F18044B4F5005403D170
:1039800022F44072CC6822434C6922F08002224328
:1039900002608A68C2620A688262984201D0604509
:1039A00001D10969016301214161F0BC7047000048
:1039B000000001400004004000080040000C0040EE
:1039C0000004014001F01F0101238B40D0F820C00A
:1039D0002CEA03030362036A02FA01F1194301624C
:1039E0007047D0F808C02CF47F4C42EA0322114300
:1039F00041EA0C0181607047826822F07002114335
:103A000041F007018160704770B4026A22F0010240
:103A10000262036A4268D0F818C02CF0700C2CF0D7
:103A2000030C0C6844EA0C0C23F002038C6823435B
:103A30000F4C104DA04201D0A84205D123F008033D
:103A4000CE68334323F00403A04201D0A84207D13B
:103A500022F4807222F400724C6922438C69224362
:103A60004260C0F818C049684163036270BC704787
:103A7000000001400004014070B4026A22F010020C
:103A80000262036A4268D0F818C02CF4E04C2CF4AF
:103A9000407C0C684CEA042C23F020038C6843EA39
:103AA0000413114C114DA04201D0A84206D123F0BD
:103AB0008003CE6843EA061323F04003A04201D0FE
:103AC000A84209D122F4806222F400624C6942EAE1
:103AD00084028C6942EA84024260C0F818C04968D6
:103AE0008163036270BC7047000001400004014024
:103AF00070B4026A22F480720262036A4268D0F8EB
:103B00001CC02CF0700C2CF0030C0C6844EA0C0C5C
:103B100023F400738C6843EA0423114C114DA04236
:103B200001D0A84206D123F40063CE6843EA0623FD
:103B300023F48063A04201D0A84209D122F480522C
:103B400022F400524C6942EA04128C6942EA0412DF
:103B50004260C0F81CC04968C163036270BC704712
:103B6000000001400004014010B4026A22F48052B7
:103B70000262D0F820C04268C36923F4E04323F412
:103B800040730C6843EA04232CF4005C8C684CEA14
:103B9000043CA0F18044B4F5803404D0A0F180440A
:103BA000B4F5823404D122F480424C6942EA841292
:103BB0004260C36149680164C0F820C010BC70470E
:103BC000036AD0F820C02CF0010CC0F820C0D0F857
:103BD00018C02CF0F00C4CEA021223F00A0319432F
:103BE000826101627047036A23F010030362D0F818
:103BF00018C0036A2CF4704C4CEA023223F0A00384
:103C000043EA011182610162704710B5806B0021A7
:103C1000C185C184FEF7F2FD10BD01680C3151E889
:103C2000002F22F4907241E80023002BF5D10168A7
:103C3000143151E8002F22F0010241E80023002B4B
:103C4000F5D1016B012909D101680C3151E8002F30
:103C500022F0100241E80023002BF5D1202180F84A
:103C60003E1000210163704710B50168CA6822F058
:103C70004002CA60202180F83D10FFF79CF8002028
:103C800010BD08B590F83E10222901D0022008BDD1
:103C90008268B2F5805F01D1016929B1816AB2F50C
:103CA000805F1DD052B10BE0816A02685268C2F396
:103CB00008020A80816A891C816209E002697AB17E
:103CC0000268526802F07F020A70816A491C8162B0
:103CD000C18D491E0904090CC18505D0002008BD0D
:103CE000026852680A70F0E70168CA6822F0200290
:103CF000CA600168CA6822F48072CA6001684A69B1
:103D000022F001024A61202180F83E10016B012956
:103D100003D0FEF7EAFF002008BD0021016301681F
:103D20000C3151E8002F22F0100241E80023002B53
:103D3000F5D101680A6812F0100F02D00A684968CC
:103D40000091818DFEF759FDE5E700002DE9F04176
:103D5000044620680169E26821F440511143016181
:103D60002169A068E2690843616911430143206841
:103D7000C26822F4037222F414421143C160206825
:103D80004169A26921F44071114341612068A0F1A9
:103D90008041B1F588312ED0A0F18041B1F58A3152
:103DA00029D0FDF77DFE8446E16900201927254DC5
:103DB0003226B1F5004F22D06068830F8200ACFB41
:103DC0000701FCF7FDF90146A5FB002040097A42F6
:103DD000424301EB820106EB0111A5FB01214909D8
:103DE00001F0F00202EB001001F00F01084421681D
:103DF0008860BDE8F081FDF763FE8446D4E7616822
:103E00004A1840EB0003ACFB0701FCF7D9F9034665
:103E1000A5FB0010410918460A016FF01803594329
:103E200000EB810006EBC000A5FB0010400900F08C
:103E3000F80102EB410100F00700084421688860A6
:103E4000BDE8F0811F85EB5181628285C28500212A
:103E50000164222280F83E2080F83C10016900298C
:103E600004D00168CA6842F48072CA6001684A6975
:103E700042F001024A610068C16841F02001C1605E
:103E80000020704790F83D10212901D00220704792
:103E90008168B1F5805F01D1016961B1016A4A1C95
:103EA0000262026809785160C18C491E0904090C3C
:103EB000C1840AD013E0016A02680988C1F30801CD
:103EC0005160016A891C0162EEE70168CA6822F04C
:103ED0008002CA600068C16841F04001C1600020F2
:103EE00070472DE9F0410446069D884616461F4658
:103EF0002068006838EA00002AD00020B04231D1A2
:103F0000B5F1FF3F26D025B1FDF750FCC01BA842FC
:103F100020D920680C3050E8001F21F4D07140E80F
:103F20000012002AF5D12068143050E8001F21F05B
:103F3000010140E80012002AF5D1202084F83D005C
:103F400084F83E00002084F83C000320BDE8F081A6
:103F50000120D3E72068006838EA000005D000207F
:103F6000B042CDD00020BDE8F0810120F8E72DE976
:103F7000F04F0DF1240898E8F01E91F8008000F849
:103F8000018B91F8018080F80080897841708178F8
:103F900062F3020121F0380120318170418863F31E
:103FA00089114180C17864F38501C170B0F80320A4
:103FB00065F38E12A0F80320818866F3CF1181800B
:103FC000C18867F30901C180B0F8071069F38C015B
:103FD000A0F8071002896AF34F120281B0F80B10A3
:103FE0006BF38C01A0F80B1082896CF34F12828165
:103FF000BDE8F08F2DE9F0430DF11C0898E8F012B0
:1040000091F8008000F8018B91F8018080F8008021
:1040100089784170817862F3020121F03801817062
:10402000418863F389114180C17864F38501C170CF
:10403000C18865F30901C180B0F8071066F38C01EF
:10404000A0F80710018967F34F110181B0F80B1038
:1040500069F38C01A0F80B1082896CF34F128281F6
:10406000BDE8F0832DE9F04791F80080DDE90DA46B
:10407000DDE90A57DDE908C90C9E80F8008091F857
:10408000018080F8018089788170C17862F3020133
:1040900041F03801C170B0F8031063F38911A0F842
:1040A000031001796CF385010171828869F38E1226
:1040B0008280B0F8051065F3CF11A0F80510B0F8B4
:1040C000071067F30901A0F80710018966F38C0156
:1040D0000181B0F8092000216AF34F12A0F80920ED
:1040E00005E000BF431814F8012BDA73491CA942FC
:1040F000F8DBBDE8F087000070B50546A520164640
:104100000C460870012D06D0022D06D0052D06D0D4
:10411000072D06D008E0152104E0242102E05121FA
:1041200000E06F21A4F80110E0780421401CE07049
:104130002046FCF7F1FA207140F20131A4F8051095
:10414000012D06D0022D07D0052D08D0072D09D04E
:104150000CE040F2011107E04FF4817104E040F2FD
:10416000031101E04FF48271A4F80710A4F809606C
:1041700006F58076A4F80B60012D14D0022D1BD01B
:10418000052D23D0072D2BD1254676212046FCF77F
:10419000D3FAFF23A5F8760078222146BDE87040C7
:1041A0001048FEF7A3BD25461C212046FCF7C4FAA3
:1041B000FF23A8831E22F0E725462B212046FCF78B
:1041C000BBFAFF23A5F82B002D22E6E72546582150
:1041D0002046FCF7B1FAFF23A5F858005A22DCE785
:1041E00070BD00006008002070B50446A520207056
:1041F0003320A4F80100E0780D46401CE070042153
:104200002046FCF789FA207140F20130A4F805003D
:104210004FF48870A4F80700A4F8095005F58075DC
:10422000A4F80B503A212046FCF786FA6087214615
:10423000BDE87040FF233C220148FEF757BD000057
:10424000600800201F4818B40068C00637D51E4813
:1042500001680A6849680091816B09680A681B4B0C
:1042600012030A684FF4007422F001020A60816BA5
:1042700009684A68C2F5007292B21A804C60816B7C
:1042800009680B680CD443F400230B60806B006852
:10429000016841F0010101600D4901F580600BE00A
:1042A00023F400230B60806B0068016841F001017A
:1042B0000160084901F5007018BC00F054B918BC41
:1042C0007047000000100140600800205E000020E0
:1042D0004C0A00204C0C002038B50120FEF76EFD82
:1042E0002A4800680168890603D501684068009083
:1042F00038BD27490968C906FAD501684068254ACA
:104300000090106801684FF024030C0322490468F0
:1043100024F00104046016D414686068C0F124001D
:1043200080B24880636011680B6843F400230B601F
:1043300011680A6842F001020A601228D8D11649B1
:104340001648091D16E010684468C4F12404A4B29C
:104350004C8043601248816A21F400218162106818
:10436000016841F001010160122CC1D10A490B48DA
:10437000091D243000F0E4FEFFF734F80128B7D11E
:10438000BDE838402420FFF793B80000A4080020BF
:1043900000480040EC09002002000020C401002079
:1043A00000600240084810B500684068C0B2FFF7DE
:1043B0001FF90548FEF724FABDE810400122034921
:1043C0000148FEF77BBC0000E80800200C07002035
:1043D000FEE710B5D0E90A12891A0A46C16100D574
:1043E000524203EE102AB8EEC33AB4EEE13AF1EECF
:1043F00010FA02D8426A0A444262D0ED091AB8EEB5
:10440000E13AB4EEC23AF1EE10FA02DDFDEEC21A64
:104410000AE0B8EEE13AF1EE421AB4EEE13AF1EE1A
:1044200010FA03D2FDEEE11AC0ED091A01EE901A5E
:10443000F8EEE11A21EE800ABDEEC00A10EE102A55
:10444000026390ED090AB8EEC00A20EE200ABDEE24
:10445000C00A10EE104A4463036ACB1A00EE103A09
:104460000029B8EEC00A20EE010ABDEEC00A10EE27
:10447000103A8363016200DA4942022901DC00211B
:104480001DE01119194400EE101AB8EEC00AB4EE7E
:10449000E20AF1EE10FA02DDBDEEE20A0CE000EEF7
:1044A000101AF8EEC00AB1EE620AF4EEC00AF1EE9C
:1044B00010FA04D2BDEEC00A80ED0F0A10BDC16330
:1044C00010BD02E008C8121F08C1002AFAD17047C7
:1044D0007047002001E001C1121F002AFBD1704784
:1044E0000D48C06A002800DA40420C4948600A487A
:1044F0008030C06A002800DA404288600848C06AFC
:10450000002800DA4042C86005488030C06A0028B0
:1045100000DA4042086170470C0200201C000020B5
:104520000C030020EFF3108172B6436802699A42CF
:1045300001D90268026112F8013B02618268521CD3
:104540008260C268521E81F31088C26018467047AC
:104550008B185B1E0160C0E901320022C0E9032113
:104560004161104670472DE9F0475FEA01080546B2
:10457000EFF3108672B62FD0AC686CB369686869C7
:10458000884201D928686861944200DD14460F1AF8
:104590007F1CA74206DB22464146FBF742FE6869C4
:1045A00020440DE0A4EB07093A464146FBF739FEEB
:1045B00008EB07014A462868FBF733FE28684844A1
:1045C0006861A868001BA860E8682044E86020468D
:1045D00086F31088BDE8F08786F310884FF0FF302F
:1045E000F8E7C0687047000010B558B1084C491E84
:1045F0000BD310F8013B5340DBB234F8133083EA9D
:104600001222F4E74FF6FF7010BD104610BD0000F7
:104610008A54000810B5054C04E000BF10F8013BB7
:104620005340E25C491EF9D2104610BD8A5300087F
:1046300001480078704700006C13002070B51A48DC
:104640000024A0F11405046004711848C5F819404D
:104650006C7740F8094F1C21446004818472134830
:104660006C701430FBF7F6FDC5F807400F48C5F82D
:104670000B40A5F8054010214B30FBF7EBFD0B4834
:1046800010215B30FBF7E6FDAC70EC702C71C5F8C7
:104690002A40EC8585F83040C5F81E4005F124001D
:1046A0006C840460848070BD900100203C13002065
:1046B0001748F0EE000AB1EE041A01691548B1EE90
:1046C000080A11F10C0F10DAF7EE001AC0ED071A04
:1046D000C0ED080AF1EE000AC0ED090A80ED0A1AE1
:1046E00080ED0B0AB1EE0C0A0FE0C0ED070AF0EE08
:1046F000080AC0ED080A80ED091A80ED0A0AB2EE38
:10470000000A80ED0B0AB2EE020A80ED0C0A704737
:104710000C04002044010020FDF756F8FFF788F84C
:10472000FEF7FAFBFEF7CAFBFEF780FBFEF7C6FCBE
:10473000FEF7A0FBFEF700FDFEF71CFDFEF75AFC9E
:10474000FEF7DEFCFBF7BCFF00F0F2FC00F018F80F
:104750000848FDF737FD012207490848FEF7AEFA81
:1047600000F036F9FFF76AFF00F048F90120FCF786
:10477000E3FEF9E7180800200C070020E8080020F5
:1047800003494FF48050C8608031C8607047000012
:104790000C04002018B40021ADF800104449026850
:1047A00040F202244A6102790A76B0F80520ADF899
:1047B000002092B2A2F20223A24257D01FDCB2F52F
:1047C000817F49D00FDC012A31D0022A3CD0032A54
:1047D0003DD0A2F58072013A03D1D0F80700C1F8AC
:1047E000070018BC7047A2F58072033AF9D0012A7D
:1047F00037D0FE2AF5D1C11D1B222E483FE0042BE5
:1048000043D008DC012B36D0022B3BD0032BE8D160
:10481000C079C870E5E7052B3AD0062B41D0FF2BB5
:10482000DFD150F8072F4A6280880885D9E72149EF
:1048300050F8072F303941F8092F42684A60028941
:104840000A81807A8872CCE7C0794870C9E7C11DB7
:1048500018481C221C3812E0D0F80700C1F80B00E1
:10486000BFE7B0F80700A1F80500BAE7C11D11487D
:1048700010221B3003E0C11D0E4810222B3018BC43
:10488000FBF7CFBCC0798870ABE7C0790871A8E7A7
:1048900050F8072F41F82A2F82888A808079887102
:1048A0009FE750F8072FC1F81E208088488498E7BA
:1048B0007C0100206C1300202DE9F041A527414C1C
:1048C0004148FFF78EFE414E0025306172E03E48C0
:1048D000FFF728FE307094F8861006294BD2DFE8E7
:1048E00001F003131D2D384DB8420AD1012184F87F
:1048F0008610B4F88710A31D4A1CA4F88720C8545A
:1049000058E0A4F8875055E0A080B4F88710A31DA4
:104910004A1CA4F88720C854022017E0A188A31DD0
:1049200041EA0021A180B4F887104A1CA4F887202E
:10493000C854A08877281ED2032007E0B4F8871057
:10494000A31D4A1CA4F88720C854042084F88600BC
:1049500030E0B4F88710A31D4A1CA4F88720C8547F
:10496000B4F88700052825D10521A01D00F0FAFC28
:1049700008B10520EAE784F88650C2E7A288B4F8B7
:1049800087100932914204D2A31D4A1CA4F8872043
:10499000C854A188B4F88700093188420AD384F842
:1049A0008650A4F88750A01D00F0BEFC10B1A01DD9
:1049B000FFF7F0FE0448FFF714FE002887D1BDE89A
:1049C000F0810000BC1200204C0E00207C01002071
:1049D000084910B54FF40072A1F50070FEF7A8FD6C
:1049E0000549BDE810404FF48062A1F11800FFF7BF
:1049F000AFBD00004C0C0020640E00202DE9F04FEC
:104A000091B0FFF715FEFE4C6521022520706088ED
:104A1000401C80B2B0FBF1F2608001FB1200002864
:104A200053D14FF4967040F25641CDE90301009501
:104A3000059040F22A32CDE9015200230122F1A172
:104A4000F148FFF7D7FA4FF470704FF48C72CDE94C
:104A500002024FF4A0710095CDE90401EA48002359
:104A600001220195E9A10F30FFF7C4FA4FF0320897
:104A70000827CDF814804FF487620097CDE90152E2
:104A800040F246514FF40276CDE90361DE4800233F
:104A90000122DFA13C30FFF7ADFA4FF4FF72CDF8F1
:104AA0000C800097CDE901524FF44871CDE904160E
:104AB000D54800230122D7A14B30FFF79BFAD249FA
:104AC00022780D390720FFF717FBCD487921002701
:104AD00040884FF0010BB0FBF1F201FB1202CA4813
:104AE000673800F12B010F910F310E910F310D91AD
:104AF0003C391C30002ACDE908014FD14FF4FA7936
:104B000040F22448CDE903984FF4577A5C46CDF83B
:104B100014908DE8300401231A46BFA10998FFF7CD
:104B200069FA4FF42F76CDE90486CDE90289012395
:104B30001A46BAA1CDE900450898FFF75BFACDE91E
:104B40000045CDE904A6CDE9028601231A46B4A1A9
:104B50000F98FFF74FFACDE904A9CDE902A601238A
:104B60001A46B0A1CDE900450E98FFF743FA4FF47D
:104B700070716420CDE903014A1E00940590CDE9CF
:104B8000017201231A46A8A10D98FFF733FA9C4839
:104B90009D49027867390520FFF7AEFA98488321CE
:104BA0000F2440880326B0FBF1F201FB1202964865
:104BB0004FF00509E33000F10D010C911E311C305E
:104BC000CDE90A104FF4B478002A4BD140F24E20C0
:104BD000CDE9050401A84FF0B40ACDF800B0079460
:104BE00080E880070223012290A10C98FFF7BFF90B
:104BF0004FF42070CDE9050401A8CDF800B007946A
:104C000080E880070223012289A10B98FFF7AFF902
:104C100040F22620CDE9050401A8CDF800B00794A4
:104C200080E880070223012282A10A98FFF79FF9FA
:104C30001C2040F28A21CDE9051007904FF49672AE
:104C40003221CDE903128DE8C001022301227AA1AD
:104C50007A48FFF78CF96A48784902783A39052092
:104C6000FFF74AFA66488D214088B0FBF1F201FB5C
:104C7000120000285CD14FF4E17A40F26C71CDE96A
:104C800003A1CDF814A040F23A720095CDE901627B
:104C900001231A466AA10998FFF7ACF940F23A706D
:104CA00040F2C121CDE90401CDE9020ACDE9005667
:104CB00001231A4663A10898FFF79CF940F26C7132
:104CC00040F2C120CDE90301009540F23A7205900F
:104CD000CDE9016201231A465BA10F98FFF78AF91B
:104CE00040F26C7040F2C121CDE90401CDE9020A25
:104CF000CDE9005601231A4654A10E98FFF77AF920
:104D000040F26C71CDE903A1CDF814A040F23A72E3
:104D10000096CDE9016201231A464DA10D98FFF7D7
:104D200069F937483849027867390520FFF7E4F90F
:104D3000334897214088B0FBF1F201FB12000028B4
:104D400052D140F2EE20CDE904404FF42F7ACDE964
:104D5000024ACDE90056052301223EA10998FFF73A
:104D600049F940F2091140F2EE20CDE90301009526
:104D70000590CDE901640523012237A10898FFF7CA
:104D800039F940F20910CDE9040A40F2EE22CDE9EA
:104D90000202CDE900560523012230A10F98FFF74A
:104DA00029F9CDE9044A40F20911CDE9021ACDE909
:104DB0000056052301222AA10E98FFF71BF940F2A5
:104DC000EE200096CDE9024ACDE9044005230122F8
:104DD00024A101960D98FFF70DF909480A490278B8
:104DE00067390520FFF788F9DFF814A0AB21BAF87E
:104DF0000200B0FBF1F201FB120000B934E04DE01B
:104E0000AE010020303031000E140020303032006E
:104E10003031320030313300313031003130320046
:104E2000313033003130340031303500313036002C
:104E30003130370031303800313039002B15002047
:104E40003230310032303200323033003230340010
:104E500032303500333031003330320033303300FC
:104E600033303400333035004FF416722620CDE94C
:104E700004029FA10691122108220620CDE90021FB
:104E8000CDE90206022301229BA19C48FFF7EAF824
:104E90009A489AF800100D38FFF7A6F9BAF8020000
:104EA000B521B0FBF1F201FB120194483C300790B0
:104EB000C9B904AB92A240F28A21262083E80700F8
:104EC000122108220620CDE90021CDE902060223A5
:104ED00001228DA10798FFF7C5F888489AF80010BD
:104EE0002F30FFF781F9BAF80200BF21B0FBF1F2D1
:104EF00001FB1200C8B940F226202621CDE904109A
:104F000082A20692062112220820CDE90002CDE9F4
:104F10000216022301227FA10798FFF7A3F8774822
:104F20009AF800102F30FFF75FF9BAF80200152148
:104F3000B0FBF1F201FB120000287DD17648007829
:104F4000012802D002280FD021E040F24E20CDE906
:104F50000504C8210794CDE9039102231A46AFF254
:104F600034118DE8A0010FE040F24E20CDE9050498
:104F7000B421CDF800B00794CDE9039102231A467D
:104F8000AFF25811CDE901780C98FEF7F0FF6348B5
:104F9000007890B94FF42070CDE90504B421CDF824
:104FA00000B00794CDE9039102231A46AFF28011B5
:104FB000CDE901780B98FEF7DAFF58480078012810
:104FC00010D14FF42070CDE90504C8210794CDE934
:104FD000039102231A46AFF2A8118DE8A0010B98A5
:104FE000FEF7C5FF4E4801784FF40770012901D044
:104FF00069B11DE0CDE90504C8210794CDE903910D
:1050000002231A46AFF2D4118DE8A0010DE0CDE9DC
:105010000504B421CDF800B00794CDE90391022333
:105020001A46AFF2F011CDE901780A98FEF79FFF1A
:105030001C2040F28A2100E01BE04FF4967204929B
:10504000CDE9051007903749322002230988CDE9C0
:1050500002101A46AFF220212848CDE90067B4308B
:10506000FEF785FF25499AF800206B310520FFF7F0
:1050700043F8BAF802000B21B0FBF1F201FB120079
:105080005446002831D1284840F26C7140F23A72FF
:105090000078012300F5E170CDE903010096059049
:1050A000CDE901620222AFF258210998FEF7A2FF72
:1050B0001E484FF42F7240F2EE21007800960C301B
:1050C000CDE90202052302220196CDE90401AFF2E7
:1050D0006C210898FEF78EFF227811B00749BDE8D1
:1050E000F04FDF390520FFF707B811B0BDE8F08FAA
:1050F00070756D700000000034303400861400209C
:10510000726F6C6C0000000034303500736C6F7788
:105110000000000034303600390000203A00002042
:10512000000000204E000020430000203B00002033
:1051300002492422A1F12400FEF78AB9E8010020E7
:10514000002847D0002945D00278437842EA03225C
:10515000C2F30A020A8042788378D20842EA4312F4
:10516000C2F30A024A808278C378920942EA830233
:10517000037942EA8322C2F30A028A8002794379E0
:10518000520842EAC312C2F30A02CA804279C2F349
:1051900001128A7242799209CA728279C37942EA0B
:1051A00003228A81027A437A42EA0322CA81827AFE
:1051B000C37A42EA03220A82027B8A74427BCA745F
:1051C000827BC37B42EA03228A82027C407C42EAE1
:1051D000002008817047000010B5FFF769FA5148B8
:1051E00090ED020AB5EEC00AF1EE10FA29D0D0ED2A
:1051F000000A20EE801AB5EEC01AF1EE10FA30EE79
:10520000601A16D2D0ED0B0A15E000BF90ED050A2A
:1052100030EE200A2FE000BFF1EE601AB4EEE11A82
:10522000F1EE10FA27D200BF90ED050A30EE600AC9
:1052300021E0D0ED070AB4EEE01AF1EE10FAEBDD52
:10524000E4E790ED001AFDEEC10A10EE901A002975
:1052500000DA494200EE901AF8EEE01AD0ED090AA1
:10526000F4EEE01AF1EE10FA05DDB5EEC01AF1EE3B
:1052700010FAD9DCCAE780ED050A90ED030AB5EE15
:10528000C00AF1EE10FA28D0D0ED010A20EE801A03
:10529000B5EEC01AF1EE10FA30EE601A15D2D0ED6C
:1052A0000C0A14E090ED060A30EE200A2FE000BF51
:1052B000F1EE601AB4EEE11AF1EE10FA27D200BF57
:1052C00090ED060A30EE600A21E0D0ED080AB4EE57
:1052D000E01AF1EE10FAEBDDE4E790ED011AFDEED5
:1052E000C10A10EE901A002900DA494200EE901A25
:1052F000F8EEE01AD0ED0A0AF4EEE01AF1EE10FA38
:1053000005DDB5EEC01AF1EE10FAD9DCCAE780ED82
:10531000060A90ED050A80ED000A90ED060A80ED80
:10532000010A10BD4401002030B50C46050014D020
:10533000022C12D90A48A11E02882846FFF754F908
:105340002919C2B211F8023C9A4206D111F8011C87
:10535000B1EB102F01D1012030BD002030BD000085
:105360007801002030B50C4605000CD0022C0AD97B
:10537000FF22611EFFF74EF9291911F8011C814225
:1053800001D1012030BD002030BD005EBCE2613F94
:10539000DD83C29C7E20A3FD1F419DC3217FFCA213
:1053A000401E5F01E3BD3E6082DC237D9FC1421C45
:1053B000FEA0E1BF5D0380DE3C62BEE0025CDF81F7
:1053C000633D7C22C09E1D43A1FF4618FAA42779A5
:1053D0009BC584DA3866E5BB5907DB856739BAE4D3
:1053E00006581947A5FB7826C49A653BD987045A05
:1053F000B8E6A7F91B45C6987A24F8A6441A99C7B7
:10540000257B3A6486D85B05E7B98CD2306EEDB364
:10541000510F4E10F2AC2F7193CD114FADF3702E92
:10542000CC92D38D6F31B2EC0E50AFF1134DCE90C4
:10543000722C6D33D18F0C52B0EE326C8ED0530D76
:10544000EFB1F0AE4C1291CF2D73CA947628ABF524
:1054500017490856B4EA6937D58B5709EBB5366852
:105460008AD495CB2977F4AA4816E9B7550B88D684
:10547000346A2B7597C94A14F6A8742AC896154B36
:10548000A9F7B6E80A54D7896B35000089111223B1
:105490009B322446AD573665BF74488CC19D5AAFC8
:1054A000D3BE6CCAE5DB7EE9F7F8811008019333BF
:1054B0001A22A5562C47B7753E64C99C408DDBBFA8
:1054C00052AEEDDA64CBFFF976E802218B301002A0
:1054D00099132667AF763444BD554AADC3BC588E88
:1054E000D19F6EEBE7FA7CC8F5D983310A2091127F
:1054F0001803A7772E66B5543C45CBBD42ACD99E68
:10550000508FEFFB66EAFDD874C904428D531661D3
:105510009F702004A9153227BB364CCEC5DF5EED47
:10552000D7FC6888E1997AABF3BA85520C4397713E
:105530001E60A1142805B3373A26CDDE44CFDFFD27
:1055400056ECE9986089FBBB72AA06638F7214401F
:105550009D512225AB343006B9174EEFC7FE5CCC07
:10556000D5DD6AA9E3B8788AF19B87730E629550FE
:105570001C41A3352A24B1163807CFFF46EEDDDCE7
:1055800054CDEBB962A8F99A708B088481951AA75B
:1055900093B62CC2A5D33EE1B7F04008C919522BEF
:1055A000DB3A644EED5F766DFF7C899400859BB796
:1055B00012A6ADD224C3BFF136E0C1184809D33BCF
:1055C0005A2AE55E6C4FF77D7E6C0AA583B4188677
:1055D00091972EE3A7F23CC0B5D14229CB38500AAF
:1055E000D91B666FEF7E744CFD5D8BB502A4999656
:1055F0001087AFF326E2BDD034C1C3394A28D11A8F
:10560000580BE77F6E6EF55C7C4D0CC685D71EE5AA
:1056100097F42880A1913AA3B3B2444ACD5B56696E
:10562000DF78600CE91D722FFB3E8DD604C79FF515
:1056300016E4A9902081BBB332A2C55A4C4BD7794E
:105640005E68E11C680DF33F7A2E0EE787F61CC4F6
:1056500095D52AA1A3B03882B193466BCF7A54482E
:10566000DD59622DEB3C700EF91F8FF706E69DD4D5
:1056700014C5ABB122A0B9923083C77B4E6AD5580E
:105680005C49E33D6A2CF11E780F005EBCE2613F8D
:10569000DD83C29C7E20A3FD1F419DC3217FFCA210
:1056A000401E5F01E3BD3E6082DC237D9FC1421C42
:1056B000FEA0E1BF5D0380DE3C62BEE0025CDF81F4
:1056C000633D7C22C09E1D43A1FF4618FAA42779A2
:1056D0009BC584DA3866E5BB5907DB856739BAE4D0
:1056E00006581947A5FB7826C49A653BD987045A02
:1056F000B8E6A7F91B45C6987A24F8A6441A99C7B4
:10570000257B3A6486D85B05E7B98CD2306EEDB361
:10571000510F4E10F2AC2F7193CD114FADF3702E8F
:10572000CC92D38D6F31B2EC0E50AFF1134DCE90C1
:10573000722C6D33D18F0C52B0EE326C8ED0530D73
:10574000EFB1F0AE4C1291CF2D73CA947628ABF521
:1057500017490856B4EA6937D58B5709EBB536684F
:105760008AD495CB2977F4AA4816E9B7550B88D681
:10577000346A2B7597C94A14F6A8742AC896154B33
:10578000A9F7B6E80A54D7896B35000089111223AE
:105790009B322446AD573665BF74488CC19D5AAFC5
:1057A000D3BE6CCAE5DB7EE9F7F8811008019333BC
:1057B0001A22A5562C47B7753E64C99C408DDBBFA5
:1057C00052AEEDDA64CBFFF976E802218B3010029D
:1057D00099132667AF763444BD554AADC3BC588E85
:1057E000D19F6EEBE7FA7CC8F5D983310A2091127C
:1057F0001803A7772E66B5543C45CBBD42ACD99E65
:10580000508FEFFB66EAFDD874C904428D531661D0
:105810009F702004A9153227BB364CCEC5DF5EED44
:10582000D7FC6888E1997AABF3BA85520C4397713B
:105830001E60A1142805B3373A26CDDE44CFDFFD24
:1058400056ECE9986089FBBB72AA06638F7214401C
:105850009D512225AB343006B9174EEFC7FE5CCC04
:10586000D5DD6AA9E3B8788AF19B87730E629550FB
:105870001C41A3352A24B1163807CFFF46EEDDDCE4
:1058800054CDEBB962A8F99A708B088481951AA758
:1058900093B62CC2A5D33EE1B7F04008C919522BEC
:1058A000DB3A644EED5F766DFF7C899400859BB793
:1058B00012A6ADD224C3BFF136E0C1184809D33BCC
:1058C0005A2AE55E6C4FF77D7E6C0AA583B4188674
:1058D00091972EE3A7F23CC0B5D14229CB38500AAC
:1058E000D91B666FEF7E744CFD5D8BB502A4999653
:1058F0001087AFF326E2BDD034C1C3394A28D11A8C
:10590000580BE77F6E6EF55C7C4D0CC685D71EE5A7
:1059100097F42880A1913AA3B3B2444ACD5B56696B
:10592000DF78600CE91D722FFB3E8DD604C79FF512
:1059300016E4A9902081BBB332A2C55A4C4BD7794B
:105940005E68E11C680DF33F7A2E0EE787F61CC4F3
:1059500095D52AA1A3B03882B193466BCF7A54482B
:10596000DD59622DEB3C700EF91F8FF706E69DD4D2
:1059700014C5ABB122A0B9923083C77B4E6AD5580B
:105980005C49E33D6A2CF11E780F000610160006F4
:1059900010160000000000000000010203040607CA
:1059A000080900000000010203040000CC590008AF
:1059B00000000020C4010000CC020008205A0008AA
:1059C000C40100208C170000D24400082142014A83
:1059D000040212020251028B40410B7B1C4604213F
:1059E000091518092E30BFE041CDCC4C3D182B6075
:1059F0006A30BA3F301113C8420C3080D4443011A1
:105A00002640CDCCCC3C7BA040304480BB451AFF27
:105A100001013809383A21320182101324F40000C0
:040000050800018965
:00000001FF
