:020000040800F2
:10000000181A00209D010008F54200085937000821
:10001000A9410008A9080008455700080000000091
:100020000000000000000000000000004D48000833
:10003000CB0C00080000000073430008AD49000825
:10004000B7010008B7010008B7010008B7010008B0
:10005000B7010008B7010008B7010008B7010008A0
:10006000B7010008B7010008B7010008B701000890
:10007000E90B0008B7010008B7010008B701000844
:10008000B7010008B7010008B70100088D09000892
:100090004D090008B7010008B7010008B7010008C2
:1000A000B7010008B7010008B7010008854A000839
:1000B000B7010008B7010008B7010008B701000840
:1000C000B7010008B7010008B7010008B701000830
:1000D000B7010008B9540008B7010008D555000859
:1000E000B7010008B7010008B7010008B701000810
:1000F000B7010008B7010008B7010008B701000800
:10010000B7010008B7010008B7010008B7010008EF
:10011000B7010008B7010008954A0008B7010008B8
:10012000B7010008B7010008F90B0008B701000883
:10013000B7010008B7010008B7010008B7010008BF
:10014000810A0008B7010008B7010008B7010008DC
:10015000B7010008B7010008090C00081D57000886
:10016000B7010008B7010008B7010008B70100088F
:10017000B7010008B7010008B7010008000000003F
:10018000B7010008B7010008DFF80CD000F02EFA24
:1001900000480047F55C0008181A00200648804710
:1001A00006480047FEE7FEE7FEE7FEE7FEE7FEE75C
:1001B000FEE7FEE7FEE7FEE7694A0008890100085E
:1001C0002DE9F05F0546002092469B46884606468C
:1001D000814640241BE0284641464746224600F01F
:1001E00061F953465A46C01A914110D31146184638
:1001F000224600F048F92D1A67EB01084F462246C7
:100200000120002100F03FF917EB00094E41201EAC
:10021000A4F10104DFDC484631462A464346BDE8E6
:10022000F09F40EA01039B0703D009E008C9121FB1
:1002300008C0042AFAD203E011F8013B00F8013BA0
:10024000521EF9D27047D2B201E000F8012B491ECC
:10025000FBD270470022F6E710B513460A46044663
:100260001946FFF7F0FF204610BD2DE9FE4F81EA49
:10027000030404F0004421F0004100944FF0000B0F
:1002800023F0004350EA01045ED052EA03045BD03D
:10029000C3F30A54C1F30A552C44A4F2F334019475
:1002A000A0FB0254C1F3130141F48011C3F3130303
:1002B00043F4801301FB024400FB034E840A970AB7
:1002C00044EA815447EA8357A4FB076802958D0AE4
:1002D00005FB07854FEA932C04FB0C542705029D70
:1002E0004FEA065847EA1637B5EB08056EEB070CE0
:1002F000870E920E47EA811742EA8312A7FB02019A
:10030000B6EB0B0164EB00042B0D43EA0C335E18D3
:1003100044EB1C50DA465146E7FB0201C5F31304D7
:100320004FEA0B3343EA14534FEA0432019C43EA89
:100330000603A4F10C040294009CCDE900B400F083
:1003400007F903B0BDE8F08F00200146F9E72DE979
:10035000F04D81EA030404F0004B21F000451446FF
:100360004FF0000A23F0004150EA050220D054EA81
:1003700001021DD0C5F30A570246C5F31303C1F3AA
:100380001300C1F30A5640F4801543F48013A7EB21
:100390000608101BD64608F2FD3873EB050002D3A1
:1003A00008F1010801E092185B41B8F1000F03DA8F
:1003B00000200146BDE8F08D00204FF48011064674
:1003C00084460EE0171B73EB050705D3121B63EB86
:1003D000050306434CEA010C49084FEA3000921825
:1003E0005B4150EA0107EDD152EA030012D082EAE4
:1003F000040083EA0501084305D0101BAB4106D277
:100400000122002306E000224FF0004302E06FF0DB
:10041000010253101AEB06004CEB085110EB0A00D6
:1004200041EB0B01BDE8F04D00F083B80EB5C10FF4
:1004300080EAE0700844CA07002140F233438DE8A7
:100440000E000A460B4600F083F803B000BD01F031
:10045000004330B421F0004150EA010206D00A0DF9
:10046000A2F56072C1F31301002A02DC30BC002047
:100470007047440F44EAC104C100E01830BC00EBEF
:10048000C25000F01FB8202A04DB203A00FA02F123
:10049000002070479140C2F1200320FA03F3194372
:1004A00090407047202A04DB203A21FA02F0002114
:1004B000704721FA02F3D040C2F120029140084374
:1004C000194670470029A8BF7047401C490008BF63
:1004D00020F00100704710B4B0FA80FC00FA0CF074
:1004E00050EA010404BF10BC704749B1CCF12004AC
:1004F00021FA04F411FA0CF118BF01212143084339
:10050000A3EB0C01CB1D4FEA00614FEA102042BF64
:10051000002010BC704700EBC35010440029A4BF5A
:1005200010BC7047401C490008BF20F0010010BCFF
:10053000704710B5141E73F1000408DA401C41F135
:10054000000192185B411A4301D120F0010010BD57
:100550002DE9F04D92469B4611B1B1FA81F202E0CD
:10056000B0FA80F220329046FFF78DFF04460F4626
:1005700040EA0A0041EA0B0153465A46084313D0A9
:10058000114653EA010019D0C8F140025046FFF766
:1005900089FF05460E46504659464246FFF773FF0F
:1005A000084305D0012004E020463946BDE8F08D1F
:1005B0000020054346EAE0762C4337430A9863055A
:1005C000E40AA0EB08000022FD0A44EA47540A307E
:1005D00002D500200146E9E7010510196941DDE96E
:1005E000084500196941BDE8F04DA2E7064C074DEA
:1005F00006E0E06840F0010394E8070098471034F3
:10060000AC42F6D3FFF7C4FD8C710008AC71000852
:1006100070B58C1810F8015B15F0070301D110F8C4
:10062000013B2A1106D110F8012B03E010F8016BF1
:1006300001F8016B5B1EF9D12B0705D40023521E74
:100640000DD401F8013BFAE710F8013BCB1A921CDC
:1006500003E013F8015B01F8015B521EF9D5A142DA
:10066000D8D3002070BDC26D016F511AC164C16C36
:10067000002901DB0A4600E04A4203EE102AB8EEE8
:10068000C33AB4EEE13AF1EE10FA03D8C26C416D10
:100690000A44426590ED153AB8EEC33AB4EEC23A58
:1006A000F1EE10FA04DDBDEEC23A80ED153A10E02D
:1006B00090ED153AB8EEC33AF1EE423AB4EEE33AB1
:1006C000F1EE10FA05D2B1EE423ABDEEC33A80ED3A
:1006D000153A90ED133AB8EEC33A23EE003ABDEE68
:1006E000C33A80ED183A90ED153AB8EEC33A23EECE
:1006F000203ABDEEC33A80ED193AD0E91321511AE0
:1007000003EE101AB8EEC33A23EE013ABDEEC33A37
:1007100080ED1A3AC26C0265C16C002901DB0A4601
:1007200000E04A42022A02DC0022C2662FE0D0E941
:1007300018210A44816E114403EE101AB8EEC33A30
:10074000B4EEE23AF1EE10FA04DDBDEEE23A80EDED
:100750001B3A1CE0D0E918210A44816E114403EED3
:10076000101AB8EEC33AF1EE623AB4EEE33AF1EEA3
:1007700010FA06D2B1EE623ABDEEC33A80ED1B3AF2
:1007800005E0D0E918210A44816E0A44C266704728
:10079000F1EE401A71EEE01A9FED3C2A41EE021A8A
:1007A0003B48C0ED001AF1EE401A71EEA01A9FED21
:1007B000372A41EE421AC0ED041AF1EE401A71EEEA
:1007C000A01A9FED322A41EE021AC0ED081AF1EE8E
:1007D000401A71EEE01A9FED2D2A41EE421AC0ED4B
:1007E0000C1AD0ED001A9FED2B2A61EE821AC0ED93
:1007F000011AD0ED041A9FED272A61EE821AC0ED8E
:10080000051AD0ED081A9FED232A61EE821AC0ED79
:10081000091AD0ED0C1A9FED1F2A61EE821AC0ED65
:100820000D1AD0ED011AB3EE032A61EE821AFDEE25
:10083000E11A11EE900A4142174881621448D0ED46
:10084000051AB3EE032A61EE821AFDEEE11A13488F
:10085000C0ED0A1A0E48D0ED091AB3EE032A61EE74
:10086000821AFDEEE11A11EE900A41420C488162B3
:100870000748D0ED0D1AB3EE032A61EE821AFDEEA1
:10088000E11A0848C0ED0A1A70470000713D1E4287
:10089000941200204276F43F3C020020BC0200206B
:1008A0003C030020BC03002000BFFEE710B509494F
:1008B000094800F063F90949094800F05FF909495E
:1008C000094800F05BF90949094800F057F903F0BD
:1008D000BFFF10BD5C0000203C020020740000201F
:1008E000BC0200208C0000203C030020A40000205B
:1008F000BC03002070B504460D46A4F2012030B1BF
:10090000012809D002280CD0032814D10EE0294672
:100910000A4803F0B5FC0EE02946094803F0B0FC94
:1009200009E02946074803F0ABFC04E029460648E5
:1009300003F0A6FC00BF00BF70BD00003C02002019
:10094000BC0200203C030020BC03002010B502487C
:1009500000F09FFB10BD0000B007002030B587B04D
:1009600005460C4601950020039004900820059050
:1009700000208DF818006B46224601A9024800F0BD
:10098000BAF907B030BD0000B007002010B502482A
:1009900000F07FFB10BD0000B007002010B5064A34
:1009A0000649074803F0A8FC064A0749074803F030
:1009B000A3FC03F091FF10BDBC000020D400002078
:1009C0003C040020EC00002004010020BC040020B6
:1009D00070B504460D46A4F2012008283ED2DFE897
:1009E00000F0040C3D3D111C273229461C4803F041
:1009F00047FC01201B49087030E029461A4803F0E3
:100A00003FFC2BE02946194803F03AFC18491748E7
:100A100003F0CCFB03F086FF20E02946154803F0E5
:100A20002FFC1349134803F0C1FB03F07BFF15E0D3
:100A30002946114803F024FC0D490F4803F0B6FB8A
:100A400003F070FF0AE029460C4803F019FC08493E
:100A50000A4803F0ABFB03F065FF00BF00BF70BDA9
:100A60003C04002030000020BC0400203C05002095
:100A70001C010020BC0500203C060020BC06002014
:100A800010B5024800F005FB10BD0000D80700209B
:100A900030B587B005460C460195002003900490C0
:100AA0000820059000208DF818000023224601A997
:100AB000024800F020F907B030BD0000D807002040
:100AC00000B58BB00120069000200790012008900F
:100AD000002001900290039004900590012009905D
:100AE0000E200A9001A90C4800F088F90A4800F08D
:100AF00080FD0221084800F0ECF80E20069001A9C4
:100B0000064800F07BF9054800F073FD0221034818
:100B100000F0DFF80BB000BDB0070020D8070020C0
:100B200010B50246FF2004E012F8013B4340034C9D
:100B3000E05C0B1EA1F10101F6D110BD6C6E000846
:100B400010B502460B460B48018812B94FF6FF70EC
:100B500010BD08E012F8010B4840C0B2064C34F852
:100B6000100080EA2121181EA3F10103F2D10846EA
:100B7000EEE700008C0100206C6F000810B5044601
:100B80000B4693ED053AF0EE432A93ED043AB0EEAE
:100B9000432A93ED033AF0EE431A93ED023AB0EE96
:100BA000431A93ED013AF0EE430A93ED003AB0EEAA
:100BB000430A204604F0C8FD10BD000010B505F042
:100BC00059FE064890ED001A0548D0ED000A054888
:100BD00090ED000AFFF7DCFD10BD00005C01002075
:100BE000640100206001002010B5024800F09EFD65
:100BF00010BD00001C0A002010B5024800F096FD50
:100C000010BD00005C09002010B5024800F08EFD08
:100C100010BD0000BC09002001680A4BCAB2103A9E
:100C2000A3FB02321209084B9B5CC365032A04D95B
:100C30006FF30901091D816502E06FF30901816508
:100C4000806D7047ABAAAAAA6C710008014600200B
:100C50008A6A8B69002B0FD0B3F5005F1DD08AB371
:100C6000012A30D0022A2ED0032A04D1C96A11F0F9
:100C7000807F00D0012070471AB1012A07D0022AD4
:100C8000F9D1C96A11F0807FF5D001207047C96A97
:100C9000B1F1C07FFAD1012070475AB1012A0BD0BF
:100CA000022A07D0032AF7D1C96AB1F1C07FF3D174
:100CB0000120704701207047C96A11F0807FFAD087
:100CC00001207047FFE701207047704772B600BFF0
:100CD000FEE790F82020012A07D0022A05D0416AB9
:100CE00041F480214162012070470068426911434C
:100CF00041610020704770B490F82040D0F800C0E7
:100D0000DCF808C0012C08D0022C06D0416A41F45E
:100D10008021416270BC012070470CF080640CF0AF
:100D200000652C4302D11CF0805F5FD0CCF3016CD6
:100D3000BCF1020F06D9416A41F40001416270BC66
:100D400001207047012404FA0CF41C608B684FF4F6
:100D5000C0749BB1CD6804EB0C162B434D6843EA7D
:100D6000C5030568AB514FF4C273066803EB0C135F
:100D70000D69F550097D012909D00DE00D88CB687A
:100D800004EB0C1643EA45530568AB51EBE70168E9
:100D9000CD5845F48075CD501179D379557941EA14
:100DA000036193791B0443EA052319434FF4C67585
:100DB000036805EB0C1559511178D37841EA0361AA
:100DC000937852781B0443EA022211434FF4C47310
:100DD000026803EB0C13D150016804EB0C100A58A5
:100DE00042F001020A5070BC00207047416A41F491
:100DF0000011416270BC01207047000090F8202073
:100E0000012A07D0022A05D0416A41F480214162BB
:100E1000012070474248D0F8002242F00102C0F899
:100E20000022D0F8002222F47C52C0F80022D0F830
:100E300000224B6A42EA0322C0F800220A7D012305
:100E400002F01F0203FA02F2D0F81C329343C0F8FA
:100E50001C32CB69D3B9D0F80C329343C0F80C32B2
:100E6000B1F80CC04B686CF31F43D1F814C000EB11
:100E7000CC0CCCF84032B1F808C00B686CF31F43BF
:100E8000D1F814C000EBCC0CCCF84432CB69012B68
:100E90001AD1D0F80C321343C0F80C32B1F800C0AC
:100EA0004B686CF31F43D1F814C000EBCC0CCCF8AA
:100EB0004032B1F808C0CB686CF31F43D1F814C0BE
:100EC00000EBCC0CCCF844328B697BB1D0F8043207
:100ED0001343C0F804320B6973B1D0F814321343D2
:100EE000C0F81432096A01290CD010E0D0F804329D
:100EF0009343C0F80432EEE7D0F814329343C0F8BD
:100F00001432EFE7D0F81C121143C0F81C12D0F8CD
:100F1000001221F00101C0F800120020704700000B
:100F200000640040704710B490F820C0BCF1010F7D
:100F300009D0BCF1020F06D0416A41F48021416220
:100F400010BC0120704739B1D0F800C0DCF810C0E7
:100F50001CF0030F7DD006E0D0F800C0DCF80CC018
:100F60001CF0030F7BD04FF4D87C04680CEB011C01
:100F700054F80C4004F004049460002C7DD0046804
:100F800054F80C40E4085460046854F80CC00CF0A9
:100F9000020CC2F80CC04FF4DA7C04680CEB011CA4
:100FA00054F80C4004F00F041461046854F80C4029
:100FB000C4F307249461046854F80CC04FEA1C4C35
:100FC000C2F814C04FF4DC72D0F800C002EB01127A
:100FD0005CF802C083F800C0D0F800C05CF802C022
:100FE0004FEA1C2C83F801C0D0F800C05CF802C0A6
:100FF0004FEA1C4C83F802C0D0F800C05CF8022015
:10100000120EDA704FF4DE72D0F800C002EB01125B
:101010005CF802C083F804C0D0F800C05CF802C0DD
:101020004FEA1C2C83F805C0D0F800C05CF802C061
:101030004FEA1C4C83F806C0D0F800C05CF80220D0
:10104000120EDA71F9B10068016941F02001016105
:1010500002E00BE003E010E010BC00207047416AA2
:1010600041F40011416210BC01207047416A41F413
:101070000011416210BC01207047046854F80C4014
:10108000640D146080E70068C16841F02001C16010
:10109000DEE72DE9F05F0546002428684669D0F8B0
:1010A00004908768D0F80CA0D0F810B0D0F8188061
:1010B00016F0010F54D017F0010F17D001218160F5
:1010C00017F0020F03D0284600F0C6FA0EE017F022
:1010D000040F02D04FF4006408E017F0080F02D0AC
:1010E0004FF4805402E0284600F0B5FA17F4807FF0
:1010F00019D029684FF48070886017F4007F03D0FE
:10110000284600F0ABFA0EE017F4806F02D044F4EA
:10111000005408E017F4006F02D044F4804402E069
:10112000284600F09AFA17F4803F19D029684FF446
:101130008030886017F4003F03D0284600F090FA12
:101140000EE017F4802F02D044F4004408E017F4B6
:10115000002F02D044F4803402E0284600F07FFAE9
:1011600016F0080F07D01AF0100F04D044F40074E2
:1011700029681020C86016F0040F4FF0080707D048
:101180001AF0080F04D02868C760284600F008FA53
:1011900016F0020F07D02868C06810F0030F02D0C5
:1011A000284600F0FFF916F0400F07D01BF0100F93
:1011B00004D044F4806429681020086116F0200FE0
:1011C00007D01BF0080F04D028680761284600F0FC
:1011D0000DFA16F0100F07D02868006910F0030F01
:1011E00002D0284600F003FA16F4003F08D019F0A8
:1011F000100F05D0296810204860284600F0F8F943
:1012000016F4803F07D019F0080F04D02868476013
:10121000284600F026FA16F4004F4AD019F0040FC1
:1012200044D016F4807F04D018F0010F01D044F0B0
:10123000010416F4007F04D018F0020F01D044F02E
:10124000020416F4806F04D018F0040F01D044F0AB
:10125000040416F4006F29D018F0700F26D008F09F
:101260007000402815D006DC102809D020280AD0AC
:10127000302816D10AE050280ED0602811D10EE097
:1012800044F008040DE044F010040AE044F02004A7
:1012900007E044F0400404E044F0800401E044F43A
:1012A00080742868816921F07001816129680420B7
:1012B0004860002C05D0686A204368622846FFF722
:1012C00031FEBDE8F09F70B50446002C03D094F8C1
:1012D000200010B104E0012070BD204600F0A8F805
:1012E0002068016841F00101016000F0C5FC05467D
:1012F000206840684FF0050610F0010F11D100F092
:10130000BBFC401B0A2807D9606A40F400306062C9
:1013100084F82060012070BD2068406810F0010F43
:10132000EDD02068016821F00201016000F0A4FC0A
:1013300005462068406810F0020F11D000F09CFCB8
:10134000401B0A2807D9606A40F40030606284F8C4
:101350002060012070BD2068406810F0020FEDD1C0
:10136000207E01283FD02068016821F080010160C3
:10137000607E01283DD02068016821F040010160B5
:10138000A07E01283BD02068016821F02001016087
:10139000E07E012839D02068016841F01001016029
:1013A000207F012837D02068016821F00801016002
:1013B000607F012835D02068016821F004010160B8
:1013C000E168A068626908432169114308436168C4
:1013D000491E08432168C86100206062012084F82A
:1013E0002000002070BD2068016841F0800101608C
:1013F000BEE72068016841F040010160C0E7206855
:10140000016841F020010160C2E72068016821F015
:1014100010010160C4E72068016841F00801016023
:10142000C6E72068016841F004010160C8E70000D8
:1014300010B586B00446142101A8FEF70BFF5249EF
:101440002068884249D151480068401C4F490860D3
:101450000846006801280FD100BF002000904C48CA
:10146000006840F000704A4908600846006800F0D3
:101470000070009000BF00BF00BF002000904448F3
:101480001038006840F008004149103908600846EB
:10149000006800F00800009000BF00BF032001902A
:1014A0000220029000200390032004900920059060
:1014B00001A9384800F0BAFA00220121132000F0F7
:1014C00057FC132000F046FC00220121142000F0FC
:1014D0004FFC142000F03EFC54E02F492068884265
:1014E00050D100BF002000902948006840F0806083
:1014F000274908600846006800F08060009000BF3F
:1015000000BF22480068401C204908600846006867
:1015100001280FD100BF002000901D48006840F056
:1015200000701B4908600846006800F000700090D9
:1015300000BF00BF00BF00200090154810380068B1
:1015400040F002001249103908600846006800F0B7
:101550000200009000BF00BF6020019002200290B6
:1015600000200390032004900920059001A90B4856
:1015700000F05CFA00220121402000F0F9FB40203D
:1015800000F0E8FB06B010BD006400404C000020F5
:1015900040380240000C0240006800400004024055
:1015A0007047000010B588B00446012002F082FBAD
:1015B0000B4B01AA00212046FFF7B5FC09488442E5
:1015C00004D107490198FFF795F906E006488442DF
:1015D00003D103490198FFF7FBF908B010BD0000E3
:1015E00050000020B0070020D80700207047704747
:1015F000704770B5044694F82000012805D0606A51
:1016000040F400206062012070BD022084F82000B8
:101610002068016821F00101016000F02DFB054602
:101620002068406810F0010F12D000F025FB401B2D
:101630000A2808D9606A40F400306062052084F806
:101640002000012070BD2068406810F0010FECD12F
:101650000020606270BD70477047704770477047E8
:10166000704770472DE9F0410446A66D00F004FB79
:10167000054694F835000027022806D080206065D2
:1016800084F834700120BDE8F0812068016821F001
:10169000160101602068416921F080014161206CE0
:1016A00008B9A06C20B12068016821F00801016030
:1016B0002068016821F0010101602068006810F0D5
:1016C000010F12D000F0D8FA401B052808D92020BD
:1016D0006065032084F8350084F83470BDE8F0813B
:1016E0002068006810F0010FECD194F85C003F21F5
:1016F00001FA00F0B060012084F8350084F83470FD
:101700000020BDE8F08190F83510022903D0802137
:10171000416501207047052180F835100068016897
:1017200021F0010101600020704700002DE9F8431D
:1017300004464FF00008CDF8008076484FF416516B
:101740000068B0FBF1F7A56D2E6894F85C000821E5
:1017500001FA00F0304211D02068026812F0040F44
:101760000CD0026822F00402026094F85C0001FAD6
:1017700000F0A860606D40F00100606594F85C00C6
:101780004FF0010909FA00F0304209D02168496997
:1017900011F0800F04D0A860606D40F00200606519
:1017A00094F85C1004208840304209D02168096810
:1017B00011F0020F04D0A860606D40F00400606575
:1017C00094F85C1010208840304224D021680968C9
:1017D00011F0080F1FD0A8602068016811F4802F55
:1017E0000DD0006810F4002F04D0A16C99B12046F0
:1017F000884710E0216C71B1204688470BE00168F2
:1018000011F4807F03D1016821F008010160216C8F
:1018100009B12046884794F85C1020208840304267
:1018200051D02168096811F0100F4CD0A86094F8CD
:10183000350005280DD02068016811F4802F32D0C2
:10184000006810F4002F29D0E16B59B32046884777
:1018500039E02068016821F01601016020684169C3
:1018600021F080014161206C08B9A06C20B1206892
:10187000016821F00801016094F85C003F2101FA41
:1018800000F0A86084F8359084F83480216D002938
:101890003ED001B02046BDE8F0430847616C09B175
:1018A000204688470FE0016811F4807F07D1016866
:1018B00021F01001016084F8359084F83480E16BE8
:1018C00009B120468847606D002821D0606D10F076
:1018D000010F15D0052084F835002068016821F03B
:1018E000010101600098401C0090B84204D82068B3
:1018F000006810F0010FF5D184F8359084F8348039
:10190000E16C002904D001B02046BDE8F04308474F
:10191000BDE8F883F00100202DE9F041044600F015
:10192000ABF90546DCB1022084F83500002684F8C6
:1019300034602068016821F00101016020680068BE
:1019400010F0010F13D000F097F9401B052809D9BA
:1019500020206065032084F83500BDE8F081012077
:10196000BDE8F0812068006810F0010FEBD121681C
:101970000868234A1040A3686268D4F810C01A436C
:10198000E36843EA0C031A4363691A43A3691A43E1
:10199000E3691A43236A1A431043626A042A03D193
:1019A000236BE26A1A43104308602068406920F004
:1019B0000701606A40EA0105012704280ED1A06AE8
:1019C0000543E06A50B12046FFF740F930B14020AE
:1019D000606584F835700120BDE8F08120684561BC
:1019E0002046FFF719F994F85C103F2202FA01F142
:1019F0008160666584F835700020BDE8F0810000E4
:101A00003F8010F070B5044600F036F90546B4F199
:101A1000FF3F02D004480078044400F02DF9401B39
:101A2000A042FAD370BD0000E40100202DE9F84F78
:101A30000022DFF818A2DFF810924FF0010E032702
:101A40004FF00F08AAF1040B0EFA02FC0B6803EA30
:101A50000C0363457DD10C7904F00304012C01D003
:101A6000022C14D18568540007FA04F6B543CE68F9
:101A700006FA04F42C438460446824EA0C0C0C79C4
:101A8000C4F30014944044EA0C0CC0F804C0D1F82C
:101A900004C037EA0C0C0CD0C4684FEA420C07FAB9
:101AA0000CF5AC438D6805FA0CFC4CEA040CC0F84C
:101AB0000CC091F804C00CF0030CBCF1020F12D161
:101AC0004FEAD20C00EB8C04256A4FEA427C4FEAC5
:101AD000DC6C08FA0CF6B5430E6906FA0CFC4CEA0D
:101AE000050CC4F820C004684FEA420C07FA0CF554
:101AF000AC430D7905F0030505FA0CFC4CEA040C27
:101B0000C0F800C0D1F804C01CF4403F7DD0D9F823
:101B100000C04CF4804CC9F800C0D9F800C00CF4E7
:101B2000804CCDF800C022F0030C0CF1804505F587
:101B30009835D5F808C89407240F08FA04F62CEA5B
:101B40000606A0F1804CBCF5003C64D0A0F1804CAE
:101B500000E05AE0BCF5013C60D0A0F1804CBCF53F
:101B6000023C5ED0A0F1804CBCF5033C5CD0A0F1FF
:101B7000804CBCF5043C5AD0A0F1804CBCF5053C2F
:101B800058D0A0F1804CBCF5063C56D0A0F1804C5A
:101B9000BCF5073C54D04FF0080C0CFA04FC4CEA9E
:101BA000060CC5F808C8DAF800C02CEA030C4C682B
:101BB00014F4801F01D04CEA030CCAF800C0244C76
:101BC000D4F800C02CEA030C4D6815F4001F01D0B6
:101BD0004CEA030CC4F800C0DBF800C02CEA030C8C
:101BE0004C6814F4003F01D04CEA030CCBF800C061
:101BF000184CD4F800C02CEA030C4D6815F4803F53
:101C000001D04CEA030CC4F800C0521C102AFFF4A7
:101C10001BAFBDE8F88F4FF0000CBEE74FF0010C92
:101C2000BBE74FF0020CB8E74FF0030CB5E74FF0FD
:101C3000040CB2E74FF0050CAFE74FF0060CACE731
:101C40004FF0070CA9E7000044380240083C01406F
:101C50000C3C0140003C0140426921EA0203114072
:101C600043EA014181617047002A01D081617047D8
:101C700009048161704700000148806870470000D6
:101C8000E4010020024881680278114481607047B5
:101C9000E401002010B50B48016841F400710160B7
:101CA000016841F480610160016841F48071016064
:101CB000032000F091F8002000F006F800F026F86C
:101CC000002010BD003C024070B504460D4D4FF49D
:101CD0007A712878B1FBF0F00B490968B1FBF0F09C
:101CE00000F0EAFB08B1012070BD102C07D20022E1
:101CF0002146501E00F03CF86C60002070BD0120B1
:101D000070BD0000E4010020F001002008B500BF14
:101D1000002000900E48006840F480400C490860A4
:101D20000846006800F48040009000BF00BF00BF7C
:101D300000200090081F006840F08050091F0860D4
:101D40000846006800F08050009000BF00BF08BD4A
:101D50004438024000280ADB00F01F01012202FA89
:101D600001F14009800000F1E020C0F80011704747
:101D700010B4184B1B68C3F30223C3F1070CBCF16A
:101D8000040F01D94FF0040C1C1D072C01D20023B5
:101D900000E0DB1E012404FA0CFCACF1010C0CEA9F
:101DA0000101994004FA03F35B1E1A401143002815
:101DB00006DB00F1E020090180F8001410BC704738
:101DC00000F00F0000F1E020090180F8141D10BCA4
:101DD000704700000CED00E000F00700064A1168B3
:101DE0004FF6FF03194041EA002040F0FD7040F03B
:101DF00080601060704700000CED00E02DE9F047B6
:101E000004460D46002C13D0DFF85491D9F8000099
:101E1000EFB200F00700A8420DD289F80070D9F89F
:101E2000000000F00700A84205D00120BDE8F087BF
:101E30000120BDE8F08720684A4E10F0020F14D050
:101E400010F0040F03D0306840F4E0503060207888
:101E500010F0080F03D0306840F460403060306804
:101E6000A16820F0F00008433060207810F0010FE6
:101E70003ED060683C49012808D002280DD00328D4
:101E80000BD0096811F0020F28D00AE0096811F49C
:101E9000003F06D10120BDE8F087096811F0007FFE
:101EA00019D0316821F0030108433060FFF7E4FEE8
:101EB00080463068616800F00C00B0EB810F17D0ED
:101EC00041F2883AFFF7D8FEA0EB0800504508D948
:101ED0000320BDE8F0870120BDE8F0870120BDE8C0
:101EE000F0873068616800F00C00B0EB810FE9D139
:101EF000D9F8000000F00700A8420AD989F800705C
:101F0000D9F8000000F00700A84202D00120BDE887
:101F1000F087207810F0040F05D03068E16820F4D5
:101F2000E05008433060207810F0080F06D0306889
:101F3000216920F4604040EAC100306000F042F8BE
:101F400031680A4AC1F30311515CC840084908606E
:101F500008480068FFF7B8FE0020BDE8F0870000E1
:101F6000003C02400838024000380240747100080A
:101F7000F0010020E80100200148006870470000DF
:101F8000F001002000B5FFF7F7FF04490968044A93
:101F9000C1F38221515CC84000BD000008380240F6
:101FA0008471000800B5FFF7E7FF04490968044A97
:101FB000C1F34231515CC84000BD00000838024006
:101FC0008471000810B51748006810F00C0116481D
:101FD00016D0164B042912D0082911D1144C2168AF
:101FE00001F03F02216811F4800F0AD02068C0F38D
:101FF0008810A0FB03010023FEF7E2F809E0184671
:1020000010BD21680023C1F38811A1FB0001FEF778
:10201000D7F82168C1F30141491C4900B0FBF1F038
:1020200010BD0000083802400024F400001BB70077
:10203000043802402DE9F84F0446002C12D02078D5
:10204000FB4E10F0010FA6F1040563D0301D0168AE
:1020500001F00C0104290CD0006800F00C000828E5
:1020600003D010E00120BDE8F88F306810F4800F35
:1020700009D0286810F4003F4CD06068002849D18E
:102080000120BDE8F88F6068B0F5803F14D0B0F54E
:10209000A02F16D0286820F480302860286820F40B
:1020A00080202860606810B3FFF7E6FD07462868C7
:1020B00010F4003F0ED02DE0286840F480302860F6
:1020C000F0E7286840F480202860286840F48030D9
:1020D0002860E7E7FFF7D0FDC01B642802D9032082
:1020E000BDE8F88F286810F4003FF3D012E0FFF746
:1020F000C3FD0746286810F4003F0BD0FFF7BCFD76
:10210000C01B642802D90320BDE8F88F286810F4AA
:10211000003FF3D12078C74F10F0020F4FF00009B5
:1021200057D0C548016811F00C0F14D0006800F0BA
:102130000C00082803D1306810F4800F0BD0E06841
:1021400080B301203860FFF797FD8046286810F0C3
:10215000020F12D01EE0286810F0020F05D0E068D0
:10216000012802D00120BDE8F88F2868216920F0FD
:10217000F80040EAC10028602BE0FFF77DFDA0EBEE
:102180000800022802D90320BDE8F88F286810F063
:10219000020FF2D02868216920F0F80040EAC1005F
:1021A000286016E0FFE7C7F80090FFF765FD80465E
:1021B000286810F0020F0CD0FFF75EFDA0EB0800BE
:1021C000022802D90320BDE8F88F286810F0020F1A
:1021D000F2D1207810F0080F35D09848DFF860A2CF
:1021E0006169C1B101210160FFF746FD8046DAF85F
:1021F000000010F0020F26D1FFF73EFDA0EB080013
:10220000022802D90320BDE8F88FDAF8000010F0A8
:10221000020FF1D017E0C0F80090FFF72DFD8046C7
:10222000DAF8000010F0020F0DD0FFF725FDA0EB4B
:102230000800022802D90320BDE8F88FDAF8000070
:1022400010F0020FF1D1207810F0040F71D04FF090
:1022500000087C48006810F0805F0AD17948016866
:1022600041F080510160006800F0805000904FF014
:102270000108DFF8D4B1DBF8000010F4807F1BD137
:10228000DBF8000040F48070CBF80000FFF7F4FCAE
:102290008246DBF8000010F4807F0DD1FFF7ECFCE4
:1022A000A0EB0A00022802D90320BDE8F88FDBF872
:1022B000000010F4807FF1D0A068DFF890B1012811
:1022C00018D005281DD0DBF8000020F00100CBF865
:1022D0000000DBF8000020F00400CBF80000A0684C
:1022E00040B3FFF7C9FC8246DBF8000010F0020F94
:1022F00014D03EE0DBF8000040F00100CBF8000015
:10230000EDE7DBF8000040F00400CBF80000DBF85C
:10231000000040F00100CBF80000E0E7FFF7ACFC64
:10232000A0EB0A0141F28830814204D90320BDE8C4
:10233000F88F26E005E0DBF8000010F0020FEDD08A
:1023400017E0FFF799FC8246DBF8000010F0020F5F
:102350000FD0FFF791FCA0EB0A0141F288308142D7
:1023600002D90320BDE8F88FDBF8000010F0020F5F
:10237000EFD1B8F1010F04D13248016821F080514A
:102380000160A069F0B32C4909684FF0FF3801F0F3
:102390000C01082966D0022810D0C7F86090FFF71A
:1023A0006BFC0446286810F0007F2BD0FFF764FC1C
:1023B000001B022851D90320BDE8F88FC7F86090B0
:1023C000FFF75AFC8146286810F0007F0CD0FFF719
:1023D00053FCA0EB0900022802D90320BDE8F88FC6
:1023E000286810F0007FF2D1216AE069A26A0843F0
:1023F000616A08EB5202890141EA0241084394F8FC
:102400002C1000E055E040EA0160306001203866A1
:10241000FFF732FC0446286810F0007F49D1FFF72F
:102420002BFC001B022813D90320BDE8F88F000005
:10243000043802400000474208380240800E4742FC
:10244000743802404038024000700040703802404A
:10245000286810F0007FE2D02BE0286810F0007FA1
:10246000A4D126E0012822D03068E26900F480017E
:1024700091421AD1226A00F03F01914215D147F6EC
:10248000C071626A0140B1EB821F0ED1A26A00F4F2
:10249000403108EB5202B1EB024F06D194F82C10F8
:1024A00000F07060B0EB016F03D00120BDE70120A8
:1024B000BBE70020B9E70000401EB0F1807F01D3E8
:1024C000012070474FF0E0214861044AF02010706D
:1024D00000208861072008610020704723ED00E09C
:1024E0007047704790F83C20012A2CD0012280F8D8
:1024F0003C20CA680023D1F808C022F4407242EAA6
:102500000C02D1F804C022F4806242EA0C02D1F835
:1025100000C022F4006242EA0C02D1F810C022F49A
:10252000805242EA0C02D1F814C022F4005242EA6E
:102530000C02C96922F4804211430268516480F898
:102540003C30002070470220704730B490F83C20A7
:10255000012A44D0012480F83C40022280F83D202A
:102560000268D2F804C093682CF0700C0D6845EA3C
:102570000C0CC2F804C00268A2F1804CBCF5803C8F
:1025800020D0B2F1804F1DD0A2F1804CBCF5806C00
:1025900018D0A2F1804CBCF5006C13D0A2F1804C95
:1025A000BCF5406C0ED0A2F1804CBCF5823C09D049
:1025B000A2F1804CBCF5A03C04D0A2F1804CBCF54B
:1025C000C05C04D123F0800349681943916080F80E
:1025D0003D40002180F83C1030BC0020704730BCEA
:1025E0000220704710B50446002C03D094F83D003B
:1025F00010B107E0012010BD002084F83C00204607
:1026000000F01EF8022084F83D00211D206802F031
:1026100049FA012084F8460084F83E0084F83F001F
:1026200084F8400084F8410084F8420084F84300B4
:1026300084F8440084F8450084F83D00002010BD73
:1026400038B504461D492068884218D100BF0020D3
:1026500000901B48006840F00100194908600846D6
:10266000006800F00100009000BF00BF002211468A
:102670001B20FFF77DFB1B20FFF76CFB1DE01149C2
:102680002068884219D100BF002000900C48001F2C
:10269000006840F010000A49091F086008460068F9
:1026A00000F01000009000BF00BF00220121362082
:1026B000FFF75EFB3620FFF74DFB38BD0000014001
:1026C000443802400010004090F83D10012901D02C
:1026D00001207047022180F83D100168CA6842F06D
:1026E0000102CA600068A0F18041B1F5803126D0B6
:1026F000B0F1804F23D0A0F18041B1F580611ED0B0
:10270000A0F18041B1F5006119D0A0F18041B1F58F
:10271000406114D0A0F18041B1F582310FD0A0F119
:102720008041B1F5A0310AD0A0F18041B1F5C0518E
:1027300005D0016841F00101016000207047816807
:1027400001F007010629F8D0016841F0010101609C
:10275000F3E770B50446002594F83C00012818D032
:10276000012684F83C60022084F83D0020688268DD
:1027700022F0770222F47F4282600868502839D024
:102780000EDC202854D006DC002851D0102811D1AE
:102790004EE0022070BD30284AD040280AD13DE0EA
:1027A000602831D070280DD0B0F5805F03D0B0F52F
:1027B000005F13D0012584F83D60002084F83C00C0
:1027C000284670BDCB684A688968206802F0DFF946
:1027D0002068816841F077018160ECE7CB684A6846
:1027E0008968206802F0D3F92068816841F480414B
:1027F0008160E0E7CA684968206802F0B7FA5021B2
:10280000206802F0CFF9D6E7CA684968206802F06C
:10281000C0FA6021206802F0C5F9CCE7CA684968AF
:10282000206802F0A3FA4021206802F0BBF9C2E759
:1028300022680146104602F0B5F9BCE7704770B552
:102840000446206801694FF0000511F0020F17D00F
:10285000C16811F0020F13D0E91E01610120207739
:102860002068806910F0030F03D02046FFF7E6FFD1
:1028700005E0204600F0CEF8204600F067F9257705
:102880002068016911F0040F18D0C16811F0040F1D
:1028900014D06FF004010161022020772068806964
:1028A00010F4407F03D02046FFF7C8FF05E0204624
:1028B00000F0B0F8204600F049F92577206801695A
:1028C00011F0080F18D0C16811F0080F14D06FF084
:1028D00008010161042020772068C06910F0030F0F
:1028E00003D02046FFF7AAFF05E0204600F092F84B
:1028F000204600F02BF925772068016911F0100FB0
:1029000018D0C16811F0100F14D06FF010010161E0
:10291000082020772068C06910F4407F03D020464B
:10292000FFF78CFF05E0204600F074F8204600F029
:102930000DF925772068016911F0010F09D0C168F0
:1029400011F0010F05D06FF001010161204600F088
:1029500055F92068016911F0800F09D0C16811F0A4
:10296000800F05D06FF0800101612046FFF7B8FDB0
:102970002068016911F0400F09D0C16811F0400FC3
:1029800005D06FF040010161204600F00FFA206889
:10299000016911F0200F0BD0C16811F0200F07D092
:1029A0006FF0200101612046BDE87040FFF799BD3E
:1029B00070BD000010B586B00446142101A8FDF7D3
:1029C00049FC1149206888421CD100BF00200090BA
:1029D0000E48006840F010000C4908600846006886
:1029E00000F01000009000BF00BF481501900220C9
:1029F00002900020039004900120059001A9044852
:102A0000FFF714F806B010BD000001403038024056
:102A100000100240704770B504460D46002694F839
:102A20003C0001280FD0012084F83C006AB1042A40
:102A30001FD0082A32D00C2A44D00126002084F866
:102A40003C00304670BD022070BD2946206802F06F
:102A5000B1F82068816941F00801816120688169CD
:102A600021F004018161206881692A691143816133
:102A7000E4E72946206802F0D5F82068816941F42E
:102A8000006181612068816921F480618161206831
:102A900081692A6941EA02218161CFE729462068DC
:102AA00002F0FCF82068C16941F00801C1612068AA
:102AB000C16921F00401C1612068C1692A6911431B
:102AC000C161BBE72946206802F024F92068C1698A
:102AD00041F40061C1612068C16921F48061C16174
:102AE0002068C1692A6941EA0221C161A6E710B5DF
:102AF0000446002C03D094F83D0010B107E00120FB
:102B000010BD002084F83C00204600F01EF8022092
:102B100084F83D00211D206801F0C4FF012084F8E5
:102B2000460084F83E0084F83F0084F8400084F8B2
:102B3000410084F8420084F8430084F8440084F89B
:102B4000450084F83D00002010BD704710B50446D4
:102B5000094884420FD109480078401C0749087091
:102B6000087800EBD0714910A0EB410119B90021A0
:102B7000014800F005F810BD0008002058000020B2
:102B800030B504460D4600222946206801F0F0FFCA
:102B9000206841F211118A10A0F18043B3F580330F
:102BA00004D0A0F18043B3F5823309D1036A0B420C
:102BB00006D1036A134203D1436C23F400434364F8
:102BC0002068036A0B4206D1016A114203D10168F1
:102BD00021F00101016001203DB1042D08D0082D34
:102BE00009D084F84100002030BD84F83E00FAE7A7
:102BF00084F83F00F7E784F84000F4E710B5044696
:102C00005D480068401C5C4908605C48408818B911
:102C100001205B49087002E00020594908705948BA
:102C2000007801280BD15648007840B90120564958
:102C30000870002055490870401E554908605048EA
:102C40000078504908704C4800680F2190FBF1F261
:102C500001FB120008B903F03FF947480068B0F5DE
:102C60007A7F02DB01204449086047480078002849
:102C700076D147480068401C45490860084600680E
:102C80000F2190FBF1F201FB120058B94148006896
:102C900010B900F0CFFB01E000F060FD00F0F6FF9E
:102CA000FDF78CFF00BF3C48C07A01281BD13A4891
:102CB000807A012809D13948C06D96383749C865EE
:102CC0003748C06D96303649C8653348807A022847
:102CD00009D13248C06D96303049C8653048C06D62
:102CE00096382F49C8652D48C06D2E49884201DDB0
:102CF0002A48C1652A48C06D42F6A071884201DAAF
:102D00002748C1652548C06D2749884201DA234814
:102D1000C1652348C06D24494942884201DD2048ED
:102D2000C1651B480068192190FBF1F201FB1200FC
:102D300018B901F0DDFC01F0EBFC15480068B0F5B6
:102D4000FA7F01D100F0C2FF11480068B0F57A7F28
:102D500002DB01200E49086002F0A0FD06E0FFE75B
:102D60000A480078012801D101F040FAFDF79EFDE4
:102D7000FDF714FE10BD0000380100209C13002058
:102D8000400000203C010020040000203000002012
:102D90003401002000000020050000203C04002039
:102DA000BC04002060D0FFFF206CFBFF7047704721
:102DB00070470000F8B5044622681068D16853696E
:102DC00000F00F0CBCF1000F0AD110F0200F07D05B
:102DD00011F0200F04D02046BDE8F84002F027B8DB
:102DE0000025BCF1000F75D003F0010C01F49076C2
:102DF0005CEA06066ED010F0010F06D011F4807F59
:102E000003D0226C42F00102226410F0040F06D0BD
:102E100013F0010F03D0226C42F00202226410F082
:102E2000020F06D013F0010F03D0226C42F004020F
:102E3000226410F0080F08D001F0200252EA0C02C0
:102E400003D0226C42F008022264226C002A35D0A2
:102E500010F0200F05D011F0200F02D0204601F015
:102E6000E6FF20684069C0F38010216C11F0080F64
:102E700000D148B3204601F0A6FF2068406910F059
:102E8000400F1CD02068143050E8001F21F0400192
:102E900040E80012002AF5D1A06B60B15C490165E1
:102EA000A06BFEF730FC002808D0A06B016D01B0CC
:102EB000BDE8F04008472046FFF77AFFF8BD2046FE
:102EC000FFF776FFF8BD05E0FFE72046FFF770FF4C
:102ED0002564F8BD236B012B7ED110F0100F7BD041
:102EE00011F0100F7ED010685068009050694FF0BC
:102EF000200310F0400F43D0A16B0868406880B2F7
:102F00000028E6D0A28D8242E3D9E085C869B0F5F9
:102F1000807F2DD020680C3050E8001F21F4807194
:102F200040E80012002AF5D12068143050E8001F54
:102F300021F0010140E80012002AF5D12068143088
:102F400050E8001F21F0400140E80012002AF5D1AE
:102F500084F83E30256320680C3050E8001F21F0D3
:102F6000100140E80012002AF5D1A06BFEF77AFBB1
:102F7000A08DE18D401A81B22046FFF718FFF8BD01
:102F8000A08DE18D401A81B2E08D0028F7D0002994
:102F9000F5D020680C3050E8002F22F4907240E801
:102FA000002CBCF1000FF4D12068143050E8002F41
:102FB00022F0010240E8002CBCF1000FF4D184F8AB
:102FC0003E30256320680C3050E8002F22F01002BC
:102FD00040E80023002B00E004E0F3D12046FFF797
:102FE000E6FEF8BD10F0800F07D011F0800F04D07E
:102FF0002046BDE8F84002F01BB810F0400FF0D0BA
:1030000011F0400FEDD02046BDE8F84001F002BFBE
:10301000B74D000870B50446002C04D094F83D006C
:10302000002510B106E0012070BD84F83C50204618
:1030300000F022F8242084F83D002068C16821F4C3
:103040000051C160204601F057FF2068016921F45A
:10305000904101612068416921F02A0141612068A5
:10306000C16841F40051C1602564202084F83D000E
:1030700084F83E00002070BD10B586B004461421CF
:1030800001A8FDF7E7F89F49206888427ED100BF7C
:10309000002000909C48006840F010009A490860A9
:1030A0000846006800F01000009000BF00BF00BF9D
:1030B0000020009094481438006840F002009249C3
:1030C000143908600846006800F00200009000BF54
:1030D00000BF00BF002000900846006840F00100DB
:1030E00008600846006800F00100009000BF00BFC3
:1030F0008020019002200290002003900320049081
:103100000720059001A98148FEF790FC4FF400705C
:1031100001900220029000200390032004900720D9
:10312000059001A97A48FEF781FC7A487A4908603F
:103130004FF000604860002177488160C1604FF423
:1031400080610161002141618161C1614FF4003101
:10315000016200214162FEF7DFFB08B1FDF7B6FD19
:1031600000BF6D48A063846300BF6A4878306B4934
:1031700008604FF00060486040216848816000218D
:10318000C1604FF480610161002100E01AE04161FB
:103190008161C1614FF48031016200214162FEF71B
:1031A000BBFB08B1FDF792FD00BF5C486063846320
:1031B00000BF002211462520FEF7DAFD2520FEF78C
:1031C000C9FD9DE05649206888425CD100BF0020BF
:1031D00000904D48001F006840F480204A49091FB4
:1031E00008600846006800F48020009000BF00BF1F
:1031F00000BF0020009044481438006840F00400EC
:103200004149143908600846006800F00400009045
:1032100000BF00BF4FF440600190022002900020E8
:103220000390032004900720059001A93D48FEF774
:10323000FDFB3D483D4908604FF0006048600021BB
:103240003A488160C1604FF48061016100214161B1
:1032500081614FF48071C161090201620021416204
:10326000FEF75AFB08B1FDF731FD00BF2F48A06300
:10327000846300BF002201212720FEF779FD27206B
:10328000FEF768FD3CE02A492068884238D100BF3B
:10329000002000901C48006840F020001A49086097
:1032A0000846006800F02000009000BF00BF00BF8B
:1032B0000020009014481438006840F04000124983
:1032C000143908600846006800F04000009000BF14
:1032D00000BF4FF484400190022002900020039030
:1032E000032004900820059001A91248FEF79EFBD8
:1032F000002211464720FEF73BFD4720FEF72AFD3E
:1033000006B010BD001001404438024000040240E5
:1033100000000240406402405C090020BC0900201B
:103320000048004000080240286002401C0A0020BB
:10333000001401400018024090F83E30202B01D0CC
:103340000220704759B152B190F83C30012B08D09F
:10335000012380F83C300023036301F04BBE0120C1
:1033600070470220704770472DE9F84304460E4627
:1033700015461F4694F83D00202802D00220BDE8E3
:10338000F883C6B1BDB194F83C00012816D00120E5
:1033900084F83C004FF00009C4F84090212084F8E4
:1033A0003D00FEF769FC8046A584E584A068B0F581
:1033B000805F06D007E00120BDE8F8830220BDE869
:1033C000F883206980B13546002684F83C90E08C73
:1033D000B8B14346002280212046009701F057FEF5
:1033E00020B10320BDE8F8830025EEE7A5B12168F0
:1033F000287848606D1CE08C401EE084E08C00283A
:10340000E7D14346002240212046009701F03FFECD
:1034100048B10320BDE8F88330882168C0F3080074
:103420004860B61CE7E7202084F83D000020BDE896
:10343000F883704710B5BB48C07A012842D1B9481B
:10344000807A032803D10020B74908700EE0B54800
:10345000807A012803D10320B349087006E0B148FF
:10346000807A022802D10420AF490870AD49B1F931
:10347000040040F294634FF4B6724FF4806102F09E
:1034800043FAAA4880ED000AA649B1F9060040F2C5
:1034900094634FF4B6724FF4806102F035FAA44899
:1034A00080ED000A9F49B1F9000040F294634FF4A7
:1034B000B6724FF4806102F09BFAB1EE400A9D486B
:1034C00080ED000A9748C07A032873D19548807A26
:1034D000032803D10020984908700EE09148807AB3
:1034E000012803D103209449087006E08D48807AB2
:1034F000022802D10420904908708A48B0F90200DD
:1035000040F25E51884203DD03208C4908700DE0D3
:103510008448B0F9020040F2A221884203DA042074
:103520008649087002E00020844908707D48B0F99F
:10353000000040F25E51884203DD0320804908709C
:103540000DE07848B0F9000040F2A221884203DA89
:1035500004207B49087002E0002079490870714816
:10356000B0F9060040F2A221884224DA6D48B0F991
:103570000600A0F5806000EB800172488162694816
:10358000B0F90600C0F5806000EB80016E488162F2
:103590006448B0F90600C0F5806000EB80016B481C
:1035A00081626048B0F90600C0F5806000EB8001E0
:1035B0006748816234E05B48B0F9060040F25E5132
:1035C000884224DD5748B0F90600A0F5806000EB82
:1035D00080015C4881625348B0F90600C0F5806004
:1035E00000EB8001584881624E48B0F90600A0F512
:1035F000806000EB8001554881624A48B0F90600BE
:10360000A0F5806000EB80015148816208E0002154
:103610004C4881624C4881624C4881624C488162CE
:103620004048C07A02287BD13E48807A01280AD1DE
:10363000012241034748FEF717FB0122D10245480A
:10364000FEF712FB0BE000224FF400514148FEF759
:103650000BFB00224FF400613E48FEF705FB3148AA
:10366000B0F9060040F25E51884224DD2D48B0F9E1
:103670000600C0F5806000EB800132488162294875
:10368000B0F90600C0F5806000EB80012E48816231
:103690002448B0F90600A0F5806000EB80012B48BB
:1036A00081622048B0F90600A0F5806000EB80013F
:1036B0002748816234E01B48B0F9060040F2A2219D
:1036C000884224DA1748B0F90600C0F5806000EBA4
:1036D00080011C4881621348B0F90600C0F5806083
:1036E00000EB8001184881620E48B0F90600A0F591
:1036F000806000EB8001154881620A48B0F906003D
:10370000A0F5806000EB80011148816208E0002193
:103710000C4881620C4881620C4881620C488162CD
:1037200010BD0000050000203100002058010020DD
:10373000540100205C0100203200002035000020F0
:10374000360000203C050020BC0500203C0600207F
:10375000BC0600200010024000BFFEE710B50020AC
:10376000FE490870FE490870FE490870FE4908705D
:10377000FE4AB2F90C10002901DB0A4600E04A4279
:10378000B2F5FA7F1CDAF94AB2F90C00002801DB25
:10379000024600E04242142A12DDF449B1F90C005D
:1037A0004FF4FA735A42002102F022F9B1EE400AB6
:1037B000F0EE080A20EE200AED4880ED000A04E051
:1037C0009FEDEC0AEA4880ED000AE84AB2F90E10D3
:1037D000002901DB0A4600E04A42B2F5FA7F2DDA01
:1037E000E24AB2F90E00002801DB024600E0424244
:1037F000142A23DDDD49B1F90E004FF4FA735A4261
:10380000002102F0F5F8B5EEC00AF1EE10FA03DD82
:103810000120D949087014E0D449B1F90E004FF4E1
:10382000FA735A42002102F0E3F8B5EEC00AF1EE55
:1038300010FA06D20220D049087002E00020CE49DA
:103840000870CA48007D00F01000A0BBC748007D8A
:1038500000F0010050B1C548007D00F0020028B919
:103860009FEDC60AC64880ED000A14E0BF48007DFF
:1038700000F0020050B1BD48007D00F0010028B901
:103880009FEDC00ABE4880ED000A04E09FEDB90A32
:10389000BB4880ED000AB548007D00F0080058B133
:1038A000B248007D00F0040030B99FEDB40AB6487C
:1038B00080ED000A60E015E0AC48007D00F00400F7
:1038C00050B1AA48007D00F0080028B99FEDAD0A6C
:1038D000AD4880ED000A4FE09FEDA60AAA4880EDB2
:1038E000000A49E0A148007D00F0010050B19F4866
:1038F000007D00F0020028B9B3EE040AA04880ED74
:10390000000A14E09948007D00F0020050B1974889
:10391000007D00F0010028B9BBEE040A984880ED54
:10392000000A04E09FED930A954880ED000A8F4855
:10393000007D00F0080050B18C48007D00F00400CC
:1039400028B9B3EE040A904880ED000A14E08748D5
:10395000007D00F0040050B18448007D00F00800B4
:1039600028B9BBEE040A884880ED000A04E09FED08
:10397000810A854880ED000A7C48807C10B10120D6
:10398000824908707948C07C10B102207F490870D4
:103990007E48007801280AD1012241037C48FEF7C5
:1039A00063F90122D1027A48FEF75EF90EE077480A
:1039B000007802280AD1002201037548FEF754F965
:1039C00000224FF400617248FEF74EF96748007D0F
:1039D00000F04000E0B16548007D00F08000B8B91B
:1039E0006248007D00F0100090B904205B49087027
:1039F0006848C06D00F6AC506649C8656648C06D41
:103A0000A0F6AC506449C86500205649087078E0BB
:103A10005648007D00F08000E0B15448007D00F081
:103A20004000B8B95148007D00F0100090B9032063
:103A30004A4908705748C06DA0F6AC505549C86552
:103A40005548C06D00F6AC505349C8650020454943
:103A5000087056E04548007D00F0400080B14348C2
:103A6000007D00F0800058B94048007D00F0100053
:103A700030B100203949087004203A49087040E00C
:103A80003A48007D00F0800080B13848007D00F0A9
:103A9000400058B93548007D00F0100030B10020DA
:103AA0002E49087003202F4908702AE02F48808A89
:103AB00000F4804080B12D48808A00F4004058B95D
:103AC0002A48007D00F0100030B906202349087014
:103AD00000202449087014E02448808A00F4004043
:103AE00078B12248808A00F4804050B91F48007D98
:103AF00000F0100028B90720184908700020194963
:103B000008701A48808A00F4006080B11748808AE3
:103B100000F4005058B91548007D00F0100030B98D
:103B200004200F49087000200F49087077E00F4803
:103B3000808A00F4005080B10C48808A00F4006054
:103B400058B90A48007D00F0100030B9032004493C
:103B5000087000200449087061E01FE03100002077
:103B60003200002035000020360000200500002033
:103B70005C010020000000003800002000008C42A2
:103B80005401002000008CC2580100203B0000209E
:103B9000001002403C040020BC0400203448808A0D
:103BA00000F4006080B13248808A00F4005058B9B7
:103BB0002F48007D00F0100030B100202D49087022
:103BC00003202D4908702AE02948808A00F400501B
:103BD00080B12748808A00F4006058B92448007DED
:103BE00000F0100030B10020224908700420224962
:103BF000087014E01E48808A00F4804078B11C48A8
:103C0000808A00F4004050B91948007D00F010008F
:103C100028B105201849087000201649087014487A
:103C2000808A00F4007010B305201449087014480D
:103C3000007860B91348C06DA0F6AC501149C86552
:103C40001148C06D00F6AC500F49C8650FE00C4834
:103C5000007801280BD10B48C06D00F6AC50094923
:103C6000C8650948C06DA0F6AC500749C86510BDCD
:103C70000500002032000020360000203100002026
:103C8000390000203C040020BC0400200748807A52
:103C9000022807D10548C07A022803D1012004492F
:103CA000086002E00020024908607047050000201B
:103CB0000000002010B5044622464FF480610248FF
:103CC000FDF7D2FF10BD0000001C024010B54FF4FC
:103CD00000610248FDF7C0FF10BD0000001C02405B
:103CE00010202449087008460078234909780843C1
:103CF0002049087020204870084640781F490978FC
:103D000008431C49487030208870084680781C4958
:103D100009780843174988704020C8700846C07861
:103D20001849097808431349C8705020087108469B
:103D300000791549097808430E49087160204871D7
:103D4000084640791149097808430A4948717020AA
:103D50008871084680790E490978084305498871B9
:103D60008020C8710846C0790A490978084301498A
:103D7000C87170473C07002031000020320000204D
:103D800033000020340000203500002036000020E1
:103D9000380000204000002010B50F480F4908608F
:103DA0000320486000210D488160C1604FF48021EC
:103DB00001614FF4E001416100210176012141766A
:103DC00000218176C17601774177FDF77CFA08B151
:103DD000FCF77CFF10BD000000640040B00700202D
:103DE00010B50F480F4908600320486000210D48B6
:103DF0008160C1604FF4802101614FF4E0014161B5
:103E0000002101760121417600218176C17601777A
:103E10004177FDF758FA08B1FCF758FF10BD0000D4
:103E200000680040D807002008B500BF00200090BF
:103E30001A48006840F400101849086008460068F5
:103E400000F40010009000BF00BF00BF00200090F1
:103E50000846006840F4800008600846006800F4E6
:103E60008000009000BF00BF002211460C20FDF72B
:103E70007FFF0C20FDF76EFF002211463A20FDF770
:103E800077FF3A20FDF766FF002211464620FDF736
:103E90006FFF4620FDF75EFF08BD0000303802408E
:103EA00000B587B0142102A8FCF7D4F900BF0020A8
:103EB00001904748006840F0020045490860084604
:103EC000006800F00200019000BF00BF00BF0020AA
:103ED00001900846006840F040000860084600680D
:103EE00000F04000019000BF00BF00BF0020019023
:103EF0000846006840F0010008600846006800F0CD
:103F00000100019000BF00BF00BF002001900846E3
:103F1000006840F0080008600846006800F00800EB
:103F2000019000BF00BF00BF00200190084600685C
:103F300040F0040008600846006800F004000190AA
:103F400000BF00BF00BF002001900846006840F09D
:103F5000800008600846006800F08000019000BF03
:103F600000BF00BF002001900846006840F010002C
:103F700008600846006800F01000019000BF00BF14
:103F800000224FF4E0511348FDF76EFE00224FF47B
:103F900020511148FDF768FE4FF4E05002900120D7
:103FA0000390002004900320059002A90948FDF722
:103FB0003DFD4FF42050029001200390002004901A
:103FC000059002A90448FDF731FD07B000BD0000CF
:103FD00030380240001C02400010024000B595B08D
:103FE000002011901290139014900F9010901C21AB
:103FF00008A8FCF72FF920216846FCF72BF92B487D
:104000002B490860A720486000212948816044F6B8
:104010001F61C1600021016141618161FEF7E2FA27
:1040200008B1FCF753FE4FF48050119011A92048BD
:10403000FEF78FFB08B1FCF749FE1D48FEF757FD60
:1040400008B1FCF743FE00200F9010900FA918480C
:10405000FEF77BFA08B1FCF739FE602008900020DB
:1040600009900A900B900C900D900E90002208A9D8
:104070000F48FEF7D0FC08B1FCF728FE00200090A6
:1040800001900290039004904FF40050059000209E
:10409000079069460648FEF725FA08B1FCF716FEB8
:1040A0000348FEF787FC15B000BD0000000001408A
:1040B000000800201CB50020009001900E480F4918
:1040C00008605320486000210C48816040F2E731CD
:1040D000C16000218161FEF785FA08B1FCF7F6FDA9
:1040E00000200090019069460448FEF72EFA08B1BE
:1040F000FCF7ECFD1CBD000000100040480800204B
:1041000010B50B480B4908604FF4E13048600021BE
:1041100008488160C16001610C2141610021816119
:10412000C161FEF777FF08B1FCF7D0FD10BD0000BC
:10413000001001409008002010B50A480A490860A4
:104140000A484860002108488160C16001610C2173
:10415000416100218161C161FEF75CFF08B1FCF79C
:10416000B5FD10BD00480040D4080020A086010025
:1041700010B50B480B4908604FF4E130486000214E
:1041800008488160C16001610C21416100218161A9
:10419000C161FEF73FFF08B1FCF798FD10BD0000BC
:1041A000001401401809002000BFFEE710B50446C6
:1041B0000B4693ED053AF0EE432A93ED043AB0EE48
:1041C000432A93ED033AF0EE431A93ED023AB0EE30
:1041D000431A93ED013AF0EE430A93ED003AB0EE44
:1041E000430A204601F0B0FA10BD00002148C06D1E
:1041F00028302049C8652048C06D28381E49C86548
:104200001C4AD36D126F991A002901DB0A4600E09F
:104210004A4249F640439A422BDD174AD36D126F4A
:10422000981A002801DB024600E0424249F640436A
:104230009A421EDD0F4AD16A002901DB0A4600E0DE
:104240004A42C82A15DA0C4AD06A002801DB024625
:1042500000E04242C82A0CDA0648016FC1650648F0
:10426000016FC165002003490861034908610349E2
:10427000087070473C040020BC04002004000020AB
:10428000826DC2604A780B7802EB032213B2836519
:10429000CA788B7802EB032213B2C3624A790B7996
:1042A00002EB032212B24261426842B94A780B78AB
:1042B00002EB032212B202604268521C4260C368E1
:1042C000826DD21AB2F5805F03DD0269521E02616F
:1042D00008E0C368826DD21A12F5805F02DA0269C3
:1042E000521C0261836D026903EB42320368D31AE8
:1042F0000367704700BFFEE730B505460B4614461E
:1043000093ED053AF0EE432A93ED043AB0EE432ADA
:1043100093ED033AF0EE431A93ED023AB0EE431AEE
:1043200093ED013AF0EE430A93ED003AB0EE430A02
:104330002846FCF798F9E96EA96294ED053AF0EE8B
:10434000432A94ED043AB0EE432A94ED033AF0EE9A
:10435000431A94ED023AB0EE431A94ED013AF0EEAE
:10436000430A94ED003AB0EE430A284601F0ECF916
:1043700030BD70470146002901DD084670474842BC
:1043800000B2FBE710B52649B1F90000FFF7F2FFD4
:1043900040F29461884200DD27E02149B1F9020032
:1043A000FFF7E8FF40F29461884200DD1DE01C4900
:1043B000B1F90400FFF7DEFF40F29461884200DDAE
:1043C00013E01749B1F90600FFF7D4FF40F29461FA
:1043D000884200DD09E01248807A00B905E0104803
:1043E000C07A00B901E0002010BD00200C4908800F
:1043F00048808880C880088102208872022108488D
:10440000C17200200649888100210548C1810182CE
:104410008174C1740020024988820120E4E7000011
:104420000500002010B5234B1B685B6943F0400377
:10443000204C246863611F4B1B68DB6843F010034A
:104440001C4C2468E3601C4B1B681B6823F00103B1
:10445000194C2468236007E0174B1B681B6823F086
:104460000103154C24682360134B1B681B6803F081
:104470000103002BF0D1114B0F4C2468A3600E4BAD
:104480001B68D8600C4B1B6819610B4B1B685A608A
:10449000094B1B681B6843F48023074C2468236086
:1044A000054B1B681B6843F00103034C2468236021
:1044B00010BD0000D40800201C0A00200448004061
:1044C00008B52C490968C96821F40051294A1268C5
:1044D000D16029490968096821F00101264A12685A
:1044E00011602421244A1268516000BF002100910C
:1044F00020490968096800911E49096849680091C6
:1045000000BF00BF1C4909681C4A914205D94FF4FD
:1045100000111A4A4C3A11601BE017490968184A01
:10452000914205D94FF40011144A503A116010E03D
:1045300011490968124A603A914205D94FF40011B5
:104540000F4AB83AD16004E04FF400110C4AB83A6F
:10455000916008490968C96841F40051054A126828
:10456000D16005490968096841F00101024A1268F1
:10457000116008BDD40800201C0A002058640240C5
:10458000B860024010B5494B1B685B6943F04003BB
:10459000464C24686361454B1B685B6943F08003AC
:1045A000424C24686361414B1B68DB6843F0100395
:1045B0003E4C2468E3603E4B1B681B6823F00103FC
:1045C0003B4C2468236007E0394B1B681B6823F0D1
:1045D0000103374C24682360354B1B681B6803F0CC
:1045E0000103002BF0D1324B1B68324CA34205D99A
:1045F0004FF400132F4C4C3C23601BE02C4B1B68EA
:104600002D4CA34205D94FF400132A4C503C236093
:1046100010E0274B1B68284C603CA34205D94FF49F
:104620000013254CB83CE36004E04FF40013224C27
:10463000B83CA360214B1E4C2468A360204B1C4C4B
:104640002468E3601A4C24682361194B1B685A6084
:10465000174B1B681B6843F48023154C24682360A8
:10466000134B1B681B6843F00103114C2468236043
:10467000144B1B681B6823F00103124C2468236051
:1046800007E0104B1B681B6823F001030D4C2468E6
:1046900023600C4B1B681B6803F00103002BF0D157
:1046A000064B084C2468A36010BD00009008002051
:1046B0005C09002058640240B860024004100140C8
:1046C0007C0A0020BC09002007490978491C064AD9
:1046D000117011460978642901DB0021117003492A
:1046E000014A127888547047470000204C07002088
:1046F00010B5FFF7F5FA4FF47A7310220249034818
:10470000FEF732FE10BD00003C0700201809002013
:1047100075E03E480078401C3C4908700846007827
:10472000642801D100200870394838490978405C74
:10473000384908700846007800110A2845D2DFE899
:1047400000F044050C131A21282F363D314800781B
:1047500000F00F003049087038E02E48007800F073
:104760000F002E49087031E02A48007800F00F0051
:104770002B4908702AE02748007800F00F002949EB
:10478000087023E02348007800F00F0026490870E5
:104790001CE02048007800F00F002449087015E064
:1047A0001C48007800F00F00214908700EE01948FD
:1047B000007800F00F001F49087007E015480078E6
:1047C00000F00F001C49087000E000BF00BF154852
:1047D00000781549097840EA011018490870134813
:1047E00000781349097840EA01101549087011480A
:1047F00000781149097840EA01101249087003480D
:10480000007811490978884283D170474800002018
:104810004C07002049000020390000203A00002009
:104820003C00002041000020420000204300002006
:104830004400002045000020460000203D000020EC
:104840003E0000203F00002047000020704700008D
:104850001CB51D48C06B1C4988611C48C06B1B49B6
:1048600088611B48C06B1A4988611A48C06B194996
:1048700088611548008B000A8DF800001248007E00
:104880008DF801001148008B000A8DF802000F48D6
:10489000007E8DF803000E48008B000A8DF804009E
:1048A0000B48007E8DF805000846008B000A8DF845
:1048B00006000846007E8DF8070069464FF4007038
:1048C000FCF74CF81CBD00003C020020BC0200209C
:1048D0003C030020BC0300201CB51048C06B0F49EE
:1048E00088610F48C06B0E4988610C48008B000A34
:1048F0008DF800000948007E8DF801000846008B05
:10490000000A8DF802000846007E8DF80300694613
:104910004FF40070FCF7BCF81CBD00003C04002004
:10492000BC0400201CB51D48C06B1C4988611C4894
:10493000C06B1B4988611B48C06B1A4988611A48C3
:10494000C06B194988611548008B000A8DF800007A
:104950001248007E8DF801001148008B000A8DF886
:1049600002000F48007E8DF803000E48008B000AFD
:104970008DF804000B48007E8DF805000846008B7A
:10498000000A8DF806000846007E8DF8070069468B
:1049900040F2FF10FCF77CF81CBD00003C05002035
:1049A000BC0500203C060020BC06002010B5FDF729
:1049B00069F910BD00B593B0302107A8FBF74AFC98
:1049C000142102A8FBF746FC00BF002001902448F8
:1049D000006840F08050224908600846006800F0F6
:1049E0008050019000BF00BF00BF002001901D4813
:1049F000006840F480401B4908600846006800F4E5
:104A00008040019000BF00BF012007900004089083
:104A100002200D9041050E9106210F91A8211091C1
:104A2000022111910421129107A8FDF703FB08B19F
:104A3000FCF74CF90F200290022003900020049014
:104A40004FF4A05005904FF480500690052102A825
:104A5000FDF7D4F908B1FCF739F913B000BD000037
:104A600040380240007000400448016841F4700181
:104A7000016003494FF000600860704788ED00E076
:104A800008ED00E010B50248FDF7D9FE10BD0000AA
:104A90000008002010B50248FDF7D1FE10BD00004F
:104AA00048080020F0B402682C4B2D4C2D4D2E4EA2
:104AB000DFF8B8C098420AD0B0F1804F07D0A042CA
:104AC00005D0A84203D0B04201D0604503D122F006
:104AD00070024F683A43984228D0B0F1804F25D0F9
:104AE000A04223D0A84221D0B0421FD060451DD0A3
:104AF000A0F18044B4F5A03418D0A0F18044B4F5FE
:104B0000A23413D0A0F18044B4F5A4340ED0A0F1A7
:104B10008044B4F5C05409D0A0F18044B4F5E05409
:104B200004D0A0F18044B4F5005403D122F44072C3
:104B3000CC6822434C6922F08002224302608A68DA
:104B4000C2620A688262984201D0604501D1096957
:104B5000016301214161F0BC704700000000014089
:104B60000004004000080040000C00400004014028
:104B700001F01F0101238B40D0F820C02CEA030371
:104B80000362036A02FA01F1194301627047D0F827
:104B900008C02CF47F4C42EA0322114341EA0C0185
:104BA00081607047826822F07002114341F0070172
:104BB0008160704770B4026A22F001020262036AE7
:104BC0004268D0F818C02CF0700C2CF0030C0C6864
:104BD00044EA0C0C23F002038C6823430F4C104D65
:104BE000A04201D0A84205D123F00803CE68334388
:104BF00023F00403A04201D0A84207D122F480721E
:104C000022F400724C6922438C6922434260C0F84E
:104C100018C049684163036270BC704700000140DE
:104C20000004014070B4026A22F010020262036ABA
:104C30004268D0F818C02CF4E04C2CF4407C0C688E
:104C40004CEA042C23F020038C6843EA0413114C33
:104C5000114DA04201D0A84206D123F08003CE68B6
:104C600043EA061323F04003A04201D0A84209D131
:104C700022F4806222F400624C6942EA84028C6968
:104C800042EA84024260C0F818C049688163036246
:104C900070BC7047000001400004014070B4026A1B
:104CA00022F480720262036A4268D0F81CC02CF0C1
:104CB000700C2CF0030C0C6844EA0C0C23F4007309
:104CC0008C6843EA0423114C114DA04201D0A84244
:104CD00006D123F40063CE6843EA062323F48063FD
:104CE000A04201D0A84209D122F4805222F40052FD
:104CF0004C6942EA04128C6942EA04124260C0F82C
:104D00001CC04968C163036270BC70470000014069
:104D10000004014010B4026A22F480520262D0F80A
:104D200020C04268C36923F4E04323F440730C6855
:104D300043EA04232CF4005C8C684CEA043CA0F1A8
:104D40008044B4F5803404D0A0F18044B4F58234BA
:104D500004D122F480424C6942EA84124260C36169
:104D600049680164C0F820C010BC7047036AD0F8DD
:104D700020C02CF0010CC0F820C0D0F818C02CF0D6
:104D8000F00C4CEA021223F00A031943826101621B
:104D90007047036A23F010030362D0F818C0036A57
:104DA0002CF4704C4CEA023223F0A00343EA0111C8
:104DB00082610162704710B5806B0021C185C1849A
:104DC000FDF7F6FF10BD01680C3151E8002F22F409
:104DD000907241E80023002BF5D10168143151E8AD
:104DE000002F22F0010241E80023002BF5D1016BD6
:104DF000012909D101680C3151E8002F22F010027D
:104E000041E80023002BF5D1202180F83E1000213D
:104E10000163704710B50168CA6822F04002CA6099
:104E2000202180F83D10FEF704FB002010BD08B5DE
:104E300090F83E10222901D0022008BD8268B2F508
:104E4000805F01D1016929B1816AB2F5805F1DD00F
:104E500052B10BE0816A02685268C2F308020A800C
:104E6000816A891C816209E002697AB1026852682C
:104E700002F07F020A70816A491C8162C18D491E5D
:104E80000904090CC18505D0002008BD02685268DC
:104E90000A70F0E70168CA6822F02002CA6001685F
:104EA000CA6822F48072CA6001684A6922F001026D
:104EB0004A61202180F83E10016B012903D0FEF7E2
:104EC00052FA002008BD0021016301680C3151E84D
:104ED000002F22F0100241E80023002BF5D10168D9
:104EE0000A6812F0100F02D00A6849680091818D9B
:104EF000FDF75DFFE5E700002DE9F041044620687D
:104F00000169E26821F44051114301612169A068FF
:104F1000E26908436169114301432068C26822F4D1
:104F2000037222F414421143C16020684169A269EE
:104F300021F44071114341612068A0F18041B1F535
:104F400088312ED0A0F18041B1F58A3129D0FDF70A
:104F500019F88446E16900201927254D3226B1F55C
:104F6000004F22D06068830F8200ACFB0701FBF783
:104F700027F90146A5FB002040097A42424301EB94
:104F8000820106EB0111A5FB0121490901F0F002A4
:104F900002EB001001F00F01084421688860BDE8B1
:104FA000F081FCF7FFFF8446D4E761684A1840EBC4
:104FB0000003ACFB0701FBF703F90346A5FB001058
:104FC000410918460A016FF01803594300EB8100AC
:104FD00006EBC000A5FB0010400900F0F80102EB51
:104FE000410100F00700084421688860BDE8F081B5
:104FF0001F85EB5181628285C285002101642222D6
:1050000080F83E2080F83C100169002904D0016836
:10501000CA6842F48072CA6001684A6942F00102BB
:105020004A610068C16841F02001C16000207047FA
:1050300090F83D10212901D0022070478168B1F518
:10504000805F01D1016961B1016A4A1C0262026894
:1050500009785160C18C491E0904090CC1840AD029
:1050600013E0016A02680988C1F308015160016A0E
:10507000891C0162EEE70168CA6822F08002CA60FA
:105080000068C16841F04001C160002070472DE90F
:10509000F0410446069D884616461F462068006873
:1050A00038EA00002AD00020B04231D1B5F1FF3FEC
:1050B00026D025B1FCF7E0FDC01BA84220D920680E
:1050C0000C3050E8001F21F4D07140E80012002A93
:1050D000F5D12068143050E8001F21F0010140E8AC
:1050E0000012002AF5D1202084F83D0084F83E000B
:1050F000002084F83C000320BDE8F0810120D3E7C4
:105100002068006838EA000005D00020B042CDD009
:105110000020BDE8F0810120F8E72DE9F04F09AC4F
:1051200094E8F010DDE90F9ADDF8388091F800B0CE
:1051300080F800B091F801B080F801B091F802B0A9
:1051400080F802B090F803B062F3020B80F803B06D
:1051500090F803B02BF0380B0BF1200B80F803B064
:10516000B0F803B063F3891BA0F803B090F804B063
:1051700064F3850B80F804B0B0F804B065F38E1BBF
:10518000A0F804B0B0F805B066F3CF1BA0F805B0E6
:10519000B0F807B067F3090BA0F807B0B0F808B093
:1051A0006CF38C0BA0F808B0B0F809B068F34F1B93
:1051B000A0F809B0B0F80CB069F38C0BA0F80CB0F3
:1051C000B0F80DB06AF34F1BA0F80DB0BDE8F08F3A
:1051D0002DE9F04307AC94E8F010DDF8308091F849
:1051E000009080F8009091F8019080F8019091F87B
:1051F000029080F8029090F8039062F3020980F820
:10520000039090F8039029F0380980F80390B0F8E3
:10521000039063F38919A0F8039090F8049064F365
:10522000850980F80490B0F8079065F30909A0F8A3
:105230000790B0F8089066F38C09A0F80890B0F8D1
:10524000099067F34F19A0F80990B0F80C906CF32F
:105250008C09A0F80C90B0F80D9068F34F19A0F8E5
:105260000D90BDE8F0832DE9F04FDDE90CC8DDE9D4
:105270000E95DDE909670B9C91F800A080F800A06D
:1052800091F801A080F801A091F802A080F802A096
:1052900090F803A062F3020A80F803A090F803A03C
:1052A0002AF0380A0AF1380A80F803A0B0F803A0FF
:1052B00063F3891AA0F803A090F804A066F3850AA6
:1052C00080F804A0B0F804A067F38E1AA0F804A038
:1052D000B0F805A064F3CF1AA0F805A0B0F807A0B5
:1052E0006CF3090AA0F807A0B0F808A068F38C0ACC
:1052F000A0F808A0B0F809A069F34F1AA0F809A017
:105300004FF0000A07E015F801BB00F10F0E0EF890
:105310000AB00AF1010AA245F5DBBDE8F08F0000F2
:105320002DE9F04104460E4617463546A520287063
:10533000012C03D11520A5F8010010E0022C03D1A7
:105340002420A5F801000AE0052C03D15120A5F87E
:10535000010004E0072C02D16F20A5F80100E878D5
:10536000401CE87004212846FBF7DAFB287140F264
:105370000130A5F80500012C04D140F20110A5F878
:10538000070013E0022C04D14FF48170A5F8070048
:105390000CE0052C04D140F20310A5F8070005E04D
:1053A000072C03D14FF48270A5F80700E81DA5F87B
:1053B000097007F58070E91DA5F80B00012C07D1D5
:1053C000B0461C214046FBF7BBFBA8F81C001DE0C3
:1053D000022C07D1B0462B214046FBF7B1FBA8F8C1
:1053E0002B0013E0052C07D1B04658214046FBF7AF
:1053F000A7FBA8F8580009E0072C07D1B046762192
:105400004046FBF79DFBA8F8760000BF012C06D1B3
:10541000FF231E2229461048FDF7A6FF19E0022CA3
:1054200006D1FF232D2229460B48FDF79DFF10E0F2
:10543000052C06D1FF235A2229460748FDF794FF81
:1054400007E0072C05D1FF23782229460248FDF703
:105450008BFFBDE8F08100009008002070B5044685
:105460000D46A52020703320A4F80100E078401CF0
:10547000E07004212046FBF753FB207140F201301D
:10548000A4F805004FF48870A4F80700E01DA4F804
:10549000095005F58070E11DA4F80B003A21204663
:1054A000FBF74EFB6087FF233C2221460148FDF7B6
:1054B0005BFF70BD9008002008B54048006800F010
:1054C0001000002879D000BF002000903C48006800
:1054D000006800903A4800684068009000BF00BF34
:1054E0003748806B0068006800F4002090BB3448A7
:1054F000806B0068006820F001003149896B096801
:1055000008602F48806B00684068C0F500702D4926
:1055100008804FF400702A49896B09684860284860
:10552000806B0068006840F400202549896B096899
:1055300008602348806B0068006840F00100204943
:10554000896B096808601F4802881F491F4800F0DE
:10555000BDFA32E0FFE71A48806B0068006820F06F
:1055600001001749896B096808601548806B00685D
:105570004068C0F50070134908804FF4007010496E
:10558000896B096848600E48806B0068006820F4E9
:1055900000200B49896B096808600948806B006826
:1055A000006840F001000649896B096808600548F9
:1055B00002880749054800F089FA08BD001001403B
:1055C000900800205A0000207C0A00207C0E002059
:1055D0007C0C002008B50120FEF76CFB48480068F1
:1055E000006800F0200060B100BF00200090444837
:1055F000006800680090424800684068009000BF62
:105600007DE04048006800F01000002877D000BF1F
:10561000002000903A480068006800903848006810
:105620004068009000BF00BF37480068006800F481
:10563000002090BB34480068006820F00100324927
:1056400009680860304800684068C0F124002F49AC
:10565000088024202C49096848602B4800680068AD
:1056600040F400202849096808602748006800685D
:1056700040F0010024490968086024480088122885
:105680003DD12349234801F0A1F8FEF77BFE012814
:1056900035D12420FEF714FF31E0FFE71A480068F7
:1056A000006820F001001849096808601648006881
:1056B0004068C0F124001549088024201249096877
:1056C00048601548806A20F40020134988620E481B
:1056D0000068006840F001000B49096808600B4849
:1056E000008812280BD10A490A48243001F06EF8CC
:1056F000FEF748FE012802D12420FEF7E1FE08BD96
:10570000D4080020004800401C0A00201C00002093
:1057100005000020F40100200060024010B5074998
:1057200009684968C8B2FEF7CFFF0448FDF742FB9D
:10573000012203490148FDF7FFFD10BD18090020B3
:105740003C07002000BFFEE7D0E90A21511AC161E1
:10575000C169002901DB0A4600E04A4203EE102A33
:10576000B8EEC33AB4EEE13AF1EE10FA03D8C269EA
:10577000416A0A44426290ED093AB8EEC33AB4EE87
:10578000C23AF1EE10FA04DDBDEEC23A80ED093AFC
:1057900010E090ED093AB8EEC33AF1EE423AB4EEB9
:1057A000E33AF1EE10FA05D2B1EE423ABDEEC33A59
:1057B00080ED093A90ED073AB8EEC33A23EE003A8D
:1057C000BDEEC33A80ED0C3A90ED093AB8EEC33A1B
:1057D00023EE203ABDEEC33A80ED0D3AD0E9072121
:1057E000511A03EE101AB8EEC33A23EE013ABDEE99
:1057F000C33A80ED0E3AC2690262C169002901DB39
:105800000A4600E04A42022A02DC0022C2632FE07C
:10581000D0E90C210A44816B114403EE101AB8EE52
:10582000C33AB4EEE23AF1EE10FA04DDBDEEE23A2C
:1058300080ED0F3A1CE0D0E90C210A44816B114441
:1058400003EE101AB8EEC33AF1EE623AB4EEE33A60
:10585000F1EE10FA06D2B1EE623ABDEEC33A80ED37
:105860000F3A05E0D0E90C210A44816B0A44C26377
:105870007047EFF31080704702E008C8121F08C19C
:10588000002AFAD170477047002001E001C1121FC1
:10589000002AFBD1704780F3108870471249C86A0C
:1058A000002801DB014600E04142104A1160104926
:1058B000C86A002801DB014600E041420D4A116040
:1058C0000D49C86A002801DB014600E041420B4A4D
:1058D00011600B49C86A002801DB014600E0414223
:1058E000084A1160704700003C02002020000020A0
:1058F000BC020020240000203C03002028000020DF
:10590000BC0300202C0000202DE9F0412DED0C8B74
:1059100005460C4616461F469FED300AB0EE408AFB
:10592000A01C854226DBA11C781AFAF77FFD41EC0A
:105930001B0BA11C681AFAF779FD41EC1D0B9FEDBA
:10594000280B53EC102BFAF790FC41EC1C0B53EC9A
:105950001B2BFAF7FCFC41EC1A0B9FED230B53ECCD
:10596000102BFAF782FC41EC190BFAF770FD08EEE8
:10597000100A2DE0A01EA84226DBA11E881BFAF704
:1059800055FD41EC1B0BA11E681AFAF74FFD41ECC7
:105990001D0B9FED130B53EC102BFAF766FC41EC3B
:1059A0001C0B53EC1B2BFAF7D2FC41EC1A0B9FEDAE
:1059B0000E0B53EC102BFAF758FC41EC190BFAF7CD
:1059C00046FD08EE100A03E09FED040AB0EE408A9F
:1059D000B0EE480ABDEC0C8BBDE8F0810000000081
:1059E000000000000000084000000000008051405E
:1059F00010B59FED210AF0EE400A8C1CA04217DB87
:105A0000041B00EE104AB8EEC00AB0EE081A20EEF1
:105A1000011A8C1C1C1B00EE104AB8EEC00AC1EE25
:105A2000001AB6EE000A21EE800AF0EE400A1EE0EF
:105A30008C1E844217DB041B00EE104AB8EEC00A2D
:105A4000B0EE081A20EE011A8C1EA41A00EE104ABD
:105A5000B8EEC00AC1EE001AB6EE000A21EE800AC6
:105A6000F0EE400A03E09FED040AF0EE400AB7EEC4
:105A7000080A20EE800A10BD0000000070B5044640
:105A80000026FFF7F6FE054672B661682069884277
:105A900001D920682061206906782069401C2061B6
:105AA000A068401CA060E068401EE0602846FFF748
:105AB000F2FE304670BD034619608818401E5860DB
:105AC0009A600020D8601961596170472DE9F0474C
:105AD000044688461546FFF7CCFE824672B6B8F1FA
