:020000040800F2
:10000000101A0020290200082B2600089923000856
:10001000292600085D060008C52C00080000000025
:10002000000000000000000000000000752800082B
:1000300071070008000000005D260008772800080E
:10004000430200084302000843020008430200087C
:10005000430200084302000843020008430200086C
:10006000430200084302000843020008430200085C
:10007000B9060008430200084302000843020008D2
:10008000430200084302000843020008430200083C
:10009000610600084302000843020008430200080A
:1000A000430200084302000843020008430200081C
:1000B0004302000821290008430200084302000807
:1000C00043020008430200084302000843020008FC
:1000D0004302000843020008430200086D2B000899
:1000E00043020008430200084302000843020008DC
:1000F00043020008430200084302000843020008CC
:1001000043020008430200084302000843020008BB
:1001100043020008430200084302000843020008AB
:1001200043020008C5060008D10600084302000883
:10013000430200084302000843020008430200088B
:100140006D0600084302000843020008430200084D
:1001500043020008DD060008E9060008312C00080B
:10016000430200084302000843020008430200085B
:100170004302000843020008430200080000000098
:10018000430200084302000800F002F800F03CF8C7
:100190000AA090E8000C82448344AAF10107DA45E2
:1001A00001D100F031F8AFF2090EBAE80F0013F0F8
:1001B000010F18BFFB1A43F001031847FC5200005F
:1001C0001C530000103A24BF78C878C1FAD85207EF
:1001D00024BF30C830C144BF04680C6070470000C1
:1001E0000023002400250026103A28BF78C1FBD840
:1001F000520728BF30C148BF0B6070471FB504F0DD
:1002000030FF1FBD10B510BD00F07DF91146FFF79E
:10021000F5FF03F04BFF00F09BF903B4FFF7F2FF8B
:1002200003BC00F09BF900000948804709480047DB
:10023000FEE7FEE7FEE7FEE7FEE7FEE7FEE7FEE796
:10024000FEE7FEE704480549054A064B70470000F3
:10025000112900088901000810140020101A00203C
:10026000101600201016002053EA020C00F06980DE
:100270002DE9F04B4FF00006002B1FBFB3FA83F5BA
:1002800003FA05F424FA05F65E4012BF1643B2FAEB
:1002900082F502FA05F4C5F120051EBF22FA05FC1D
:1002A00044EA0C04203556EA044C4FEA144418BFC3
:1002B000641C4FF000084FF00009904271EB030CF2
:1002C00039D3002919BFB1FA81F701FA07F6B0FA5C
:1002D00080F700FA07F6C7F120071EBF20FA07FCD7
:1002E00046EA0C062037B6FBF4FCA7EB0507103FE7
:1002F00007F01F0BCBF120060CFA0BFB2CFA06F6CD
:1003000044BFB3460026202FA4BF5E464FF0000B2B
:100310005BEA060C08BF4FF0010B19EB0B09ABFBB6
:10032000027C48EB0608C01B06FB02CC0BFB03CC8F
:1003300071EB0C01C1E70B46024641464846BDE859
:10034000F08B13B54FF000004FF00001AFF30080C9
:10035000BDE81C407047032A40F2308010F0030CC7
:1003600000F0158011F8013BBCF1020F624498BF08
:1003700011F801CB00F8013B38BF11F8013BA2F1A5
:10038000040298BF00F801CB38BF00F8013B11F020
:10039000030300F07C80083AC0F0088051F8043B69
:1003A000083A51F804CBA0E80810F5E7121D5CBF2D
:1003B00051F8043B40F8043BAFF30080D20724BF60
:1003C00011F8013B11F801CB48BF11F8012B24BFF4
:1003D00000F8013B00F801CB48BF00F8012B704743
:1003E0004FF000020429C0F0128010F0030C00F05E
:1003F0001B80CCF1040CBCF1020F18BF00F8012BDC
:10040000A8BF20F8022BA1EB0C0100F00DB85FEAA9
:10041000C17C24BF00F8012B00F8012B48BF00F875
:10042000012B70474FF0000200B5134694469646E4
:10043000203922BFA0E80C50A0E80C50B1F12001F7
:10044000BFF4F7AF090728BFA0E80C5048BF0CC0A5
:100450005DF804EB890028BF40F8042B08BF704703
:1004600048BF20F8022B11F0804F18BF00F8012B75
:10047000704770477047704710B500F03FF800684C
:1004800010BD10B5044600F039F8046010BD10B579
:10049000203AC0F00B80B1E81850203AA0E818507C
:1004A000B1E81850A0E81850BFF4F5AF5FEA027C3D
:1004B00024BFB1E81850A0E8185044BF18C918C0AC
:1004C000BDE810405FEA827C24BF51F8043B40F84D
:1004D000043B08BF7047D20728BF31F8023B48BF32
:1004E00011F8012B28BF20F8023B48BF00F8012B70
:1004F0007047000000487047B01300200048704764
:10050000B013002070477546FFF7F4FFAE460500B4
:100510006946534620F00700854618B020B5FFF71E
:1005200091FEBDE820404FF000064FF000074FF06D
:1005300000084FF0000B21F00701AC46ACE8C00901
:10054000ACE8C009ACE8C009ACE8C0098D4670470A
:100550000446AFF300802046FFF75FFE01491820F4
:10056000ABBEFEE7260002009FED0A0A80ED030AFB
:1005700080ED040A80ED000A80ED010A80ED020A98
:1005800080ED050A80ED060A80ED070A80ED080A75
:100590007047000000000000F1EE401ADFED282A4D
:1005A00031EEE02A70EEC00A26482849F0EE421AE1
:1005B00001EE222AB0EE600A41EE620AB0EE403A45
:1005C00041EE621A01EE223A80ED002A9FED1E0AEA
:1005D000C0ED040A80ED083AC0ED0C1A22EE001AB4
:1005E00060EE800A23EE002A61EE801AB3EE030A61
:1005F00080ED011A21EE001AC0ED050A80ED092AEE
:10060000C0ED0D1ABDEEC11A60EE800A11EE100A9F
:10061000FDEEE00A4042C8620D480E49C0ED0B0AEB
:1006200062EE000A21EE800AFDEEE00ABDEEC00A8D
:1006300010EE900A4042C862074880ED0B0A7047EE
:1006400000001042D80300204276F43F440400200A
:10065000680500208C060020B0070020FEE700009F
:10066000014800F05EBA000094000020014800F04C
:1006700058BA0000BC00002010B50D4C0023082221
:1006800088B0A04201D1940103E00A4CA04207D1F6
:100690000624CDE900430293CDE903328DF81430EE
:1006A0000A4606AB694600F0DDF808B010BD000050
:1006B00094000020BC000020014800F047BD00006D
:1006C000B8020020014800F041BD000018030020DE
:1006D000014800F03BBD0000F8010020014800F097
:1006E00035BD000078030020014800F02FBD000058
:1006F0005802002001681823CAB2103AB2FBF3F284
:10070000054B6FF30901032A9B5CC36500D9091DE2
:1007100081650846704700007650000810B5014614
:1007200000208B698A6A4FF0C07453B1B3F5005F43
:1007300015D072B1012A0CD0022A0AD0032A09D19D
:1007400004E01AB1012A06D0022A03D1C96AC901FC
:1007500000D5012010BDC96AA142FAD010BD002AFF
:10076000F7D0012AF2D0022AF3D0032AF3D010BD29
:10077000704772B6FEE700002A48BBEE030A2B4919
:1007800090ED0A1A2848C1EE000AB3EE031AC0ED34
:10079000030AD1ED0A1A2649C1EE812AC0ED072AC3
:1007A00091ED0A2A2349C2EE011AC0ED0B1A91ED10
:1007B0000A1A81EE002A9FED201A60EE810A22EECD
:1007C000810A61EE811ADFED1D2A80ED0F2A22EEEB
:1007D000011A30EEC02AC0ED020A80ED060AC0ED13
:1007E0000A1A32EE612A80ED0E1A32EE012A82EEEA
:1007F000223A30EE602A30EE800A32EE612A30EE84
:10080000210A72EE012A30EE010AB5EE002A62EEEC
:10081000822A20EE020A80ED153AC0ED132A80EDFF
:10082000140A704744040020D80300206805002003
:100830008C060020B0070020960A063F00001043F7
:1008400090F82020012A07D0022A05D0416A41F4FD
:100850008021416201207047006842690A43426179
:1008600000207047F0B590F820500468A468012D6E
:1008700005D0022D03D0416A41F4802153E014F0E9
:10088000406F01D1E5004BD5C4F30164022C03D9BC
:10089000416A41F4000146E00125A5401D608D68D4
:1008A0004FF4C0739DB1CE6835434E6845EAC60526
:1008B000066803EB0417F5514FF4C275076805EBA2
:1008C00004150E697E51097D012905D009E00E88C5
:1008D000CD6845EA4655EBE701684E5946F4807607
:1008E0004E511179D2F805504FF4C67641EA0525EC
:1008F000016806EB04168D511178D2F801204FF4EF
:10090000C47541EA0221026805EB041551510068E3
:1009100003EB0411425842F0010242500020F0BDA6
:10092000416A41F4001141620120F0BD10B590F818
:100930002020012A07D0022A05D0416A41F48021F3
:100940004162012010BD3B48D0F8002242F0010274
:10095000C0F80022D0F8002222F47C52C0F8002215
:10096000D0F800224B6A42EA0322C0F800220A7D36
:1009700002F01F0301229A40D0F81C329343C0F8C2
:100980001C32CB69B3B9D0F80C329343C0F80C32A7
:100990008C894B6864F31F434C6900EBC404C4F8B2
:1009A00040320C890B6864F31F434C6900EBC404AC
:1009B000C4F84432CB69012B16D1D0F80C32134362
:1009C000C0F80C320C884B6864F31F434C6900EB91
:1009D000C404C4F840320C89CB6864F31F434C69EB
:1009E00000EBC404C4F844328B69002BD0F8043205
:1009F0000ED01343C0F804320B69002BD0F8143228
:100A000008D01343C0F81432096A012904D008E061
:100A10009343EFE79343F5E7D0F81C121143C0F876
:100A20001C12D0F8001221F00101C0F800120020C1
:100A300010BD000000640040704730B590F82040C1
:100A4000012C05D0022C03D0416A41F480215DE0E5
:100A50000468002955D02469A40754D04FF4D874F1
:100A6000056804EB01142D5915F00405956005681F
:100A70002D594ED0ED08556005682C5904F002043C
:100A8000D4604FF4DA74056804EB01142D5905F0B5
:100A90000F05156105682D59C5F307259561056892
:100AA0002C59240C54614FF4DC72046802EB0112DF
:100AB000A4581C700468A458240A5C700468A458E4
:100AC000240C9C700468A258120EDA704FF4DE7287
:100AD000046802EB0112A4581C710468A458240A8B
:100AE0005C710468A458240C9C710468A258120E0E
:100AF000DA71006881B1016941F0200101610020D3
:100B000030BDE468A8E7416A41F400114162012068
:100B100030BD6D0D1560AFE7C16841F02001C160C7
:100B2000EDE72DE9F05F0546006800244669D0F83E
:100B300004908768D0F80CB0D0F810A0D0F81880D6
:100B4000F10748D0F90714D001218160B80703D517
:100B5000284600F0F4FA0CE0780702D54FF4006460
:100B600007E0380702D54FF4805402E0284600F031
:100B7000E5FAF80516D529684FF480708860B80545
:100B800003D5284600F0DDFA0CE0780502D544F4E0
:100B9000005407E0380502D544F4804402E02846BA
:100BA00000F0CEFAF80316D529684FF4803088603B
:100BB000B80303D5284600F0C6FA0CE0780302D546
:100BC00044F4004407E0380302D544F4803402E0E2
:100BD000284600F0B7FA300707D55FEACB6004D5A6
:100BE0002968102044F40074C86070074FF00807AB
:100BF00007D55FEA0B7004D52868C760284600F067
:100C000099F9B00706D52868C068800702D0284641
:100C100000F092F9700607D55FEACA6004D529682A
:100C2000102044F480640861B00607D55FEA0A70BA
:100C300004D528680761284600F050FAF00606D56A
:100C400028680069800702D0284600F048FAB003FF
:100C500008D55FEAC96005D5296810204860284694
:100C600000F03EFAF00307D55FEA097004D5286862
:100C70004760284600F068FA300446D55FEA4970BC
:100C800040D5F00504D55FEAC87001D044F00104F6
:100C9000B00504D55FEA887001D544F00204700500
:100CA00004D55FEA487001D544F00404300529D525
:100CB00018F0700F26D008F07000402815D006DC20
:100CC000102809D020280AD0302816D10AE0502850
:100CD0000ED0602811D10EE044F008040DE044F07D
:100CE00010040AE044F0200407E044F0400404E06B
:100CF00044F0800401E044F480742868816921F0A4
:100D000070018161296804204860002C05D0686A60
:100D1000204368622846FFF78FFEBDE8F09F70B55C
:100D2000040003D094F8200010B104E0012070BD4D
:100D3000204600F081F82068016841F0010101605F
:100D400000F036FC0546052604E000F031FC401BAF
:100D50000A2811D820684068C007F6D020680168CA
:100D600021F00201016000F023FC05460BE000F0D9
:100D70001FFC401B0A2806D9606A40F400306062FC
:100D800084F82060D2E7206840688007EFD4207E96
:100D90000128206801683DD021F080010160607E5B
:100DA00001282068016838D021F040010160A07E50
:100DB00001282068016833D021F020010160E07E25
:100DC0000128206801682ED041F010010160207FC9
:100DD00001282068016829D021F008010160607FA6
:100DE00001282068016824D021F004010160D4E9C1
:100DF00002010843D4E90412114308436168491E03
:100E000008432168C86100206062012084F8200046
:100E1000002070BD41F08001C0E741F04001C5E70E
:100E200041F02001CAE721F01001CFE741F00801AD
:100E3000D4E741F00401D9E7F0B587B004461421A6
:100E40006846FFF7EFFA364B3648DFF8D0E019680E
:100E5000D4F800C0334A03250226092710300024A5
:100E6000491CF44522D11960012907D1016841F0DC
:100E700000710160006800F000700590106840F09B
:100E8000080010601068CDE9005600F00800CDE9B8
:100E9000047069462448CDE9024500F091FA002229
:100EA0000521142000F0F2FB142032E0DFF87CE092
:100EB000F44530D1D0F800C04CF0806CC0F800C0D0
:100EC000D0F800C001290CF0806CCDF814C0196076
:100ED00007D1016841F000710160006800F0007006
:100EE0000590106840F002001060106802AB00F03E
:100EF000020005906020CDE9000683E8B000694655
:100F00000B4800F05DFA00220521402000F0BEFBF6
:100F1000402000F0ADFB07B0F0BD000000640040D1
:100F20000000002030380240000C02400068004001
:100F3000000402407047000070B55E4901265E4D16
:100F40008AB088426AD107AB6A4600215948FFF748
:100F500074FD07A803F02AF9B0F90010B0F90220D7
:100F600000EE101AB0F904300098B8EEC00A40F252
:100F70000324A0F20321A04239D00CDC032844D082
:100F8000881C42D0012830D1BCEEC00A10EE100AF5
:100F900081B24A483FE0012930D0022925D1BCEE78
:100FA000C00A10EE100A95ED050A80B285ED060A1A
:100FB00000EE100AF8EE400A9FED410A80EE801A1A
:100FC000DFED400A21EE201A85ED051A6B63696892
:100FD00000290AD101EE100AB8EE411AC1EE001A3A
:100FE00021EEA00A85ED000A6E600AB070BDBCEE6D
:100FF000C00A10EE100A81B233480CE0BCEEC00A01
:1010000010EE100A81B2314805E0BCEEC00A10EEC5
:10101000100A81B22E4802F08FFFE6E72D49884280
:10102000E3D107AB6A4600212A48FFF706FD2A4CA8
:1010300008B10320A06007A803F0B8F800990729B9
:1010400016D00629D1D1A168E160B0F90000A060F6
:10105000012826D00228C8D1208A811FB1F5B17F8E
:10106000C3D2618A401A00281FDD85F82061BCE7E1
:1010700001882180418861808188A180B0F90600C3
:1010800000EE100AB8EEC00ABCEEC00A10EE100A5C
:1010900080B200EE100A2082B8EE400A85ED050A03
:1010A000A3E70229A1D1AE609FE79ED5022085F873
:1010B00020019AE794000020D40800206805002051
:1010C00000F8FF450000B4438C060020B007002064
:1010D00044040020BC00002030040020704770470A
:1010E0007047000070B5044690F82000012804D035
:1010F000606A40F40020606218E0022084F820005A
:101100002068016821F00101016000F051FA0546F4
:101110000EE000BF00F04CFA401B0A2808D9606AB4
:1011200040F400306062052084F82000012070BD8A
:1011300020684068C007EDD1606270BD704770479D
:101140007047704770477047704700002DE9F843BB
:1011500004464FF00009CDF8009063484FF4165153
:10116000A56D0068B0FBF1F72E6894F85C100820BC
:1011700000FA01F131420FD021680A6852070BD5FD
:101180000A6822F004020A6094F85C108840A860A3
:10119000606D40F00100606594F85C104FF001084C
:1011A00008FA01F0304208D021684969090604D5DF
:1011B000A860606D40F00200606594F85C10042047
:1011C0008840304208D021680968890704D5A860A2
:1011D000606D40F00400606594F85C101020884059
:1011E000304218D021680968090714D5A860206822
:1011F0000168490304D50068000308D5A16C07E025
:101200000168C90503D4016821F008010160216C5F
:1012100009B12046884794F85C102020884030426D
:1012200031D021680968C9062DD5A86094F8350029
:1012300005282068016806D0490347D500680003E7
:101240001DD4616C1CE021F0160101602068416929
:1012500021F080014161206C08B9A06C20B12068A8
:10126000016821F00801016094F85C103F2088407B
:10127000A86084F8358084F83490216D1FE0E16B1C
:1012800009B120468847606D00282BD0606DC007EB
:1012900014D0052084F835002068016821F0010190
:1012A00001600098401C0090B84203D82068006894
:1012B000C007F6D184F8358084F83490E16C0029B9
:1012C00010D001B02046BDE8F04308470168C905C9
:1012D000D5D4016821F01001016084F8358084F8CC
:1012E0003490CCE7BDE8F8838C0000202DE9F04174
:1012F000044600F05DF906465CB1022084F8350032
:10130000002584F834502068016821F00101016053
:101310000DE00120BDE8F08100F04AF9801B0528AE
:1013200005D920206065032084F83500F2E72068A5
:101330000068C007F0D12268116820480140D4E954
:1013400001031843D4E90336334318436369184350
:10135000A3691843E3691843236A18430843616A81
:10136000042903D1D4E90B13194308431060206802
:101370004069666A20F0070130460E4301270428C1
:101380000CD1A06A0643E06A40B12046FFF7C6F9D7
:1013900020B14020606584F83570BAE72068466166
:1013A0002046FFF7A7F994F85C203F219140816027
:1013B000656584F835700020ACE700003F8010F0D0
:1013C0002DE9F84FDFF8BCA1002201250AF1040B3A
:1013D00003264FF00F090BF1040E00BF0B6805FA4E
:1013E00002F42340A34270D10F7907F00307012FC5
:1013F00001D0022F16D187684FEA420806FA08FC8E
:1014000027EA0C07D1F80CC00CFA08FC4CEA070CD0
:10141000C0F808C04768A7430C79C4F3001494408F
:101420003C4344600C79E443A4070AD0C4684FEA03
:10143000420C06FA0CF7BC438F6807FA0CF72743F7
:10144000C7600C7904F00304022C12D1D40800EB1D
:10145000840CDCF820405707FF0E09FA07F824EA4D
:101460000804D1F8108008FA07F848EA0408CCF814
:10147000208004684FEA420C06FA0CF7BC430F794F
:1014800007F0030707FA0CF7274307604C6814F4CA
:10149000403F70D03C4C276847F480472760246861
:1014A00022F0030704F480440094384C07EB040C4A
:1014B000DCF8084897074FEA177809FA08F7BC43A1
:1014C000334FB84202D1002724E054E0314FB842F4
:1014D00001D101271EE0304FB84201D1022719E0A7
:1014E0002E4FB84201D1032714E02D4FB84201D14D
:1014F00004270FE02B4FB84201D105270AE02A4FFD
:10150000B84201D1062705E0284FB84201D107278C
:1015100000E0082707FA08F72743CCF80878DAF83C
:1015200000405746D1F804C09C435FEACC3C00D54C
:101530001C433C60DBF800405F46D1F804C09C438C
:101540005FEA8C3C00D51C433C60DEF800407746E7
:10155000D1F804C09C435FEACC2C00D51C433C600E
:10156000084F0C373C68D1F804C09C435FEA8C2CD0
:1015700000D51C433C60521C102AFFF42FAFBDE87D
:10158000F88F0000003C0140443802400030014028
:10159000000002400004024000080240000C02402B
:1015A000001002400014024000180240001C0240DB
:1015B0000148806870470000800000200248816870
:1015C0000278114481607047800000200B4810B5FC
:1015D000016841F400710160016841F480610160BB
:1015E000016841F480710160032000F06FF80F2062
:1015F00000F006F800F024F8002010BD003C024086
:1016000070B50D4D04464FF47A712878B1FBF0F0B7
:101610000A490968B1FBF0F000F00CFB48B9102C46
:1016200007D200222146501E00F030F800206C60E6
:1016300070BD012070BD0000800000208C000020E3
:101640000A4808B5016841F480410160006800F46F
:10165000804000900548001F016841F08051016002
:10166000006800F08050009008BD0000443802403F
:10167000002809DB00F01F02012191404009800091
:1016800000F1E020C0F8001170470000F0B40E4BEC
:101690001B680C46C3F30223C3F10705042D00D9D0
:1016A0000425191D072901D2002300E0DB1E0126B5
:1016B00006FA05F1491E214099409E40761E1640CB
:1016C0003143F0BC01F02CBB0CED00E0064900F00A
:1016D000070208684FF6FF03184040EA0220034A59
:1016E00010430860704700000CED00E00000FA05B0
:1016F0002DE9F0470E46050065D0DFF81481D8F8D3
:101700000000F7B200F00700B04207D288F800707E
:10171000D8F8000000F00700B04254D128683D4CD2
:10172000810712D5400703D5206840F4E0502060BF
:101730002878000703D5206840F4604020602068C6
:10174000A96820F0F000084320602878C0072DD059
:10175000304968680839012812D0022813D00328BC
:1017600011D00968890700292DDA216821F00301C9
:1017700001432160FFF71CFF814641F2883A0EE0E9
:1017800009688903EFE709688901ECE7FFF710FFB3
:10179000A0EB0901514502D90320BDE8F08720687C
:1017A000696800F00C00B0EB810FEFD1D8F80010A1
:1017B000404601F00701B14207D90770006800F008
:1017C0000700B04201D00120E7E72878400705D59F
:1017D0002068E96820F4E05008432060287800077A
:1017E00006D52068296920F4604040EAC1002060E5
:1017F00000F038F82168084AC1F30311515CC84071
:101800000649086006480068FFF7FAFE0020C4E7B2
:10181000003C0240083802407E5000088C00002046
:10182000840000200448054900680968044AC1F39F
:101830008221515CC84070478C000020083802406B
:101840008E5000080448054900680968044AC1F33D
:101850004231515CC84070478C000020083802407B
:101860008E500008154810B5006810F00C0214489E
:1018700013D01449042A0FD0082A0ED10F4C241F6C
:101880002268236802F03F025B0207D52068C0F39C
:101890008810A0FB010106E0084610BD2168C1F3D5
:1018A0008811A1FB00010023FEF7DEFC2168C1F3D3
:1018B0000141491C4900B0FBF1F010BD083802405D
:1018C0000024F400001BB7002DE9F84F04006ED08F
:1018D0002078DFF84C93C007A9F104054AD009F13C
:1018E00004000168C1F38101012908D00068C0F338
:1018F000810002280AD1D9F80000400206D52868E4
:10190000800337D560680028E1D033E06068B0F527
:10191000803F10D0B0F5A02F286810D020F4803080
:101920002860286820F4802028606068A8B1FFF74C
:101930003FFE06460DE0286840F48030F4E740F4AE
:1019400080202860F7E700BFFFF732FE801B642885
:1019500073D828688003F7D50CE0FFF729FE064608
:1019600005E000BFFFF724FE801B6428F0D828683C
:101970008003F7D42078DFF8AC8280074FF0000AAC
:101980003ED5A748001D016811F00C0F08D0006873
:10199000C0F3810002280BD1D9F80000400207D41F
:1019A0002868800716D5E068012800D112E033E1ED
:1019B000E068B8B10120C8F80000FFF7F9FD06465D
:1019C00005E000BFFFF7F4FD801B0228C0D828689F
:1019D0008007F7D52868216920F0F80040EAC100A7
:1019E00028600DE0C8F800A0FFF7E2FD064604E01D
:1019F000FFF7DEFD801B02281FD828688007F7D478
:101A00002078000722D5864F87486169703771B109
:101A100001210160FFF7CCFD064604E0FFF7C8FD99
:101A2000801B022809D838688007F7D50EE0C0F877
:101A300000A0FFF7BDFD064605E082E0FFF7B8FD18
:101A4000801B02287DD838688007F7D420784007AB
:101A500068D5DFF8CCB100270BF13C0BDBF80000B8
:101A6000C0000BD4DBF8001041F08051CBF800101F
:101A7000DBF80000012700F0805000906B4E3068CA
:101A8000C00510D4306840F480703060FFF790FDDE
:101A9000009005E0FFF78CFD0099401A022850D80D
:101AA0003068C005F6D55E4EA0686C3601280FD0B0
:101AB0000528306810D020F001003060306820F038
:101AC00004003060A068B8B1FFF772FD00900FE02D
:101AD000306840F00100F4E740F004003060F7E7C0
:101AE000FFF766FD0099411A41F28830814266D8BD
:101AF00030688007F4D50EE0FFF75AFD009007E04C
:101B0000FFF756FD0099411A41F28830814256D8BC
:101B100030688007F4D42FB1DBF8001021F0805139
:101B2000CBF80010A069C8B33D49091D0968C1F38D
:101B3000810102294AD00228504607D0C8F8600027
:101B400000E03CE0FFF734FD04463BE04746C8F8C0
:101B50006000FFF72DFD064605E000BFFFF728FDFA
:101B6000801B02282BD828688001F7D4D4E907010C
:101B70000843A16A2E4A490802EB0141626A41EA20
:101B80008211084394F82C1040EA0161C9F8001052
:101B900001203866FFF70CFD044606E03EE000BF7A
:101BA000FFF706FD001B022809D828688001F7D539
:101BB00034E000BFFFF7FCFC001B022802D9032021
:101BC000BDE8F88F28688001F4D427E00128F7D019
:101BD000D9F80000E26900F4800191421CD1226A28
:101BE00000F03F01914217D147F6C071626A01408F
:101BF000B1EB821F10D1A26A4FF0FF3300F44031E5
:101C000003EB5202B1EB024F06D194F82C1000F016
:101C10007060B0EB016F01D00120D1E70020CFE769
:101C20000438024000004742800E474200700040E6
:101C30000000FFFF10B5401EB0F1807F01D30120EE
:101C400010BD4FF0E02460610F21601701F068F8CB
:101C50000020A06107202061002010BD7047704760
:101C600070B590F83C20012A32D0012480F83C4025
:101C7000022280F83D2003685A689D6822F07006B1
:101C80000A6832435A60134B02689A4214D0B2F188
:101C9000804F11D0104B9A420ED0104B9A420BD06D
:101CA0000F4B9A4208D00F4B9A4205D00E4B9A42E6
:101CB00002D00E4B9A4204D1496825F080031943A3
:101CC000916080F83D40002180F83C10084670BDCE
:101CD000022070BD000001400004004000080040E8
:101CE000000C00400004014000400140001800408A
:101CF00010B5040003D094F83D0010B107E00120B6
:101D000010BD002084F83C00204600F01FF802209F
:101D100084F83D00211D206800F008FE012084F8B1
:101D2000460084F83E0084F83F0084F8400084F8C0
:101D3000410084F8420084F8430084F8440084F8A9
:101D4000450084F83D00002010BD000008B5006883
:101D50000B49884212D10B48016841F00201016031
:101D60000068002200F00200009005211D20FFF70E
:101D70008DFCBDE808401D20FFF77ABC08BD0000BF
:101D8000000400404038024090F83D10012901D085
:101D900001207047022180F83D100168CA6842F0B6
:101DA0000102CA6000681149884214D0B0F1804F26
:101DB00011D00F4988420ED00E4988420BD00E49EF
:101DC000884208D00D49884205D00D49884202D08A
:101DD0000C49884204D1816801F00701062903D02B
:101DE000016841F0010101600020704700000140DE
:101DF0000004004000080040000C004000040140C6
:101E0000004001400018004070B5044690F83C00C6
:101E10000025012817D0012684F83C60022084F8B0
:101E20003D002068826822F0770222F47F428260BF
:101E30000868502838D00DDC20284FD005DC90B33E
:101E4000102811D14AE0022070BD302846D0402829
:101E50000AD13BE060282FD070280DD0B0F5805F0C
:101E600003D0B0F5005F12D0012584F83D6000205A
:101E700084F83C00284670BDCB68D1E90121206878
:101E800000F0B8FD2068816841F0770109E0CB6877
:101E9000D1E90121206800F0ADFD2068816841F49E
:101EA00080418160E1E719E0CA684968206800F074
:101EB000B3FD5021206806E0CA684968206800F038
:101EC000BCFD6021206800F09FFDCEE7CA6849682C
:101ED000206800F0A1FD40212068F4E72268014657
:101EE0001046F0E7704770B50446006801694FF08E
:101EF0000005C943890715D4C168C943890711D4AE
:101F0000E91E016101202077206880698007204652
:101F100002D0FFF7E7FF04E000F098F8204600F059
:101F200096F8257720680169C943490717D4C16825
:101F3000C943490713D46FF00401016102202077DF
:101F40002068806910F4407F204602D0FFF7CAFF66
:101F500004E000F07BF8204600F079F8257720684F
:101F60000169C943090716D4C168C943090712D4D6
:101F70006FF008010161042020772068C0698007A4
:101F8000204602D0FFF7AEFF04E000F05FF82046E5
:101F900000F05DF8257720680169C943C90617D4A8
:101FA000C168C943C90613D46FF01001016108204C
:101FB00020772068C06910F4407F204602D0FFF7E8
:101FC00091FF04E000F042F8204600F040F8257749
:101FD00020680169C943C90708D1C168C943C90755
:101FE00004D1891E0161204600F032F820680169A1
:101FF000C943090609D4C168C943090605D46FF06D
:10200000800101612046FFF729FE20680169C9436C
:10201000490609D4C168C943490605D46FF0400197
:102020000161204600F03AF820680169C943890639
:102030000BD4C168C943890607D46FF02001016140
:102040002046BDE87040FFF70ABE70BD704770477C
:1020500010B5114C2068401C0A2190FBF1F2206061
:1020600001FB120038B9FEF787FB02F075FA02F0A7
:1020700045F902F037FA2068072190FBF1F201FBE5
:10208000120008B901F0E8FC2068B0F57A7F01DBA6
:102090000120206010BD000024000020704770B5B2
:1020A000040004D094F83D00002510B106E00120A2
:1020B00070BD84F83C50204600F022F8242084F8BB
:1020C0003D002068C16821F40051C160204600F045
:1020D000C7FC2068016921F49041016120684169D1
:1020E00021F02A0141612068C16841F40051C160BA
:1020F0002564202084F83D0084F83E00002070BD57
:102100002DE9F04F87B0054614216846FEF78AF99D
:102110009648DFF8548214380221D5F800C0934B5A
:102120000322CF03002406154FF007094FF0006B80
:10213000C4456CD1D3F800C04CF0100CC3F800C0FB
:102140001B6803F010030593036843F00203036068
:10215000036803F002030593036843F0010303607F
:1021600000688A4600F0010005908020CDE9000A51
:102170000DF1080C90468CE8100369467C48FFF787
:102180001FF97010CDE9000A0DF1080A69468AE8C6
:1021900010037848FFF714F9DFF8E08176494046EC
:1021A000C8F80010C0E901B4C0E90346C8F81440FB
:1021B000C8F81840C8E90747D946BA46C8F82440C5
:1021C000FFF794F808B1FEF7D4FA6C4F6A48C5F8E7
:1021D000388060377830C8F83850E7E80209402086
:1021E00051C7664847F814496030BC61C7E9074ADF
:1021F0007C62FFF77BF808B1FEF7BBFA6F63002241
:1022000005212520BD63FFF741FA252044E0DFF8D2
:102210007081C44545D1554B1B1FD3F800C04CF409
:10222000802CC3F800C01B6803F480230593036867
:1022300043F004030360006800F0040005904FF4CD
:1022400040608DE81300CDE9032969464D48FFF74A
:10225000B7F8DFF828814C4908F1C0084046C8F8B3
:102260000010C0E901B4C0E90346C8F81440C8F83A
:102270001840C8E90747C8F82440FFF737F808B105
:10228000FEF777FAC5F83880002204212720C8F825
:102290003850FFF7FBF92720FFF7EAF907B0BDE850
:1022A000F08FDFF8E880C445F8D1D3F800C0A1462C
:1022B0004CF0200CC3F800C01B6803F0200305930A
:1022C000036843F040030360006800F0400005909D
:1022D0004FF484408DE813000820CDE903206946BF
:1022E0002B48FFF76DF82449DFF8A88018394046DD
:1022F000C8F800104FF0206AC0E901A4C0E9034605
:10230000C8F814404FF40031C8F81840C8E9074134
:10231000C8F82440FEF7EAFF08B1FEF72AFA1D4C80
:102320001548C5F8388060346030C8F83850C4E9C2
:10233000000A4020A060C4E90396C4F81490C4F8D1
:102340001890C4E907972046C4F82490FEF7CEFF02
:1023500008B1FEF70EFA6C63002205214720A56341
:10236000FFF794F9472097E70010014044380240F6
:10237000000402400000024040640240F8010020D6
:10238000004800400008024028600240001401405C
:102390000018024018030020FEE70000104810B5A6
:1023A0000E4901600321416000214FF480228160C9
:1023B000C0E903124FF4E002426101760122427645
:1023C0008276C17601774177FEF7A9FC002803D019
:1023D000BDE81040FEF7CDB910BD0000006400401C
:1023E00094000020104810B50E490160032141609F
:1023F00000214FF480228160C0E903124FF4E00213
:1024000042610176012242768276C1760177417778
:10241000FEF785FC002803D0BDE81040FEF7A9B9FF
:1024200010BD000000680040BC0000201D4808B539
:10243000016841F400110160016801F4001100918C
:10244000016841F4800101600068002200F480000E
:10245000009011460C20FFF719F90C20FFF708F93E
:10246000002205213920FFF711F93920FFF700F983
:10247000002205213A20FFF709F93A20FFF7F8F882
:10248000002205214520FFF701F94520FFF7F0F86C
:10249000002205214620FFF7F9F8BDE80840462054
:1024A000FFF7E6B830380240194808B5016841F036
:1024B00002010160016801F002010091016841F030
:1024C00040010160016801F040010091016841F0A4
:1024D00001010160016801F001010091016841F012
:1024E00008010160016801F008010091016841F0F4
:1024F00004010160016801F004010091016841F0EC
:1025000080010160006800F08000009008BD0000BC
:102510003038024010B586B000241748009401946A
:102520000294039404941349059401605321C0E973
:10253000011440F2E731C0E903148461FFF7D8FBCE
:1025400008B1FEF716F94FF48050009069460A482A
:10255000FFF75AFC08B1FEF70CF9049404A90648E9
:102560000594FFF77DFB002801D0FEF702F906B0C5
:1025700010BD000000040040E40000200C4810B52D
:102580000A4901604FF4E1314160002181600C2271
:10259000C160C0E904128161C161FFF780FD0028BC
:1025A00003D0BDE81040FEF7E4B810BD00100140B4
:1025B0002C0100200C4810B50A4901600B4941600C
:1025C000002181600422C160C0E904128161C161FF
:1025D000FFF765FD002803D0BDE81040FEF7C9B83D
:1025E00010BD00000048004070010020A0860100DE
:1025F0000C4810B50A4901604FF4E13141600021F7
:1026000081600C22C160C0E904128161C161FFF7E1
:1026100046FD002803D0BDE81040FEF7AAB810BD63
:1026200000140140B4010020FEE7FEE79FED0A0A16
:1026300080ED030A80ED040A80ED000A80ED010AB6
:1026400080ED020A80ED050A80ED060A80ED070A9A
:1026500080ED080A70470000000000007047002865
:1026600001DC404200B2704770B5194CB4F900006B
:10267000FFF7F5FF40F29465A84217DCB4F90200B9
:10268000FFF7EDFFA84211DCB4F90400FFF7E7FF04
:10269000A8420BDCB4F90600FFF7E1FFA84205DC15
:1026A000A07A18B1E07A08B1002070BD0020208027
:1026B0006080A080E08020810221A172E172A0816F
:1026C000E0812082A074E074A082012070BD00002F
:1026D0002A00002030B5144B1C68656945F04005A0
:1026E00065611B68DC6844F01004DC600F4B1C68FB
:1026F000256825F0010525601C682568ED07F7D1E0
:102700001D680B4CAC601C68E060186801611868BB
:1027100042601868016841F480210160186801680E
:1027200041F00101016030BD70010020B8020020BD
:102730000448004038B51B480168CA6822F40052BA
:10274000CA60194A11680B6823F001030B60136813
:10275000242159600068016841680091134C136896
:102760004FF40011A34202D9104B4C3B04E0104C33
:10277000A34203D90D4B503B196008E00C4D0C4CA3
:10278000603DB83CAB4201D9E16000E0A160C168A6
:1027900041F40051C1601068016841F0010101601D
:1027A00038BD000070010020B802002058640240CB
:1027B000B860024030B5284801684B6943F04003D7
:1027C0004B6101684B6943F080034B610068C1684D
:1027D00041F01001C160214801680B6823F001033A
:1027E0000B6001680B68DB07F7D11D4D4FF4001338
:1027F000A94202D91A4C4C3C04E01A4CA14203D91C
:10280000174C503C236008E0164D164C603DB83C18
:10281000A94201D9E36000E0A360134B8B60046818
:102820001249E1600468216101684A6001680A6830
:1028300042F480220A600068016841F001010160F1
:102840000B4801680A6822F001020A6001680A6800
:10285000D207F7D18B6030BDB401002018030020EF
:1028600058640240B860024004140140980B0020F4
:10287000780300207047FEF7A1BE000030B593B08A
:1028800030216846FDF7CEFD14210CA8FDF7CAFDE6
:102890001D480025016841F080510160006800F08A
:1028A000805011901948016841F48041016000682E
:1028B000022400F480401190012000900004019057
:1028C0008001CDE9064006200890A820CDE9090442
:1028D00004200B906846FEF7F7FF08B172B6FEE7DA
:1028E0000CA90F2081E831004FF4A0500F904FF455
:1028F0008050109005210CA8FEF7FAFE002801D0A8
:1029000072B6FEE713B030BD4038024000700040A0
:102910000248016841F470010160704788ED00E0F1
:102920000148FFF7E0BA0000E4000020F0B50268BB
:10293000254C264D264E274F274B4FF0804CA0426A
:1029400009D0604507D0A84205D0B04203D0B842B4
:1029500001D0984204D122F0700E4A6842EA0E0279
:10296000A0421BD0604519D0A84217D0B04215D064
:10297000B84213D0984211D0184DA8420ED0184D2D
:10298000A8420BD0174DA84208D0174DA84205D039
:10299000164DA84202D0164DA84203D122F440752C
:1029A000CA682A434D6922F080022A4302608A687D
:1029B000C2620A688262A04201D0984201D10969CC
:1029C000016301214161F0BD0000014000040040AD
:1029D00000080040000C004000040140004001409D
:1029E000004401400048014000180040001C004025
:1029F0000020004010B5846842EA032224F47F449A
:102A00000A432243826010BD826822F070020A43AA
:102A100042F007018160704710B5036A046A24F030
:102A200001040462846924F0F00444EA021423F0EF
:102A30000A020A438461026210BD10B5036A23F0E2
:102A4000100303628369046A23F4704343EA023289
:102A500024F0A00343EA01118261016210BD00006D
:102A600070B5044600680169E26821F440511143E1
:102A700001612169A068E269084361691143084363
:102A80002168CA6849F20C639A430243CA6020680D
:102A90004169A26921F440711143416131492068C3
:102AA000884202D03049884202D1FEF7CBFE01E0D5
:102AB000FEF7B8FEE2690023192164253226B2F53B
:102AC000004F626828D0A0FB0101930F9200FDF730
:102AD000CBFB0146B0FBF5F06FF01802504301EB61
:102AE000800006EB0010B0FBF5F000F0F002B1FB47
:102AF000F5F002EB0012B1FBF5F06FF0180358434C
:102B000001EB800006EB0010B0FBF5F000F00F00C9
:102B100021681044886070BDA0FB010192185B41E0
:102B2000FDF7A2FB0146B0FBF5F00201B1FBF5F0A9
:102B30006FF01803584301EB800006EBC000B0FBB8
:102B4000F5F000F0F80002EB4002B1FBF5F058435D
:102B500001EB800006EBC000B0FBF5F000F00700D1
:102B6000D6E70000001001400014014038B52A48A3
:102B700000680168890603D501684068009038BD87
:102B800026490968C906FAD501684068244A0090B8
:102B9000106801684FF024030C032249046824F0F4
:102BA0000104046016D414686068C0F1240080B287
:102BB0000880636011680B6843F400230B601168A0
:102BC0000A6842F001020A601228D8D11549164855
:102BD000891C16E010684468C4F12404A4B20C8077
:102BE00043601248816A21F4002181621068016803
:102BF00041F001010160122CC1D10A490A48891C27
:102C0000243001F023FCFFF72FFD0128B7D1BDE8E8
:102C100038402420FFF78EBD70010020004800409E
:102C2000B802002028000020600A00200060024056
:102C30001F4818B40068C00637D51E4801680A68E6
:102C400049680091816B09680A681B4B12030A6886
:102C50004FF4007422F001020A60816B09684A682F
:102C6000C2F5007292B21A804C60816B09680B68E1
:102C70000CD443F400230B60806B0068016841F0C2
:102C8000010101600D4901F580600BE023F4002390
:102C90000B60806B0068016841F001010160084928
:102CA00001F5007018BC01F0ACB818BC704700000A
:102CB00000140140B40100207E000020980B002089
:102CC000980D0020FEE700000021C1600161016055
:102CD0004160816041618161C16101629FED030AD0
:102CE000416280ED0A0A80ED0B0A70470000000087
:102CF00003B401984100009850EAC12018BF042095
:102D00004A0D18BF40F0010040F2FF72B2EB515F74
:102D100008BF40F00200012808BF052002B070473C
:102D20000907090E002804DB00F1E02080F80014F8
:102D3000704700F00F0000F1E02080F8141D70478C
:102D400010B52F499FED2C1B2DED020B84B005987B
:102D500020F000408842D8BF9DED040B2DDD2949AD
:102D6000884209D1049840B94FF00100FDF789FB72
:102D700000F0A2FC06B010BD05DB9DED040B00F0D9
:102D80008FFC06B010BD68469DED040B00F0A0F866
:102D900010F0030004BF9DED021B9DED000B0CD055
:102DA00001280ED09DED021B9DED000B022817D0CF
:102DB000012000F0DDFB06B010BD00F0A5FA06B062
:102DC00010BD9DED021B9DED000B012000F0D0FB1E
:102DD00051EC100B01F048FC06B041EC100B10BD9B
:102DE00000F092FA51EC100B01F03EFC06B041EC01
:102DF000100B10BD000000000000000000000000EB
:102E0000FB21E93F0000F07F10B52F499FED2C1BFF
:102E10002DED020B84B0059820F000408842DCBF05
:102E200000209DED040B32DD2849884209D1049829
:102E300040B94FF00100FDF724FB00F03DFC06B067
:102E400010BD05DB9DED040B00F02AFC06B010BDA3
:102E500068469DED040B00F03BF810F0030011D024
:102E6000012818D09DED021B9DED000B02281AD001
:102E700000F04AFA51EC100B01F0F6FB06B041EC01
:102E8000100B10BD9DED021B9DED000B012000F00D
:102E90006FFB06B010BD9DED021B9DED000B00F019
:102EA00033FA06B010BD012000F062FB51EC100BAC
:102EB00001F0DAFB06B041EC100B10BD0000000081
:102EC0000000000000000000FB21E93F0000F07F4F
:102ED0002DE9F14F04462DED020B2DED088B8AB044
:102EE0009FEDE70B80ED020B139EE74826F00045AF
:102EF00085420ADC9DED120B002084ED000B0AB028
:102F0000BDEC088B03B0BDE8F08FE0489FEDE0AB6F
:102F10009FEDE1BBA84247DDE14F9FEDE39B9FEDB5
:102F2000E48B9DED120B53EC1A2B51EC100B002E81
:102F30001CDD01F03BFF41EC100BBD4208D053EC0F
:102F40001B2B51EC100B01F031FFC4E900010BE029
:102F500053EC192B51EC100B01F028FF53EC182BFC
:102F600001F024FFC4E900010120C8E701F0BAFB29
:102F700041EC100BBD4208D053EC1B2B51EC100B55
:102F800001F0B0FBC4E900010BE053EC192B51EC4C
:102F9000100B01F0A7FB53EC182B01F0A3FBC4E9C5
:102FA00000014FF0FF30AAE7C348A84279DB9DED4E
:102FB000120B51EC100B00F0F7FE41EC180B9FEDDB
:102FC000C00B53EC102B01F0E7FD9FEDBF1B53EC42
:102FD000112B01F087FB01F085FD074601F0B1FDE3
:102FE00041EC190B53EC1A2B01F0D6FD53EC182BC6
:102FF00001F0D0FE41EC180B53EC1B2B51EC190BDC
:1030000001F0CAFDDFF8C8A241EC100B4FEA1558D9
:103010000125FA4453EC102B51EC180B01F0C6FEBD
:10302000032DC4E900013DD0C1F30A5005EB451161
:10303000A8EB00001139814234DA0AEB051BB0EE2F
:1030400048AA9BED000BF0EE68AA53EC102B51EC54
:10305000190B01F0A1FD41EC1B0B51EC1A0B53ECC9
:103060001B2B01F0A3FE41EC180B51EC1A0B53EC97
:10307000182B01F09BFE53EC1B2B01F097FE9BEDF0
:10308000020B41EC1A0B53EC102B51EC190B01F015
:1030900083FD53EC1A2B01F089FE41EC100B6D1CE3
:1030A000B8E70EE0002EA8BF3846BFF628AF94ED73
:1030B000000B51EC100B01F0D7FAC4E90001784283
:1030C0001DE7C6F3130040F4801EC6F30A50A0F2B9
:1030D000F530471100F01F05C5F12000DDF848B0BC
:1030E00008900020069007900520EC467949002DB5
:1030F00007EB0002794408BF51F8221009D051F8BB
:10310000223001EB8201AB404A68089922FA01F1B2
:103110001943A1FB0E26A1FB0B131A449A4234BF9C
:103120000123002303EB06080CEB8003D3E901A67F
:103130000E448E4234BF0121002192448A4411B1D1
:10314000924502D903E0924501D2012100E000211D
:10315000C3E901A641444CF82010011EA0F1010072
:10316000C4DC029800F10050850F0298DDE9036786
:103170008000DDF8148001F0E4FC41EC1A0B3046CD
:1031800001F0F6FC9FED541B53EC112B01F004FDF4
:1031900041EC1B0B384601F0EBFC9FED511B53EC4F
:1031A000112B01F0F9FC41EC180B404601F0E0FC5A
:1031B0009FED4D1B53EC112B01F0EEFC41EC190B74
:1031C00051EC180B53EC192B01F08CFA53EC1B2B20
:1031D00001F088FA53EC1A2B01F084FACDE90801CA
:1031E000002008909DED080B53EC1A2B51EC100BAE
:1031F00001F0DCFD53EC1B2B01F0D8FD53EC182B38
:1032000001F0D4FD53EC192B01F0C4FD9FED381BE8
:1032100053EC112B01F0C0FC9FED370B41EC180B68
:1032200053EC102B9DED080B51EC100B01F0B4FC8E
:1032300053EC182B01F056FA9FED310B41EC180BB3
:1032400053EC102B9DED080B51EC100B01F0A4FC7E
:1032500053EC182B01F046FA41EC100B139810F0C8
:10326000004F06D06D4251EC100B01F0FDF941EC1E
:10327000100B284684ED000B41E600000000000022
:103280000000000000000000FB21E93F7CD9024063
:1032900000004054FB21F93F3163621A61B4D03D14
:1032A000FB21F93F000000000000601A61B4D03D2E
:1032B0007370032E8A19A33BFB21394100000000E3
:1032C00083C8C96D305FE43F000000000000E03FAC
:1032D000B223000000230000000000000000103EA8
:1032E000000000000000103C000000000000103A48
:1032F000182D4454FB21F93D3326A611460B113CF1
:1033000000000054FB21F93D10B52DED040B2DED0F
:10331000088B82B0B0EE419AF0EE619A0B9820F0E3
:1033200000449FED4BABB4F1795F11DA9DED0A0BD0
:1033300051EC100B01F0D6FB002801BFB0EE4A0A99
:10334000F0EE6A0A02B0BDEC088B04BF04B010BDF9
:103350009DED0A0B53EC102B51EC100B01F01CFCF3
:1033600041EC180B3C480621B0EE480AF0EE680A22
:10337000784400F081F853EC182B51EC100B01F05D
:103380000BFC9DED0A0B41EC1B0B53EC192B51EC84
:10339000100B01F001FC41EC190B53EC1B2B51EC11
:1033A000180B01F0F9FB53EC192B01F0FFFC9FED1A
:1033B0002C0B41EC190B53EC102B51EC180B01F0BA
:1033C000EBFB41EC100B2848844210DA53EC192B2C
:1033D00051EC100B01F0EAFC53EC1A2B01F0DAFC73
:1033E00041EC100B02B0BDEC088B04B010BD1F48BF
:1033F000A042BCBF9FED1E1B8DED001B06DBA4F59C
:1034000000100190002000909DED001B51EC100B6E
:1034100053EC112B01F0CAFC9DED000B41EC180B95
:1034200053EC102B51EC1A0B01F0C0FC41EC1A0BC1
:1034300053EC192B51EC180B01F0B8FC53EC1A2B80
:1034400001F0A8FC41EC100BCCE7000000000000EC
:10345000000000000000F03F2420000000000000F9
:10346000000000000000E03F3333D33F0000E93F9D
:10347000000000000000D23F70B504462DED028B25
:103480004D1E00EBC500B0EE408AF0EE608A90ED74
:10349000000B35F0060017D053EC182B51EC100B35
:1034A00001F07AFB41EC100B6D1E04EBC50090EDB2
:1034B000001B51EC100B53EC112B01F013F941ECF4
:1034C000100B35F00600E7D1022D36D0042D1CD0AC
:1034D000062D1CBFBDEC028B70BD53EC182B51ECBC
:1034E000100B01F059FB94ED0A1B53EC112B01F06A
:1034F000F9F853EC182B01F04FFB94ED081B53EC3B
:10350000112B01F0EFF841EC100B53EC182B51ECA0
:10351000100B01F041FB94ED061B53EC112B01F055
:10352000E1F853EC182B01F037FB94ED040B53EC4E
:10353000102B01F0D7F841EC100B53EC182B51EC89
:10354000100B01F029FB94ED021B53EC112B01F041
:10355000C9F853EC182B01F01FFB94ED001B53EC42
:10356000112B01F0BFF8BDEC028B41EC100B70BDCC
:1035700031B504462DED040B2DED0A8BB0EE41BAAA
:10358000F0EE61BA0B989DED0A0B20F00040B0F10F
:10359000795F0DDA51EC100BFFF7AAFB042808BF86
:1035A00000F09AF89DED0A0BBDEC0A8B05B030BD1A
:1035B00053EC102B51EC100B01F0EEFA41EC180B10
:1035C0009DED0A0B53EC182B51EC100B01F0E4FAB3
:1035D00041EC190B2C48B0EE480AF0EE680A0521C0
:1035E0007844FFF749FF9FED2ACBB0EE40AAF0EEFA
:1035F00060AA9CB353EC1C2B51EC190B01F0CCFAD4
:1036000041EC1C0B53EC1A2B51EC190B01F0C4FAD2
:103610009FED210B41EC190B53EC102B51EC1B0BC4
:1036200001F0BAFA53EC192B01F0C0FB53EC182B44
:1036300001F0B2FA53EC1B2B01F0B8FB53EC1C2B3E
:1036400001F0B4FB9DED0A1B53EC112B01F0A2FB22
:10365000BDEC0A8B05B041EC100B30BDFFE753EC1D
:103660001A2B51EC180B01F097FA53EC1C2B01F0BC
:1036700039F853EC192B01F08FFA9DED0A1B53EC2E
:10368000112B01F02FF8E3E7AC1E00000000000052
:10369000495555555555C5BF000000000000E03F95
:1036A00010B553EC102B51EC100B01F01BF841EC52
:1036B000100B10BD000000009FED050B10B553EC82
:1036C000102B51EC100B01F0B5F841EC100B10BDB4
:1036D00000000000000000009FED050B10B553EC4A
:1036E000102B51EC100B01F057FA41EC100B10BDF0
:1036F000000000000000001010B52D4800F014FD7F
:103700002C4800F011FD2C4800F00EFD2B4800F075
:103710000BFD2B4800F008FD25489FED2A0A3C3898
:10372000DFED2A0A80ED260A9FED270A9FED281A71
:1037300080ED270AC0ED280A80ED290A80ED2A0ACB
:1037400080ED2B0A80ED451AC0ED460AC0ED470A10
:103750001848F1EE0C0A3C38C0ED450A1648DFED7A
:103760001D0A3C38C0ED450A14483C38C0ED450AF6
:1037700013483C38C0ED450A1748F7EE000AC0ED83
:103780000A0A80ED0B0A80ED0C0AFEF74FFF134882
:10379000FCF7EAFE00F03CFE00F050FE00F0E2F81C
:1037A0000F48FEF7F1FABDE8104000F03DBC000004
:1037B0001009002080040020A4050020C806002075
:1037C000EC0700203333333F00000000CDCCCC3D6C
:1037D0009A99594033338340F80900202C0A00207D
:1037E000E400002010B590ED040AD0ED030A514A20
:1037F00030EE600A80ED000A1278012A05D0022A14
:1038000028D14D4A926832B338E0D1ED000A4B4AD4
:1038100060EE800AC0ED050A90ED011AD1ED021AA2
:1038200030EE411A21EE211A80ED071A80ED010ACF
:1038300030EE810A10EE101A914202DD9FED400A2F
:1038400006E010EE101A3F4A914201D99FED3E0A60
:1038500080ED080A10BD10EE102A3C4BDFED3C0A4B
:103860009A4202DD30EE600A06E010EE102A394B73
:103870009A4203D930EE200A80ED000A10EE102A99
:103880004FF07E54344BA24209DC10EE102A9A42CB
:1038900005D8D0ED020A70EE800AC0ED020A8268F7
:1038A000A24202DDF7EE000A03E09A4203D9FFEEDE
:1038B000000AC0ED020AD1ED000A284A60EE800A33
:1038C000C0ED050A91ED011AD0ED021A61EE211A40
:1038D000C0ED061A90ED011A91ED022A10EE901A31
:1038E00030EE411AF1EE0C0A914221EE021A80EDFF
:1038F000071A80ED010A01DDC0ED050A184B416988
:10390000B9EE0C2A994201D980ED052A90ED050AFD
:1039100030EE010A30EE210A10EE101A914202DD5B
:10392000C0ED080A10BD10EE101A994290D980ED32
:10393000082A10BD04000020D4080020000016430F
:1039400000004842000016C3000048C20000344393
:103950000000B443000034C3000080BF0000E0401A
:103960000000E0C010B58AB0002001210090019055
:1039700002900390CDE9051004900E200891079164
:10398000099069460D48FCF7D1FF0F200590694664
:103990000B48FCF7CBFF04460848FDF7A3FB08489B
:1039A000FDF7A0FB02210548FCF74AFF022104486D
:1039B000FCF746FF0AB0204610BD0000940000202E
:1039C000BC00002000B589B0092200920022082323
:1039D00001920292CDE903238DF81420020A8DF89A
:1039E00018208DF81900080A8DF81A008DF81B10A0
:1039F00008AB06AA69460248FCF734FF09B000BDCF
:103A0000BC0000200E48B0F8F8100E480A0A0270F8
:103A100041700D49B1F8F8100A0A8270C1700B4963
:103A2000B1F8F8100A0A027141710949B1F8F810A9
:103A30000A0A8271C17101460648FCF71DBE0000EA
:103A4000440400201C000020680500208C06002093
:103A5000B00700209400002010B500F01FF80A4CB9
:103A600001202070094800F081FB094800F07EFB2E
:103A7000084800F07BFB084800F078FB002020702D
:103A8000BDE81040FFF7BEBF040000208004002006
:103A9000A4050020C8060020EC07002070B53C48B3
:103AA0003C4C42F21072B0F9001000EE101AF8EE21
:103AB000C00AC4ED010AB0F9021000EE101AB8EE07
:103AC000C00A84ED020AB0F9041001EE101A32495E
:103AD000B8EEC11A84ED031A0A608268AAB3012AFB
:103AE0000CD0022A32D0032A4BD19FED2C0A84ED50
:103AF000030A84ED010A84ED020A42E0F5EEC00AF1
:103B0000F1EE10FA07D8B5EEC00AF1EE10FA02D8BD
:103B10004FF47A620A60234D9FED210A224E85ED13
:103B2000140A008A00EE100A0220B8EE400A85ED61
:103B3000130A307005F13C0000F018FB00203070D3
:103B400095ED180AB1EE400A19E01AE0F5EEC00A48
:103B5000F1EE10FA0CD1B5EEC00AF1EE10FA07D171
:103B6000B5EEC01AF1EE10FA02D142F22830086028
:103B700008490831081F00F081F8B0EE000A84ED12
:103B8000030A241D94EC030ABDE8704000F00EB84F
:103B9000300400200C00002008000020000000007D
:103BA00000002143D4080020040000202DE9F04744
:103BB0002DED028BFCF7F0FC00F064F92E4DB0F512
:103BC000605F05F5927605F5127705F55B7841DDC6
:103BD00000F0B7FF8946044649EC180BE86AC0EBD1
:103BE000C000C00200F0ADFF53EC182B00F022FE25
:103BF00000F078FFE862F06A49EC184BC0EBC000B7
:103C0000C00200F09EFF53EC182B00F013FE00F0F2
:103C100069FFF062F86A49EC184BC0EBC000C002C3
:103C200000F08FFF53EC182B00F004FE00F05AFF59
:103C3000F862D8F82C0049EC184BC0EBC0004446A1
:103C4000C00200F07EFF53EC182B00F0F3FD00F0F3
:103C500049FFE062E86AC5F8E400F06AC6F8E400EB
:103C6000F86AC7F8E400D8F82C10C8F8E410BDECE6
:103C7000028BBDE8F0870000440400202DE9F041EC
:103C8000074642480E462DED048B90ED050A40494B
:103C900010EE100ADFED3F0A884201DA30EE200A0A
:103CA0009FED3D1A3E4C30EE410A80EE201AB0EEF8
:103CB000000ADFED3A0A21EE000A20EE200A84ED28
:103CC000000A10EE100A01F05BF941EC100BFFF74F
:103CD00037F8344DB0EE408AF0EE608AB5F9000056
:103CE00000F02FFF53EC182B00F056FF41EC180B9F
:103CF000206801F045F941EC100BFFF785F8B0EEB4
:103D0000409AF0EE609AB5F9020000F01AFF53EC09
:103D1000192B00F041FF53EC182B00F0E3FC00F0EE
:103D2000AFFC3860206801F02BF941EC100BFFF775
:103D30006BF8B0EE408AF0EE608AB5F9000000F052
:103D400000FF53EC182B00F027FF41EC180B206804
:103D500001F016F941EC100BFEF7F2FFB0EE409ABD
:103D6000F0EE609AB5F9020000F0EBFE53EC192B6F
:103D700000F012FF53EC182B01F018F800F080FC53
:103D80003060BDEC048BBDE8F0810000D408002059
:103D9000000021430000B44300002143DC0F4940F0
:103DA0000C0000203004002082B0CDE9000121F099
:103DB000004001909DED000B02B051EC100B7047DC
:103DC000EFF3108172B6436802699A4201D9026822
:103DD000026112F8013B02618268521C8260C26873
:103DE000521E81F31088C260184670478B185B1E04
:103DF0000160C0E901320022C0E90321416110469F
:103E000070472DE9F0475FEA01080546EFF3108699
:103E100072B62FD0AC686CB369686869884201D902
:103E200028686861944200DD14460F1A7F1CA7427F
:103E300006DB22464146FCF78EFA686920440DE015
:103E4000A4EB07093A464146FCF785FA08EB07015F
:103E50004A462868FCF77FFA286848446861A868E1
:103E6000001BA860E8682044E860204686F31088BC
:103E7000BDE8F08786F310884FF0FF30F8E7C068A0
:103E8000704700001648C06A002800DA4042154911
:103E9000CA6A5142002A01DB134600E00B46834206
:103EA00002DD100000D508460F49CA6A5142002AB7
:103EB00001DB134600E00B46834202DD100000D513
:103EC00008460A49CA6A5142002A01DB134600E04B
:103ED0000B46834202DD100000D508467047000003
:103EE00044040020680500208C060020B007002054
:103EF00010B558B1084C491E0BD310F8013B534084
:103F0000DBB234F8133083EA1222F4E74FF6FF7085
:103F100010BD104610BD00009651000810B5054CAC
:103F200004E000BF10F8013B5340E25C491EF9D2A7
:103F3000104610BD965000082DE9F0410D4600EEE8
:103F4000105A2DED028B0446B8EE408A00EE105A4E
:103F5000D0ED058A1646B8EE400AC0ED068A80ED1F
:103F6000058A80ED130A006B1F46304400F0E9FD1E
:103F70009FED1E1B53EC112B00F00EFE00F080FB9A
:103F800000EE100A84ED0A0ABDEEC00A84ED1E0A96
:103F900084ED3A0AC4E90C67606838B900EE105A3B
:103FA0000120B8EE400A84ED000A606038EE680A2D
:103FB000206A10EE101AB1F18B4F01DD401E05E0B2
:103FC00010EE101A11F16A5F01D9401C2062400303
:103FD00000EE100AB8EEC00A30EE080ABDEEC00AC4
:103FE00084ED090ABDEC028BBDE8F0810000000001
:103FF0000000E03F01480078704700005C0B0020A3
:10400000034A93780370D2F80300086070470000F9
:104010006E000020034A1289028002481B3040894A
:10402000088070475C0B002070B51E480024A0F18A
:104030001805046004711C48C5F81D4085F821402E
:1040400040F8094F202144600481847216482C7086
:104050001430FCF7C5F9C5F80940A81DC5F80D4096
:10406000048084701048AC801B213430FCF7B8F910
:104070000D4810214F30FCF7B3F90B4810215F3089
:10408000FCF7AEF96C70AC70EC70C5F82E406C8625
:1040900085F83440C5F8224005F12800EC8404601E
:1040A000848070BD58000020280B0020FDF78EFA98
:1040B000FEF7E4FBFEF7F8F9FEF770F9FEF792F968
:1040C000FEF728FAFEF75AFAFEF7B0F9FEF772FA91
:1040D000FEF78EFA00F00CF8FFF70EFB03489FED99
:1040E000020A80ED070AFEE700000000D408002065
:1040F0000849012081F83C000749022081F83C0072
:10410000064981F83C00064981F83C00054981F8E0
:104110003C007047D40800204404002068050020BB
:104120008C060020B00700200178012904D0022964
:1041300018D19C30FEF7C8BD9FED0B0A80ED040A34
:1041400080ED050A80ED010A80ED020A80ED030A88
:1041500080ED060A80ED070A80ED080A80ED090A65
:104160002C30E7E7704700000000000070B50178D0
:10417000012908D0022917D100F1CC019C30BDE8FB
:10418000704000F02FBA00F15C01041D0D4620467E
:10419000FFF728FB94ED080A294604F12800BDEE3C
:1041A000C00A84ED0D0AEAE770BD000001884ABA32
:1041B00006490A80428852BA4A80828852BA8A8066
:1041C000C08840BAC88008467047000076000020CA
:1041D00018B40021ADF800104649026840F20224EC
:1041E0008A6102790A77B0F80520ADF8002092B212
:1041F000A2F20223A2425BD01EDCB2F5817F48D03E
:104200000EDC012A30D0022A3BD0032A3CD0B2EB8C
:10421000640203D1D0F80700C1F8090018BC704748
:10422000A2F58072033A39D0012A3DD0FE2AF5D199
:10423000C11D1B22304844E0042B48D008DC012B70
:104240003BD0022B40D0032BE8D1C0798870E5E742
:10425000052B3FD0062B46D0FF2BDFD150F8072F80
:104260008A6280888885D9E7234950F8072F343936
:1042700041F8092F42684A6002890A81807A88726F
:10428000CCE7C0790870C9E7C11D1B48202220383F
:1042900017E0D0F80700C1F80D00BFE7B0F807201D
:1042A000CA80407A0872B9E7B0F807008880B5E79D
:1042B000C11D114810221B3003E0C11D0E48102201
:1042C0002B3018BCFCF747B8C0794870A6E7C07916
:1042D000C870A3E750F8072F41F82E2F82888A80F4
:1042E000807988719AE750F8072FC1F822208088DA
:1042F000C88493E7400000205C0B002070B5A52621
:10430000404C4148FFF7BBFD014640480025416154
:1043100072E03D48FFF754FD94F8861006294BD211
:10432000DFE801F003131D2D384DB0420AD1012101
:1043300084F88610B4F88710A21D4B1CA4F88730AF
:10434000885459E0A4F8875056E0A080B4F887104C
:10435000A31D4A1CA4F88720C854022017E0A18896
:10436000A31D41EA0021A180B4F88720511CA4F8C4
:104370008710D054A08877281ED2032007E0B4F815
:104380008710A31D4A1CA4F88720C854042084F871
:10439000860031E0B4F88710A31D4A1CA4F88720DA
:1043A000C854B4F88700052826D10521A01D00F0C7
:1043B00005F908B10520EAE784F88650C2E7A2882B
:1043C000B4F887100932914205D20A46A31D491C50
:1043D000A4F88710D054A188B4F887000931884226
:1043E0000AD384F88650A4F88750A01D00F0C8F8BE
:1043F00010B1A01DFFF7ECFE0348FFF740FD0028B9
:1044000087D170BDA80A0020980F0020400000202E
:10441000084910B54FF40072A1F50070FEF7CAF913
:104420000549BDE810404FF48062A1F11800FFF784
:10443000DDBC0000980D0020B00F002002492422AE
:10444000A1F12400FEF746B9840A0020002847D0D5
:10445000002945D00278437842EA0322C2F30A02D7
:104460000A8042788378D20842EA4312C2F30A02F1
:104470004A808278C378920942EA8302037942EA49
:104480008322C2F30A028A8002794379520842EAFF
:10449000C312C2F30A02CA804279C2F301128A72BD
:1044A00042799209CA728279C37942EA03228A81E7
:1044B000027A437A42EA0322CA81827AC37A42EAC2
:1044C00003220A82027B8A74427BCA74827BC37B8A
:1044D00042EA03228A82027C407C42EA0020088170
:1044E0007047000030B58DB0FFF784FD044608A981
:1044F00009A8FFF78FFD07AA0AA90BA8FFF780FDFF
:104500009DED0A0A00252046BDF820200095BDEE4D
:10451000C00A8DF80000100ABDF824308DF80100A3
:1045200010EE101A8DF80220180A01958DF803007C
:104530008DF80430080A8DF805008DF806109DF8F6
:104540001C408DF8074069460248FCF795F80DB00D
:1045500030BD0000BC000020084991ED130ABDEEFB
:10456000C00A10EE100A91ED140A00B2BDEEC00AA6
:1045700010EE101A09B2FFF725BA0000D803002088
:1045800030B50C46050014D0022C12D90A48A11EE1
:1045900002882846FFF7ACFC2919C2B211F8023C88
:1045A0009A4206D111F8011CB1EB102F01D1012064
:1045B00030BD002030BD00009000002030B50C461A
:1045C00005000CD0022C0AD9FF22611EFFF7A6FCC1
:1045D000291911F8011C814201D1012030BD0020B0
:1045E00030BD000030B5D0E90323D21A1D4B026064
:1045F0001C78012C33D1002A144600DA6442B4F549
:10460000FA7F846801DC1444846041F28835AC424E
:1046100002DC6D42AC4200DA856000EE102AD1ED7A
:10462000030AB8EEC00A20EE800ABDEEC00A10EE02
:10463000102A426190ED020AD1ED040AB8EEC00AD8
:1046400020EE800ABDEEC00A10EE101A81611144FE
:104650005A68914202DC5242914201DA026230BD54
:10466000016230BD0400002081F00041704780F0FD
:104670000040704721F00041704720F00040704733
:1046800021F00042A2F16052B2F5801F01F0004318
:1046900028BFD2F17F6C0BD95FEA001C43EAC2024B
:1046A00042EB507018BF704728BF20F001007047E0
:1046B000B2F5801FBCBF184670474FEA410C1CF58D
:1046C000001F02D2084600F0D1BC70B500F00EFB0E
:1046D00000000089FFF7F6BF4FF00040A0F5800012
:1046E0007047000010B591EA030F48BF83F0004304
:1046F00000F16483841A71EB030C05D2121943EBA9
:104700000C03001B61EB0C01DFF824E14FEA1154AC
:10471000A4EB135C1EEA430F18BF9EEA445F73D0FC
:1047200023EA0E03DCF1200E21EA045143F4801346
:1047300032D322FA0CFE10EB0E0023FA0CFE41EBF2
:104740000E01CCF1200E03FA0EFE10EB0E0051F11B
:104750000001B1F5801FCCF1200E32D201EB0451E3
:1047600012FA0EF2BDE8104058BF7047401C38BF27
:104770005FEA420218BF7047002814BF20F0010012
:1047800041F100014FEA410313F5001F38BF7047A4
:10479000A1F1C04100F0F8BA012A43EB0302ACF1E9
:1047A000200CDCF11F0E32BF4FF0000E23FA0CF389
:1047B00010EB030041EB0451B4EB115FD0D0A1EB3F
:1047C000045101F5801149085FEA300001EB045102
:1047D0000ED350F1000038BF12FA0EFE08D1BDE82A
:1047E0001040C9E7401C38BF5FEA4202CAD1C3E7A4
:1047F000BDE810404FEA410313F5001F38BF704772
:10480000A1F1C04100F0C0BA9EEA445F08D011EAAD
:104810005E0FBDE8104004BF01F00041002070476A
:10482000BDE8104070B500F061FA00BF64FBBE3E09
:104830000000E0FF2DE9C04130B4DFF8A0C23CEA3F
:10484000111418BF3CEA131400F0EC8081EA030550
:104850001CEA111444EAD57418BF1CEA131500F0C1
:10486000C780A4EB05044FF0004545EAC12145EAA5
:10487000C32341EA505143EA525304F17F749942F1
:1048800004F500344FEAC0204FEAC22208BF90422C
:1048900000F09C804FEA13650FF24016765D4FEAF8
:1048A000134506FB05F7C7F1807706FB07F74FEACC
:1048B000D737A7FB03687642C8F58038A7FB06CE3A
:1048C00038BFA8F1010807FB08E64FF0000EA6FB71
:1048D000028CE6FB03CEDCF1000CCEF1004E38BFBB
:1048E000AEF1010EA6FB0C584FF000074FF000058B
:1048F000E6FB0E87A1FB08C6A0FB07CE16EB0E0653
:1049000045F10005E1FB076515F1E04E7EBFA4F51A
:1049100080345FEA46066D4116F1800745F10005D7
:104920004FEA17274FEA066647EA0567A6F1DE4613
:10493000B6F1805F4FEA15251FD9384624F0010CE7
:1049400005EBC471BCF1FE6F01EB0C1102D8F0BC99
:10495000BDE8008124425CBF01F5801E9EEAC47F51
:1049600002D4F0BCBDE80081244238D4F0BCA1F1EF
:10497000C041BDE8004100F007BA4FEAD22242EA46
:1049800043524FEAD323A7FB02864FEAD02040EAE6
:10499000415007FB03661EEA0E0F4FEAD12105FBCB
:1049A000026658BFA6EB0056B6EB00564FEA520E11
:1049B0004EEAC37E18EB0E0E56EB530EBDD518EB28
:1049C00002085E417F1C55F10005B6E74FF48015E3
:1049D0004FF000074FF000064FF00008ADE7F0BCC5
:1049E0004FF0000001F1C04101F00041BDE800813D
:1049F00011EA0C1F0CEA131500D00CE013EA0C1F8F
:104A000000F025804FF00000F0BC81EA030101F0C6
:104A10000041BDE80081F0BCBDE8004181EA03012E
:104A200000F0B2B9F0BCBDE8004170B500F05EF92D
:104A3000097EFC3E00F007B881EA03014FF0000058
:104A400001F00041704781EA030100F09DB9F0BC1C
:104A5000BDE800414FF0000021497047FFFDFBF920
:104A6000F7F5F4F2F0EEEDEBE9E8E6E4E3E1E0DEA1
:104A7000DDDBDAD8D7D5D4D3D1D0CFCDCCCBCAC813
:104A8000C7C6C5C4C2C1C0BFBEBDBCBBBAB9B8B73A
:104A9000B6B5B4B3B2B1B0AFAEADACABAAA9A8A82D
:104AA000A7A6A5A4A3A3A2A1A09F9F9E9D9C9C9BFB
:104AB0009A999998979796959594939392919190A6
:104AC0008F8F8E8E8D8C8C8B8B8A89898888878737
:104AD0008685858484838382828181800000FF07AC
:104AE0000000F87F4FEA41034FEA5353A3F5806378
:104AF000D3F11E03C8BFD3F1210C0CDD4FF00042EF
:104B000042EAC12242EA505232FA03FC8CEAE17CCA
:104B1000ACEBE1707047102BC4BF0020704703F569
:104B2000787CBCF1FF3F04D06FF0004282EA2100A4
:104B3000704770B500F0DAF8499224800020704781
:104B4000F2E710F0004248BF4042B0FA80F310FA9A
:104B500003F10AD0C3F11D0303F580634FEA41500E
:104B600002EB035202EBD12170474FF00000704777
:104B7000B0FA80F310FA03F10AD0C3F11D0303F574
:104B800080634FEA41504FEA035202EBD121704754
:104B90004FF0000070470000DFF848C170B51CEA14
:104BA000111E1EBF1CEA13159EEA0C0F95EA0C0F8E
:104BB00000F06F8081EA030423EA4C134EEAD47EAE
:104BC00021EA4C1141F4801143F48013AE44A1FB5F
:104BD000024CA0FB0365AEF17F7E361955EB0C0548
:104BE000A1FB034C4CF10003A0FB021C16EB0C06CE
:104BF000654153F10003094218BF46F0010613F462
:104C0000007F0BD14FEA03314FEA0530340341EA0C
:104C1000155140EA16506FF003020AE04FEAC32133
:104C20004FEAC520F40241EA555140EA56506FF070
:104C3000020202EB2E4201EB025585EACE710AD048
:104C40005FEA440C18BF24F0004450F1000041F129
:104C5000000120EAD47040F2FE7C624500D270BDB3
:104C6000A84214BF4FF080444FF04044002E08BFCC
:104C70000024BEF1806FA8BFA1F1C041BDE8704023
:104C800080F282804FF0000001F1C04101F000414C
:104C900070479EEA0C0F0CEA131518BF95EA0C0F2B
:104CA00006D04FF0000081EA030E0EF0004170BD07
:104CB00000F01CF88900013E00F007B800F009B8C8
:104CC0004FEA430C5FEA5C5C08D081EA030100F024
:104CD0005BB84FEA410C5FEA5C5CF6D14FF0000034
:104CE000014970470000FF070000F87F0EF1020E37
:104CF0002EF0030E5EF8046B364205D4012A43EB16
:104D0000030515F5001F12D8012841EB010C1CF515
:104D1000001F0CD80ED14FEAD17C15F5001F0CEB0B
:104D20004C0C0CF1020C08BF4CEBD37C04E04FF0B0
:104D3000080C01E04FEAD37C0CEB4C0526FA05F693
:104D400006F00706B6F1040C06D20EEB860CBDE8A1
:104D500070404CF0010C6047DFE80CF0090B0202D8
:104D60004FF000414FF00000A1F5002170BD194641
:104D70001046012851EB010418BFD4F5001484BF7C
:104D8000002001F0004170BD0808A0F500114FEAB5
:104D90003101704791EA030F10B581F000413FF5F2
:104DA000A9AC83F0004300F009B8000010B591EA07
:104DB000030F48BF83F000433FF59CAC841A71EBAE
:104DC000030C07D212198CF0004C43EB0C03001BB0
:104DD00061EB0C01DFF8A4E14FEA1154A4EB135C82
:104DE0001EEA430F18BF9EEA445F00F0B08023EA3A
:104DF0006E03524221EA0451C3EB6E0338BF5B1EBF
:104E0000DCF1200E25D322FA0CFE10EB0E0043FA43
:104E10000CFE41EB0E01CCF1200E03FA0EFE10EB5E
:104E20000E0051F10001CCF1200E29D412FA0EF23D
:104E300001EB0451BDE8104058BF7047401C1CBF37
:104E4000B2F1004F704700280CBF491C20F0010050
:104E5000704712EB020E43EB030218BF4FF0010E36
:104E60004EEA4202ACF1200CDCF11E0E54D943FA9A
:104E70000CFE10EB0E0051F1FF31CCF11E0ED5D51A
:104E80000EF1010E12FA0EFE404141EB010101EB61
:104E9000445C5FEA5C5C10D910EBDE7001EB0451FE
:104EA00038BFBEF1004FBDE8104018BF7047002862
:104EB0000CBF491C20F00100704730D24FEAD42CBF
:104EC00011F5001124F400641BD0B1FA81F20B3A01
:104ED000A41AA41ED2F12003914030FA03F319431F
:104EE000904001EBCC71002C01EB0451BDE8104067
:104EF000A8BF704701F1C0414FF0000001F0004130
:104F00007047B0FA80F310FA03F100D110BDE41A33
:104F1000173C4805C90AE4E701EB045110BD4910EC
:104F200001EB0451BDE810404FEA300002E04FF0C1
:104F3000000170474A0008BF0042F8D0B2F5001FD8
:104F400028BF704701F000414FF0000070479EEA13
:104F5000445F07D011EA5E0FBDE8104004BF002196
:104F600000207047BDE8104070B5FFF7BFFE00BFDE
:104F700040DFF63E83F00041104670470000E0FF3E
:104F800043004FEAD30C4FEA3C0C43401FBF40079D
:104F90000CF1605113F0FE4F70471CF0006F03D10D
:104FA00000200CF0004170470CF0004343EA5070C1
:104FB00010B540EACC0000F00EF800BF00000092EF
:104FC0004FEA0001FFF7E0BE4FF000414FF0000054
:104FD000A1F5002170470EF1020E2EF0030E5EF8CF
:104FE000044B244204D44FEA4102B2F17F4F11D85E
:104FF0004FEA4003B3F17F4F0CD80ED14FEAD07C7B
:10500000B2F17F4F0CEB4C0C0CF1020C08BF4CEBD7
:10501000D17C04E04FF0080C01E04FEAD17C0CEBAE
:105020004C0324FA03F404F00704B4F1040C06D290
:105030000EEB840CBDE810404CF0010C6047DFE83B
:105040000CF0070802024FF00040A0F5800010BDF0
:105050000846420018BFD2F1807288BF00F00040BD
:1050600010BD4FF04070E1EE100A7047FF2141EA99
:10507000D050C0057047000610160006101600003C
:1050800000000000000001020304060708090000F8
:10509000000001020304005EBCE2613FDD83C29CAC
:1050A0007E20A3FD1F419DC3217FFCA2401E5F0106
:1050B000E3BD3E6082DC237D9FC1421CFEA0E1BFB8
:1050C0005D0380DE3C62BEE0025CDF81633D7C22EA
:1050D000C09E1D43A1FF4618FAA427799BC584DA18
:1050E0003866E5BB5907DB856739BAE406581947C6
:1050F000A5FB7826C49A653BD987045AB8E6A7F978
:105100001B45C6987A24F8A6441A99C7257B3A64A9
:1051100086D85B05E7B98CD2306EEDB3510F4E10D7
:10512000F2AC2F7193CD114FADF3702ECC92D38D85
:105130006F31B2EC0E50AFF1134DCE90722C6D3337
:10514000D18F0C52B0EE326C8ED0530DEFB1F0AE69
:105150004C1291CF2D73CA947628ABF51749085697
:10516000B4EA6937D58B5709EBB536688AD495CB45
:105170002977F4AA4816E9B7550B88D6346A2B75F7
:1051800097C94A14F6A8742AC896154BA9F7B6E829
:105190000A54D7896B350000891112239B322446AB
:1051A000AD573665BF74488CC19D5AAFD3BE6CCA2B
:1051B000E5DB7EE9F7F88110080193331A22A55642
:1051C0002C47B7753E64C99C408DDBBF52AEEDDA0B
:1051D00064CBFFF976E802218B3010029913266721
:1051E000AF763444BD554AADC3BC588ED19F6EEBEB
:1051F000E7FA7CC8F5D983310A2091121803A77702
:105200002E66B5543C45CBBD42ACD99E508FEFFBCA
:1052100066EAFDD874C904428D5316619F7020045C
:10522000A9153227BB364CCEC5DF5EEDD7FC6888AA
:10523000E1997AABF3BA85520C4397711E60A114C1
:105240002805B3373A26CDDE44CFDFFD56ECE9988A
:105250006089FBBB72AA06638F7214409D512225A0
:10526000AB343006B9174EEFC7FE5CCCD5DD6AA96A
:10527000E3B8788AF19B87730E6295501C41A33581
:105280002A24B1163807CFFF46EEDDDC54CDEBB94A
:1052900062A8F99A708B088481951AA793B62CC2DC
:1052A000A5D33EE1B7F04008C919522BDB3A644E52
:1052B000ED5F766DFF7C899400859BB712A6ADD219
:1052C00024C3BFF136E0C1184809D33B5A2AE55E32
:1052D0006C4FF77D7E6C0AA583B4188691972EE3F8
:1052E000A7F23CC0B5D14229CB38500AD91B666F12
:1052F000EF7E744CFD5D8BB502A499961087AFF3D9
:1053000026E2BDD034C1C3394A28D11A580BE77FF1
:105310006E6EF55C7C4D0CC685D71EE597F4288033
:10532000A1913AA3B3B2444ACD5B5669DF78600CD1
:10533000E91D722FFB3E8DD604C79FF516E4A99098
:105340002081BBB332A2C55A4C4BD7795E68E11CB1
:10535000680DF33F7A2E0EE787F61CC495D52AA177
:10536000A3B03882B193466BCF7A5448DD59622D91
:10537000EB3C700EF91F8FF706E69DD414C5ABB158
:1053800022A0B9923083C77B4E6AD5585C49E33D71
:105390006A2CF11E780F00004C5555555555A53F08
:1053A0007751C1166CC156BF9015CB19A001FA3EBA
:1053B000AD529C804F7E92BEC4B1B4BD9EEE213EE4
:1053C000D43888BEE9FAA8BD00004054FB21F93F5B
:1053D0003163621A61B4D03D0000601A61B4D03DFF
:1053E0007370032E8A19A33B0000002E8A19A33B79
:1053F000C14920259A837B3900000000000000008D
:105400006E83F9A22915444ED15727FCC0DD34F52F
:10541000999562DB4190433CAB6351FE61C5BBDEB5
:105420003A6E24B7E0D24D42EA2E49061C92D109C9
:105430001CEB1DFE3EA729B1F53582E88444BB2E46
:1054400026709CE9417E5FB439D69139F439538393
:105450008B5F849C3B28F9BDFF97F81F0F9805DEF2
:105460008B112FEF1F6D0A5ACF7E366DB709CB27F0
:10547000663F464F2DEA5F9EC7BA27757BF1E5EB85
:10548000F739073DEA92528AB15FFB6B085D8D1FC9
:10549000A6F810111111813FD561C119A0012ABFD1
:1054A0007DFEB157E31DC73EEB9C2B8AE6E55ABE55
:1054B0007CD5CF5A3AD9E53DD854000800000020E9
:1054C00094000000C40100086C55000894000020FE
:1054D0007C190000E001000800000000000000004E
:1054E0001027000000000000000000000000000085
:1054F00000000000000000000000000001000000AB
:105500000000000400040004000402000200000087
:10551000000000000000000000000000000000008B
:10552000000000000000000000000000000000007B
:10553000000000000000000000000000000000006B
:10554000000000000000000000000000000000005B
:10555000000000000000000001000000100000003A
:0C556000000000000024F400FFFF000029
:040000050800018965
:00000001FF
